:020000040800F2
:10000000906D012079990008D5030008D7030008F6
:10001000DB030008DF030008E30300080000000022
:100020000000000000000000000000009D0100082A
:10003000E703000800000000F1010008F5050008D2
:1000400093990008939900089399000893990008E0
:1000500093990008939900089399000893990008D0
:1000600093990008939900089399000893990008C0
:1000700093990008939900089399000893990008B0
:1000800093990008939900089399000893990008A0
:100090009399000893990008939900089399000890
:1000A0009399000893990008939900089399000880
:1000B0009399000893990008491B00089399000838
:1000C0009399000893990008939900089399000860
:1000D00093990008DD1600086F170008939900082F
:1000E0009399000893990008939900089399000840
:1000F0009399000893990008939900089399000830
:10010000939900089399000893990008939900081F
:10011000939900089399000893990008939900080F
:1001200093990008939900089399000893990008FF
:1001300093990008939900089399000893990008EF
:1001400093990008939900089399000893990008DF
:1001500093990008939900089399000893990008CF
:1001600093990008939900089399000893990008BF
:1001700093990008939900089399000893990008AF
:100180009399000893990008DFF80CD00EF09EFCBC
:100190000048004733030008906D01202A4B19687E
:1001A0000868B0E8F04F80F30988BFF36F8F4FF015
:1001B000000080F3118870470000000006480068C6
:1001C000006880F3088862B661B6BFF34F8FBFF353
:1001D0006F8F00DF00BF00BF08ED00E0DFF80C000C
:1001E000016841F470010160704700BF88ED00E0D4
:1001F000EFF30980BFF36F8F134B1A681EF0100FD7
:1002000008BF20ED108A20E9F04F106008B44FF0CD
:10021000100080F31188BFF34F8FBFF36F8F0AF088
:100220009BFD4FF0000080F3118808BC1968086836
:10023000B0E8F04F1EF0100F08BFB0EC108A80F34A
:100240000988BFF36F8F704750000020EFF30580DF
:100250007047000000BF01E000F0BCFBFCE710B5F8
:10026000044600BF06F089FE10BD00BFAFF21103C7
:100270004FF6FF724FF4FA71022001F045FB30E0B7
:1002800000F021FD00F074FC0446002C26D0012C67
:1002900006D0042C0DD0072C14D00A2C1CD116E04B
:1002A0000121092010F0E6FF38A13A4801F06CF86E
:1002B00013E001210D2010F0DDFF37A1354801F0DA
:1002C00063F80AE036A1334801F05EF805E036A194
:1002D000304801F059F800E000BF00BF0A200AF0E2
:1002E00033FCCDE71FB50020314A0423CDE90120BE
:1002F0000093039003464FF480622EA1AFF2950065
:100300000AF047F900202E4A0223CDE9012000938C
:10031000039003464FF400622AA1AFF2C7000AF02F
:1003200038F91FBD10B5012009F067FD28490860A4
:1003300010BD00BF012080F3108800BF01F099FAC2
:10034000FFF7F0FF01F09BFC0DF08AF9C1210020BE
:100350000DF0CFF9C12101200DF0CBF9C121022010
:100360000DF0C7F9C12103200DF0C3F9C12104200C
:100370000DF0BFF9C12105200DF0BBF90DF0B0F96A
:10038000FFF7B0FF0AF083FE00BFFEE76B6579312F
:100390000A0000000C0800206B6579320A0000009A
:1003A0006B6579330A0000006B6579340A00000040
:1003B000000000205461736B5F4D61696E000000A6
:1003C000040000205461736B5F4755490000000032
:1003D00038000020704700BFFEE700BFFEE700BF07
:1003E000FEE700BFFEE770470CB5002001900090CB
:1003F0007548006840F480307349086000BF724857
:10040000006800F4003000900198401C01900098B2
:1004100018B90198B0F5A04FF1D16B48006810F4FD
:10042000003F02D00120009001E0002000900098E1
:10043000012845D164484030006840F0805062494E
:10044000403108606148006840F440405F490860FE
:100450005D48083000685C4908310860084600685B
:1004600040F4004008600846006840F4A05008606E
:100470005748091F0860081F006840F08070091F76
:10048000086000BF5048006810F0007FFAD040F2CA
:100490000570504908604C480830006820F003009F
:1004A0004949083108600846006840F002000860C9
:1004B00000BF45480830006800F00C000828F8D15B
:1004C0000CBD10B54448006840F470004249086013
:1004D0003D48006840F001003B49086000203A496F
:1004E00008310860384800683C49084036490860CF
:1004F0003B48091D0860081F006820F48020091F80
:100500000860002030490C310860FFF76DFF4FF0A4
:10051000006031498039086010BD70B500200022AC
:10052000022300240221284D08352D6805F00C0017
:1005300020B1042806D0082834D107E0294D2A4EDE
:10054000356033E0294D284E35602FE01E4D2D1DBE
:100550002D68C5F380541C4D2D1D2D6805F03F01FD
:1005600054B1224DB5FBF1F5174E361D3668C6F372
:10057000881605FB06F209E01A4DB5FBF1F5124E9F
:10058000361D3668C6F3881605FB06F20E4D2D1D86
:100590002D68C5F301456D1C6B00B2FBF3F5124EDF
:1005A000356003E00F4D104E356000BF00BF064DB3
:1005B00008352D68C5F303150D4E705D0A4D2D6885
:1005C000C540094E356070BD0038024000700040E3
:1005D00008544007003C024088ED00E0FFFFF6FEB3
:1005E000103000240024F4000800002000127A00DB
:1005F0000C00002010B53B48007810B10BF039FF1B
:1006000006E00BF02CF8012802D0012035490870D3
:1006100010BD70B50446042006F029FD3248047070
:1006200025464FF47A7045430120304908804FF049
:10063000E020006940F002004FF0E0210861084628
:100640004561006940F00100086170BD70B5034666
:1006500000224FF0E0267569234E367803FB06F43E
:100660004FF0E026B16910E04FF0E026B069884213
:100670000BD0884202D20E1A324402E02E1A0E44E7
:1006800032440146A24200D300E0EDE700BF70BD56
:1006900070B504460AF0E3FF012810D01348008823
:1006A000844206D311480088B4FBF0F528460AF0CE
:1006B0004BFA0E480088B4FBF0F100FB11444FF4F4
:1006C0007A7104FB01F0FFF7C1FF70BD30B504463D
:1006D000002504E04FF47A70FFF7B8FF6D1CA542C7
:1006E000F8D330BD200000201C0000201E00002098
:1006F0007CB513F0FBFB0546002000902B46BC4A5E
:1007000003210190BB480FF073FB044620467CBDDB
:100710002DE9F041044620680F2822D01D2802D080
:10072000262851D124E0676840F60101606813F083
:10073000E9FB0746B04938460EF018FCAFA1384631
:100740000EF031FC40F60201606813F0DBFB074657
:10075000AC4938460EF00AFCABA138460EF023FC3B
:1007600036E04FF47F0010F093FD0FF0FFFA2FE01A
:10077000A06813F0F5FB0646E568A6F500600138B1
:1007800002D001281ED10EE0012D02D0022D08D189
:1007900000E006E0002160680FF0CAFEFFF7A8FF46
:1007A00000BF00BF0EE0012D02D0022D08D100E0F5
:1007B00006E0002160680FF0BBFE00F07EF800BF8D
:1007C00000BF00BF00BF03E0204613F053FA00BF94
:1007D00000BFBDE8F0817CB513F088FB0546002022
:1007E00000902B468A4A042101908A480FF000FBB2
:1007F000044620467CBD2DE9F041044620680F28C0
:1008000022D01D2802D0262850D123E0676840F668
:100810000101606813F076FB0746774938460EF011
:10082000A5FB7DA138460EF0BEFB40F602016068D4
:1008300013F068FB0746704938460EF097FB79A124
:1008400038460EF0B0FB35E0FF2010F021FD0FF030
:100850008DFA2FE0A06813F083FB0646E568A6F545
:100860000060013802D001281ED10EE0012D02D017
:10087000022D08D100E006E0002160680FF058FE6C
:10088000FFF736FF00BF00BF0EE0012D02D0022DA2
:1008900008D100E006E0002160680FF049FEFFF794
:1008A0009AFF00BF00BF00BF00BF03E0204613F067
:1008B000E1F900BF00BFBDE8F0817CB513F016FB85
:1008C0000546002000902B46594A042101905948C2
:1008D0000FF08EFA044620467CBD2DE9F041044617
:1008E00020680E2839D00F2830D01D2802D02628A5
:1008F00069D13CE0676840F60101606813F002FBD3
:1009000007464D4938460EF031FB4CA138460EF0F3
:100910004AFB40F60201606813F0F4FA07464649C4
:1009200038460EF023FB38A138460EF03CFB40F66B
:100930000301606813F0E6FA0746424938460EF0B4
:100940005FFB41A138460EF072FB40E04FF47F4060
:1009500010F09EFC0FF00AFA39E0E06800680D28FC
:1009600002D01B2801D100E000BF00BF2FE0A0682B
:1009700013F0F6FA0646E568A6F50060013802D0E5
:1009800001281ED10EE0012D02D0022D08D100E079
:1009900006E0002160680FF0CBFDFFF71CFF00BFF1
:1009A00000BF0EE0012D02D0022D08D100E006E0CC
:1009B000002160680FF0BCFDFFF77FFF00BF00BFA4
:1009C00000BF00BF03E0204613F054F900BF00BF92
:1009D000BDE8F08100BF0FF0D5FE042013F068FDE4
:1009E000FFF786FE03E04FF4FA700FF025FBFAE7FD
:1009F000DB0800088C98010888B60108B4B0BFDA9B
:100A0000203100000CEB0108B4B0BFDA2033000045
:100A100011070008E098010857696E646F7720316C
:100A20000000000057696E646F77203200000000FC
:100A3000F707000850990108400E0208B4B0BFDA69
:100A400020320000B4FD0108436865636B000000BC
:100A5000A248006910F0100F01D10120704700205A
:100A6000FCE79E48006910F0080F01D10120704793
:100A70000020FCE79948006910F0040F01D1012023
:100A800070470020FCE79648006910F0010F01D183
:100A9000002070470120FCE71CB50121112006F061
:100AA000FBFF00208DF804008DF8060001208DF872
:100AB000070002208DF80500102000906946874845
:100AC00006F04CFD082000906946844806F046FD7B
:100AD000042000906946814806F040FD02208DF810
:100AE00007000120009069467D4806F037FD1CBDD7
:100AF00000217C4A9172D1721173002018E06421A8
:100B0000794A02EB001211810221774A02EB0012AE
:100B100011710021744A02EB00129172724A02EBC9
:100B20000012D172704A02EB00121173411CC8B25C
:100B30000428E4DB6D496C4A11606D4911616D490F
:100B400011626D491163704710B5FFF7D1FFFFF7D0
:100B5000A3FF10BD6349C97A624A50541146C97A4D
:100B6000491CC9B2D1720A2901DB0021D172704738
:100B70005C48807A5B4AD27A904201D1002070476B
:100B80005848807A574A115C1046807A401CC0B29F
:100B900090720A2801DB002090720846EFE7514866
:100BA000007B504AD27A904201D1002070474D48D4
:100BB000007B4C4A115C1046007B401CC0B2107395
:100BC0000A2801DB002010730846EFE7014646487B
:100BD00000EB0110807A704710B5434B03EB001314
:100BE0001981414B03EB0013DA7200233E4C04EBF6
:100BF0000014237310BD3B48C07A3A49887270478D
:100C000070B50546384800EB051420688047002879
:100C10003ED02079052802DA0520207152E02079A3
:100C20000A2803DA2079401C20714BE0A07A38B9F9
:100C30000120A07205EB4501491CC8B2FFF78AFFED
:100C4000208900283EDDE088218988420DDAE0888D
:100C5000401C80B2E0802189884233D105EB4501F8
:100C6000C91CC8B2FFF776FF2CE0E07A002829DD26
:100C7000207B401CC0B22073E17A884222DB002036
:100C8000207305EB4501491CC8B2FFF763FF19E06B
:100C90002079052802DD0520207110E0207918B1A7
:100CA0002079401E20710AE0A07A012807D1002097
:100CB000A07205EB4501891CC8B2FFF74BFF00206D
:100CC000E080207370BD10B5002404E02046FFF7DB
:100CD00097FF601CC4B2042CF8DB10BD001002406A
:100CE000000002405404002014040020510A0008AF
:100CF000630A0008750A0008870A000870B50446F0
:100D00000D4600BF0221204607F028FA0028F9D03E
:100D100002E0634807F0D6F90121614807F01EFAA6
:100D20000128F6D02946204607F0CFF900BF01215F
:100D3000204607F013FA0028F9D0204607F0C2F940
:100D4000C0B270BD70B504460D4629462046FFF777
:100D5000D5FF70BD10B588B0044602208DF81C0088
:100D600000208DF81E0002208DF81D0001208DF856
:100D70001F000020ADF804004FF48270ADF80600AB
:100D80000020ADF808000220ADF80A000120ADF8FF
:100D90000C004002ADF80E003820ADF81000002025
:100DA000ADF812000720ADF814003E48844225D16A
:100DB0000121022006F070FE0121080306F0C6FEA4
:100DC0003820069006A9384806F0C8FB0522032102
:100DD000354806F04EFC05220421334806F049FC54
:100DE00005221146304806F044FC0121080306F0B4
:100DF00002FF0021A01406F0FEFE2CE028488442E9
:100E000025D10121022006F047FE0121880306F0CA
:100E10008CFEA000069006A9234806F09FFB052241
:100E20000D21214806F025FC05220E211E4806F062
:100E300020FC05220F211C4806F01BFC0121880321
:100E400006F0C8FE0021201406F0C4FE03E0174897
:100E5000844200D000BF01A9204606F0BDFF012159
:100E6000204607F0B1F8FF212046FFF76BFF08B0DE
:100E700010BD70B504460D4620884FF6C771084076
:100E800020802088284320800121204607F09CF8FC
:100E900070BD10B5044600212046FFF72FFF10BD9E
:100EA000003800400030014000040240003C004097
:100EB00010B50446D4E901010DF019FB0020A06132
:100EC000E061207B012802D00020206160610020C9
:100ED00010BD70B50446206908B120698047E569F6
:100EE000606908B160698047284670BD70B50446E6
:100EF0000025206908B120698047E169A068451A8A
:100F0000606908B160698047284670BD2DE9F041ED
:100F100004460F4615460026B046206908B12069F0
:100F20008047E169A068A0EB0108A84506D2606986
:100F300008B1606980470020BDE8F08100260CE020
:100F4000B85DA26961688854A069401CA061A1686D
:100F5000884201D30020A061761CAE42F0D3E06944
:100F60002844E061606908B1606980470120E3E7D7
:100F70002DE9F04104460F4615460026206908B1C8
:100F800020698047A068A84206D2606908B16069FC
:100F900080470020BDE8F08100260CE0B85DA26922
:100FA00061688854A069401CA061A168884201D38F
:100FB0000020A061761CAE42F0D3E0692844E061D5
:100FC000A168E069884201D9A068E061606908B160
:100FD000606980470120DDE72DE9F04104460E46B7
:100FE00017460025A846206908B120698047E069B6
:100FF00030B9606908B1606980470020BDE8F081C0
:10100000D4E90601451A002D01DAA06805440FE075
:1010100028466D1C6268105C06F8010BA068A842A7
:1010200000D8002508F101087F1EE069401EE0613C
:1010300017B1E0690028EBD1606908B160698047A9
:101040004046DBE72DE9F04704460F469046002571
:10105000A9460026206908B120698047E66936B9AB
:10106000606908B1606980470020BDE8F087A06929
:10107000851B002D01DAA06805440EE028466D1C92
:101080006268105C07F8010BA068A84200D8002530
:1010900009F10109A8F10108761EB8F1000F01D08D
:1010A000002EEBD1606908B1606980474846DCE7F3
:1010B00010B50446206908B1206980470020E0612E
:1010C000606908B16069804710BD70B504460D467F
:1010D0000026206908B120698047E069A84203D949
:1010E000E069401BE06101E00020E061E6696069C1
:1010F00008B160698047304670BD000010B53821E6
:10110000FE480DF0F4F9FE48FC490860012081F822
:101110002400FC4888618020C8610A46D169906932
:101120000DF0E5F9F648001DF4494860F64888607E
:101130004FF00060C860F448B8300861F348486177
:10114000F348C862F3480863002081F8340081F84E
:101150003500012008F051FEE8498862EE48C96A6E
:1011600048604FF40070E549C96A88600020E3498F
:10117000C96A0873E149C96A0861E049C96A4861F6
:10118000E6A0DE49C96A0860E948DC49096B4860A5
:101190000A20DA49096B88600020D849096B087376
:1011A000D649096B0861D549096B4861E1A0D3496B
:1011B000096B08600020D14981F835003821E248E8
:1011C0000DF095F9E148E0490860012081F824001C
:1011D000DF4888618020C8610A46D16990690DF0B6
:1011E00086F9DA48001DD8494860DA4888604FF02F
:1011F0000060C860D748A0300861D7484861D74828
:10120000C862D7480863002081F83400012081F8C3
:10121000350008F0F2FDCC498862D248C96A4860BE
:101220004FF40070C849C96A88600020C649C96A7D
:101230000873C549C96A0861C349C96A4861CAA037
:10124000C149C96A0860CD48BF49096B48600A2096
:10125000BD49096B88600020BB49096B0873BA4916
:10126000096B0861B849096B4861C5A0B649096BAB
:1012700008600120B44981F8350010BD10B590B068
:1012800004460020059004200C9001200D900020C1
:101290000E9009904FF48060079000200A906068DB
:1012A000029000200F90089006904FF480300B9031
:1012B000E068019040200490A069039001A9206992
:1012C00005F096FFD4E9040106F09EF8002120699C
:1012D00005F0C8FF10B010BD70B506460D461446A7
:1012E00005B970BD94F82400012803D1002084F8CA
:1012F000240006E000BFD4E9040106F010F800283D
:10130000F9D0E169A94201D2E16900E029460A4623
:101310003146A0690DF0C4F82069006820F0010092
:1013200021690860606910F0005F05D09949606923
:101330000840A168C86004E0964960690840A16857
:1013400088602169A069C8602069456020690068DB
:1013500040F001002169086000BFC2E770B5044693
:101360000D461646002364221946A06A08F073FE53
:10137000224631462846FFF7AFFF00231A4619469A
:10138000A06A08F06EFC70BD0FB438B504460025A5
:10139000002364221946A06A08F05DFE06A80090AA
:1013A0004FF496717C48009B059A17F0FFFB0546A9
:1013B00045B900231A461946A06A08F052FC38BC09
:1013C0005DF814FB00200090A9B222467248FFF796
:1013D00083FF00231A461946A06A08F042FC00BFAA
:1013E000EDE730B587B004460D4602208DF80800C1
:1013F00000208DF80A0003208DF8090000208DF8E8
:101400000B0001208DF8010002208DF80200012060
:101410008DF803003A492068884217D14FF4C06024
:10142000019001A95D4806F099F8072209215B485F
:1014300006F01FF907220A21584806F01AF925205C
:101440008DF80000684605F0C4FD27E03F4920689C
:10145000884216D10C20019001A9504806F07EF870
:10146000072202214D4806F004F9072203214B48C8
:1014700006F0FFF826208DF80000684605F0A9FD6B
:101480000CE047492068884208D0464920688842D5
:1014900004D045492068884200D000BF2046FFF7AD
:1014A000EDFE28680390A888ADF81000E888ADF834
:1014B00012002889ADF814000020ADF818000C20A7
:1014C000ADF8160003A9206807F031FD202120683F
:1014D00007F09DFE40F22551206807F0DCFE012256
:1014E00040F22551206807F060FE0122802120682B
:1014F00007F052FE0121206858E00000E4040020BB
:1015000000100140640400200064024000800028B4
:101510001C070020680700201C05002075617274FC
:10152000315F72785F646174615F6669666F000045
:1015300040070020756172743120727820636E74E8
:10154000206669666F0000000C080020004400401F
:101550008C0700200060024000802020440A002008
:10156000900A00204408002075617274325F72781E
:101570005F646174615F6669666F0000680A0020DD
:10158000756172743220727820636E7420666966A9
:101590006F0000007D0F7D0FB40A002000000240A4
:1015A00000480040004C00400050004007F047FD5C
:1015B00007B030BD0EB50020ADF80800ADF804004E
:1015C000ADF80600FFF79AFD4FF4E1300090694650
:1015D0008248FFF706FF8248FFF76AFC8148FFF761
:1015E00067FC4FF4E130009069467F48FFF7F9FE51
:1015F0007E48FFF75DFC7E48FFF75AFC0EBD10B534
:1016000004460AF0F2FE206BFFF752FDE06AFFF796
:101610004FFD0AF012FF10BD2DE9F843044688463D
:1016200016461F4600200090002504226946206BC4
:10163000FFF7D2FC009810B90020BDE8F8830098AD
:10164000874201D9009800E0384605462A464146BF
:10165000E06AFFF7F7FCA84204D02046FFF7CFFF6F
:101660000020EAE7E06A0099FFF72FFD35600120CE
:10167000E3E710B504460AF0B8FE012084F8340010
:101680000AF0DBFE2046FFF7BAFF10BD10B5044696
:1016900094F8350000F069F90AF0A7FE002084F8FC
:1016A00034000AF0CAFE2046FFF7A9FF10BD38B586
:1016B00004460020009000BF012000F08BF84D4848
:1016C0000068009000204B49086000F083F843490F
:1016D0000422086B6946FFF719FC38BD08B50020E5
:1016E000009040F22551444807F09AFD10B342485B
:1016F0008088C0B2009039490122C86A6946FFF764
:1017000005FCB8B1354890F83400012812D100F03A
:1017100061F838480068401C36490860002000F035
:1017200059F82E4991F83500AFF27D0301220821C6
:1017300000F0EAF840F225512F4807F0ACFD08BD53
:1017400038B504460020009000BF012000F042F8A8
:101750002A480068009000202849086000F03AF804
:1017600021490422086B6946FFF7D0FB38BD08B554
:101770000020009040F22551214807F051FD18B398
:101780001F48001D0088C0B2009017490122C86A96
:101790006946FFF7BBFBB8B1134890F83400012845
:1017A00012D100F017F815480068401C1349086072
:1017B000002000F00FF80C4991F83500AFF27F03DC
:1017C0000122082100F0A0F840F225510C4807F052
:1017D00062FD08BD80F3108870470000E40400201B
:1017E0001C070020680700200C080020440A002085
:1017F000900A002024000020001001402800002052
:101800000044004010B5FEF788FE254806F073F846
:101810000121080306F040F90121880306F096F93A
:1018200001211F2006F038F90121080306F08EF986
:101830000121880306F079F90121102006F086F9CC
:101840000121480406F071F90121880506F024F908
:101850000121480506F020F90121022006F065F972
:101860000121042006F061F90121480406F06EF917
:1018700010BD10B54FF4407005F0A6FBFFF7C2FF96
:10188000A820FEF7C6FEFFF75FF901F0EEFB05F0BA
:101890005DFBFFF78FFE00F075FA00F003F810BD56
:1018A000E00B00201FB5AC4806F088FC1E208DF828
:1018B000000003208DF8010000208DF802000120B7
:1018C0008DF80300684605F084FB40F24730ADF820
:1018D0000400C72002900020ADF80C00ADF806000F
:1018E00001A99D4806F017FD01219B4807F0C8F9A2
:1018F0000121994806F098FD01221146964807F00B
:10190000ABF91FBD70477047F0B504461D46002374
:10191000072C01DD0020F0BD09B90020FBE74B08D2
:1019200003B9012302B90122FFF7ECFF04EB8400A5
:101930008A4E06EB8000436004EB840006EB8000D7
:10194000836004EB840006EB8000C26004EB84003B
:1019500006EB80000561012004EB84067F4F07F849
:101960002600FFF7D0FF0120D5E700B5072800DDEE
:1019700000BDFFF7C7FF002100EB8002774B03EBB0
:101980008202516000EB800203EB8202116100EBE6
:10199000800203F8221000EB800203EB82029160C8
:1019A00000EB800203EB8202D160FFF7ACFF00BFC7
:1019B000DEE700B50146FFF7A5FF01EB8102674BAB
:1019C00013F82200FFF79FFF00BD2DE9F04100242E
:1019D00000270025002600BF6CE0FFF793FF04EB13
:1019E00084005E4911F8207004EB840001EB800054
:1019F0004568FFF788FF012F00D059E08DB1FFF750
:101A000081FF04EB8400554901EB80004068401ED3
:101A100004EB8401514A02EB810148606D1EFFF71F
:101A200072FF002D43D1FFF76DFF04EB84004B499B
:101A300001EB8000066904EB840001EB8000C068C4
:101A400090B104EB840001EB8000C068401C0BD017
:101A500004EB840001EB8000C068401E04EB8401AD
:101A60003E4A02EB8101C86004EB84003B4901EB74
:101A70008000C06858B104EB840001EB80008068EE
:101A800004EB8401354A02EB810148600AE0002042
:101A900004EB8401314A02F8210004EB840102EBDB
:101AA00081010861FFF72FFF0EB10020B04700BF92
:101AB000601CC4B2072C90DD2948036840685A1C9A
:101AC00040F1000026490A604860BDE8F0811CB57D
:101AD00000220121204807F0BFF821480168406832
:101AE000CDE90010012211461B4807F0B5F8DDE9E9
:101AF00000011CBD1CB5044660080021CDE90001B1
:101B00000023DDE9001059405840014303D1012171
:101B10000020CDE90010FFF7DAFFDDE9002380188F
:101B200059411CBD13B582B0FFF7D1FFCDE90001CB
:101B3000DDE90030DDE90212591A904102D301209B
:101B400004B010BD0020FBE710B50121024807F0EA
:101B5000ABF8FFF73AFF10BD00080040F00B002083
:101B6000300000205549095C11F0010F02D000F14E
:101B70002001C8B270475149095C11F0020F02D030
:101B8000A0F12001C8B2704770B504460D46164654
:101B900000235A1E19464A48006808F05CFAC4EB54
:101BA000C401C1EB8411474A02EB41002A46314689
:101BB0000CF076FC00231A4619464148006808F0EC
:101BC00050F870BD70B504460D46164600235A1EE7
:101BD00019463B48006808F03EFA3A4801192A467F
:101BE00030460CF05DFC00231A4619463448006864
:101BF00008F037F870BD10B500235A1E194630485A
:101C0000006808F028FA70212E4800F08DF82D4960
:101C1000A1F8700072224FF4E0012A4800F062FA45
:101C200000231A4619462648006808F01AF810BD25
:101C300000B59DB0742168460CF059FC22A003C881
:101C4000CDE9000122A00168CDF81F104168CDF850
:101C500023108068CDF827000F2220A10DF13E004F
:101C60000CF01EFC42F25B50ADF86E006A46722129
:101C70000020FFF789FFFFF7BEFF1DB000BD1CB5B8
:101C8000002472224FF4E0010E4800F030F9702178
:101C90000C4800F049F804460A48B0F87000A04229
:101CA0000BD012A024211A4B1AA2CDE9001017A1C3
:101CB00004200BF0CDFAFFF7BBFF1CBDCB99010848
:101CC00038000020900C00204A5A5F5445434800D9
:101CD0004A7A313233343536373738003137322E9D
:101CE00031382E3131382E31393800002070617290
:101CF000616D20636865636B206661696C65642C47
:101D00007365742064656661756C74200000000062
:101D1000C09901082E2E5C757365725C7372635CEA
:101D2000706172616D2E630070B502460C46FF252E
:101D3000FF2309E012F8010B80EA03010648405C2A
:101D400080EA05030548455C2000A4F10106B4B211
:101D5000F0D143EA052070BDCB9A0108CB9B010866
:101D60007047704710B504462146F948FEF7C6FF94
:101D700010BD10B5FF21F648FEF7C0FF10BDF549B4
:101D8000086070471CB50121022005F085FE4FF464
:101D90008040009001208DF8040000208DF806009E
:101DA00003208DF8050001208DF807006946EA48F8
:101DB00005F0D4FB0120E7490860E548FEF7CAFFBB
:101DC0000021E648FFF755F84FF40000E449486168
:101DD000C0120883FFF7CDFFFFF7CBFFFFF7C9FF66
:101DE0001CBD10B50020FFF7CAFF0520FFF7BAFFA2
:101DF00000BFFFF7BEFF10F0010FFAD10120FFF77F
:101E0000BEFF10BD10B50020FFF7B9FF0620FFF799
:101E1000A9FF0120FFF7B3FF10BD10B50446FFF77F
:101E2000F1FF0020FFF7ABFF2020FFF79BFFC4F37B
:101E30000740FFF797FFC4F30720FFF793FFE0B2D7
:101E4000FFF790FF0120FFF79AFFFFF7CAFF10BDD1
:101E500010B5FFF7D7FF0020FFF791FFC720FFF76E
:101E600081FF0120FFF78BFFFFF7BBFF10BD2DE9BE
:101E7000F04106460C4615464FF0000824E0FFF7F7
:101E8000C1FF0020FFF77BFF0220FFF76BFFC4F3C9
:101E90000740FFF767FFC4F30720FFF763FFE0B2D7
:101EA000FFF760FF002704E016F8010BFFF75AFF69
:101EB0007F1CFF2FF8D90120FFF761FFFFF791FF8B
:101EC00004F5807408F10108E91705EB1161B8EB1E
:101ED000212FD4D30020FFF752FF0420FFF742FF49
:101EE0000120FFF74CFFFFF77CFFBDE8F08170B5E4
:101EF00006460C46154625B160199949496988423C
:101F000000D970BD0020FFF73AFF0320FFF72AFF3A
:101F1000C4F30740FFF726FFC4F30720FFF722FFB3
:101F2000E0B2FFF71FFF03E0FFF723FF06F8010B06
:101F30002800A5F10105F7D10120FFF720FF00BF20
:101F4000DFE72DE9F04104460E4615466019844945
:101F50004969884202D90120BDE8F0810DB900200D
:101F6000FAE70020FFF70BFF0320FFF7FBFEC4F3A7
:101F70000740FFF7F7FEC4F30720FFF7F3FEE0B2D8
:101F8000FFF7F0FE0BE0FFF7F4FE074616F8011B23
:101F9000B94204D00120FFF7F2FE0120DCE728005F
:101FA000A5F10105EFD10120FFF7E9FE0020D3E7FD
:101FB00070B5034600240BE013F8015BE843C5B29B
:101FC00011F8010B284201D0012070BD601C84B2C1
:101FD0009442F1DB0020F8E72DE9F05F07460D465B
:101FE000164616B90120BDE8F09F5D484069A84239
:101FF00001D80020F7E75A48008BB04201DA0020F0
:10200000F1E7324629465748FFF771FF3246394615
:1020100054480CF0A6FA08B90120E4E74FF0000A92
:10202000324639464F48FFF7C3FF08B14FF0010A67
:102030004B48008B401E25EA00084948008BB042FF
:102040000BD1002404E0385D46490855601C84B279
:102050004348008BA042F6DC10E04148028B414629
:102060004048FFF744FF3E48008B401E284084B2A2
:102070003C490819324639460CF012FA4FF0000B71
:1020800000242AE0BAF1010F02D14046FFF7C5FE55
:102090003348028B41463348FFF7E9FE3246394662
:1020A0002846FFF74EFF10B94FF0010B17E03246FC
:1020B00039462846FFF745FF10B94FF0010B0EE0F7
:1020C0004FF0000903E009F101001FFA80F942F224
:1020D00010708145F7DB601C84B2032CD2DB00BF9B
:1020E000584680E72DE9F05F07460D4616464FF04B
:1020F0000008C146C2460024A3461948008BB5FB20
:10210000F0F100FB11501FFA80FA1548008BA0EB8C
:102110000A0084B21248008B96FBF0F01FFA80F898
:102120000F48008B96FBF0F100FB11601FFA80F95D
:10213000BAF1000F37D1B8F1000F15D13246294658
:102140003846FFF749FF002874D1BDE8F09F000032
:1021500000300140B8824042000402400038004094
:10216000040D0020200D00200EE04E48028B294671
:102170003846FFF731FF08B90020E6E74948008BF1
:1021800005444848008B07445FEA0800A8F10101B4
:102190001FFA81F8E9D14A4629463846FFF71CFF65
:1021A000002860D1D1E7B8F1000F1FD1A14515DD9E
:1021B000A9EB04001FFA80FB224629463846FFF7A8
:1021C0000BFF08B90020C0E7254427445A4629469A
:1021D0003846FFF701FF002845D1B6E732462946C9
:1021E0003846FFF7F9FE28BB0020AEE7301B86B269
:1021F0002C48008B96FBF0F01FFA80F82948008BE2
:1022000096FBF0F100FB11601FFA80F92246294687
:102210003846FFF7E1FE08B9002096E72544274439
:102220000FE02048028B29463846FFF7D5FE10B94B
:1022300000208AE717E01B48008B05441948008BF3
:1022400007445FEA0800A8F101011FFA81F8E8D10C
:10225000B9F1000F07D04A4629463846FFF7BCFEC1
:1022600008B9002071E701206FE72DE9F041002057
:10227000FFF785FD9F20FFF775FDFFF77AFD054607
:10228000FFF777FD0646FFF774FD07460120FFF7CD
:1022900076FD280440EA062040EA07042046BDE80F
:1022A000F0810000040D002001B5BDF80000009091
:1022B000BDF80000FB49088008BD01B5BDF800006D
:1022C0000090BDF80000F849088008BD08B5F64840
:1022D00000880090BDF8000008BD03B5BDF80000FF
:1022E000F0490880BDF804004FF0D841A1F8800003
:1022F0000CBD01B5BDF80000FFF7D6FF0520FEF7C5
:10230000A5F9FFF7E3FF08BDE8480089E549088023
:102310007047E5490880704730B5014601F01F0459
:10232000C1F34513CA0AE50205EB43151544A8B2EB
:1023300030BD00BF0100A0F10102D0B2FAD1704758
:1023400030B504460D46D9488088A0F5134141397F
:1023500005D0D6488088A0F5A641103914D1D349BC
:102360004889FFF7A1FF2012FFF7A7FFE0B2FFF7B0
:10237000A4FFCE498889FFF797FF2812FFF79DFF3A
:10238000E8B2FFF79AFFABE0C8488088A0F5D041DB
:1023900004391DD1C5488079012804D1C34800887B
:1023A000401E001B84B2C1494889FFF77DFF2012FF
:1023B000FFF783FFE0B2FFF780FFBC498889FFF792
:1023C00073FF2812FFF779FFE8B2FFF776FF87E087
:1023D000B6488088A0F5C851633947D1B3488079A1
:1023E000A8B9B2480088401E001B84B2AF49488992
:1023F000FFF75AFF0020FFF760FF0020FFF75DFFA7
:102400002012FFF75AFFE0B2FFF757FF16E0A74987
:102410004889FFF749FF2012FFF74FFFE0B2FFF7AF
:102420004CFFA2490988491EC1F30F20FFF745FF61
:102430009E490978491EC8B2FFF73FFF9B4988892A
:10244000FFF732FF2812FFF738FFE8B2FFF735FF3A
:1024500096494988491EC1F30F20FFF72EFF934983
:102460008978491EC8B2FFF728FF39E08F48808875
:10247000A0F5AA41103920D18C494889FFF714FFF3
:102480002012FFF71AFF89494989491C88B2FFF7D2
:102490000BFFE0B2FFF711FF84498889FFF704FFC3
:1024A0002812FFF70AFF81498989491C88B2FFF782
:1024B000FBFEE8B2FFF701FF12E07C4880790128BB
:1024C00004D17A480088401E001B84B277494889AD
:1024D0002146FFF702FF754988892946FFF7FDFE6F
:1024E00030BD3EB504460D4600200290019000909C
:1024F0006E480088A04203DD6C484088A84201DC99
:1025000000203EBD29462046FFF71AFF6748808815
:10251000A0F51341413911D064488088A0F5D0411D
:1025200004390BD061488088A0F5A641103905D048
:102530005E488088A0F5C851633903D12E20FFF78B
:10254000B3FE0DE059488088A0F5AA41103904D1A6
:102550004FF43850FFF7A8FE02E02220FFF7A4FE58
:1025600052488088A0F51341203902D10220FFF79C
:10257000E0FEFFF7ABFE02904C488088A0F5C85102
:10258000633902D1BDF80800BBE70220FFF7D1FE96
:10259000FFF79CFE029045488088A0F51341413921
:1025A0000BD042488088A0F5A641103905D03F489D
:1025B0008088A0F5AA41103910D10220FFF7B9FE9A
:1025C000FFF784FE0090BDF80800C0B20190BDF88E
:1025D00004004FF6FF7101EA002001903348808823
:1025E000A0F51341253917D030488088A0F58A41DD
:1025F000353911D02D488088A0F58A4131390BD06A
:102600002A488088A0F53541053905D027488088BB
:10261000A0F54541053902D1BDF8080071E723480E
:102620008088A0F5134141390BD020488088A0F55F
:10263000A641103905D01D488088A0F5AA4110395F
:102640000DD1BDF80800C012C002BDF804108912F7
:1026500040EA4110BDF8001040EAE12051E7BDF822
:102660000800FFF759FE4CE700B510488088A0F538
:102670001341413911D00D488088A0F5D04104396B
:102680000BD00A488088A0F5A641103905D007482C
:102690008088A0F5C85163390AD12920FFF704FECC
:1026A00016E000007E00006C8000006C201D002001
:1026B000FE488088A0F5AA41103904D14FF4245077
:1026C000FFF7F2FD04E040F273110720FFF705FE6B
:1026D00000BD00B5F5488088A0F51341413911D0FF
:1026E000F2488088A0F5D04104390BD0EF488088AB
:1026F000A0F5A641103905D0EC488088A0F5C85156
:10270000633903D12820FFF7CFFD0EE0E74880882A
:10271000A0F5AA41103904D14FF42050FFF7C4FDB1
:1027200003E000210720FFF7D8FD00BDF0B5054606
:1027300000240027DD48807901280BD1DB48808800
:10274000A0F5D041043905D0D8488088A0F5C851FB
:10275000633908D1D5488079F0B9D4488088A0F58C
:10276000C851633918D1082D15D2DFE805F00406E9
:10277000080A0C0E101206250DE007250BE00425B3
:1027800009E0052507E0012505E0002503E0032514
:1027900001E0022500BF00BFC4488088A0F51341B6
:1027A000413917D0C1488088A0F5D041043911D0F3
:1027B000BE488088A0F5A64110390BD0BB48808860
:1027C000A0F5AA41103905D0B8488088A0F5C851B5
:1027D00063397DD1082D1CD2DFE805F00406090C11
:1027E0000F12151800BF14E044F0800411E044F00B
:1027F00040040EE044F0C0040BE044F0200408E084
:1028000044F0600405E044F0A00402E044F0E00479
:1028100000BF00BFA5488088A0F5AA41103902D1A9
:102820004FF4585700E03627A0488088A0F5A6410D
:1028300010390DD09D488088A0F5AA41103907D0E5
:102840009A488088A0F5C851633901D044F0080443
:1028500096488088A0F5D041043901D144F00204A3
:1028600021463846FFF739FD90488088A0F5C851C9
:1028700063391DD014F0200F0DD08C4800888B498F
:102880004988884214DA8948068840888749088040
:10289000084646800CE0854800888449498888427B
:1028A00006DD8248068840888049088008464680C0
:1028B0007E488088A0F5AA41103954D17B494889C7
:1028C000FFF7F2FC0020FFF7F8FC7849498900E0A7
:1028D00078E0491C88B2FFF7E7FC0020FFF7EDFC29
:1028E00072494989891C88B2FFF7DEFC6F49098863
:1028F000491EC1F30F20FFF7E0FC6C494989C91C50
:1029000088B2FFF7D1FC69490978491EC8B2FFF7C0
:10291000D4FC66498889FFF7C7FC0020FFF7CDFC8F
:1029200062498989491C88B2FFF7BEFC0020FFF785
:10293000C4FC5E498989891C88B2FFF7B5FC5B49F4
:102940004988491EC1F30F20FFF7B7FC5749898911
:10295000C91C88B2FFF7A8FC54498978491EC8B23F
:10296000FFF7ABFC55E051494889FFF79DFC00207B
:10297000FFF7A3FC0020FFF7A0FC4C490988491E83
:10298000C1F30F20FFF799FC48490978491EC8B2E6
:10299000FFF793FC45498889FFF786FC0020FFF785
:1029A0008CFC0020FFF789FC40494988491EC1F38F
:1029B0000F20FFF782FC3D498978491EC8B2FFF716
:1029C0007CFC26E0082D1CD2DFE805F004070A0D88
:1029D0000F12151844F0300413E044F0100410E016
:1029E00044F020040DE000BF0BE044F0380408E0A0
:1029F00044F0280405E044F0180402E044F0080420
:102A000000BF00BF032744F4805421463846FFF737
:102A100064FCF0BD30B504460D4629462046FFF75C
:102A20008FFCFFF771FC224800882249088030BDE6
:102A300070B504460D4616461C488088A0F5134123
:102A4000413905D019488088A0F5A641103914D124
:102A500016494889FFF728FC2012FFF72EFCE0B248
:102A6000FFF72BFC11498889FFF71EFC2812FFF79E
:102A700024FCE8B2FFF721FC93E00C488088A0F525
:102A8000AA41103927D109494889FFF70DFC2012C6
:102A9000FFF713FC05494989491C88B2FFF704FC7C
:102AA000E0B2FFF70AFC0149888905E0201D0020FB
:102AB0003C0000208000006CFFF7F6FB2812FFF7B7
:102AC000FCFBFE498989491C88B2FFF7EDFBE8B29F
:102AD000FFF7F3FB65E0F9488088A0F5C85163393A
:102AE00028D1F648807920B9F4480088401E001BA0
:102AF00084B2F2494889FFF7D7FB2012FFF7DDFBCC
:102B0000E0B2FFF7DAFB2012FFF7D7FBE0B2FFF7E6
:102B1000D4FBEA498889FFF7C7FB2812FFF7CDFBF2
:102B2000E8B2FFF7CAFB2812FFF7C7FBE8B2FFF7CE
:102B3000C4FB36E0E1488088A0F5D04104391DD1BE
:102B4000DE488079012804D1DC480088401E001B43
:102B500084B2DA494889FFF7A7FB2012FFF7ADFBE3
:102B6000E0B2FFF7AAFBD5498889FFF79DFB281241
:102B7000FFF7A3FBE8B2FFF7A0FB12E0CF48807994
:102B8000012804D1CD480088401E001B84B2CB49E7
:102B900048892146FFF7A1FBC84988892946FFF7E4
:102BA0009CFBC6480089C64908804FF0D840A0F871
:102BB000806070BD70B52DED048B0446BE20FFF71C
:102BC00073FB0520FFF779FB20460BF061FD41EC1C
:102BD000100BB0EE409AF0EE609A9FEDBA0B53ECFA
:102BE000102B51EC190B0BF0E1FC41EC100BB0EE8B
:102BF000408AF0EE608A51EC180B0BF056FD85B25E
:102C00002846FFF75AFB0120FFF757FBFF20FFF78D
:102C100054FB0020FFF751FB0020FFF74EFBBDECFB
:102C2000048B70BD10B50446002C66D1A349887191
:102C3000F02008804FF4A070488008468088A0F5F6
:102C4000134141390BD09D488088A0F5D04104390B
:102C500005D09A488088A0F5A64110391AD12C20B9
:102C6000964908812A2048812B208881084680883F
:102C7000A0F5D041043905D090488088A0F5A64140
:102C8000103906D14FF4A0708C4908804FF4F070D1
:102C90004880A1E089488088A0F5AA41103910D168
:102CA0004FF43050854908814FF4285048814FF443
:102CB0002C5088814FF4F07008804FF448704880A1
:102CC0008AE07E488088A0F5C85163390DD12C2058
:102CD0007A4908812B2048812A2088814FF4F0709E
:102CE00008804FF44870488076E0222073490881BC
:102CF00020204881212088816EE001206F49887161
:102D00004FF4A0700880F020488008468088A0F525
:102D10001341413905D069488088A0F5A641103992
:102D200007D12C20654908812A2048812B208881E1
:102D30003FE062488088A0F5D041043907D12C20BB
:102D40005E4908812B2048812A20888131E05B4838
:102D50008088A0F5AA41103910D14FF4305057495E
:102D600008814FF4285048814FF42C5088814FF44B
:102D7000487008804FF4F07048801AE04F4880880F
:102D8000A0F5C85163390DD12C204C4908812A2067
:102D900048812B2088814FF4487008804FF4F070F0
:102DA000488006E0222045490881212048812020D2
:102DB000888142488088A0F5D041043905D03F4839
:102DC0008088A0F5A641103906D14FF4F0703B4938
:102DD00008804FF4A07048800020FFF7A7FC10BDCA
:102DE0002DE9F04F86B004460D469046994604EB17
:102DF0000800401E86B205EB0900401E87B22F482E
:102E00008088A0F51341413915D02C488088A0F561
:102E1000A64110390FD029488088A0F5D041043947
:102E200009D026488079012826D124488088A0F539
:102E3000C851633920D121494889FFF735FA20125A
:102E4000FFF73BFAE0B2FFF738FA3012FFF735FA36
:102E5000F0B2FFF732FA19498889FFF725FA2812EC
:102E6000FFF72BFAE8B2FFF728FA3812FFF725FA36
:102E7000F8B2FFF722FAC2E010488088A0F5C851E6
:102E800063393ED10D480088A0EB0800001B84B2D6
:102E900005EB0900401E1FFA80F908494889FFF731
:102EA00003FA2012FFF709FAE0B2FFF706FA04EB83
:102EB0000801491EC1F30F2008E00000201D00207A
:102EC0007E00006C6666666666660440FFF7F5F98C
:102ED00004EB0801491EC8B2FFF7EFF9FE498889E3
:102EE000FFF7E2F92812FFF7E8F9E8B2FFF7E5F992
:102EF0004FEA2920FFF7E1F909F0FF00FFF7DDF9BC
:102F00007DE0F5488088A0F5AA41103944D1F24906
:102F10004889FFF7C9F92012FFF7CFF9EE4949892F
:102F2000491C88B2FFF7C0F9E0B2FFF7C6F9EA49D9
:102F30004989891C88B2FFF7B7F93012FFF7BDF94C
:102F4000E5494989C91C88B2FFF7AEF9F0B2FFF72D
:102F5000B4F9E1498889FFF7A7F92812FFF7ADF91D
:102F6000DD498989491C88B2FFF79EF9E8B2FFF76D
:102F7000A4F9D9498989891C88B2FFF795F93812D3
:102F8000FFF79BF9D4498989C91C88B2FFF78CF9EE
:102F9000F8B2FFF792F932E0CF48807901280ED1DC
:102FA000AA46BB46CC480088801B401E80B20190D8
:102FB000C9480088001B401E80B2009003E0A24672
:102FC000B34601950097502005905120049052205F
:102FD00003905320029051460598FFF77EF9594619
:102FE0000498FFF77AF901990398FFF776F90099A9
:102FF0000298FFF772F929462046FFF7A1F906B0BB
:10300000BDE8F08F70B504460026B34805884088B7
:103010004543B1488088A0F5D041043916D1AE4867
:103020008079012812D10020AB4988712A2048817B
:103030002B20888100210846FFF782F90120A6494C
:1030400088712B2048812A20888103E000210846CE
:10305000FFF776F9FFF758F9002603E09F48048050
:1030600006F10106AE42F9D370BD00B5A1B0002053
:10307000209001217A2004F00FFD0121084604F080
:1030800043FD4FF400401E9001208DF87C0000208D
:103090008DF87E0002208DF87D0001208DF87F00E4
:1030A0001EA98F4804F05AFA4CF233701E90022089
:1030B0008DF87C0000208DF87E0003208DF87D00C7
:1030C00001208DF87F001EA9864804F047FA4FF6CC
:1030D00080701E9002208DF87C0000208DF87E000C
:1030E00003208DF87D0001208DF87F001EA97E4809
:1030F00004F034FA4FF480501E9002208DF87C00CA
:1031000000208DF87E0003208DF87D0001208DF8D1
:103110007F001EA9754804F021FA4FF480501E90DC
:1031200002208DF87C0000208DF87E0003208DF8B1
:103130007D0001208DF87F001EA96D4804F00EFA75
:103140000C220021674804F094FA0C220121654802
:1031500004F08FFA0C220421624804F08AFA0C224F
:103160000521604804F085FA0C2208215D4804F02E
:1031700080FA0C2209215B4804F07BFA0C220A2118
:10318000584804F076FA0C220E21564804F071FAE1
:103190000C220F21534804F06CFA0C2207215248EC
:1031A00004F067FA0C2208214F4804F062FA0C225E
:1031B00009214D4804F05DFA0C220A214A4804F026
:1031C00058FA0C220B21484804F053FA0C221146FD
:1031D000454804F04EFA0C220D21434804F049FA08
:1031E0000C220E21404804F044FA0C220F213E48E4
:1031F00004F03FFA0C2211463C4804F03AFA0C2243
:1032000011463B4804F035FA0F2008900020099041
:103210003C200A9000200B900C900D900E900920FD
:103220000190002002900820039000200490059057
:103230000690079006200F9000201090119010200B
:1032400012900020139015901490169017904FF440
:1032500080501890002019904FF480401A90002060
:103260001B9008A81C9001A81D900FA806F03EF81E
:103270000121062006F0DEF83220FDF709FA0121CF
:103280000020FFF72AF83220FDF702FA0020FFF7AE
:1032900030F81149888008468088FF280ADB0846F4
:1032A0008088A0F57F41FF3904D00B488088B0F5B5
:1032B000134F7DD1D320FEF7F7FFFFF707F806493C
:1032C0008880FFF703F804498880FEF7FFFF024972
:1032D0008880084680880DE0201D00208000006C5A
:1032E00000040240000C02400010024000140240A2
:1032F000001802404FF6FF7101EA0020FE49888065
:10330000FEF7E4FFFC4989880843FB4988800846AA
:103310008088A0F5134141394AD0BF20FEF7C4FF91
:10332000FEF7D4FFF4498880FEF7D0FFF249888089
:10333000FEF7CCFFF0498880FEF7C8FFEE49888091
:10334000084680884FF6FF7101EA0020EA4988802C
:10335000FEF7BCFFE84989880843E74988800846AA
:103360008088A0F5D04104397AD0D420FEF79CFFA4
:10337000FEF7ACFFE0498880FEF7A8FFDE498880B1
:10338000FEF7A4FFDC498880084680884FF6FF716D
:1033900001EA0020D8498880FEF798FFD64989883D
:1033A0000843D549888008468088A0F5A64100E0FA
:1033B00056E0103954D04FF45A40FEF775FFFEF72F
:1033C00085FFCD4988804FF45B40FEF76DFFFEF727
:1033D0007DFFC9498880084680884FF6FF7101EA61
:1033E0000020C54988804FF45C40FEF75DFFFEF782
:1033F0006DFFC14989880843BF4988800846808895
:10340000B0F5004F02D145F210508880BA4880884C
:10341000A0F5AA41103923D0A120FEF745FFFEF701
:1034200055FFB5498880FEF751FFB34988800846AB
:1034300080884FF6FF7101EA0020AF498880FEF7CF
:1034400045FFAD4989880843AB4988800846808894
:10345000A0F5AE41613903D141F66310A6498880D9
:10346000A5488088A0F51341413911D0A248808831
:10347000A0F5A64110390BD09F488088A0F5AA413D
:10348000103905D09C488088A0F5C85163391DD1FA
:103490009A48006820F00F004FF02041C1F81C014D
:1034A0000846D0F81C0120F47060C1F81C010846E1
:1034B000D0F81C0140F00300C1F81C010846D0F808
:1034C0001C0140F40070C1F81C0128E08A48808883
:1034D000A0F5D041043905D087488088A0F5454142
:1034E00005391CD18548006820F00F004FF02041BD
:1034F000C1F81C010846D0F81C0120F47060C1F826
:103500001C010846D0F81C0140F00A00C1F81C015B
:103510000846D0F81C0140F44060C1F81C01764810
:103520008088A0F5134141397ED1CF20FEF7BCFE43
:103530000020FEF7C2FE2098401C2090C120FEF71C
:10354000BCFE3020FEF7B9FEED20FEF7ADFE642094
:10355000FEF7B3FE0320FEF7B0FE1220FEF7ADFE2D
:103560008120FEF7AAFEE820FEF79EFE8520FEF7EA
:10357000A4FE1020FEF7A1FE7A20FEF79EFECB20CF
:10358000FEF792FE3920FEF798FE2C20FEF795FEFE
:103590000020FEF792FE3420FEF78FFE0220FEF799
:1035A0008CFEF720FEF780FE2020FEF786FEEA2044
:1035B000FEF77AFE0020FEF780FE0020FEF77DFE7B
:1035C000C020FEF771FE1B20FEF777FEC120FEF73C
:1035D0006BFE0120FEF771FEC520FEF765FE302070
:1035E000FEF76BFE3020FEF768FEC720FEF75CFE9C
:1035F000B720FEF762FE3620FEF756FE4820FEF7A3
:103600005CFE3A20FEF750FE5520FEF756FEB12034
:10361000FEF74AFE0020FEF750FE1A20FEF74DFE90
:10362000B620FEF741FE00E09FE00A20FEF745FECF
:10363000A220FEF742FEF220FEF736FE0020FEF743
:103640003CFE2620FEF730FE0120FEF736FEE0208D
:10365000FEF72AFE0F20FEF730FE2A20FEF72DFE91
:103660002820FEF72AFE0820FEF727FE0E20FEF790
:1036700024FE0820FEF721FE5420FEF71EFEA9209E
:10368000FEF71BFE4320FEF718FE0A20FEF715FE8C
:103690000F20FEF712FE0020FEF70FFE0020FEF7BF
:1036A0000CFE0020FEF709FE0020FEF706FEE120DA
:1036B000FEF7FAFD0020FEF700FE1520FEF7FDFDE7
:1036C0001720FEF7FAFD0720FEF7F7FD1120FEF7A1
:1036D000F4FD0620FEF7F1FD2B20FEF7EEFD56204F
:1036E000FEF7EBFD3C20FEF7E8FD0520FEF7E5FDCB
:1036F0001020FEF7E2FD03E0201D00201C0100A0C9
:103700000F20FEF7DAFD3F20FEF7D7FD3F20FEF742
:10371000D4FD0F20FEF7D1FD2B20FEF7C5FD0020C4
:10372000FEF7CBFD0020FEF7C8FD0120FEF7C5FD2A
:103730003F20FEF7C2FD2A20FEF7B6FD0020FEF76F
:10374000BCFD0020FEF7B9FD0020FEF7B6FDEF201E
:10375000FEF7B3FD1120FEF7A7FD7820FCF798FFD8
:103760002920FEF7A1FD03F018B9FE488088A0F5D6
:10377000D04104397ED11120FEF796FD1420FCF7CC
:1037800087FFD020FEF790FD0720FEF796FD422030
:10379000FEF793FD1D20FEF790FDD120FEF784FD7E
:1037A0000020FEF78AFD1A20FEF787FD0920FEF7AC
:1037B00084FDD220FEF778FD0120FEF77EFD222059
:1037C000FEF77BFDC020FEF76FFD1020FEF775FDB4
:1037D0003B20FEF772FD0020FEF76FFD0220FEF792
:1037E0006CFD1120FEF769FDC520FEF75DFD03208D
:1037F000FEF763FDC820FEF757FD0020FEF75DFDD4
:103800002520FEF75AFD2120FEF757FD0520FEF783
:1038100054FD0020FEF751FD0A20FEF74EFD652005
:10382000FEF74BFD2520FEF748FD7720FEF745FD0E
:103830005020FEF742FD0F20FEF73FFD0020FEF76F
:103840003CFDF820FEF730FD0120FEF736FDFE209E
:10385000FEF72AFD0020FEF730FD0220FEF72DFDC9
:103860002020FEF721FD3620FEF71EFD0820FEF782
:1038700024FD00E02AE03A20FEF716FD5520FEF771
:103880001CFD2B20FEF710FD0020FEF716FD00208A
:10389000FEF713FD0120FEF710FD3F20FEF70DFDA2
:1038A0002A20FEF701FD0020FEF707FD0020FEF7AD
:1038B00004FD0120FEF701FDDF20FEF7FEFC78206D
:1038C000FCF7E6FE2920FEF7EFFC4CE7A5488088D0
:1038D000A0F5A641103940F07C87ED20FEF7E4FC0E
:1038E0000120FEF7EAFCFE20FEF7E7FCEE20FEF7E3
:1038F000DBFCDE20FEF7E1FC2120FEF7DEFCF12000
:10390000FEF7D2FC0120FEF7D8FCDF20FEF7CCFC4E
:103910001020FEF7D2FCC420FEF7C6FC8F20FEF775
:10392000CCFCC620FEF7C0FC0020FEF7C6FCE2205F
:10393000FEF7C3FCE220FEF7C0FCE220FEF7BDFC70
:10394000BF20FEF7B1FCAA20FEF7B7FCB020FEF7BF
:10395000ABFC0D20FEF7B1FC0020FEF7AEFC0D2005
:10396000FEF7ABFC0020FEF7A8FC1120FEF7A5FC3B
:103970000020FEF7A2FC1920FEF79FFC0020FEF7B6
:103980009CFC2120FEF799FC0020FEF796FC2D20E0
:10399000FEF793FC0020FEF790FC3D20FEF78DFC27
:1039A0000020FEF78AFC5D20FEF787FC0020FEF772
:1039B00084FC5D20FEF781FC0020FEF77EFCB12038
:1039C000FEF772FC8020FEF778FC0020FEF775FC05
:1039D0008B20FEF772FC0020FEF76FFC9620FEF7AE
:1039E0006CFC0020FEF769FCB220FEF75DFC0020B5
:1039F000FEF763FC0020FEF760FC0220FEF75DFC92
:103A00000020FEF75AFC0320FEF757FC0020FEF7CB
:103A100054FCB320FEF748FC0020FEF74EFC0020CB
:103A2000FEF74BFC0020FEF748FC0020FEF745FCAB
:103A30000020FEF742FC0020FEF73FFC0020FEF7CE
:103A40003CFC0020FEF739FC0020FEF736FC00208D
:103A5000FEF733FC0020FEF730FC0020FEF72DFCC3
:103A60000020FEF72AFC0020FEF727FC0020FEF7CE
:103A700024FC0020FEF721FC0020FEF71EFC0020A5
:103A8000FEF71BFC0020FEF718FC0020FEF715FCDB
:103A90000020FEF712FC0020FEF70FFC0020FEF7CE
:103AA0000CFC0020FEF709FCB420FEF7FDFB8B2088
:103AB000FEF703FC0020FEF700FC9620FEF7FDFB5E
:103AC0000020FEF7FAFBA120FEF7F7FB0020FEF72F
:103AD000F4FBB520FEF7E8FB0220FEF7EEFB00202A
:103AE000FEF7EBFB0320FEF7E8FB0020FEF7E5FB0B
:103AF0000420FEF7E2FB0020FEF7DFFBB620FEF716
:103B0000D3FB0020FEF7D9FB0020FEF7D6FBB72041
:103B1000FEF7CAFB0020FEF7D0FB0020FEF7CDFB2E
:103B20003F20FEF7CAFB0020FEF7C7FB5E20FEF732
:103B3000C4FB0020FEF7C1FB6420FEF7BEFB0020A3
:103B4000FEF7BBFB8C20FEF7B8FB0020FEF7B5FBB1
:103B5000AC20FEF7B2FB0020FEF7AFFBDC20FEF747
:103B6000ACFB01E0201D00200020FEF7A6FB70202A
:103B7000FEF7A3FB0020FEF7A0FB9020FEF79DFBC5
:103B80000020FEF79AFBEB20FEF797FB0020FEF7E4
:103B900094FBDC20FEF791FB0020FEF78EFBB820A3
:103BA000FEF782FB0020FEF788FB0020FEF785FB76
:103BB0000020FEF782FB0020FEF77FFB0020FEF7CF
:103BC0007CFB0020FEF779FB0020FEF776FB00204F
:103BD000FEF773FBBA20FEF767FB2420FEF76DFBB0
:103BE0000020FEF76AFB0020FEF767FB0020FEF7CF
:103BF00064FBC120FEF758FB2020FEF75EFB00208F
:103C0000FEF75BFB5420FEF758FB0020FEF755FB48
:103C1000FF20FEF752FB0020FEF74FFBC220FEF70D
:103C200043FB0A20FEF749FB0020FEF746FB042079
:103C3000FEF743FB0020FEF740FBC320FEF734FBFA
:103C40003C20FEF73AFB0020FEF737FB3A20FEF758
:103C500034FB0020FEF731FB3920FEF72EFB00205D
:103C6000FEF72BFB3720FEF728FB0020FEF725FB95
:103C70003C20FEF722FB0020FEF71FFB3620FEF75C
:103C80001CFB0020FEF719FB3220FEF716FB00207C
:103C9000FEF713FB2F20FEF710FB0020FEF70DFBB5
:103CA0002C20FEF70AFB0020FEF707FB2920FEF779
:103CB00004FB0020FEF701FB2620FEF7FEFA0020A1
:103CC000FEF7FBFA2420FEF7F8FA0020FEF7F5FADB
:103CD0002420FEF7F2FA0020FEF7EFFA2320FEF789
:103CE000ECFA0020FEF7E9FA3C20FEF7E6FA0020A5
:103CF000FEF7E3FA3620FEF7E0FA0020FEF7DDFAE1
:103D00003220FEF7DAFA0020FEF7D7FA2F20FEF76E
:103D1000D4FA0020FEF7D1FA2C20FEF7CEFA0020CC
:103D2000FEF7CBFA2920FEF7C8FA0020FEF7C5FA05
:103D30002620FEF7C2FA0020FEF7BFFA2420FEF785
:103D4000BCFA0020FEF7B9FA2420FEF7B6FA0020EC
:103D5000FEF7B3FA2320FEF7B0FA0020FEF7ADFA23
:103D6000C420FEF7A1FA6220FEF7A7FA0020FEF7B2
:103D7000A4FA0520FEF7A1FA0020FEF79EFA84209F
:103D8000FEF79BFA0020FEF798FAF020FEF795FA6E
:103D90000020FEF792FA1820FEF78FFA0020FEF7B7
:103DA0008CFAA420FEF789FA0020FEF786FA182084
:103DB000FEF783FA0020FEF780FA5020FEF77DFA26
:103DC0000020FEF77AFA0C20FEF777FA0020FEF7C3
:103DD00074FA1720FEF771FA0020FEF76EFA9520AC
:103DE000FEF76BFA0020FEF768FAF320FEF765FA9B
:103DF0000020FEF762FAE620FEF75FFA0020FEF7E9
:103E00005CFAC520FEF750FA3220FEF756FA002081
:103E1000FEF753FA4420FEF750FA0020FEF74DFA61
:103E20006520FEF74AFA0020FEF747FA7620FEF7F3
:103E300044FA0020FEF741FA8820FEF73EFA0020FF
:103E4000FEF73BFAC620FEF72FFA2020FEF735FAE0
:103E50000020FEF732FA1720FEF72FFA0020FEF7B7
:103E60002CFA0120FEF729FA0020FEF726FAC720D7
:103E7000FEF71AFA0020FEF720FA0020FEF71DFADE
:103E80000020FEF71AFA0020FEF717FAC820FEF706
:103E90000BFA0020FEF711FA0020FEF70EFA0020C0
:103EA000FEF70BFA0020FEF708FAC920FEF7FCF92E
:103EB0000020FEF702FA0020FEF7FFF90020FEF7CF
:103EC000FCF90020FEF7F9F90020FEF7F6F90020D2
:103ED000FEF7F3F90020FEF7F0F90020FEF7EDF908
:103EE0000020FEF7EAF90020FEF7E7F90020FEF7D0
:103EF000E4F90020FEF7E1F90020FEF7DEF90020EA
:103F0000FEF7DBF90020FEF7D8F90020FEF7D5F91F
:103F1000E020FEF7C9F91620FEF7CFF90020FEF7E2
:103F2000CCF91C20FEF7C9F90020FEF7C6F92120C4
:103F3000FEF7C3F90020FEF7C0F93620FEF7BDF901
:103F40000020FEF7BAF94620FEF7B7F90020FEF789
:103F5000B4F95220FEF7B1F90020FEF7AEF9642063
:103F6000FEF7ABF90020FEF7A8F97A20FEF7A5F9D5
:103F70000020FEF7A2F98B20FEF79FF90020FEF744
:103F80009CF99920FEF799F90020FEF796F9A820F0
:103F9000FEF793F90020FEF790F9B920FEF78DF9AE
:103FA0000020FEF78AF9C420FEF787F90020FEF70B
:103FB00084F9CA20FEF781F90020FEF77EF9D220AD
:103FC000FEF77BF90020FEF778F9D920FEF775F9A6
:103FD0000020FEF772F9E020FEF76FF90020FEF7EF
:103FE0006CF9F320FEF769F90020FEF766F9E1208D
:103FF000FEF75AF91620FEF760F90020FEF75DF98A
:104000001C20FEF75AF90020FEF757F92220FEF790
:1040100054F90020FEF751F93620FEF74EF9002042
:10402000FEF74BF94520FEF748F90020FEF745F969
:104030005220FEF742F90020FEF73FF96420FEF718
:104040003CF90020FEF739F97A20FEF736F9002016
:10405000FEF733F98B20FEF730F90020FEF72DF93B
:104060009920FEF72AF90020FEF727F9A820FEF78D
:1040700024F90020FEF721F9B920FEF71EF90020EF
:10408000FEF71BF9C420FEF718F90020FEF715F91A
:10409000CA20FEF712F90020FEF70FF9D220FEF732
:1040A0000CF90020FEF709F9D820FEF706F90020E8
:1040B000FEF703F9E020FEF700F90020FEF7FDF817
:1040C000F320FEF7FAF80020FEF7F7F8E220FEF7FB
:1040D000EBF80520FEF7F1F80020FEF7EEF80B20D4
:1040E000FEF7EBF80020FEF7E8F81B20FEF7E5F8F6
:1040F0000020FEF7E2F83420FEF7DFF80020FEF79C
:10410000DCF84420FEF7D9F80020FEF7D6F84F205F
:10411000FEF7D3F80020FEF7D0F86120FEF7CDF8C7
:104120000020FEF7CAF87920FEF7C7F80020FEF756
:10413000C4F88820FEF7C1F80020FEF7BEF89720EB
:10414000FEF7BBF80020FEF7B8F8A620FEF7B5F89A
:104150000020FEF7B2F8B720FEF7AFF80020FEF718
:10416000ACF8C220FEF7A9F80020FEF7A6F8C72099
:10417000FEF7A3F80020FEF7A0F8D120FEF79DF887
:104180000020FEF79AF8D620FEF797F80020FEF7F9
:1041900094F8DD20FEF791F80020FEF78EF8F3206A
:1041A000FEF78BF80020FEF788F8E320FEF77CF896
:1041B0000520FEF782F80020FEF77FF80A20FEF7C0
:1041C0007CF80020FEF779F81C20FEF776F8002036
:1041D000FEF773F83320FEF770F80020FEF76DF855
:1041E0004420FEF76AF80020FEF767F85020FEF73B
:1041F00064F80020FEF761F86220FEF75EF8002008
:10420000FEF75BF87820FEF758F80020FEF755F827
:104210008820FEF752F80020FEF74FF89720FEF7AF
:104220004CF80020FEF749F8A620FEF746F80020DB
:10423000FEF743F8B720FEF740F80020FEF73DF800
:10424000C220FEF73AF80020FEF737F8C720FEF745
:1042500034F80020FEF731F8D120FEF72EF80020C8
:10426000FEF72BF8D520FEF728F80020FEF725F8FA
:10427000DD20FEF722F80020FEF71FF8F320FEF7FE
:104280001CF80020FEF719F8E420FEF70DF80120D5
:10429000FEF713F80020FEF710F80120FEF70DF8E6
:1042A0000020FEF70AF80220FEF707F80020FEF7CC
:1042B00004F82A20FEF701F80020FDF7FEFF3C205D
:1042C000FDF7FBFF0020FDF7F8FF4B20FDF7F5FFA2
:1042D0000020FDF7F2FF5D20FDF7EFFF0020FDF766
:1042E000ECFF7420FDF7E9FF0020FDF7E6FF8420D6
:1042F000FDF7E3FF0020FDF7E0FF9320FDF7DDFF72
:104300000020FDF7DAFFA220FDF7D7FF0020FDF720
:10431000D4FFB320FDF7D1FF0020FDF7CEFFBE2074
:10432000FDF7CBFF0020FDF7C8FFC420FDF7C5FF58
:104330000020FDF7C2FFCD20FDF7BFFF0020FDF7F5
:10434000BCFFD320FDF7B9FF0020FDF7B6FFDD204D
:10435000FDF7B3FF0020FDF7B0FFF320FDF7ADFF41
:104360000020FDF7AAFFE520FDF79EFF0020FDF7E6
:10437000A4FF0020FDF7A1FF0020FDF79EFF002015
:10438000FDF79BFF0220FDF798FF0020FDF795FF4A
:104390002920FDF792FF0020FDF78FFF3C20FDF75D
:1043A0008CFF0020FDF789FF4B20FDF786FF0020E2
:1043B000FDF783FF5D20FDF780FF0020FDF77DFF07
:1043C0007420FDF77AFF0020FDF777FF8420FDF7CA
:1043D00074FF0020FDF771FF9320FDF76EFF0020B2
:1043E000FDF76BFFA220FDF768FF0020FDF765FFDA
:1043F000B320FDF762FF0020FDF75FFFBE20FDF751
:104400005CFF0020FDF759FFC420FDF756FF002098
:10441000FDF753FFCD20FDF750FF0020FDF74DFFC6
:10442000D320FDF74AFF0020FDF747FFDC20FDF712
:1044300044FF0020FDF741FFF320FDF73EFF002081
:10444000FDF73BFFE620FDF72FFF1120FDF735FFBD
:104450000020FDF732FF3420FDF72FFF0020FDF78D
:104460002CFF5620FDF729FF0020FDF726FF7620C0
:10447000FDF723FF0020FDF720FF7720FDF71DFF4C
:104480000020FDF71AFF6620FDF717FF0020FDF75B
:1044900014FF8820FDF711FF0020FDF70EFF992083
:1044A000FDF70BFF0020FDF708FFBB20FDF705FF20
:1044B0000020FDF702FF9920FDF7FFFE0020FDF729
:1044C000FCFE6620FDF7F9FE0020FDF7F6FE552004
:1044D000FDF7F3FE0020FDF7F0FE5520FDF7EDFEA1
:1044E0000020FDF7EAFE4520FDF7E7FE0020FDF77E
:1044F000E4FE4320FDF7E1FE0020FDF7DEFE442050
:10450000FDF7DBFE0020FDF7D8FEE720FDF7CCFE2F
:104510003220FDF7D2FE0020FDF7CFFE5520FDF73B
:10452000CCFE0020FDF7C9FE7620FDF7C6FE002078
:10453000FDF7C3FE6620FDF7C0FE0020FDF7BDFEBF
:104540006720FDF7BAFE0020FDF7B7FE6720FDF7F4
:10455000B4FE0020FDF7B1FE8720FDF7AEFE00207F
:10456000FDF7ABFE9920FDF7A8FE0020FDF7A5FEA4
:10457000BB20FDF7A2FE0020FDF79FFE9920FDF76E
:104580009CFE0020FDF799FE7720FDF796FE0020A7
:10459000FDF793FE4420FDF790FE0020FDF78DFE11
:1045A0005620FDF78AFE0020FDF787FE2320FDF749
:1045B00084FE0020FDF781FE3320FDF77EFE002003
:1045C000FDF77BFE4520FDF778FE0020FDF775FE28
:1045D000E820FDF769FE0020FDF76FFE0020FDF7E3
:1045E0006CFE9920FDF769FE0020FDF766FE87202E
:1045F000FDF763FE0020FDF760FE8820FDF75DFEFD
:104600000020FDF75AFE7720FDF757FE0020FDF74A
:1046100054FE6620FDF751FE0020FDF74EFE882077
:10462000FDF74BFE0020FDF748FEAA20FDF745FEF2
:104630000020FDF742FEBB20FDF73FFE0020FDF706
:104640003CFE9920FDF739FE0020FDF736FE66207E
:10465000FDF733FE0020FDF730FE5520FDF72DFE5F
:104660000020FDF72AFE5520FDF727FE0020FDF76C
:1046700024FE4420FDF721FE0020FDF71EFE44200D
:10468000FDF71BFE0020FDF718FE5520FDF715FE77
:104690000020FDF712FEE920FDF706FEAA20FDF737
:1046A0000CFE0020FDF709FE0020FDF706FE0020AD
:1046B000FDF703FE0020FDF7F7FDAA20FDF7FDFD45
:1046C000CF20FDF7F1FD0020FDF7F7FD0020FDF7FD
:1046D000F4FD0020FDF7F1FD0020FDF7EEFD0020C8
:1046E000FDF7EBFD0020FDF7E8FD0020FDF7E5FDFF
:1046F0000020FDF7E2FD0020FDF7DFFD0020FDF7C3
:10470000DCFD0020FDF7D9FD0020FDF7D6FD0020DF
:10471000FDF7D3FD0020FDF7D0FD0020FDF7CDFD16
:104720000020FDF7CAFD0020FDF7C7FDF020FDF7D2
:10473000BBFD0020FDF7C1FD5020FDF7BEFD0020B0
:10474000FDF7BBFD0020FDF7B8FD0020FDF7B5FD2E
:10475000F320FDF7A9FD0020FDF7AFFDF920FDF7DF
:10476000A3FD0620FDF7A9FD1020FDF7A6FD2920D9
:10477000FDF7A3FD0020FDF7A0FD3A20FDF794FD15
:104780005520FDF79AFD1120FDF78EFD6420FBF703
:104790007FFF2920FDF788FD3520FDF785FD0020EE
:1047A000FDF78BFD5120FDF77FFDFF20FDF785FD17
:1047B0005320FDF779FD2C20FDF77FFD5520FDF7F7
:1047C00073FD8220FDF779FD2C20FDF76DFD02F0D1
:1047D000E4B8FE488088A0F5AA4110397ED1552161
:1047E0004FF47040FDF779FDAA214FF20100FDF76B
:1047F00074FD52214FF20200FDF76FFD08214FF2C8
:104800000300FDF76AFD01214FF20400FDF765FD8D
:104810000D214FF43040FDF760FD0D214BF20100FA
:10482000FDF75BFD0D214BF20200FDF756FD342133
:104830004FF43640FDF751FD34214BF20160FDF796
:104840004CFD34214BF20260FDF747FD0D214FF482
:104850003140FDF742FD0D214BF20110FDF73DFD0A
:104860000D214BF20210FDF738FD34214FF4374093
:10487000FDF733FD34214BF20170FDF72EFD34219D
:104880004BF20270FDF729FD00214FF43240FDF795
:1048900024FD00214BF20120FDF71FFD00214BF20A
:1048A0000220FDF71AFD24214FF43840FDF715FDD5
:1048B00024214BF60100FDF710FD24214BF60200E8
:1048C000FDF70BFD01214FF43F40FDF706FD0F21E1
:1048D0004FF43340FDF701FD0F2100E0FEE34BF202
:1048E0000130FDF7FAFC0F214BF20230FDF7F5FC29
:1048F00034214FF43940FDF7F0FC34214BF6011020
:10490000FDF7EBFC34214BF60210FDF7E6FC082125
:104910004FF43540FDF7E1FC08214BF20150FDF763
:10492000DCFC08214BF20250FDF7D7FC03214FF4C9
:104930004240FDF7D2FC24214FF43A40FDF7CDFC74
:1049400024214BF60120FDF7C8FC24214BF6022060
:10495000FDF7C3FC00214FF43C40FDF7BEFC78217D
:104960004BF60140FDF7B9FC00214BF60240FDF784
:10497000B4FC00214FF43D40FDF7AFFC78214BF62D
:104980000150FDF7AAFC00214BF60250FDF7A5FCF3
:1049900000214FF43E40FDF7A0FC64214BF601607E
:1049A000FDF79BFC00214FF45140FDF796FC3321AD
:1049B0004DF20110FDF791FC00214DF20210FDF7C0
:1049C0008CFC34214DF20310FDF787FC00214DF2E1
:1049D0000410FDF782FC3A214DF20510FDF77DFC35
:1049E00000214DF20610FDF778FC4A214DF2071028
:1049F000FDF773FC00214DF20810FDF76EFC5C2101
:104A00004DF20910FDF769FC00214DF20A10FDF787
:104A100064FC81214DF20B10FDF75FFC00214DF28B
:104A20000C10FDF75AFCA6214DF20D10FDF755FCB8
:104A300000214DF20E10FDF750FCE5214DF20F1054
:104A4000FDF74BFC01214DF21010FDF746FC132140
:104A50004DF21110FDF741FC01214DF21210FDF74E
:104A60003CFC54214DF21310FDF737FC01214DF2AF
:104A70001410FDF732FC82214DF21510FDF72DFCCC
:104A800001214DF21610FDF728FCCA214DF2171036
:104A9000FDF723FC02214DF21810FDF71EFC00214A
:104AA0004DF21910FDF719FC02214DF21A10FDF715
:104AB00014FC01214DF21B10FDF70FFC02214DF2F9
:104AC0001C10FDF70AFC34214DF21D10FDF705FC0A
:104AD00002214DF21E10FDF700FC67214DF21F1060
:104AE000FDF7FBFB02214DF22010FDF7F6FB8421C0
:104AF0004DF22110FDF7F1FB02214DF22210FDF7DE
:104B0000ECFBA4214DF22310FDF7E7FB02214DF24F
:104B10002410FDF7E2FBB7214DF22510FDF7DDFB78
:104B200002214DF22610FDF7D8FBCF214DF22710C0
:104B3000FDF7D3FB02214DF22810FDF7CEFBDE215D
:104B40004DF22910FDF7C9FB02214DF22A10FDF7A5
:104B5000C4FBF2214DF22B10FDF7BFFB02214DF2F9
:104B60002C10FDF7BAFBFE214DF22D10FDF7B5FB21
:104B700003214DF22E10FDF7B0FB10214DF22F1046
:104B8000FDF7ABFB03214DF23010FDF7A6FB3321FF
:104B90004DF23110FDF7A1FB03214DF23210FDF76C
:104BA0009CFB6D214DF23310FDF797FB00214FF474
:104BB0005240FDF792FB33214DF20120FDF78DFBB2
:104BC00000214DF20220FDF788FB01E0201D0020AE
:104BD00034214DF20320FDF780FB00214DF204202B
:104BE000FDF77BFB3A214DF20520FDF776FB002116
:104BF0004DF20620FDF771FB4A214DF20720FDF72B
:104C00006CFB00214DF20820FDF767FB5C214DF2A3
:104C10000920FDF762FB00214DF20A20FDF75DFB44
:104C200081214DF20B20FDF758FB00214DF20C20A5
:104C3000FDF753FBA6214DF20D20FDF74EFB0021A1
:104C40004DF20E20FDF749FBE5214DF20F20FDF757
:104C500044FB01214DF21020FDF73FFB13214DF2E3
:104C60001120FDF73AFB01214DF21220FDF735FB33
:104C700054214DF21320FDF730FB01214DF2142099
:104C8000FDF72BFB82214DF21520FDF726FB0121BC
:104C90004DF21620FDF721FBCA214DF21720FDF73A
:104CA0001CFB02214DF21820FDF717FB00214DF2ED
:104CB0001920FDF712FB02214DF21A20FDF70DFB22
:104CC00001214DF21B20FDF708FB02214DF21C20B3
:104CD000FDF703FB34214DF21D20FDF7FEFA022102
:104CE0004DF21E20FDF7F9FA67214DF21F20FDF766
:104CF000F4FA02214DF22020FDF7EFFA84214DF263
:104D00002120FDF7EAFA02214DF22220FDF7E5FA13
:104D1000A4214DF22320FDF7E0FA02214DF22420D8
:104D2000FDF7DBFAB7214DF22520FDF7D6FA022177
:104D30004DF22620FDF7D1FACF214DF22720FDF7C5
:104D4000CCFA02214DF22820FDF7C7FADE214DF200
:104D50002920FDF7C2FA02214DF22A20FDF7BDFA03
:104D6000F2214DF22B20FDF7B8FA02214DF22C2052
:104D7000FDF7B3FAFE214DF22D20FDF7AEFA032127
:104D80004DF22E20FDF7A9FA10214DF22F20FDF74C
:104D9000A4FA03214DF23020FDF79FFA33214DF2A2
:104DA0003120FDF79AFA03214DF23220FDF795FAF2
:104DB0006D214DF23320FDF790FA00214FF453405E
:104DC000FDF78BFA33214DF20130FDF786FA002111
:104DD0004DF20230FDF781FA34214DF20330FDF738
:104DE0007CFA00214DF20430FDF777FA3A214DF2BA
:104DF0000530FDF772FA00214DF20630FDF76DFA2D
:104E00004A214DF20730FDF768FA00214DF20830D3
:104E1000FDF763FA5C214DF20930FDF75EFA0021DF
:104E20004DF20A30FDF759FA81214DF20B30FDF7B2
:104E300054FA00214DF20C30FDF74FFAA6214DF245
:104E40000D30FDF74AFA00214DF20E30FDF745FA1C
:104E5000E5214DF20F30FDF740FA01214DF21030FF
:104E6000FDF73BFA13214DF21130FDF736FA01211F
:104E70004DF21230FDF731FA54214DF21330FDF7A7
:104E80002CFA01214DF21430FDF727FA82214DF260
:104E90001530FDF722FA01214DF21630FDF71DFA0B
:104EA000CA214DF21730FDF718FA02214DF21830E1
:104EB000FDF713FA00214DF21930FDF70EFA022129
:104EC0004DF21A30FDF709FA01214DF21B30FDF7C2
:104ED00004FA02214DF21C30FDF7FFF934214DF2A6
:104EE0001D30FDF7FAF902214DF21E30FDF7F5F9FC
:104EF00067214DF21F30FDF7F0F902214DF220300D
:104F0000FDF7EBF984214DF22130FDF7E6F902219E
:104F10004DF22230FDF7E1F9A4214DF22330FDF7E7
:104F2000DCF902214DF22430FDF7D7F9B7214DF21B
:104F30002530FDF7D2F902214DF22630FDF7CDF9EB
:104F4000CF214DF22730FDF7C8F902214DF228306C
:104F5000FDF7C3F9DE214DF22930FDF7BEF902213C
:104F60004DF22A30FDF7B9F9F2214DF22B30FDF761
:104F7000B4F902214DF22C30FDF7AFF9FE214DF2CC
:104F80002D30FDF7AAF903214DF22E30FDF7A5F9DA
:104F900010214DF22F30FDF7A0F903214DF23030F2
:104FA000FDF79BF933214DF23130FDF796F90321DE
:104FB0004DF23230FDF791F96D214DF23330FDF7AE
:104FC0008CF900214FF45440FDF787F933214DF25D
:104FD0000140FDF782F900214DF20240FDF77DF915
:104FE00034214DF20340FDF778F900214DF20440E1
:104FF000FDF773F93A214DF20540FDF76EF90021F6
:105000004DF20640FDF769F94A214DF20740FDF7E0
:1050100064F900214DF20840FDF75FF95C214DF283
:105020000940FDF75AF900214DF20A40FDF755F904
:1050300081214DF20B40FDF750F900214DF20C405B
:10504000FDF74BF9A6214DF20D40FDF746F9002181
:105050004DF20E40FDF741F9E5214DF20F40FDF70D
:105060003CF901214DF21040FDF737F913214DF2C3
:105070001140FDF732F901214DF21240FDF72DF9F3
:1050800054214DF21340FDF728F901214DF214404F
:10509000FDF723F982214DF21540FDF71EF901219C
:1050A0004DF21640FDF719F9CA214DF21740FDF7F0
:1050B00014F902214DF21840FDF70FF900214DF2CD
:1050C0001940FDF70AF902214DF21A40FDF705F9E2
:1050D00001214DF21B40FDF700F900E004E302213D
:1050E0004DF21C40FDF7F9F834214DF21D40FDF75B
:1050F000F4F802214DF21E40FDF7EFF867214DF262
:105100001F40FDF7EAF802214DF22040FDF7E5F8D7
:1051100084214DF22140FDF7E0F802214DF22240BA
:10512000FDF7DBF8A4214DF22340FDF7D6F802216C
:105130004DF22440FDF7D1F8B7214DF22540FDF79F
:10514000CCF802214DF22640FDF7C7F8CF214DF2F1
:105150002740FDF7C2F802214DF22840FDF7BDF8C7
:10516000DE214DF22940FDF7B8F802214DF22A4028
:10517000FDF7B3F8F2214DF22B40FDF7AEF8022116
:105180004DF22C40FDF7A9F8FE214DF22D40FDF720
:10519000A4F803214DF22E40FDF79FF810214DF2A7
:1051A0002F40FDF79AF803214DF23040FDF795F8B6
:1051B00033214DF23140FDF790F803214DF232409A
:1051C000FDF78BF86D214DF23340FDF786F8002195
:1051D0004FF45540FDF781F833214DF20150FDF7B2
:1051E0007CF800214DF20250FDF777F834214DF2A2
:1051F0000350FDF772F800214DF20450FDF76DF8F1
:105200003A214DF20550FDF768F800214DF20650A5
:10521000FDF763F84A214DF20750FDF75EF80021D3
:105220004DF20850FDF759F85C214DF20950FDF799
:1052300054F800214DF20A50FDF74FF881214DF24C
:105240000B50FDF74AF800214DF20C50FDF745F8E0
:10525000A6214DF20D50FDF740F800214DF20E5001
:10526000FDF73BF8E5214DF20F50FDF736F801212F
:105270004DF21050FDF731F813214DF21150FDF7AA
:105280002CF801214DF21250FDF727F854214DF270
:105290001350FDF722F801214DF21450FDF71DF8CF
:1052A00082214DF21550FDF718F801214DF21650EC
:1052B000FDF713F8CA214DF21750FDF70EF8022141
:1052C0004DF21850FDF709F800214DF21950FDF785
:1052D00004F802214DF21A50FCF7FFFF01214DF2B4
:1052E0001B50FCF7FAFF02214DF21C50FCF7F5FFB2
:1052F00034214DF21D50FCF7F0FF02214DF21E50FB
:10530000FCF7EBFF67214DF21F50FCF7E6FF02218F
:105310004DF22050FCF7E1FF84214DF22150FCF7C3
:10532000DCFF02214DF22250FCF7D7FFA4214DF201
:105330002350FCF7D2FF02214DF22450FCF7CDFFA1
:10534000B7214DF22550FCF7C8FF02214DF226503F
:10535000FCF7C3FFCF214DF22750FCF7BEFF02211F
:105360004DF22850FCF7B9FFDE214DF22950FCF731
:10537000B4FF02214DF22A50FCF7AFFFF2214DF2AB
:105380002B50FCF7AAFF02214DF22C50FCF7A5FF91
:10539000FE214DF22D50FCF7A0FF03214DF22E50BF
:1053A000FCF79BFF10214DF22F50FCF796FF0321D5
:1053B0004DF23050FCF791FF33214DF23150FCF7A4
:1053C0008CFF03214DF23250FCF787FF6D214DF227
:1053D0003350FCF782FF00214FF45640FCF77DFF6D
:1053E00033214DF20160FCF778FF00214DF202609D
:1053F000FCF773FF34214DF20360FCF76EFF0021D0
:105400004DF20460FCF769FF3A214DF20560FCF7AC
:1054100064FF00214DF20660FCF75FFF4A214DF268
:105420000760FCF75AFF00214DF20860FCF755FFBA
:105430005C214DF20960FCF750FF00214DF20A603B
:10544000FCF74BFF81214DF20B60FCF746FF00217A
:105450004DF20C60FCF741FFA6214DF20D60FCF708
:105460003CFF00214DF20E60FCF737FFE5214DF2C5
:105470000F60FCF732FF01214DF21060FCF72DFFA9
:1054800013214DF21160FCF728FF01214DF212604B
:10549000FCF723FF54214DF21360FCF71EFF01219E
:1054A0004DF21460FCF719FF82214DF21560FCF7F4
:1054B00014FF01214DF21660FCF70FFFCA214DF2D7
:1054C0001760FCF70AFF02214DF21860FCF705FF98
:1054D00000214DF21960FCF700FF02214DF21A6025
:1054E000FCF7FBFE01214DF21B60FCF7F6FE0221EA
:1054F0004DF21C60FCF7F1FE34214DF21D60FCF70B
:10550000ECFE02214DF21E60FCF7E7FE67214DF232
:105510001F60FCF7E2FE02214DF22060FCF7DDFE89
:1055200084214DF22160FCF7D8FE02214DF2226069
:10553000FCF7D3FEA4214DF22360FCF7CEFE02213E
:105540004DF22460FCF7C9FEB7214DF22560FCF74F
:10555000C4FE02214DF22660FCF7BFFECF214DF2C2
:105560002760FCF7BAFE02214DF22860FCF7B5FE79
:10557000DE214DF22960FCF7B0FE02214DF22A60D7
:10558000FCF7ABFEF2214DF22B60FCF7A6FE0221E8
:105590004DF22C60FCF7A1FEFE214DF22D60FCF7D0
:1055A0009CFE03214DF22E60FCF797FE10214DF278
:1055B0002F60FCF792FE03214DF23060FCF78DFE68
:1055C00033214DF23160FCF788FE03214DF2326049
:1055D000FCF783FE6D214DF23360FCF77EFE552112
:1055E0004FF47040FCF779FEAA214FF20100FCF75E
:1055F00074FE52214FF20200FCF76FFE08214FF2B9
:105600000300FCF76AFE00214FF20400FCF765FE80
:10561000CC214FF43140FCF760FE00214BF2011029
:10562000FCF75BFE05214FF43640FCF756FE702177
:105630004FF43740FCF751FE70214BF20170FCF73C
:105640004CFE01214FF43840FCF747FE03214BF696
:105650000100FCF742FE03214BF60200FCF73DFE81
:1056600003214BF60300FCF738FE02214FF43C40C7
:10567000FCF733FE00214BF60140FCF72EFE002123
:105680004BF60240FCF729FED0214FF44940FCF7CD
:1056900024FE02214CF60110FCF71FFE50214CF6AF
:1056A0000210FCF71AFE50214CF60310FCF715FE11
:1056B00050214CF60410FCF710FE00214FF454501A
:1056C000FCF70BFE55214FF46850FCF706FE4FF433
:1056D0008850FCF7E9FD7820FAF7B8FF4FF4245022
:1056E000FCF7E2FD01F059B9FE488088A0F51341AE
:1056F00025397DD147F6F001E520FCF7EEFD4FF4AA
:1057000080710120FCF7E9FD4FF4E0610220FCF715
:10571000E4FD41F230010320FCF7DFFD002104200D
:10572000FCF7DBFD40F202210820FCF7D6FD00214A
:105730000920FCF7D2FD00210A20FCF7CEFD002154
:105740000C20FCF7CAFD00210D20FCF7C6FD00214E
:105750000F20FCF7C2FD00211020FCF7BEFD072141
:105760001120FCF7BAFD00211220FCF7B6FD002144
:105770001320FCF7B2FD00210720FCF7AEFD41F23B
:1057800090611020FCF7A9FD40F227211120FCF7C1
:10579000A4FD9D211220FCF7A0FD4FF4C851132059
:1057A000FCF79BFD25212920FCF797FD0D212B20DF
:1057B000FCF793FD07213020FCF78FFD40F2033109
:1057C0003120FCF78AFD03213220FCF786FD40F2F0
:1057D00006213520FCF781FD08213620FCF77DFDF0
:1057E00040F206413720FCF778FD4FF4417100E0AC
:1057F00058E03820FCF771FD07213920FCF76DFDDA
:1058000040F202613C20FCF768FD08213D20FCF7D6
:1058100064FD00215020FCF760FDEF215120FCF7D2
:105820005CFD00215220FCF758FD40F23F1153204F
:10583000FCF753FD4FF427416020FCF74EFD01219A
:105840006120FCF74AFD00216A20FCF746FD00219B
:105850008020FCF742FD00218120FCF73EFD002165
:105860008220FCF73AFD00218320FCF736FD002161
:105870008420FCF732FD00218520FCF72EFD10214D
:105880009020FCF72AFD4FF4C0619220FCF725FD23
:1058900040F233110720FCF720FD22210020FCF705
:1058A0001CFD1FE78F488088A0F5134128397DD162
:1058B00041F28F01EC20FCF710FD41F23421EF2082
:1058C000FCF70BFD4FF480710120FCF706FD4FF44F
:1058D000E0610220FCF701FD41F230010320FCF7FA
:1058E000FCFC00210420FCF7F8FC40F20221082017
:1058F000FCF7F3FC00210920FCF7EFFC00210A2053
:10590000FCF7EBFC01210C20FCF7E7FC00210D204B
:10591000FCF7E3FC00210F20FCF7DFFC0021102046
:10592000FCF7DBFC07211120FCF7D7FC002112203B
:10593000FCF7D3FC00211320FCF7CFFC012107204A
:10594000FCF7CBFC3220FAF7A3FE41F29041102085
:10595000FCF7C3FC40F227211120FCF7BEFC3220EB
:10596000FAF796FE8A211220FCF7B7FC3220FAF7EC
:105970008FFE4FF4D0511320FCF7AFFC06212920F5
:10598000FCF7ABFC0D212B20FCF7A7FC3220FAF72B
:105990007FFE00212020FCF7A0FC00212120FCF745
:1059A0009CFC3220FAF774FE002100E075E0302004
:1059B000FCF793FC40F204613120FCF78EFC40F2CE
:1059C00005313220FCF789FC00213520FCF785FCED
:1059D00040F609413620FCF780FC4FF40171372076
:1059E000FCF77BFC40F201313820FCF776FC40F2FA
:1059F00007713920FCF771FC00213C20FCF76DFC9D
:105A000040F60A213D20FCF768FC3220FAF740FE00
:105A100000215020FCF761FCEF215120FCF75DFCD8
:105A200000215220FCF759FC40F23F115320FCF7B3
:105A300054FC4FF427416020FCF74FFC012161200A
:105A4000FCF74BFC00216A20FCF747FC002180207A
:105A5000FCF743FC00218120FCF73FFC0021822061
:105A6000FCF73BFC00218320FCF737FC002184205D
:105A7000FCF733FC00218520FCF72FFC102190203F
:105A8000FCF72BFC4FF4C0619220FCF726FC40F29F
:105A900033110720FCF721FC24E612488088A0F58A
:105AA000134120397ED10846FCF717FC4FF4807172
:105AB0000120FCF712FC4FF4E0610220FCF70DFC22
:105AC00041F230010320FCF708FC00210420FCF720
:105AD00004FC40F202210820FCF7FFFB0021092012
:105AE00002E00000201D0020FCF7F7FB00210A2047
:105AF000FCF7F3FB01210C20FCF7EFFB00210D204C
:105B0000FCF7EBFB00210F20FCF7E7FB3220FAF754
:105B1000BFFD40F201110720FCF7DFFB3220FAF74E
:105B2000B7FD4FF486511020FCF7D7FB0721112059
:105B3000FCF7D3FB4FF488711220FCF7CEFB4FF437
:105B400030611320FCF7C9FB00212920FCF7C5FBBD
:105B500044F210012B20FCF7C0FB00215020FCF781
:105B6000BCFBEF215120FCF7B8FB00215220FCF7D1
:105B7000B4FB40F23F115320FCF7AFFB4FF41C5134
:105B80006020FCF7AAFB01216120FCF7A6FB0021A5
:105B90006A20FCF7A2FB00218020FCF79EFB00217D
:105BA000812000E030E0FCF798FB00218220FCF728
:105BB00094FB00218320FCF790FB00218420FCF75C
:105BC0008CFB00218520FCF788FB10219020FCF73E
:105BD00084FB00219220FCF780FB01219320FCF73D
:105BE0007CFB4FF488719520FCF777FB0021972010
:105BF000FCF773FB00219820FCF76FFB40F2731158
:105C00000720FCF76AFB6DE5FE488088A0F513418C
:105C100031397DD141F21401E720FCF75EFB4FF4EE
:105C200080710120FCF759FB4FF400710220FCF752
:105C300054FB41F238010320FCF74FFB40F20221F4
:105C40000820FCF74AFB00210920FCF746FB002155
:105C50000A20FCF742FB00210C20FCF73EFB002150
:105C60000D20FCF73AFB00210F20FCF736FB00214A
:105C70001020FCF732FB07211120FCF72EFB00213E
:105C80001220FCF72AFB00211320FCF726FBC8207A
:105C9000FAF7FEFC41F290611020FCF71EFB40F287
:105CA00027211120FCF719FB3220FAF7F1FC0C2117
:105CB0001220FCF712FB3220FAF7EAFC4FF40061E5
:105CC0001320FCF70AFB11212920FCF706FB0B210E
:105CD0002B20FCF702FB3220FAF7DAFC002120200F
:105CE000FCF7FBFA40F23F112120FCF7F6FA002105
:105CF0003020FCF7F2FA4FF483713120FCF7EDFA13
:105D000000213220FCF7E9FA4FF40171352000E060
:105D100064E0FCF7E2FA41F20A613620FCF7DDFAB2
:105D200040F207713720FCF7D8FA4FF4837138201E
:105D3000FCF7D3FA40F207713920FCF7CEFA40F2B3
:105D400002413C20FCF7C9FA40F60F413D20FCF728
:105D5000C4FA00215020FCF7C0FAEF215120FCF7D3
:105D6000BCFA00215220FCF7B8FA40F23F11532050
:105D7000FCF7B3FA4FF41C516020FCF7AEFA012196
:105D80006120FCF7AAFA00216A20FCF7A6FA00219C
:105D90008020FCF7A2FA00218120FCF79EFA002166
:105DA0008220FCF79AFA00218320FCF796FA002162
:105DB0008420FCF792FA00218520FCF78EFA10214E
:105DC0009020FCF78AFA4FF4C0619220FCF785FA24
:105DD00040F233110720FCF780FA83E48948808879
:105DE000A0F5A84108397DD14FF480710120FCF75E
:105DF00074FA4FF4E0610220FCF76FFA41F23001CF
:105E00000320FCF76AFA00210420FCF766FA40F24E
:105E100007210820FCF761FA00210920FCF75DFA50
:105E200000210A20FCF759FA00210C20FCF755FA52
:105E300000210D20FCF751FA00210F20FCF74DFA4C
:105E40001420FAF725FC41F2B0611020FCF745FA66
:105E500001211120FCF741FA01211720FCF73DFA3E
:105E60004FF49C711220FCF738FA4FF400611320B4
:105E7000FCF733FA09212920FCF72FFA09212A20FF
:105E8000FCF72BFA0021A420FCF727FA0021502070
:105E9000FCF723FAEF215120FCF71FFA00215220D2
:105EA000FCF71BFA40F23F115320FCF716FA4FF4AF
:105EB0001C516020FCF711FA01216120FCF70DFA5A
:105EC00000216A20FCF709FA00218020FCF705FA7E
:105ED00000218120FCF701FA00218220FCF7FDF966
:105EE000002100E024E08320FCF7F7F90021842062
:105EF000FCF7F3F900218520FCF7EFF9132190203E
:105F0000FCF7EBF900219220FCF7E7F9032193203D
:105F1000FCF7E3F94FF488719520FCF7DEF940F2C5
:105F200073110720FCF7D9F93220FAF7B1FBB8E476
:105F300034488088A0F5A851053965D10720FCF7C1
:105F4000CCF93220FAF7A4FB4FF48E711220FCF743
:105F5000C4F90121A420FCF7C0F90F210820FCF7A7
:105F6000BCF908210A20FCF7B8F908210D20FCF73C
:105F7000B4F940F207713020FCF7AFF90721312066
:105F8000FCF7ABF940F203613220FCF7A6F94FF4BD
:105F9000E0613320FCF7A1F940F202213420FCF744
:105FA0009CF902213520FCF798F941F60F71362053
:105FB000FCF793F940F207713720FCF78EF90021C6
:105FC0003820FCF78AF900213920FCF786F940F2E5
:105FD00007713A20FCF781F900213B20FCF77DF99D
:105FE00007213C20FCF779F900213D20FCF775F9E9
:105FF0003220FAF74DFB01210720FCF76EF9012151
:10600000172002E0201D0020AEE0FCF766F93220E8
:10601000FAF73EFB4FF4BD511020FCF75EF940F259
:1060200017211120FCF759F94FF48F711220FCF75A
:1060300054F94FF470611320FCF74FF900212A2026
:10604000FCF74BF90A212920FCF747F94FF49F711F
:106050001220FCF742F900215020FCF73EF9EF2115
:106060005120FCF73AF900215220FCF736F940F2B2
:106070003F115320FCF731F94FF41C516020FCF71D
:106080002CF901216120FCF728F900216A20FCF796
:1060900024F900218020FCF720F900218120FCF761
:1060A0001CF900218220FCF718F900218320FCF75D
:1060B00014F900218420FCF710F900218520FCF759
:1060C0000CF913219020FCF708F94FF4407192204D
:1060D000FCF703F905219320FCF7FFF80021952038
:1060E000FCF7FBF800219720FCF7F7F80021982037
:1060F000FCF7F3F84FF480710120FCF7EEF84FF451
:10610000E0610220FCF7E9F841F238010320FCF7D6
:10611000E4F800210420FCF7E0F800210C20FCF753
:10612000DCF800210F20FCF7D8F800212020FCF734
:10613000D4F800212120FCF7D0F821210720FCF71A
:10614000CCF81420FAF7A4FA61210720FCF7C5F86F
:106150001420FAF79DFA40F273110720FCF7BDF8FE
:106160001420FAF795FA97E4FE488088A0F53541A7
:1061700005397DD10846FCF7B0F800210846FCF748
:10618000ACF800210846FCF7A8F800210846FCF707
:10619000A4F80121A420FCF7A0F81420FAF778FA5B
:1061A0004FF41C516020FCF798F840F202210820BF
:1061B000FCF793F84FF405713020FCF78EF843F2AA
:1061C00015713120FCF789F840F204613220FCF7A8
:1061D00084F840F616613320FCF77FF842F2112173
:1061E0003420FCF77AF84FF4A8513520FCF775F805
:1061F00048F207513620FCF770F841F2074137208A
:10620000FCF76BF841F203413820FCF766F82021D7
:106210003920FCF762F81A219020FCF75EF8002183
:106220001020FCF75AF807211120FCF756F800213E
:106230001220FCF752F800211320FCF74EF814202E
:10624000FAF726FA4FF4E6611020FCF746F840F220
:1062500037111120FCF741F81420FAF719FA4FF41E
:10626000DC711220FCF739F81420FAF711FA00E07B
:1062700083E04FF470611320FCF72FF880212A206F
:10628000FCF72BF848212920FCF727F81420FAF70F
:10629000FFF94FF480710120FCF71FF84FF4E06123
:1062A0000220FCF71AF841F238010320FCF715F838
:1062B00040F202210820FCF710F800210A20FCF728
:1062C0000CF800210C20FCF708F800210D20FCF749
:1062D00004F830210E20FCF700F800215020FBF7D5
:1062E000FCFFEF215120FBF7F8FF00215220FBF7C4
:1062F000F4FF40F23F115320FBF7EFFF4FF41C5126
:106300006020FBF7EAFF01216120FBF7E6FF002197
:106310006A20FBF7E2FF11219020FBF7DEFF4FF42C
:10632000C0619220FBF7D9FF40F202419320FBF7B6
:10633000D4FF02219420FBF7D0FF1420FAF7A8F92C
:1063400001210720FBF7C9FF1420FAF7A1F9612109
:106350000720FBF7C2FF40F273110720FBF7BDFFD8
:1063600000212020FBF7B9FF00212120FBF7B5FF1A
:1063700022210020FBF7B1FF0FE37A488088A0F5C7
:10638000454105397DD10846FBF7A7FF00210846A6
:10639000FBF7A3FF1420FAF77BF900210846FBF76F
:1063A0009CFF00210846FBF798FF00210846FBF7F9
:1063B00094FF00210846FBF790FF0121A420FBF782
:1063C0008CFF1420FAF764F94FF41C516020FBF79E
:1063D00084FF40F606010820FBF77FFF40F20371BF
:1063E0003020FBF77AFF01213120FBF776FF0421F3
:1063F0003220FBF772FF4FF481713320FBF76DFF02
:106400004FF440713420FBF768FF40F20311352050
:10641000FBF763FF1F213620FBF75FFF40F203719C
:106420003720FBF75AFF01213820FBF756FF0421E4
:106430003920FBF752FF15219020FBF74EFF4FF458
:1064400082611020FBF749FF40F247211120FBF742
:1064500044FF4FF4DE711220FBF73FFF4FF4606101
:106460001320FBF73AFF7820FAF712F94FF4807106
:106470000120FBF732FF4FF400710220FBF72DFFE4
:1064800000E050E041F230010320FBF726FF082135
:106490000A20FBF722FF00210C20FBF71EFF202122
:1064A0000E20FBF71AFF00210F20FBF716FF00213B
:1064B0002020FBF712FF00212120FBF70EFF3D21DA
:1064C0002A20FBF70AFF1420FAF7E2F82D212920F1
:1064D000FBF703FF00215020FBF7FFFE4DF2EF0119
:1064E0005120FBF7FAFE00215220FBF7F6FE40F2A6
:1064F0003F115320FBF7F1FE00216120FBF7EDFE79
:1065000000216A20FBF7E9FE4FF440719220FBF76F
:10651000E4FE05219320FBF7E0FE4FF48071072095
:10652000FBF7DBFE39E20F488088A0F58A4131395C
:106530007ED101210020FBF7D0FE0A20FAF7A8F84F
:1065400041F228611020FBF7C8FE0E211220FBF754
:10655000C4FE40F639211320FBF7BFFE0A20FAF7EC
:1065600097F801E0201D002040211120FBF7B5FE27
:1065700050211520FBF7B1FE0A20FAF789F81E21F9
:106580001220FBF7AAFE0A20FAF782F84FF4B15165
:106590001020FBF7A2FE42F639211320FBF79DFEE7
:1065A0000A20FAF775F84FF480710120FBF795FE89
:1065B0004FF440710220FBF790FE41F238010320B6
:1065C000FBF78BFE40F202210820FBF786FE082134
:1065D0000A20FBF782FE00213020FBF77EFE40F20E
:1065E00002413120FBF779FE4FF483713220FBF733
:1065F00074FE40F203513320FBF76FFE4FF48271BB
:106600003420FBF76AFE40F201313520FBF765FECE
:1066100040F207713620FBF760FE40F2053137206B
:10662000FBF75BFE4FF402713820FBF756FE00E0EB
:106630003EE040F60B713920FBF74FFE022141206E
:10664000FBF74BFE4FF41C516020FBF746FE012187
:106650006120FBF742FE4FF404719020FBF73DFEF2
:106660004FF485719220FBF738FE04219320FBF74D
:1066700034FE4FF48071A020FBF72FFE012107208C
:10668000FBF72BFE21210720FBF727FE2321072004
:10669000FBF723FE33210720FBF71FFE40F23311E7
:1066A0000720FBF71AFE0021A020FBF716FE74E17D
:1066B000F7488088A0F58A4135397CD130211520F2
:1066C000FBF70BFE10219A20FBF707FE202111207B
:1066D000FBF703FE43F228411020FBF7FEFD0221E9
:1066E0001220FBF7FAFD41F238011320FBF7F5FD0C
:1066F0002820F9F7CDFF12210846FBF7EEFD2820F0
:10670000F9F7C6FF43F220411020FBF7E6FD43F204
:1067100038011320FBF7E1FD4620F9F7B9FF00210E
:106720003020FBF7DAFD40F202413120FBF7D5FDC6
:1067300040F207313220FBF7D0FD4FF44171332096
:10674000FBF7CBFD04213420FBF7C7FD40F20141EC
:106750003520FBF7C2FD40F207713620FBF7BDFD87
:1067600040F205313720FBF7B8FD4FF4C261382005
:10677000FBF7B3FD4FF4C2613920FBF7AEFD4FF4D8
:1067800080710120FBF7A9FD4FF440710220FBF757
:10679000A4FD41F230010320FBF79FFD40F6080104
:1067A0000820FBF79AFD08210A20FBF796FD4FF41D
:1067B0001C51602000E033E0FBF78FFD01216120D8
:1067C000FBF78BFD4FF49F719020FBF786FD4FF494
:1067D00080719220FBF781FD4FF480719320FBF7CD
:1067E0007CFD4FF44051A020FBF777FD1021A32042
:1067F000FBF773FD01210720FBF76FFD2121072027
:10680000FBF76BFD23210720FBF767FD33210720F2
:10681000FBF763FD40F233110720FBF75EFDBCE0A0
:106820009B488088A0F5C8516339F8D1E220FBF776
:106830003BFD1D20FBF741FD0220FBF73EFD042040
:10684000FBF73BFD6420F9F701FFE020FBF72CFD8F
:106850000120FBF732FD0A20F9F71AFFE020FBF7D1
:1068600023FD0320FBF729FD0C20F9F711FF012080
:10687000FBF71AFD0A20F9F70BFFE620FBF714FDE2
:106880002F20FBF71AFDFF20FBF717FDFF20FBF77A
:1068900014FDB020FBF708FD2020FBF70EFD0020C3
:1068A000FBF70BFD0120FBF708FD40F23F10FBF763
:1068B00004FD0020FBF701FDEF20FBF7FEFC0020AC
:1068C000FBF7FBFCB420FBF7EFFC0220FBF7F5FC29
:1068D00040F23F20FBF7F1FC0020FBF7EEFC2E20FE
:1068E000FBF7EBFC1D20FBF7E8FC0020FBF7E5FCC9
:1068F0000020FBF7E2FC0020FBF7DFFCB620FBF7F3
:10690000D3FC0120FBF7D9FC4FF48E70FBF7D5FCCC
:106910000020FBF7D2FC1720FBF7CFFC1520FBF77C
:10692000CCFC0020FBF7C9FC0020FBF7C6FCF020E4
:10693000FBF7BAFC0320FBF7C0FC2920FBF7B4FCF3
:10694000D020FBF7B1FC0020FBF7B7FCBE20FBF723
:10695000ABFC0520FBF7B1FCFE20FBF7AEFC0120F1
:10696000FBF7ABFC0020FBF7A8FC0020FBF7A5FC25
:106970000020FBF7A2FCB820FBF796FC0320FBF7F6
:106980009CFC0120FBF799FCBA20FBF78DFC012051
:10699000FBF793FC6420FCF70DF90120FCF742F9AA
:1069A00001203C4908604FF6FF70FCF72BFB21B03B
:1069B00000BD2DE9FC4F05460E4617469846DDF80A
:1069C0002C900020019032488088A0F5D0410439F5
:1069D00029D12F488079012825D1AB4635462C484E
:1069E0000088C01B401E86B2474629480088A0EB9D
:1069F0000B00401E1FFA80F80020254988712A20CC
:106A000048812B20888143463A4631462846CDF8B6
:106A10000090FFF7CEFF01201D4988712B2048818F
:106A20002A2088811DE0781B401C80B201903446EA
:106A300015E021462846FBF783FCFBF765FC4FF089
:106A4000000A07E04FF0D840A0F880900AF101005A
:106A50001FFA80FA01988245F4DB601C84B2444539
:106A6000E7DDBDE8FC8F2DE9F84F07460D4690465F
:106A70009946DDF828B0A8EB0700401C1FFA80FA01
:106A8000A9EB0500401C80B2009000241AE0000031
:106A9000201D0020BC824042281981B23846FBF7F5
:106AA0004FFCFBF731FC002608E004FB0A603BF8D2
:106AB0001000F749088006F1010086B25645F4DB64
:106AC000601C84B200988442E6DBBDE8F88F2DE9B3
:106AD000FF4F84B081468A460020039002900698BA
:106AE000A0EB09050798A0EB0A06CDF80490CDF8B5
:106AF00000A0002D01DD012705E00DB9002702E00F
:106B00004FF0FF376D42002E02DD4FF0010806E026
:106B100016B94FF0000802E04FF0FF387642B54258
:106B200001DD2C4600E034464FF0000B21E0009AD6
:106B300091B2019A90B2FBF76DFF0398284403903D
:106B40000298304402900398A04205DD0398001B90
:106B500003900198384401900298A04205DD029804
:106B6000001B02900098404400900BF101001FFAB6
:106B700080FB601C8345DADD08B0BDE8F08FF0B51E
:106B800004460D4616461F462B46324629462046E9
:106B9000FFF79DFF3B46224629462046FFF797FF19
:106BA0003B46324639462046FFF791FF3B46324688
:106BB00029463046FFF78BFFF0BD2DE9F04306462E
:106BC0000F469046002445460320A0EB48093CE0D0
:106BD0007A1B91B2321990B2FBF71CFF3A1B91B2AB
:106BE000721990B2FBF716FF3A1991B2721990B26E
:106BF000FBF710FF7A1991B2321990B2FBF70AFF36
:106C00007A1991B2321B90B2FBF704FF3A1991B294
:106C1000721B90B2FBF7FEFE7A1B91B2321B90B250
:106C2000FBF7F8FE3A1B91B2721B90B2FBF7F2FE33
:106C3000641CB9F1000F03DAA000801D814404E058
:106C4000601B80000A3081446D1EAC42C0DDBDE88F
:106C5000F0832DE9F84F80460E4617461C46B34692
:106C60002046E31704EB5373DB1021464FEAE47C24
:106C700004EB5C7C4FEAEC0CB4EBCC0C02D04FF094
:106C8000010C01E04FF0000C6344224604EBD27C7F
:106C90004FEA6C0C03FB0CF3DBB20093A7F120006E
:106CA000C7B2002556E00C2C07D107EB4700794905
:106CB00001EB800010F8059013E0102C05D1764808
:106CC00000EB071010F805900BE0182C07D107EB2C
:106CD000C700724901EB800010F8059001E0BDE8A3
:106CE000F88F4FF0000A2FE019F0800F06D06C48A3
:106CF000028831464046FBF79BFE07E00A9828B918
:106D00006848028831464046FBF792FE4FEA4960E8
:106D10004FEA1069701C86B263484088B04200DCBC
:106D2000DDE7A6EB0B00A0420AD15E4608F10100A8
:106D30001FFA80F85C480088404500DCCFE706E099
:106D40000AF1010000F0FF0ABAF1080FCCDB00BF26
:106D5000681CC5B200988542A5DB00BFBFE710B52F
:106D60000246012000E050430B00A1F10104E1B212
:106D7000F9D110BD2DE9FF4F81B0074691461E465F
:106D80000E9D4FF0000A002439E0301B401EC1B2B6
:106D90000A20FFF7E4FFB9FBF0F00A21B0FBF1F2A3
:106DA00001FB1208BAF1000F16D1701EA04213DDCC
:106DB000B8F1000F0ED10020AB4605EBDB71491096
:106DC00001FB0471009088B22B4620220299FFF744
:106DD00040FF12E04FF0010A0020AB4605EBDB71EB
:106DE000491001FB0471009088B208F13001CAB269
:106DF0002B460299FFF72DFF00BF601CC4B2B442BE
:106E0000C3DB05B0BDE8F08F2DE9FF4F82B0064629
:106E100092461F46DDE90F480020019000255CE006
:106E2000781B401EC1B20A20FFF799FFBAFBF0F0B1
:106E30000A21B0FBF1F201FB12090198B0BB781EE8
:106E4000A84236DDB9F1000F31D118F0800F0FD014
:106E500008F00100A34604EBDB71491001FB05615A
:106E6000009088B2234630220399FFF7F2FE0EE02D
:106E700008F00100A34604EBDB71491001FB05613A
:106E8000009088B2234620220399FFF7E2FE22E019
:106E90008000006CCB9C01083FA101082FA70108CE
:106EA0003C0000203E000020201D002001E00120C9
:106EB000019008F00100A34604EBDB71491001FBCF
:106EC0000561009088B209F13001CAB223460399E6
:106ED000FFF7BFFE00BF681CC5B2BD42A0DB06B015
:106EE000BDE8F08F2DE9F84704460D4690469946D7
:106EF000DDE9096704F0FF0A08EB04001FFA80F8D7
:106F000009EB05001FFA80F916E0444502DB544600
:106F1000A81985B24D4500DB14E0002000903A78B6
:106F2000334629462046FFF794FE304606EBD071E3
:106F300004EB61018CB27F1C38787E2802DC387843
:106F40002028E2DA00BFBDE8F88700001CB54FF446
:106F5000C060009001208DF8040000208DF806002C
:106F600003208DF805006946164800F0F7FA4FF443
:106F7000C061144800F06EFB1CBD10B54FF40071E9
:106F8000104800F04DFB08B9012000E00020044645
:106F900022464FF400710B4800F060FB10BD10B5A5
:106FA0004FF48061074800F03BFB08B9012000E086
:106FB0000020044622464FF48061024800F04EFB58
:106FC00010BD00000014024033490143334A1160F0
:106FD000704770B5002100230F22C47824B32F4CD2
:106FE000246804F4E064C4F5E064C4F30721C1F14B
:106FF0000404E3B20A4144789C40E1B2847814402E
:1070000021430C07210E264C05786155047804F0C5
:107010001F050124AC4005786D114FF0E02606EB0A
:107020008505C5F8004109E0047804F01F04012536
:10703000A5401C4C0678761144F8265070BD1A4ABB
:107040000A400243154B1B1F1A60704739B1134A9F
:10705000121D12680243114B1B1D1A6006E00F4AF5
:10706000121D126882430D4B1B1D1A6070470428C5
:1070700008D14FF0E021096941F004014FF0E0220E
:10708000116107E04FF0E021096921F004014FF0A0
:10709000E0221161704700000000FA050CED00E0ED
:1070A00000E400E080E100E080FFFF1F016821F0C4
:1070B000010101600021016041608160C1600161E6
:1070C00021214161DA49884204D13D21D84A103A50
:1070D00091608CE0D6491831884205D14FF4746133
:1070E000D34A103A916082E0D1493031884205D1CB
:1070F0004FF47411CE4A103A916078E0CC4948318F
:10710000884205D14FF07461C94A103A91606EE02F
:10711000C7496031884204D1C649C54A103AD16096
:1071200065E0C3497831884204D1C349C04A103A66
:10713000D1605CE0BE499031884204D1BF49BC4A6D
:10714000103AD16053E0BA49A831884205D14FF0D6
:107150003D51B74A103AD16049E0B949884204D15B
:107160003D21B74A083A116041E0B54918318842DB
:1071700005D14FF47461B24A083A116037E0B04962
:107180003031884205D14FF47411AD4A083A11608C
:107190002DE0AB494831884205D14FF07461A84ACF
:1071A000083A116023E0A6496031884204D1A14920
:1071B000A34A121F11601AE0A1497831884204D114
:1071C0009D499F4A121F116011E09D4990318842EC
:1071D00004D19A499A4A121F116008E09849A831CF
:1071E000884204D14FF03D51954A121F11607047FB
:1071F00010B500220268934B1A40CC680B682343F9
:107200004C6923438C692343CC6923430C6A234391
:107210004C6A23438C6A23434C6B23438C6B23437C
:107220001A430260426922F00702D1E90B3423437A
:107230001A4342610B6943604B6883608B68C3608B
:1072400010BD0021016041608160C1600161416148
:107250008161C161016241628162C1620163416316
:107260008163704721B1026842F00102026003E0CD
:10727000026822F001020260704721B1026842F404
:107280000042026003E0026822F40042026070479C
:1072900021B1026842F02002026003E0026822F09D
:1072A000200202607047416070470146486880B222
:1072B000704722B1036843F40023036003E00368CE
:1072C00023F4002303600161704721B1026842F496
:1072D0008022026003E0026822F48022026070478C
:1072E0000AB1016100E0C1607047014600200A68F0
:1072F00012F4002F01D0012000E000207047014669
:1073000000200A6812F0010F01D0012000E00020E7
:107310007047014600204A6902F03800704730B5D6
:1073200003460A4600200024454DAB4202D24049A4
:10733000103901E04249103912F0005F01D04C6869
:1073400000E00C68404D2C40144201D0012000E0C8
:10735000002030BD02463A4B9A4202D234481038DF
:1073600001E03748103811F0005F03D0364B0B4076
:10737000C36002E0344B0B408360704710B511F0DE
:10738000800F09D022B1436943F08003436103E0D9
:10739000436923F08003436180290BD02AB103683D
:1073A00001F01E042343036004E0036801F01E049F
:1073B000A343036010BD70B50246002000240025E1
:1073C0001F4EB24202D21A4B103B01E01C4B103B45
:1073D0001E4E314206D01E2606EAD124166806EA61
:1073E000040502E0566906F0800511F0005F01D047
:1073F0005C6800E01C68144E34400C4202D00DB1B1
:10740000012000E0002070BD02460D4B9A4202D2DE
:107410000748103801E00A48103811F0005F03D027
:10742000094B0B40C36002E0074B0B408360704781
:10743000106002403D000020400F002000003D2071
:10744000106402403F801CF07D0F7D0F3C0F3C0F0D
:1074500010B504469848844208D10121084600F03E
:1074600086FB0021012000F082FB76E093488442F5
:1074700008D10121022000F07AFB0021022000F057
:1074800076FB6AE08E48844208D10121042000F096
:107490006EFB0021042000F06AFB5EE08948844214
:1074A00008D10121082000F062FB0021082000F033
:1074B0005EFB52E08448844208D10121102000F094
:1074C00056FB0021102000F052FB46E07F4884422A
:1074D00008D10121202000F04AFB0021202000F0EB
:1074E00046FB3AE07A48844208D10121402000F06E
:1074F0003EFB0021402000F03AFB2EE0754884421C
:1075000008D10121802000F032FB0021802000F012
:107510002EFB22E07048844208D10121801500F042
:1075200026FB0021A01500F022FB16E06B488442E8
:1075300008D10121401500F01AFB0021601500F070
:1075400016FB0AE06648844207D10121001500F0CD
:107550000EFB0021201500F00AFB10BDF0B50A4615
:1075600000210023002400BF3DE0012505FA01F3BE
:10757000156805EA03049C4234D105684F000326D0
:10758000BE40B543056015794E00B54006683543E9
:1075900005601579012D02D01579022D16D1856867
:1075A0004F000326BE40B543856055794E00B54077
:1075B000866835438560456801268E40B543456041
:1075C000456896798E40B6B235434560C5684F0030
:1075D0000326BE40B543C560D5794E00B540C668A8
:1075E0003543C560491C1029BFD3F0BD4FF6FF716C
:1075F00001600021017141718171C171704708B54D
:107600004FF480320092009A0A430092009AC261BD
:10761000C161009AC261C2690092C269009208BD4C
:107620000246002013690B4201D0012000E0002037
:1076300070470146086980B27047024600205369CE
:107640000B4201D0012000E000207047014648694C
:1076500080B2704701837047418370470AB101834C
:1076600000E0418370474161704742694A4042618E
:107670007047F0B5002300244D07ED0E02FA05F324
:10768000CE1000F1200555F826504E07F70E0F26B4
:10769000BE40B543CF1000F1200646F82750CE106B
:1076A00000F1200555F8265045EA0304CE1000F1FC
:1076B000200545F82640F0BD0000024000040240CD
:1076C00000080240000C024000100240001402407A
:1076D00000180240001C024000200240002402402A
:1076E00000280240F948006840F00100F7490860AE
:1076F0000020F64908310860F4480068F449084061
:10770000F2490860F348091D0860F348EF498431E5
:107710000860F0481038091D0860EC48006820F443
:107720008020EA4908600020E8490C310860E749F8
:107730008C31086070470021E44A921C1170114698
:107740000870704710B501460022002300204A113E
:10775000012A02D1DD4C236808E0022A03D1DB4C68
:107760007034236802E0D94C7434236801F01F029E
:10777000012494401C4201D0012000E0002010BDF3
:1077800038B5002000900024002500BF3120FFF70D
:10779000D9FF05460098401C00900098B0F5A04F16
:1077A00001D0002DF2D03120FFF7CCFF08B1012429
:1077B00000E00024204638BD01460020C34A10687E
:1077C00020F0F80040EAC10010607047C34908602B
:1077D00070470021BD4A703211701170012802D02B
:1077E00004280AD104E00121B84A7032117005E082
:1077F0000521B64A7032117000E000BF00BF70472B
:10780000B7490860704770B5049C41EA82150126AB
:10781000C6EB530645EA0645054345EA0465AB4E0B
:10782000361D356070BDAD4908667047820142EA79
:107830000172A64B84331A607047A8498866704766
:1078400010B5830143EA016343EA02739F4C883415
:10785000236010BDA14908677047A049C8647047FC
:1078600002460020994B0833186820F0EC6042EA89
:1078700001031843954B08331860704702460020F7
:10788000924B0833186820F0784042EA010318430D
:107890008E4B083318607047014600208B4A08322F
:1078A000106820F0030008431060704787480830D4
:1078B000006800F00C00704701460020834A08323F
:1078C000106820F0F0000843106070470146002067
:1078D0007E4A0832106820F4E05008431060704778
:1078E00001460020794A0832106820F4604040EADE
:1078F000C10010607047F0B500210022002402256D
:1079000000260223714F08373F6807F00C0121B1B0
:10791000042905D0082937D105E0724F076036E009
:10792000714F076033E0694F3F1D3F68C7F38056D2
:10793000664F3F1D3F6807F03F036EB16A4FB7FBCC
:10794000F3F7DFF888C10CF1040CDCF800C0CCF3CD
:10795000881C07FB0CF40CE0624FB7FBF3F7DFF871
:107960006CC10CF1040CDCF800C0CCF3881C07FBE4
:107970000CF4564F3F1D3F68C7F301477F1C7D0045
:10798000B4FBF5F7076002E0564F076000BF00BF89
:107990004E4F08373F6807F0F0010909534F7A5CF2
:1079A0000768D7404760494F08373F6807F4E05100
:1079B000890A4E4F7A5C4768D7408760434F083743
:1079C0003F6807F46041490B484F7A5C4768D740ED
:1079D000C760F0BD002100F44072B2F5407F0AD1CB
:1079E0003A4A0832116821F4F811414A0240114321
:1079F000364A08321160354A70321268C0F30B0300
:107A00001A43324B70331A60704735494439086065
:107A100070473349403908607047364908607047FD
:107A200001460020294A8C32106820F44010084397
:107A30001060704701460020244A8C32106820F400
:107A40004000084310607047014600201F4A8C32F6
:107A5000106820F01F004A1E10431C4A8C32106030
:107A6000704701460020194A8C32106820F4F85003
:107A70004A1E40EA0220154A8C32106070470146C7
:107A80000020124A8C32106820F440300843106005
:107A9000704719490860704739B10C4A3032126892
:107AA00002430A4B30331A6006E0084A303212684B
:107AB0008243064B30331A607047F9B1034A3432BF
:107AC00012680243014B34331A601CE00038024054
:107AD000FFFFF6EA1030002400300020000047428B
:107AE000800E47420024F40000127A00400000207B
:107AF000FFFCFF0F5C014742E01147428F4A1268CA
:107B000082438E4B1A60704739B18C4A121D12683D
:107B100002438A4B1B1D1A6006E0884A121D126838
:107B20008243864B1B1D1A60704739B1834A0C3261
:107B300012680243814B0C331A6006E07F4A0C3214
:107B4000126882437D4B0C331A60704739B17B4A0F
:107B5000103212680243794B10331A6006E0774AFC
:107B6000103212688243754B10331A60704739B176
:107B7000724A243A12680243704B243B1A6006E0B2
:107B80006E4A243A126882436C4B243B1A60704759
:107B900039B16A4A203A12680243684B203B1A60A6
:107BA00006E0664A203A12688243644B203B1A6022
:107BB000704739B1614A1C3A126802435F4B1C3B63
:107BC0001A6006E05D4A1C3A126882435B4B1C3B1C
:107BD0001A60704739B1594A143A12680243574B38
:107BE000143B1A6006E0554A143A12688243534B1C
:107BF000143B1A60704739B1504A103A1268024378
:107C00004E4B103B1A6006E04C4A103A1268824311
:107C10004A4B103B1A60704739B1484A1C3212680F
:107C20000243464B1C331A6006E0444A1C32126879
:107C30008243424B1C331A60704739B13F4A2032AD
:107C4000126802433D4B20331A6006E03B4A203263
:107C500012688243394B20331A60704739B1374A72
:107C6000243212680243354B24331A6006E0334A4B
:107C7000243212688243314B24331A60704739B181
:107C80002E4A2C32126802432C4B2C331A6006E029
:107C90002A4A2C3212688243284B2C331A607047D0
:107CA00039B1264A303212680243244B30331A600D
:107CB00006E0224A303212688243204B30331A6089
:107CC0007047012808D11D493C31096841F008017D
:107CD0001A4A3C32116007E018493C31096821F02A
:107CE0000801164A3C321160704739B1134A273AED
:107CF00012780243114B273B1A7006E00F4A273ACD
:107D0000127882430D4B273B1A7070470B48403066
:107D1000006840F0807009494031086070470146B2
:107D20000020064A283A12680A4201D0012000E0E9
:107D300000207047014926390870704734380240E6
:107D400010B50446FA48844208D101218014FFF797
:107D500052FF0021A014FFF74EFF3CE0F54884429B
:107D600008D101210014FFF735FF00212014FFF78F
:107D700031FF30E0F048844208D10121C013FFF701
:107D800029FF0021E013FFF725FF24E0EB488442A0
:107D900008D101214014FFF72EFF00216014FFF7E6
:107DA0002AFF18E0E648844209D101210805FFF7BF
:107DB00022FF00214FF48010FFF71DFF0BE0E14888
:107DC000844208D101214805FFF715FF00214FF437
:107DD0000010FFF710FF10BD10B50022028802F45A
:107DE00041520B884C8823438C882343CC882343FF
:107DF0000C8923434C8923438C892343CC89234317
:107E00001A430280838B4FF2FF74234083830B8AD3
:107E1000038210BD2DE9F04F0025022300244FF00E
:107E2000010900220026002794469046B0F81CA0C5
:107E30004FF2400B0AEA0B0AA0F81CA04FF0020A0E
:107E4000A0F820A0858BD1F808A0BAF1020F01D1CB
:107E500000BF80E0B1F804A0BAF1000F02D14FF0EA
:107E6000010901E04FF00209DFF8DCA2DAF800A016
:107E70001AF4000F09D0DFF8D0A2DAF800A02AF433
:107E8000000ADFF8C4B2CBF800A0DFF8BCA20AF108
:107E90007C0ADAF800A0CAF3881CDFF8ACA20AF169
:107EA0007C0ADAF800A0CAF30278DFF89CA2AAF1F3
:107EB000040ADAF800A00AF03F07DFF88CA2AAF162
:107EC000040ADAF800A00AF4800ABAF5800F08D193
:107ED000DFF878A2BAFBF7FA0AFB0CFABAFBF8F65D
:107EE00007E0DFF86CA2BAFBF7FA0AFB0CFABAFB60
:107EF000F8F6B1F806A0BAF5007F0ED14FEA162ABF
:107F00000AEB8A0A4FEA4A0AD1F808B0BAFBFBFA30
:107F10000AF1050A1FFA8AF20FE04FEA491AB6FB86
:107F2000FAFA0AEB8A0A4FEA4A0AD1F808B0BAFB11
:107F3000FBFA0AF1050A1FFA8AF24FF00A0AB2FBAD
:107F4000FAF202F00104A2EB040ACAF34F034FF65F
:107F5000FF7A0AEA0424022B01DBFF2B01DD022356
:107F60000024B1F806A04AEA040A4AEA030AA0F883
:107F700020A0B1F804A0B1F80CB04AEA0B0AB1F89D
:107F800002B04AEA0B0AB1F800B04AEA0B0A4AF416
:107F9000006A4AEA05058583BDE8F08F002101806B
:107FA00041808180C180018141818181C18107211E
:107FB000018270470021018041808180C1800221BF
:107FC000816000218181704721B1028842F0400226
:107FD000028004E002884FF6BF731A4002807047A7
:107FE00021B1828B42F48062828304E0828B4FF65F
:107FF000FF331A408283704702884FF2FF731A40A2
:10800000028002880A4302807047B1F5804F04D194
:10801000028842F48042028004E002884BF6FF733B
:108020001A4002807047A1F57E42FF3A04D00288D0
:1080300042F48072028004E002884FF6FF631A4027
:108040000280704721B1828842F00402828004E0FD
:1080500082884FF6FB731A408280704721B1828874
:1080600042F01002828004E082884FF6EF731A40DB
:108070008280704730B500220023848B4FF2400588
:108080002C40848302240484828B0C88B4F5007F06
:1080900001D00C8814B94FF4807308E00C88B4F553
:1080A000407F03D00C88B4F5807F00D100238C88FA
:1080B0008D892C434D882C431C4344F40064224397
:1080C000828330BD0146888970478181704721B124
:1080D000028842F40052028004E002884DF6FF73E9
:1080E0001A4002807047018841F480510180704736
:1080F00002460020012901D0108B00E0908A7047D1
:108100000146088A70471AB183880B43838002E0D6
:1081100083888B438380704730B5002400230C1183
:108120000125A540ABB2AAB185881D43858014E026
:108130000030014000380040003C00400034014065
:1081400000500140005401400838024000127A00FB
:108150000024F40085889D43858030BD02460020C0
:1081600013890B4201D0012000E000207047CA4370
:1081700002817047F0B5024600200024002300254C
:1081800001F00F070126BE40B4B20B1101269E403C
:10819000B3B2968806EA03051689264202D00DB1CD
:1081A000012000E00020F0BD10B5002201F00F0416
:1081B0000123A3409AB2D343038110BD10B50446F6
:1081C000FE48844208D101210846FFF714FD002132
:1081D0000120FFF710FD9DE0B4F1804F08D101218F
:1081E0000846FFF7F7FC00210120FFF7F3FC91E0C0
:1081F000F348844208D101210220FFF7EBFC002163
:108200000220FFF7E7FC85E0EE48844208D1012117
:108210000420FFF7DFFC00210420FFF7DBFC79E0FE
:10822000E948844208D101210820FFF7D3FC00214E
:108230000820FFF7CFFC6DE0E448844208D101211B
:108240001020FFF7C7FC00211020FFF7C3FC61E0FE
:10825000DF48844208D101212020FFF7BBFC002128
:108260002020FFF7B7FC55E0DA48844208D101210D
:108270000220FFF7C0FC00210220FFF7BCFC49E010
:10828000D548844209D101210804FFF7B4FC00213C
:108290004FF48030FFF7AFFC3CE0D048844209D176
:1082A00001214804FFF7A7FC00214FF40030FFF73D
:1082B000A2FC2FE0CA48844209D101218804FFF7BB
:1082C0009AFC00214FF48020FFF795FC22E0C5487E
:1082D000844208D101214020FFF77CFC002140208E
:1082E000FFF778FC16E0C048844208D101218020C5
:1082F000FFF770FC00218020FFF76CFC0AE0BB4810
:10830000844207D101218015FFF764FC0021A015EC
:10831000FFF760FC10BD00220288A84B98420ED0E7
:10832000AC4B98420BD0B0F1804F08D0A44B984290
:1083300005D0A44B984202D0A34B984204D14FF6EB
:108340008F731A404B881A43A04B984207D0A04B1A
:10835000984204D04FF6FF431A400B891A4302801B
:108360004B68C3620B880385944B984202D0994BAB
:10837000984201D18B7A03860123838270474FF0A4
:10838000FF3141600021018001814180817270478D
:108390000185828270470A46002101884FF68F735B
:1083A000194011430180704741627047C1627047B4
:1083B0000146486A70470146088D704721B102881E
:1083C00042F00202028004E002884FF6FD731A4078
:1083D0000280704721B1028842F00402028004E06A
:1083E00002884FF6FB731A400280704721B1028861
:1083F00042F08002028004E002884FF67F731A4048
:108400000280704702884FF6F7731A400280028894
:108410000A430280704702884FF6FF431A400280E9
:1084200002880A430280704721B1028842F00102AB
:10843000028004E002884FF6FE731A400280704703
:1084400070B5002400220023058C4FF6FE763540DF
:108450000584028C8388048B4FF68F752C40B51EE3
:108460002C400D882C43751E2A408D892A434D8847
:108470002A43524DA84202D0564DA84213D14FF67E
:10848000F7752A40CD892A434FF6FB752A408D881F
:108490002A434FF6FF652B404FF6FF552B400D8AC0
:1084A0002B434D8A2B43838004838D68456302846C
:1084B00070BD70B5002400220023058C4FF6EF76C6
:1084C00035400584028C8388048B48F6FF752C4068
:1084D0004FF6FF452C400D884FF6FF7606EA05253E
:1084E0002C434FF6DF752A408D8906EA05152A438D
:1084F0004D8806EA05152A43304DA84202D0354D75
:10850000A8421DD14FF67F752A40CD894FF6FF76E0
:1085100006EA05152A434FF6BF752A408D8806EAFC
:1085200005152A434FF6FF352B404FF2FF752B40C0
:108530000D8A06EA85052B434D8A06EA85052B43FD
:10854000838004838D688563028470BD70B50024C8
:1085500000220023058C4FF6FF6635400584028C0F
:108560008388848B4FF68F752C404FF6FC752C401A
:108570000D882C434FF6FF552A408D894FF6FF7624
:1085800006EA05252A434D8806EA05252A430B4DB0
:10859000A84202D00F4DA84238D14FF2FF752A40B1
:1085A000CD894FF6FF7606EA05252A434FF6FF35BB
:1085B0002A408D8806EA05252A4319E0000001407B
:1085C0000004004000080040000C00400010004083
:1085D00000140040000401400040014000440140FC
:1085E0000048014000180040001C004000200040EE
:1085F0004EF6FF752B404DF6FF752B400D8A06EAAF
:1086000005152B434D8A06EA05152B438380848389
:108610008D68C563028470BD70B5002200230024FC
:10862000058C4EF6FF7635400584038C8488828B5A
:1086300048F6FF752A404FF6FF452A400D884FF651
:10864000FF7606EA05252A434DF6FF752B408D89F6
:1086500006EA05352B434D8806EA05352B43FE4DCA
:10866000A84202D0FD4DA84208D14BF6FF752C4020
:108670000D8A4FF6FF7606EA85152C4384808283A7
:108680008D680564038470BD002101804180818074
:1086900081608181C18101824182704770B503464A
:1086A000002000241846183001258D40ACB21D8CE6
:1086B000A5431D8409B108290AD100EB61000568B2
:1086C0004FF68F76354005600568154305600FE06D
:1086D0000D1FC5F34E052844056848F6FF76354062
:1086E000056005684FF6FF7606EA02263543056009
:1086F00070BD4163704781637047C1637047016417
:1087000070470A460021018B4FF68F7319401143C1
:10871000018370470A460021018B48F6FF73194018
:108720004FF6FF7303EA02231943018370470A4699
:108730000021818B4FF68F7319401143818370475D
:108740000A460021818B48F6FF7319404FF6FF73EC
:1087500003EA02231943818370470A460021018BF3
:108760004FF6F77319401143018370470A46002101
:10877000018B4FF2FF7319404FF6FF7303EA022398
:108780001943018370470A460021818B4FF6F77326
:1087900019401143818370470A460021818B4FF2B3
:1087A000FF7319404FF6FF7303EA022319438183D5
:1087B00070470A460021018B4FF6FB7319401143A5
:1087C000018370470A460021018B4FF6FF331940A1
:1087D0004FF6FF7303EA02231943018370470A46E9
:1087E0000021818B4FF6FB73194011438183704741
:1087F0000A460021818B4FF6FF3319404FF6FF7375
:1088000003EA02231943818370470A460021018B42
:108810004FF67F7319401143018370470A460021C8
:10882000018BC1F30E014FF6FF7303EA02231943D4
:10883000018370470A460021818B4FF67F731940F0
:108840001143818370470A460021818BC1F30E01D9
:108850004FF6FF7303EA02231943818370470A46E8
:108860000021018C4FF6FD731940114301847047BC
:108870000A460021018C4FF6F77319401143018419
:1088800070470A460021018C4FF6DF7319404FF6FE
:10889000FF7303EA02131943018470470A4600215B
:1088A000018C4FF67F7319404FF6FF7303EA0213F2
:1088B0001943018470470A460021018C4FF6FF538B
:1088C00019404FF6FF7303EA0223194301847047EE
:1088D0000A460021018C4FF2FF7319404FF6FF73D7
:1088E00003EA02231943018470470A460021018CE0
:1088F0004DF6FF7319404FF6FF7303EA0233194335
:108900000184704730B5002301248C40A3B2048C4D
:108910009C430484048C02FA01F5ADB22C43048418
:1089200030BD30B5002304248C40A3B2048C9C439A
:108930000484048C02FA01F5ADB22C43048430BDEA
:10894000828B4FF2FF331A408283828B4FF6FF7384
:1089500003EA01231A4382837047F0B50C4615469B
:10896000002100220026078C4EF6FF7C07EA0C0748
:108970000784818B028C4FF6FF7707EA043640F6B6
:10898000FF4739404FF6FF7707EA052739434FF68F
:10899000FF7707EA0337394345F6FF773A4046F455
:1089A00080573A4381830284F0BD828B4FF6F37384
:1089B0001A408283828B0A4382837047F0B50C464B
:1089C0001546002100220026078C4FF6FF6C07EAAF
:1089D0000C070784818B028C4FF6FF7707EA042689
:1089E0004FF60C7739404FF6FF7707EA03172F430E
:1089F00039434FF2FF573A4046F480773A43818338
:108A00000284F0BD028B4FF2FF331A400283028BC7
:108A10004FF6FF7303EA01231A4302837047F0B550
:108A20000C461546002100220026078C4FF6EF7CED
:108A300007EA0C070784018B028C4FF6FF7707EAE1
:108A4000041640F6FF4739404FF6FF7707EA033731
:108A500039434FF6FF7703E0000001400004014076
:108A600007EA052739434FF65F773A4046F010078B
:108A70003A4301830284F0BD028B4FF6F3731A4030
:108A80000283028B0A4302837047F0B50C461546F9
:108A900000210022068C4FF6FE773E400684018BB3
:108AA000028C4FF60C7631407E1C06EA03162E43EC
:108AB00031434FF6F576324044F0010632430183EC
:108AC0000284F0BD70B505460C46208850B9238954
:108AD000A28861882846FFF7D8FFE1882846FFF77B
:108AE000CBFF25E0208804280AD12389A288618849
:108AF0002846FFF794FFE1882846FFF783FF17E039
:108B0000208808280AD12389A28861882846FFF78F
:108B100055FFE1882846FFF748FF09E02389A2882E
:108B200061882846FFF719FFE1882846FFF708FF0C
:108B300070BD002101804180012181800021C18020
:108B4000018170472DE9F04105460C4600260127BA
:108B5000608808B9022600E00026A088012801D11B
:108B6000022700E001272088A0B92389A288618814
:108B70002846FFF78AFFE1882846FFF77DFF238913
:108B80003A4631462846FFF74AFFE1882846FFF774
:108B900039FF13E02389A28861882846FFF73FFF49
:108BA000E1882846FFF72EFF23893A4631462846BA
:108BB000FFF76BFFE1882846FFF75EFFBDE8F08115
:108BC0000146486B70470146886B70470146C86B89
:108BD00070470146086C70470A884B881A438B8897
:108BE0001A43CB881A430B891A434B891A438B8942
:108BF0001A43A0F844207047002101804180818001
:108C0000C180018141818181704731B1B0F8442038
:108C100042F40042A0F8442005E0B0F84420C2F33A
:108C20000E02A0F84420704721B1828842F004026D
:108C3000828004E082884FF6FB731A40828070477E
:108C400021B1828842F00102828004E082884FF6DE
:108C5000FE731A40828070471AB183890B43838167
:108C600002E083898B43838170478182704702468B
:108C70000020138A0B4201D0012000E00020704741
:108C8000CA430282704730B5024600200023002408
:108C9000158A05EA0103958905EA010413B10CB1AF
:108CA000012000E0002030BDCA430282704741EA43
:108CB0000203A0F8483070471AB183890B438381BF
:108CC00002E083898B438381704721B1828842F01F
:108CD0000802828004E082884FF6F7731A4082808F
:108CE000704701894FF6F8721140018170470A46BA
:108CF000002101894FF68F7319401143018170479C
:108D000030B504460D4629462046FFF7F0FF20897E
:108D100040F00700208130BD2DE9F04104460D46AA
:108D200016461F46602D06D13B460122314620469D
:108D3000FFF775FE05E03B46012231462046FFF76E
:108D4000A4FE29462046FFF7D2FF208940F0070005
:108D50002081BDE8F08130B50C4600210189C9B2FF
:108D60004FF6FF7505EA0325154325432943018185
:108D700030BD2DE9F04105460E46174698460024C1
:108D800043463A4631462846FFF7E5FF2C894FF621
:108D9000F870044044F007044FF68F70044044F02C
:108DA00070042C81BDE8F081F0B504460D461646EE
:108DB0001F463B46324629462046FFF7CCFF208916
:108DC00040F480402081F0BD82884FF68F731A40B6
:108DD000828082880A438280704702894FF6F87346
:108DE0001A40028102890A430281704702894FF6C4
:108DF0007F731A40028102890A4302817047F0B5ED
:108E00000C4615461E460021002200230189028BD4
:108E1000038C4FF6F877394021434FF6FC473A4030
:108E200040F201173A434FF6DD773B404FF6FF77AC
:108E300007EA06172F433B43018102830384F0BDF9
:108E400021B1828842F08002828004E082884FF65D
:108E50007F731A4082807047A0F85010704700005E
:108E600010B50446FA48844208D101211020FEF7CB
:108E7000C2FE00211020FEF7BEFE57E0F5488442F6
:108E800009D101214804FEF7A5FE00214FF400306E
:108E9000FEF7A0FE4AE0F048844209D1012188048F
:108EA000FEF798FE00214FF48020FEF793FE3DE090
:108EB000EA48844209D10121C804FEF78BFE002153
:108EC0004FF40020FEF786FE30E0E548844209D1E9
:108ED00001210805FEF77EFE00214FF48010FEF709
:108EE00079FE23E0DF48844208D101212020FEF7EB
:108EF00082FE00212020FEF77EFE17E0DA48844241
:108F000009D101218807FEF765FE00214FF080405E
:108F1000FEF760FE0AE0D548844207D101214005F2
:108F2000FEF758FE00216005FEF754FE10BD2DE946
:108F3000FF4705460E460024A14600BFA046B08963
:108F400000B100BF2C8A24F44054F08804432C82E2
:108F5000AC8941F20C608443B0883189084371893F
:108F600008430443AC81AC8A24F44074B0890443C0
:108F7000AC826846FEF7BFFCB548854202D0B948CE
:108F8000854202D1DDF80C9001E0DDF80890A88957
:108F900010F4004F08D009EBC90000EB091031684C
:108FA0004900B0FBF1F707E009EBC90000EB09103D
:108FB00031688900B0FBF1F76420B7FBF0F00401E1
:108FC0002009642101FB1078A88910F4004F08D013
:108FD000322000EBC800B0FBF1F000F007000443C2
:108FE00008E0322000EB08106421B0FBF1F000F043
:108FF0000F0004432C81BDE8FF874FF41651016038
:1090000000218180C18001810C2141810021818169
:10901000704710B502460020108A20F470600B885B
:109020004C8823438C882343CC88234318431082E5
:1090300010BD0021018041808180C180704721B135
:10904000828942F40052828104E082894DF6FF73E6
:109050001A4082817047028B02F47F420283028BA6
:109060000A430283704721B1828942F4004282811F
:1090700003E08289C2F30E028281704721B1828AA5
:1090800042F40062828204E0828A4FF2FF731A4047
:1090900082827047C1F30802828070470146888847
:1090A000C0F308007047028A4FF6F0731A4002823C
:1090B000028A0A430282704721B1828942F0020289
:1090C000828104E082894FF6FD731A4082817047E5
:1090D00082894FF2FF731A40828182890A4382811A
:1090E0007047028A4FF6DF731A400282028A0A43EF
:1090F0000282704721B1028A42F48042028204E077
:10910000028A4BF6FF731A4002827047818941F050
:1091100001018181704721B1828A42F00802828276
:1091200004E0828A4FF6F7731A4082827047028BFE
:10913000D2B20283028B42EA01220283704721B13C
:10914000828A42F02002828204E0828A4FF6DF7334
:109150001A408282704721B1828A42F010028282D4
:1091600004E0828A4FF6EF731A4082827047828A47
:109170004FF6FB731A408282828A0A4382827047CA
:1091800021B1828A42F00202828204E0828A4FF692
:10919000FD731A40828270471AB1838A0B4383821F
:1091A00002E0838A8B4383827047F0B50346002434
:1091B000002600250020A1F510676A3F00D100BFFE
:1091C0001846C1F3421401F01F06012707FA06F5FD
:1091D000012C01D10C3004E0022C01D1103000E050
:1091E00014301AB107682F43076002E00768AF43E5
:1091F0000760F0BD02460020B1F5007F00D100BF3E
:1092000013880B4201D0012000E00020704701F4D8
:109210000072B2F5007F00D100BFCA4302807047E0
:1092200070B502460024002300250020A1F5106639
:109230006A3E00D100BFC1F3421501F01F030126B1
:1092400006FA03F3012D13D19689334017E000008D
:10925000001001400044004000480040004C004025
:10926000005000400014014000780040007C0040A5
:10927000022D02D1168A334001E0968A33400C1247
:10928000012606FA04F41688344013B10CB101200B
:1092900000E0002070BD10B500220023A1F510648D
:1092A0006A3C00D100BF0A1201249440A3B2DC43FF
:1092B000048010BD30B943F2DB014FF0204242F888
:1092C000201005E043F2D2014FF0204242F8201076
:1092D0006FF07042411C4FF0204343F821201146AB
:1092E0001A4602EB8002C2F80411704770B50021E3
:1092F000002200234FF02045046855F82410FE4C4E
:109300002140D0E901452C43C5682C4305692C4315
:1093100045692C4385692C43C5692C43056A2C4358
:10932000456A2C43856A2C43C56A2C43056B2C4344
:1093300021434FF02045046845F824108468082C28
:1093400009D1046855F8244044F040044FF0204609
:10935000056846F825400468641C4FF0204555F820
:10936000242002F04042446B2468456B6D6844EA57
:109370000514456BAD6844EA0524456BAD8944EAA4
:109380000544456B2D8A44EA0554456B2D7D44EA1E
:109390000564456BAD692C4322430468641C4FF09F
:1093A000204545F82420C46AB4F5804F20D10468D4
:1093B00005EB8404D4F80431D04C2340846B24683A
:1093C000856B6D6844EA0514856BAD6844EA052435
:1093D000856BAD8944EA0544856BAD692C43234315
:1093E0004FF02045046805EB8404C4F8043108E01C
:1093F0006FF070444FF02046056806EB8505C5F810
:10940000044170BD002101600221416000218160A2
:10941000C160016141618161C16101624FF48051AC
:109420004162490081620021C1620163B449416324
:109430008163704751B14FF0204252F8202042F032
:1094400001024FF0204343F8202009E04FF0204272
:1094500052F82020AB4B1A404FF0204343F8202015
:10946000704710280AD118214FF020421166402180
:1094700051664FF0FC319166D16610E01821A24A86
:1094800011604FF040014FF02042C2F884104FF0BD
:10949000FC319E4A11604FF02042C2F88C10704798
:1094A00030B50021002200230468102C03D14FF0B6
:1094B0002044216E01E0944C2168954C01EA04019E
:1094C000446844F00804856844EA0504C56844EA31
:1094D0000504056944EA0504456944EA45248569AB
:1094E00044EA453444EA01010468102C03D14FF0EA
:1094F0002044A26E01E0854C22684FF00002C4694E
:109500002468C5696D6844EA0524C5692D8944EA63
:109510000544C5692D7B44EA056444EA02020468F7
:10952000102C03D14FF02044E36E02E04FF02044B2
:10953000E36E0023046A2468056A6D6844EA052422
:10954000056A2D8944EA0544056A2D7B44EA0564D1
:1095500023430468102C05D14FF020442166A266F5
:10956000E36607E0684C21604FF02044C4F888208F
:10957000684C236030BD1021016000214160816092
:10958000C160016141618161FC21C2691160C269F0
:109590005160C2699160C269D160026A1160026A59
:1095A0005160026A9160026AD160704799B11028D7
:1095B00008D14FF02042126E42F004024FF02043D7
:1095C0001A661DE0504A126842F004024FF0204330
:1095D000C3F8802014E0102809D14FF02042126E09
:1095E000484BDB1E1A404FF020431A6608E0464AFB
:1095F0001268494B02EA03024FF02043C3F880206F
:10960000704799B1102808D14FF02042126E42F0F5
:1096100040024FF020431A661DE03B4A126842F0B8
:1096200040024FF02043C3F8802014E0102809D1F5
:109630004FF02042126E384B3C3B1A404FF0204313
:109640001A6608E0304A1268344B02EA03024FF00F
:109650002043C3F88020704701460020102903D121
:109660004FF02042506F01E02D4A106870471820DB
:109670002C4908604FF000004FF02041C1F8A400D1
:109680004FF0FC302849086001F10401086001F145
:1096900004010860704770B50021002200230024F7
:1096A000204D2968214D01EA0501056845F01005A6
:1096B000466845EA4625866845EA463545EA010199
:1096C0004FF02045C5F8A010174D2A681A46C56806
:1096D0002D68C668766845EA0625C668368945EA73
:1096E0000645C668367B45EA066545EA02024FF044
:1096F0002045C5F8A8201BE08000F7FF0000F0CF50
:109700008CB40108FEFF0F00800000A0880000A0BC
:109710008101F0FF8C0000A0FBFF0F00BFFF0F00D6
:10972000940000A0A00000A0A80000A0CD01FEFFB2
:109730008B4D2B68234605692D680669766845EAD6
:1097400006250669368945EA06450669367B45EAF7
:10975000066545EA03034FF02045C5F8AC30814D5E
:109760002C684FF0000445692D684669766845EA23
:1097700006254669368945EA06454669367B45EA47
:10978000066545EA04044FF02045C5F8B04070BDB9
:109790000021016041608160FC21C2681160C268E3
:1097A0005160C2689160C268D1600269116002694B
:1097B0005160026991600269D16042691160426939
:1097C0005160426991604269D160704740B1664919
:1097D000096841F004014FF02042C2F8A01008E0EF
:1097E00061490968614A01EA02014FF02042C2F86A
:1097F000A010704710B5F2B1102807D14FF02043E8
:109800005B6E0B434FF02044636632E0B0F5807F1F
:1098100008D1574B1B6843EA01034FF02044C4F8BA
:10982000843026E0534B1B6843EA01034FF0204489
:10983000C4F8A4301DE0102807D14FF020435B6E20
:109840008B434FF02044636613E0B0F5807F08D16E
:10985000474B1B6823EA01034FF02044C4F88430CF
:1098600007E0444B1B6823EA01034FF02044C4F88F
:10987000A43010BD10B5024600200023102A03D1E9
:109880004FF02044636E07E0B2F5807F02D1384C80
:10989000236801E0374C23680B4201D0012000E02F
:1098A000002010BD102807D14FF02042526E8A438D
:1098B0004FF020435A6613E0B0F5807F08D12C4A60
:1098C000126822EA01024FF02043C3F8842007E027
:1098D000284A126822EA01024FF02043C3F8A4206C
:1098E000704770B502460020002300240025102A8E
:1098F00003D14FF02046736E07E0B2F5807F02D1AE
:109900001B4E336801E01B4E336803EA010403EA8F
:10991000D10514B10DB1012000E0002070BD102868
:1099200008D14FF02042526E22EAD1024FF020437C
:109930005A6613E0B0F5807F08D10D4A126822EA1A
:10994000D1024FF02043C3F8842007E0094A12688F
:1099500022EAD1024FF02043C3F8A4207047000050
:10996000AC0000A0B00000A0A00000A0FBFF0F0012
:10997000840000A0A40000A00648804706480047D5
:10998000FEE7FEE7FEE7FEE7FEE7FEE7FEE7FEE7AF
:10999000FEE7FEE7C30400088901000800F10801A2
:1099A00041604FF0FF31816000F10801C160016149
:1099B00000210160704700210161704742684A60E0
:1099C00093688B60936859609160086103685B1CC1
:1099D0000360704710B502460B685C1C01D110692A
:1099E00007E002F1080000E04068446824689C42F7
:1099F000FAD944684C604C68A160886041600A6193
:109A00001468641C146010BD01460A69D1E9013074
:109A10009860D1E9010358605068884201D1886894
:109A20005060002008611068401E10601068704788
:109A300070B505460E462C4654B900BF102080F381
:109A40001188BFF34F8FBFF36F8F00BF00BFFEE7DA
:109A500002F0CBFCD4E90F12206801FB0200606029
:109A60000020A0632068A060E06B401E226C21688B
:109A700000FB0210E0604FF0FF306064A0649EB90C
:109A8000206908B9012000E00020A8B904F1100005
:109A900001F0D8FC01280FD10007F8490860BFF396
:109AA0004F8FBFF36F8F07E004F11000FFF776FFD1
:109AB00004F12400FFF772FF02F0BFFC012070BD2B
:109AC0002DE9F04706460D4690464FF000090EB1CD
:109AD000012000E0002050B900BF102080F3118861
:109AE000BFF34F8FBFF36F8F00BF00BFFEE70DB90D
:109AF000002702E006FB05F0471C07F1540002F0C6
:109B00007CFD044674B10DB9246002E004F15400F8
:109B10002060E663256401212046FFF789FF84F871
:109B20005080A146B9F1000F0AD100BF102080F388
:109B30001188BFF34F8FBFF36F8F00BF00BFFEE7E9
:109B40004846BDE8F08710B5044602F04EFC11E02F
:109B5000606A08B9012000E0002038B904F124004F
:109B600001F070FC18B101F068FD00E005E0A06CA8
:109B7000401EA064A06C0028EADC00BF4FF0FF305C
:109B8000A06402F05AFC02F030FC11E0206908B930
:109B9000012000E0002050B904F1100001F052FC57
:109BA00008B101F04AFD606C401E606400E002E014
:109BB000606C0028EADC00BF4FF0FF30606402F008
:109BC0003CFC10BD70B5054602F00FFCA86BE96BBC
:109BD000884201D1012400E0002402F02EFC20463E
:109BE00070BD2DE9F04104460E4615460027206C55
:109BF00040B9206878BB606801F08FFD07460020FF
:109C0000606028E07DB93146226CA06804F048FC11
:109C1000216CA0680844A060D4E9011088421AD3DE
:109C20002068A06017E03146226CE06804F038FC40
:109C3000216CE068401AE0602168E068884203D245
:109C4000216C6068401AE060022D04D1A06B10B155
:109C5000A06B401EA063A06B401CA0633846BDE80B
:109C6000F0812DE9FF4383B0064688461D464FF03C
:109C70000009344654B900BF102080F31188BFF3A7
:109C80004F8FBFF36F8F00BF00BFFEE7B8F1000F2B
:109C900001D1206C08B9012000E0002050B900BFBC
:109CA000102080F31188BFF34F8FBFF36F8F00BF79
:109CB00000BFFEE7022D02D1E06B012801D1012097
:109CC00000E0002050B900BF102080F31188BFF3DE
:109CD0004F8FBFF36F8F00BF00BFFEE701F0BFFCE7
:109CE00008B9059808B9012000E0002050B900BF6C
:109CF000102080F31188BFF34F8FBFF36F8F00BF29
:109D000000BFFEE700BF02F070FBA06BE16B884272
:109D100001D3022D28D12A4641462046FFF761FF94
:109D20000746606A08B9012000E0002068B904F124
:109D3000240001F087FB012810D100074F4908607B
:109D4000BFF34F8FBFF36F8F08E03FB14FF08050EC
:109D50004A490860BFF34F8FBFF36F8F02F06DFB6E
:109D6000012007B0BDE8F083059818B902F065FB43
:109D70000020F6E7B9F1000F04D101A801F008FCBA
:109D80004FF0010902F059FB00F065FE02F02DFBD7
:109D9000606C401C00D16064A06C401C00D1A064C9
:109DA00002F04BFB05A901A801F005FCF0B9204623
:109DB000FFF708FFA0B104F11000059901F083FA44
:109DC0002046FFF7C0FE00F0B7FD00289BD14FF002
:109DD00080502A490860BFF34F8FBFF36F8F92E71F
:109DE0002046FFF7B0FE00F0A7FD8CE72046FFF706
:109DF000AAFE00F0A1FD0020B3E770B5054654208F
:109E000002F0FBFB0446E4B1002060602060A0602B
:109E1000E060A0630120E06300202064401E6064D5
:109E2000A06484F8505004F11000FFF7B7FD04F16E
:109E30002400FFF7B3FD00231A4619462046FFF71A
:109E400010FF204670BD2DE9F04707468A46904630
:109E50001E463C4654B900BF102080F31188BFF362
:109E60004F8FBFF36F8F00BF00BFFEE7BAF1000F47
:109E700001D1206C20B9012003E0000004ED00E0D6
:109E8000002050B900BF102080F31188BFF34F8F1E
:109E9000BFF36F8F00BF00BFFEE7022E02D1E06B61
:109EA000012801D1012000E0002050B900BF10209E
:109EB00080F31188BFF34F8FBFF36F8F00BF00BFD8
:109EC000FEE702F0EFFA00BF1021EFF3118081F3FB
:109ED0001188BFF34F8FBFF36F8F00BF0546A06B94
:109EE000E16B884201D3022E1FD1324651462046F3
:109EF000FFF777FEA06C401C11D1606A08B9012001
:109F000000E0002070B904F1240001F09BFA48B190
:109F1000B8F1000F06D00120C8F8000002E0A06CE4
:109F2000401CA0644FF0010901E04FF0000900BFA0
:109F300085F3118800BF4846BDE8F0872DE9F04160
:109F400006460F46344654B900BF102080F31188EE
:109F5000BFF34F8FBFF36F8F00BF00BFFEE7206CD2
:109F600008B9012000E0002050B900BF102080F3A4
:109F70001188BFF34F8FBFF36F8F00BF00BFFEE7A5
:109F8000206808B9606808B9012000E0002050B9D5
:109F900000BF102080F31188BFF34F8FBFF36F8F86
:109FA00000BF00BFFEE702F07DFA00BF1021EFF313
:109FB000118081F31188BFF34F8FBFF36F8F00BF04
:109FC0000546A06BE16B88421AD2A06B401CA063CF
:109FD000A06C401C0ED1606A08B9012000E000208E
:109FE00058B904F1240001F02DFA30B12FB101204D
:109FF000386002E0A06C401CA0644FF0010801E052
:10A000004FF0000800BF85F3118800BF4046BDE84F
:10A01000F08170B5054602F0E8F9A86B08B9012493
:10A0200000E0002402F009FA204670BD70B5044635
:10A030000D46206C70B1216CE0680844E0606168F6
:10A04000E068884201D32068E0602846226CE1681D
:10A0500004F026FA70BD2DE9FF4383B005460E4695
:10A060001F464FF000092C4654B900BF102080F362
:10A070001188BFF34F8FBFF36F8F00BF00BFFEE7A4
:10A080000EB9206C08B9012000E0002050B900BFD3
:10A09000102080F31188BFF34F8FBFF36F8F00BF85
:10A0A00000BFFEE701F0DBFA08B9059808B9012006
:10A0B00000E0002050B900BF102080F31188BFF3EA
:10A0C0004F8FBFF36F8F00BF00BFFEE700BF02F0EE
:10A0D0008CF9A06BE8B3D4F80C8031462046FFF72A
:10A0E000A5FFDFB9A06B401EA063206810B901F086
:10A0F0007EFB6060206908B9012000E0002010BBF1
:10A1000004F1100001F09EF901281CD10007E54977
:10A110000860BFF34F8FBFF36F8F14E0C4F80C805B
:10A12000606A08B9012000E0002060B904F1240051
:10A1300001F088F938B14FF08050DA490860BFF378
:10A140004F8FBFF36F8F02F078F9012007B0BDE8A1
:10A15000F083FFE7059818B902F06FF90020F5E7E2
:10A16000B9F1000F04D101A801F012FA4FF0010972
:10A1700002F063F900F06FFC02F037F9606C401CEC
:10A1800000D16064A06C401C00D1A06402F055F9BD
:10A1900005A901A801F00FFA38BB2046FFF739FFE7
:10A1A000E8B1206830B902F020F9606801F063FA84
:10A1B00002F043F904F12400059901F084F82046E7
:10A1C000FFF7C1FC00F0B8FB002880D14FF08050B1
:10A1D000B4490860BFF34F8FBFF36F8F77E7204616
:10A1E000FFF7B1FC00F0A8FB71E72046FFF7ABFCDE
:10A1F00000F0A2FB0020A9E72DE9F04706468946BA
:10A200001746344654B900BF102080F31188BFF3BD
:10A210004F8FBFF36F8F00BF00BFFEE7B9F1000F94
:10A2200001D1206C08B9012000E0002050B900BF26
:10A23000102080F31188BFF34F8FBFF36F8F00BFE3
:10A2400000BFFEE702F02EF900BF1021EFF31180EE
:10A2500081F31188BFF34F8FBFF36F8F00BF0546A7
:10A26000A06BF0B149462046FFF7E0FEA06B401E10
:10A27000A063606C401C0ED1206908B9012000E089
:10A28000002058B904F1100001F0DCF830B12FB112
:10A290000120386002E0606C401C60644FF00108EF
:10A2A00001E04FF0000800BF85F3118800BF404671
:10A2B000BDE8F0872DE9F04706468846344654B994
:10A2C00000BF102080F31188BFF34F8FBFF36F8F53
:10A2D00000BF00BFFEE7B8F1000F01D1206C08B944
:10A2E000012000E0002050B900BF102080F3118849
:10A2F000BFF34F8FBFF36F8F00BF00BFFEE7206C2F
:10A3000008B1012000E0002050B900BF102080F308
:10A310001188BFF34F8FBFF36F8F00BF00BFFEE701
:10A3200002F0C0F800BF1021EFF3118081F3118813
:10A33000BFF34F8FBFF36F8F00BF0546A06B48B1CF
:10A34000D4F80C9041462046FFF770FEC4F80C90FC
:10A35000012700E0002700BF85F3118800BF3846C1
:10A36000BDE8F08770B5044654B900BF102080F3F3
:10A370001188BFF34F8FBFF36F8F00BF00BFFEE7A1
:10A3800002F033F8A56B02F058F8284670BD70B59E
:10A390000446254655B900BF102080F31188BFF34D
:10A3A0004F8FBFF36F8F00BF00BFFEE702F01DF8B5
:10A3B000D5E90E10461A02F040F8304670BD01464D
:10A3C00051B900BF102282F31188BFF34F8FBFF342
:10A3D0006F8F00BF00BFFEE7886B704770B5044603
:10A3E000254655B900BF102080F31188BFF34F8F69
:10A3F000BFF36F8F00BF00BFFEE7284602F090F961
:10A4000070BD0146C86C7047C1647047014691F841
:10A4100050007047014651B900BF102282F31188E5
:10A42000BFF34F8FBFF36F8F00BF00BFFEE78A6B94
:10A430000AB9012000E000207047014651B900BF71
:10A44000102282F31188BFF34F8FBFF36F8F00BFCD
:10A4500000BFFEE78A6BCB6B9A4201D1012000E07E
:10A46000002070472DE9F04105460E4617462C4660
:10A4700001F0BBFF606C401C00D16064A06C401C0C
:10A4800000D1A06401F0D9FFA06B28B93A4631464B
:10A4900004F1240000F09DFF2046FFF754FBBDE8C7
:10A4A000F081000004ED00E010B5002407E004EBAB
:10A4B0008401FE4A02EB8100FFF770FA641C062C4F
:10A4C000F5D3FB48FFF76AFAFA48FFF767FAFA484C
:10A4D000FFF764FAF948FFF761FAF948FFF75EFA07
:10A4E000F348F8490860F348F749086010BD2DE9C2
:10A4F000F04704460F4615469946DDF820800026B1
:10A5000007E0B95D04F134008155B85D00B902E09F
:10A51000761C102EF5D300BF002143200155062DD7
:10A5200000D30525E562E56400202065201DFFF7C6
:10A5300042FA04F11800FFF73EFA2461C5F1060063
:10A54000A06164620020606584F85800BDE8F0876F
:10A550002DE9F04105460F461FB9A80002F04DF85D
:10A5600000E03846064656B15C2002F046F8044644
:10A570000CB1266304E0304602F0D2F800E000247B
:10A5800024B1A900A522206B03F0AAFF2046BDE854
:10A59000F0812DE9FF4F81B0804616469A46DDE9ED
:10A5A0000E5BB8F1000F0AD100BF102080F31188B4
:10A5B000BFF34F8FBFF36F8F00BF00BFFEE7062DC5
:10A5C00001D2012000E0002050B900BF102080F32C
:10A5D0001188BFF34F8FBFF36F8F00BF00BFFEE73F
:10A5E00030461099FFF7B4FF0446002C64D0701E6B
:10A5F000216B01EB800929F0070919F0070F01D140
:10A60000012000E0002050B900BF102080F3118825
:10A61000BFF34F8FBFF36F8F00BF00BFFEE7009601
:10A620002A462046119B0299FFF761FF5246414698
:10A63000484601F01DFE2060BBF1000F01D0CBF8B1
:10A64000004001F0D2FEA1480068401C9F4908600C
:10A650009F48006840B99E48046008460068012889
:10A660000CD1FFF721FF09E09A48006830B99848FB
:10A670000068C06AA84201D89548046096480068FE
:10A68000401C9549086008460068606494F82C10E6
:10A690000120884091490968084390490860E16AAF
:10A6A00001EB8101814A02EB8100211DFFF786F950
:10A6B000012701F0C2FE01E04FF0FF37012F0ED15C
:10A6C0008448006858B182480068C06AA84206D22F
:10A6D000380783490860BFF34F8FBFF36F8F384649
:10A6E00005B0BDE8F08F77490968096809B901210B
:10A6F00000E0002121B14FF0FF317A4A116006E0FD
:10A7000070490968C968C868764A4168116070472D
:10A7100070B5054601F069FE15B96D48006800E0A6
:10A7200028460446201DFFF76FF978B9E06A00EB70
:10A7300080005E4951F8200040B994F82C100120A7
:10A74000884066490968814364480160A06A18B17D
:10A7500004F11800FFF758F9211D5848FFF72EF9AA
:10A7600061480068401C604908605B480068401C04
:10A770005949086001F061FE5648006820B354480A
:10A78000006884421AD15948006808B9012000E0E5
:10A79000002050B900BF102080F31188BFF34F8F05
:10A7A000BFF36F8F00BF00BFFEE74FF080504C49F2
:10A7B0000860BFF34F8FBFF36F8F05E001F015FE08
:10A7C000FFF791FF01F039FE70BD2DE9F0414FF028
:10A7D000000846480068002866D145480068401CCB
:10A7E000434908600846066816BB3648006800689A
:10A7F00008B9012000E0002050B900BF102080F30C
:10A800001188BFF34F8FBFF36F8F00BF00BFFEE70C
:10A810002C4807682C4800682A4908602A480760C5
:10A8200034480068401C33490860FFF75CFF00BFF4
:10A830002C480068864265D300BF22480068006843
:10A8400008B9012000E0002020B14FF0FF30254979
:10A85000086056E01B480068C068C4686568AE427E
:10A8600002D2204805604CE0201DFFF7CDF8A06A19
:10A8700018B104F11800FFF7C7F894F82C10012064
:10A88000884016490968084314490860E16A01EBE9
:10A890008101064A02EB8100211DFFF78FF80C4968
:10A8A000E06A0968C96A27E039E02BE0301D002022
:10A8B000A81D0020BC1D0020D01D0020E41D00208C
:10A8C000F81D002080000020840000205800002097
:10A8D0005000002064000020740000206000002070
:10A8E00004ED00E078000020540000207C000020EF
:10A8F0005C0000207000002088429ED34FF00108C9
:10A900009BE700BFFE480068C06A00EB8000FD497D
:10A9100051F82000012807D94FF0010804E0FA4857
:10A920000068401CF8490860F848006808B14FF01A
:10A9300001084046BDE8F08170B50025F448006884
:10A9400050B900BF102080F31188BFF34F8FBFF3C1
:10A950006F8F00BF00BFFEE701F047FDEC480068C5
:10A96000401EEB49086008460068002850D1E948BD
:10A97000006800284CD024E0E748C068C46804F1AF
:10A980001800FFF741F8201DFFF73EF894F82C104F
:10A9900001208840E14909680843E0490860E16A0C
:10A9A00001EB8101D74A02EB8100211DFFF706F878
:10A9B000D349E06A0968C96A884202D30120D349B1
:10A9C0000860D548006808B9012000E00020002890
:10A9D000D2D0CD48006878B10AE0FFF7F6FE10B19A
:10A9E0000120CA490860C8480068401EC64908607E
:10A9F000C54800680028F0D1C4480068012807D184
:10AA000001250007C6490860BFF34F8FBFF36F8F62
:10AA100001F013FD284670BD10B50446B848006823
:10AA20004460C0480068844207D2B5480168091DE7
:10AA3000BD480068FEF7CEFF0CE0B1480168091D73
:10AA4000BA480068FEF7C6FFB9480068844201D2E0
:10AA5000B748046010BDAE480068401CAC490860AF
:10AA600070472DE9F04704460E464FF0000954B9EF
:10AA700000BF102080F31188BFF34F8FBFF36F8F9B
:10AA800000BF00BFFEE70EB1012000E0002050B97A
:10AA900000BF102080F31188BFF34F8FBFF36F8F7B
:10AAA00000BF00BFFEE79A48006808B9012000E037
:10AAB000002050B900BF102080F31188BFF34F8FE2
:10AAC000BFF36F8F00BF00BFFEE7FFF7C4FF9548DD
:10AAD000D0F80080206885192068404507D9206893
:10AAE000A8420BD9454509D94FF0010906E0206875
:10AAF000A84201D8454501D94FF001092560B9F1B7
:10AB0000000F13D07E480068001DFEF77DFF50B98E
:10AB10007B48006890F82C10012088407F49096824
:10AB200081437E4801602846FFF776FFFFF704FF68
:10AB300007463FB94FF0805079490860BFF34F8F07
:10AB4000BFF36F8FBDE8F08770B5044600266CB385
:10AB50006F48006808B9012000E0002050B900BF2C
:10AB6000102080F31188BFF34F8FBFF36F8F00BFAA
:10AB700000BFFEE7FFF76FFF6A48006805196048ED
:10AB80000068001DFEF740FF50B95D48006890F86E
:10AB90002C10012088406149096881435F480160A9
:10ABA0002846FFF739FFFFF7C7FE06463EB94FF0CC
:10ABB00080505B490860BFF34F8FBFF36F8F70BD4C
:10ABC00070B5044601F011FC14B94D48006800E06E
:10ABD00020460646F56A01F030FC284670BD2DE996
:10ABE000F041054601F05EFC00BF1021EFF311803B
:10ABF00081F31188BFF34F8FBFF36F8F00BF0446FF
:10AC000015B93F48006800E028460746FE6A00BFC5
:10AC100084F3118800BF3046BDE8F0812DE9F0478C
:10AC200080460D464FF00009062D01D2012000E0BC
:10AC3000002050B900BF102080F31188BFF34F8F60
:10AC4000BFF36F8F00BF00BFFEE7062D00D30525C1
:10AC500001F0CBFBB8F1000F02D12948006800E0F9
:10AC600040460446E66CAE4272D0B5420BD9244849
:10AC7000006884420DD022480068C06AA84208D803
:10AC80004FF0010905E01E480068844201D14FF0F1
:10AC90000109E76AE16AE06C884200D1E562E56497
:10ACA000A06910F0004F02D1C5F10600A06107EBCA
:10ACB0008701144A02EB81016069884201D10120B9
:10ACC00000E00020D8B1201DFEF79EFE30B9012023
:10ACD000B8401249096881431048016094F82C106B
:10ACE000012088400D49096808430C490860E16A61
:10ACF00001EB8101034A02EB8100211D1AE01BE0F8
:10AD000050000020301D0020680000206C00002052
:10AD10007C00002058000020D01D00206000002092
:10AD200004ED00E05C000020840000208000002092
:10AD300078000020FEF742FEB9F1010F07D14FF075
:10AD40008050F6490860BFF34F8FBFF36F8F00BF8D
:10AD500001F073FBBDE8F087F148006818B10120ED
:10AD6000F049086032E00020EE490860EE480068D3
:10AD7000B0FA80F0C0F11F0101EB8100EB4A52F8FC
:10AD8000200008B1012000E0002050B900BF1020D1
:10AD900080F31188BFF34F8FBFF36F8F00BF00BFE9
:10ADA000FEE701EB8102E14B03EB8200426852684F
:10ADB000426000F108024368934202D1426852683F
:10ADC00042604268D268DA4B1A6000BF704770B5C3
:10ADD000054601F00AFB15B9D548006800E0284691
:10ADE0000446201DFEF710FE78B9E06A00EB8000F3
:10ADF000CE4951F8200040B994F82C100120884029
:10AE0000C94909688143C8480160A06A18B104F1C2
:10AE10001800FEF7F9FD211DC648FEF7CFFD01F031
:10AE20000CFBC348006884422AD1C3480068D0B1F3
:10AE3000BB48006808B9012000E0002050B900BFFD
:10AE4000102080F31188BFF34F8FBFF36F8F00BFC7
:10AE500000BFFEE74FF08050B0490860BFF34F8F4E
:10AE6000BFF36F8F15E0B3480068B44909688842A2
:10AE700003D10020AE4908600BE0FFF76DFF08E04A
:10AE8000AD48006828B101F0B0FAFFF72CFC01F0E2
:10AE9000D4FA70BD10B502460020114652B900BF69
:10AEA000102383F31188BFF34F8FBFF36F8F00BF61
:10AEB00000BFFEE79F4C4B69A34201D1012300E094
:10AEC000002373B19E4C8B6AA34201D1012300E0A1
:10AED000002333B98B6A0BB9012300E0002303B1CF
:10AEE000012010BD70B505462C4655B900BF102095
:10AEF00080F31188BFF34F8FBFF36F8F00BF00BF88
:10AF0000FEE77CB38A48006884422BD001F06DFADA
:10AF10002046FFF7BFFF012822D1201DFEF774FD58
:10AF200094F82C10012088407F49096808437E4925
:10AF30000860E16A01EB81017C4A02EB8100211D7E
:10AF4000FEF73CFD7A49E06A0968C96A884207D37E
:10AF50004FF0805071490860BFF34F8FBFF36F8F80
:10AF600001F06BFA70BD2DE9F0410646002734462A
:10AF700056B900BF102080F31188BFF34F8FBFF385
:10AF80006F8F00BF00BFFEE701F08CFA00BF1021F9
:10AF9000EFF3118081F31188BFF34F8FBFF36F8FF1
:10AFA00000BF05462046FFF775FF012824D15C4805
:10AFB0000068E0B95E49E06A0968C96A884200D35E
:10AFC0000127201DFEF720FD94F82C100120884059
:10AFD00055490968084354490860E16A01EB810159
:10AFE000524A02EB8100211DFEF7E8FC04E004F167
:10AFF00018015348FEF7E2FC00BF85F3118800BF3B
:10B000003846BDE8F08110B50446206B01F088FB9E
:10B01000204601F085FB10BD70B523E0FFF71BFD56
:10B020004848006808B9012000E000200546FFF705
:10B0300083FCBDB901F0D9F94248C068C468201D3D
:10B04000FEF7E2FC3D480068401E3C4908603E486F
:10B050000068401E3C49086001F0EFF92046FFF708
:10B06000D2FF00BF384800680028D7D170BD00BFAC
:10B07000FFF7D2FF2D4800680128F9D94FF0805022
:10B0800026490860BFF34F8FBFF36F8FF0E71FB5FE
:10B090000020009001900290034680222BA1039093
:10B0A0002C48FFF776FA0446012C02D101F004F88F
:10B0B0000446012C15D100BF102080F31188BFF386
:10B0C0004F8FBFF36F8F00BF4FF0FF3022490860F2
:10B0D00001201949086000202049086001F0E0F8CB
:10B0E0000BE054B900BF102080F31188BFF34F8FDD
:10B0F000BFF36F8F00BF00BFFEE71FBD10B500BFDD
:10B10000102080F31188BFF34F8FBFF36F8F00BF04
:10B1100000200949086001F053F910BD04ED00E07A
:10B120007C0000206C00002060000020301D00200A
:10B1300050000020F81D002064000020580000206E
:10B14000D01D0020E41D00205400002049444C453F
:10B15000000000006FB00008780000205C000020B4
:10B16000FD490868704770B501F09CF90025FA4860
:10B170000468204670BDF948006870470246002107
:10B1800001E0521C491C1078A528FAD0890888B221
:10B1900070472DE9F04706460C469046002520688A
:10B1A00000284BD0204641684968416000F1080101
:10B1B00042688A4202D14168496841604168D1F8D9
:10B1C0000C9000BF204641684968416000F10801C9
:10B1D00042688A4202D14168496841604168CF684B
:10B1E00006EB4510076007F1340006EB4511486097
:10B1F000786C06EB4511886006EB451080F80C80F2
:10B20000F86A06EB45110861B8F1030F05D1B86A79
:10B2100018B1022006EB45110873F86C06EB4511D6
:10B220004861002006EB45118861386BFFF7A6FFE7
:10B2300006EB451188836D1C4F45C3D12846BDE8F8
:10B24000F0872DE9F041054688461646002406277A
:10B25000FFF701FCC148006880452FD300BF7F1E67
:10B2600007EB8702BE4B03EB820105EB4410012282
:10B27000FFF78FFF0444002FF1D105EB44100222A9
:10B28000B8490968FFF785FF044405EB4410022222
:10B29000B5490968FFF77DFF044405EB441004221B
:10B2A000B249FFF776FF044405EB44100322B0498E
:10B2B000FFF76FFF04440EB100203060FFF73CFB46
:10B2C0002046BDE8F08170B505460C4655B900BF73
:10B2D000102080F31188BFF34F8FBFF36F8F00BF33
:10B2E00000BFFEE7A348016818312846FEF772FB4D
:10B2F000A0480068001DFEF787FB50B99D48006814
:10B3000090F82C10012088409B49096881439A4895
:10B310000160601C06D197480168091D9448FEF73A
:10B320004DFB05E08C48006806193046FFF774FBBA
:10B3300070BD2DE9F04105460E46144655B900BFD3
:10B34000102080F31188BFF34F8FBFF36F8F00BFC2
:10B3500000BFFEE78948006808B1012000E0002036
:10B3600050B900BF102080F31188BFF34F8FBFF397
:10B370006F8F00BF00BFFEE746F000407D490968BF
:10B3800088617C48016818312846FEF717FB794828
:10B390000068001DFEF738FB50B97648006890F849
:10B3A0002C1001208840744909688143724801606B
:10B3B000601C06D16F480168091D6D48FEF7FEFA52
:10B3C00005E06548006807193846FFF725FBBDE82A
:10B3D000F0812DE9F04104460D46164654B900BFF0
:10B3E000102080F31188BFF34F8FBFF36F8F00BF22
:10B3F00000BFFEE75F48016818312046FEF7DEFA1D
:10B400005C480068001DFEF7FFFA50B95948006813
:10B4100090F82C100120884057490968814356480C
:10B420000160012E06D153480168091D5048FEF7FE
:10B43000C5FA05E04848006847193846FFF7ECFAB6
:10B44000BDE8F08170B50646F068C46854B900BF25
:10B45000102080F31188BFF34F8FBFF36F8F00BFB1
:10B4600000BFFEE704F11800FEF7CEFA434800687B
:10B47000A8B9201DFEF7C8FA94F82C1001208840C6
:10B480003D49096808433C490860E16A01EB8101D4
:10B49000334A02EB8100211DFEF790FA04E004F12B
:10B4A00018013748FEF78AFA3249E06A0968C96A22
:10B4B000884204D9012501203249086000E00025B6
:10B4C000284670BD2DE9F04105460F462B4800681F
:10B4D00008B1012000E0002050B900BF102080F327
:10B4E0001188BFF34F8FBFF36F8F00BF00BFFEE720
:10B4F00047F000402860EC6854B900BF102080F38A
:10B500001188BFF34F8FBFF36F8F00BF00BFFEE7FF
:10B510002846FEF779FA201DFEF776FA94F82C10EB
:10B520000120884014490968084313490860E16A0A
:10B5300001EB81010A4A02EB8100211DFEF73EFA70
:10B540000C49E06A0968C96A88421DD901260120B0
:10B550000C49086019E000005C0000205800002041
:10B56000301D00208000002084000020E41D002009
:10B57000F81D002050000020600000207C0000200A
:10B58000D01D00206C00002000263046BDE8F08170
:10B5900050B900BF102181F31188BFF34F8FBFF363
:10B5A0006F8F00BF00BFFEE7F74909680160F749E8
:10B5B00009684160704770B504460D4654B900BF34
:10B5C000102080F31188BFF34F8FBFF36F8F00BF40
:10B5D00000BFFEE755B900BF102080F31188BFF30C
:10B5E0004F8FBFF36F8F00BF00BFFEE700F0FDFE7F
:10B5F000E64803682868401C01D1002619E0E249AA
:10B6000020680968884204D06068984201D8012601
:10B610000FE06068181A2968884209D228686168B2
:10B62000591A401A28602046FFF7B2FF002600E0B2
:10B63000012600F002FF304670BD0120D4490860A9
:10B640007047014611B10A46906C00E00020704737
:10B6500008B1024691647047CE4908687047CE49E8
:10B66000096809B9012005E0CC49096809B9022037
:10B6700000E00020704770B505462C46002D4BD0E9
:10B68000C449E06A0968C96A884245D2A06910F0D5
:10B69000004F05D1BF480068C06AC0F10600A06134
:10B6A000E16A01EB8101BE4A02EB810160698842D7
:10B6B00001D1012000E0002050B3201DFEF7A4F9C5
:10B6C00078B9E06A00EB8000B54951F8200040B934
:10B6D00094F82C1001208840B24909688143B14890
:10B6E0000160AC480068C06AE06294F82C10012048
:10B6F0008840AC4909680843AA490860E16A01EB3F
:10B700008101A74A02EB8100211DFEF757F903E0F2
:10B71000A0480068C06AE06270BD70B505462C465E
:10B720000026002D55D09B480068844201D101209D
:10B7300000E0002050B900BF102080F31188BFF353
:10B740004F8FBFF36F8F00BF00BFFEE7206D50B972
:10B7500000BF102080F31188BFF34F8FBFF36F8FAE
:10B7600000BF00BFFEE7206D401E2065E16CE06A6F
:10B7700088422ED0206D60BB201DFEF745F978B9B8
:10B78000E06A00EB8000864951F8200040B994F847
:10B790002C10012088408349096881438148016059
:10B7A000E06CE062E06AC0F10600A06194F82C1041
:10B7B000012088407B49096808437A490860E16AAA
:10B7C00001EB8101764A02EB8100211DFEF7F6F8BC
:10B7D0000126304670BD6F49096888696D4909685E
:10B7E000C96AC1F106016B4A1268916170476948E4
:10B7F000006830B16749096801F15000096D491CC2
:10B8000001606448006870472DE9F04106460C4627
:10B8100000F0EBFD5F480068406D68BB01205D49AA
:10B82000096881F858003CB35A480068001DFEF7CB
:10B83000EBF850B95748006890F82C100120884068
:10B8400058490968814357480160601C06D1514836
:10B850000168091D5448FEF7B1F805E04B4800683F
:10B8600007193846FFF7D8F84FF080504F49086065
:10B87000BFF34F8FBFF36F8F00F0DFFD00F0B5FD1A
:10B8800044480068456D65B126B10020414909680A
:10B89000486506E03F49096801F15400496D491EB9
:10B8A000016000203B49096881F8580000F0C5FD9F
:10B8B0002846BDE8F0812DE9F04707468846154641
:10B8C0001C4600F092FD3348006890F858000228AA
:10B8D00035D03049096801F15400496DB943016020
:10B8E00001202C49096881F8580044B329480068B0
:10B8F000001DFEF789F850B92648006890F82C1012
:10B900000120884027490968814326480160601C5E
:10B9100006D120480168091D2348FEF74FF806E0CC
:10B920001A48006800EB04094846FFF775F84FF025
:10B9300080501E490860BFF34F8FBFF36F8F00F038
:10B940007CFD00F052FD1DB112480068406D28607A
:10B950001048006890F85800012801D1002608E03E
:10B960000C49096801F15400496D21EA08010160A0
:10B97000012600200749096881F8580000F05DFDA4
:10B980003046BDE8F0870000700000205C00002019
:10B990006C00002050000020640000207C0000208B
:10B9A000301D002060000020F81D002004ED00E0A4
:10B9B0002DE9F04706460D46174698464FF0010A16
:10B9C00056B900BF102080F31188BFF34F8FBFF32B
:10B9D0006F8F00BF00BFFEE7344600F006FDB8F1F0
:10B9E000000F02D0606DC8F8000094F85890022053
:10B9F00084F85800052F17D2DFE807F01503070B6E
:10BA00000D00606D284360650EE0606D401C606550
:10BA10000AE0656508E0B9F1020F01D0656501E053
:10BA20004FF0000A00E000BF00BFB9F1010F33D1B1
:10BA3000201DFDF7E9FF94F82C1001208840A24951
:10BA400009680843A0490860E16A01EB81019F4A47
:10BA500002EB8100211DFDF7B1FFA06A08B90120AA
:10BA600000E0002050B900BF102080F31188BFF320
:10BA70004F8FBFF36F8F00BF00BFFEE79449E06AAE
:10BA80000968C96A884207D94FF080509149086017
:10BA9000BFF34F8FBFF36F8F00F0CFFC5046BDE870
:10BAA000F0872DE9F84F07460E4690469946DDF897
:10BAB00028B00120009057B900BF102080F31188F2
:10BAC000BFF34F8FBFF36F8F00BF00BFFEE700F0E3
:10BAD000E9FC3C4600BF1021EFF3118081F311888F
:10BAE000BFF34F8FBFF36F8F00BF0546B9F1000F53
:10BAF00002D0606DC9F8000094F858A0022084F8C4
:10BB00005800B8F1050F17D2DFE808F01503070B4E
:10BB10000D00606D304360650EE0606D401C606537
:10BB20000AE0666508E0BAF1020F01D0666501E03F
:10BB30000020009000E000BF00BFBAF1010F3AD131
:10BB4000A06A08B9012000E0002050B900BF102011
:10BB500080F31188BFF34F8FBFF36F8F00BF00BF1B
:10BB6000FEE75D480068A8B9201DFDF74DFF94F879
:10BB70002C10012088405449096808435249086044
:10BB8000E16A01EB8101514A02EB8100211DFDF7C1
:10BB900015FF04E004F118015048FDF70FFF4C4970
:10BBA000E06A0968C96A884205D9BBF1000F02D072
:10BBB0000120CBF8000000BF85F3118800BF00987A
:10BBC000BDE8F88F2DE9F04105460F4655B900BF95
:10BBD000102080F31188BFF34F8FBFF36F8F00BF2A
:10BBE00000BFFEE700F05EFC2C4600BF1021EFF323
:10BBF000118081F31188BFF34F8FBFF36F8F00BFA8
:10BC0000064694F85880022084F85800606D401C65
:10BC10006065B8F1010F37D1A06A08B9012000E0D2
:10BC2000002050B900BF102080F31188BFF34F8F60
:10BC3000BFF36F8F00BF00BFFEE727480068A8B9B9
:10BC4000201DFDF7E1FE94F82C10012088401E49CC
:10BC5000096808431C490860E16A01EB81011B4A3D
:10BC600002EB8100211DFDF7A9FE04E004F118019B
:10BC70001A48FDF7A3FE1649E06A0968C96A8842B6
:10BC800002D90FB10120386000BF86F3118800BFD0
:10BC9000BDE8F08170B50446264616B90C48006828
:10BCA00000E03046064600F0A0FB96F85800022857
:10BCB00004D1002086F85800012500E0002500F09E
:10BCC000BCFB284670BD000060000020301D002035
:10BCD0005000002004ED00E07C000020D01D00207A
:10BCE0002DE9F04104460D4616461F464FF0000868
:10BCF00065602461B5420CD8F01BA169884202D36B
:10BD00004FF0010811E0211DFB480068FDF762FEBD
:10BD10000BE0BE4204D2BD4202D34FF0010804E062
:10BD2000211DF6480068FDF755FE4046BDE8F0814C
:10BD30002DE9FE4304460D4616461F46DDF82880D1
:10BD40004FF0000954B900BF102080F31188BFF3F1
:10BD50004F8FBFF36F8F00BF00BFFEE7E84800685A
:10BD600010B3009501960294062D15DAFFF777FCC3
:10BD7000022808D1002342466946E1480068FDF7E1
:10BD800070FF814610E000231A466946DC480068CF
:10BD9000FDF767FF814607E000233A466946D84829
:10BDA0000068FEF750F881464846BDE8FE832DE95D
:10BDB000F84332E0D1480068C0680568CF480068A1
:10BDC000C068C468201DFDF71FFE2046616A8847D1
:10BDD000E069012821D1A0694619AE4207D9666001
:10BDE0002461211DC5480068FDF7F4FD15E0002021
:10BDF00003462A46014600902046FFF799FF074672
:10BE000057B900BF102080F31188BFF34F8FBFF3E5
:10BE10006F8F00BF00BFFEE700BFB8480068006832
:10BE200008B9012000E000200028C3D0B348D0F8B2
:10BE30000080B1480068B1490860AF48C0F8008090
:10BE4000BDE8F88370B50446FFF78AF90546AD48AA
:10BE50000068854204D2FFF7AAFF0120206001E0BC
:10BE600000202060A7480560284670BD70B586B0E8
:10BE70006BE00398002868DB059C606908B9012025
:10BE800000E0002010B9201DFDF7BEFD02A8FFF75D
:10BE9000D9FF054603980A2855D2DFE800F00905C6
:10BEA000073234500608333500BF00BF00BF00BF63
:10BEB0000498A269811803462A462046FFF710FF1E
:10BEC00001281DD12046616A8847E069012817D101
:10BED000002000900498A1694218002319462046CA
:10BEE000FFF726FF064656B900BF102080F31188E1
:10BEF000BFF34F8FBFF36F8F00BF00BFFEE700BFE0
:10BF000022E000BF20E000BF0498A061A06908B152
:10BF1000012000E0002050B900BF102080F31188FC
:10BF2000BFF34F8FBFF36F8F00BF00BFFEE7A06965
:10BF300041192B462A462046FFF7D2FE04E0204650
:10BF400000F0EEFB00E000BF00BF00231A4603A98B
:10BF50006B480068FEF77FF800288AD106B070BDF4
:10BF6000F8B505460F4665480068C068C468201DDE
:10BF7000FDF74AFDE06901281ED1A06941192B4651
:10BF80003A462046FFF7ACFE012815D100200346B3
:10BF90002A46014600902046FFF7CAFE064656B9DB
:10BFA00000BF102080F31188BFF34F8FBFF36F8F56
:10BFB00000BF00BFFEE700BF2046616A8847F8BDAA
:10BFC000F8B505460C46FEF746FD6846FFF73AFF12
:10BFD0000646009820BB44B9B54206D8FEF7ACFC33
:10BFE00031462846FFF7BCFF1CE03CB142480068E0
:10BFF000006808B9012000E000200446A91B224681
:10C000003F480068FEF72EFAFEF796FC50B94FF055
:10C0100080503D490860BFF34F8FBFF36F8F01E041
:10C02000FEF78AFCF8BD0146344A126812680AB964
:10C03000012200E000220A600A6822B92F4A126831
:10C04000D268106800E00020704708B500BF68465D
:10C05000FFF7E9FF044620460099FFF7B1FFFFF71D
:10C0600005FFF4E710B500F0C0F92548006800BBF3
:10C070002648FDF793FC2648FDF790FC23481F490E
:10C08000086023481C49086000220C210520FDF7A8
:10C0900017FD1B4908600846006850B900BF102012
:10C0A00080F31188BFF34F8FBFF36F8F00BF00BFC6
:10C0B000FEE700F0C2F910BD1FB50024FFF7D2FF64
:10C0C0000F48006860B100200523CDE900300290E0
:10C0D000034680220FA103901048FEF75AFA044647
:10C0E000F4B900BF102080F31188BFF34F8FBFF366
:10C0F0006F8F00BF00BFFEE794000020900000207B
:10C10000880000208C00002004ED00E00C1E0020C0
:10C11000201E0020546D7220537663004BC000082F
:10C12000204604B010BD2DE9F04706460D461746DF
:10C130009846DDF820900DB9002410E02C2000F086
:10C140005CFA04465CB1FFF78DFF2660A561E761EC
:10C15000C4F82080C4F82490201DFDF72CFC0DB1FC
:10C16000012000E0002050B900BF102080F31188AA
:10C17000BFF34F8FBFF36F8F00BF00BFFEE72046B6
:10C18000BDE8F08701460A4651B900BF102080F390
:10C190001188BFF34F8FBFF36F8F00BF00BFFEE763
:10C1A0001068704770B50446264654B900BF102089
:10C1B00080F31188BFF34F8FBFF36F8F00BF00BFB5
:10C1C000FEE700F012F9706908B9012000E00020D4
:10C1D00080F0010500F031F9284670BD70B50446C5
:10C1E000254654B900BF102080F31188BFF34F8F4C
:10C1F000BFF36F8F00BF00BFFEE700F0F6F82E6AB6
:10C2000000F01BF9304670BD70B504460D46264659
:10C2100054B900BF102080F31188BFF34F8FBFF3D4
:10C220006F8F00BF00BFFEE700F0DFF8356200F05F
:10C2300004F970BDB7480068401C01D1012000E03E
:10C24000002050B900BF102080F31188BFF34F8F3A
:10C25000BFF36F8F00BF00BFFEE700BF102080F369
:10C260001188BFF34F8FBFF36F8F00BF00BFFEE792
:10C27000001F4FF080730360001F0160001FA64B7A
:10C28000036014380260001F6FF00203036020385F
:10C290007047A2484FF0E0214861072008617047CD
:10C2A0001CB59F4800689F49884201D0012000E0EA
:10C2B000002050B900BF102080F31188BFF34F8FCA
:10C2C000BFF36F8F00BF00BFFEE795480068954938
:10C2D000491E884201D0012000E0002050B900BF73
:10C2E000102080F31188BFF34F8FBFF36F8F00BF13
:10C2F00000BFFEE78C49084600780190FF200A46FF
:10C3000010700846007800909DF8000000F0F000E2
:10C310009DF80020904201D1012000E0002050B99A
:10C3200000BF102080F31188BFF34F8FBFF36F8FD2
:10C3300000BF00BFFEE79DF8000000F010007B4A40
:10C34000107007207A4A106009E079480068401EA2
:10C35000774A10609DF800004006000E00909DF89E
:10C36000000000F080008028EFD0714800680002D3
:10C370006F4A10601046008800F4E06010606A4A5E
:10C380000198107066482030006840F470006449DD
:10C39000203108600846006840F070400860FFF7F0
:10C3A00078FF00205B490860F3F718FF61480068D8
:10C3B00040F040405F490860F3F700FF00201CBDDB
:10C3C00054480068B0F57A7F01D1012000E00020D8
:10C3D00050B900BF102080F31188BFF34F8FBFF317
:10C3E0006F8F00BF00BFFEE7704700BF102080F3D3
:10C3F0001188BFF34F8FBFF36F8F00BF45480068B0
:10C40000401C4449086008460068012814D144488B
:10C41000001D006810F0FF0F01D1012000E0002096
:10C4200050B900BF102080F31188BFF34F8FBFF3C6
:10C430006F8F00BF00BFFEE770473648006850B9F5
:10C4400000BF102080F31188BFF34F8FBFF36F8FB1
:10C4500000BF00BFFEE72F480068401E2D4908605E
:10C460000846006820B9002080F3118800BF00BF93
:10C47000704710B500BF1020EFF3118180F31188D1
:10C48000BFF34F8FBFF36F8F00BFFEF79EF920B150
:10C490004FF080502249091D0860002080F3118868
:10C4A00000BF10BD70B5F3F7D1FE0446102C17D3B2
:10C4B0004FF0E020204490F8F0531C48007885426B
:10C4C00001DB012000E0002050B900BF102080F304
:10C4D0001188BFF34F8FBFF36F8F00BF00BFFEE720
:10C4E0000F480C30006800F4E06011490968884288
:10C4F00001D8012000E0002050B900BF102080F3D7
:10C500001188BFF34F8FBFF36F8F00BF00BFFEE7EF
:10C5100070BD00009800002035C200083F90020066
:10C5200000ED00E071C20F4100E400E09C0000203B
:10C53000A000002034EF00E010B501469F4800E065
:10C54000006803688B42FBD30246436813448B4266
:10C5500004D143684C682344436001460A464B6853
:10C5600013440468A34211D1954C03682468A34284
:10C5700008D04B680468646823444B6003681B68F8
:10C580000B6005E08E4B1B680B6001E003680B60DD
:10C59000884200D0016010BD30B54FF4F0438948A7
:10C5A00010F0070F05D0C01D20F00700854C041BBC
:10C5B0001B1B0246814C22600024804D6C60D01809
:10C5C000083820F007007E4C206000247C4D2D6848
:10C5D0006C607B4D2D682C601146441A4C60784C81
:10C5E00024680C60784D4C682C60784D4C682C6049
:10C5F0004FF00044764D2C6030BD2DE9F0410446EB
:10C600004FF00008FEF727FA6D48006808B9FFF7F9
:10C61000C3FF6F48006804426BD1D4B1083414F0F2
:10C62000070F16D004F00700C0F10800044414F00E
:10C63000070F01D1012000E0002050B900BF1020F9
:10C6400080F31188BFF34F8FBFF36F8F00BF00BF20
:10C65000FEE7002C4DD05D480068844249D8574E13
:10C660003046056801E02E462D686868A04202D277
:10C6700028680028F7D152480068854239D03068D0
:10C6800000F10808286830606868001B102819D974
:10C690002F1917F0070F01D1012000E0002050B939
:10C6A00000BF102080F31188BFF34F8FBFF36F8F4F
:10C6B00000BF00BFFEE76868001B78606C6038460A
:10C6C000FFF73AFF414968680968081A3F4908605E
:10C6D000084600683C490968884203D23B48006824
:10C6E000394908603A496868096808436860002069
:10C6F0002860FEF721F918F0070F01D1012000E0B2
:10C70000002050B900BF102080F31188BFF34F8F75
:10C71000BFF36F8F00BF00BFFEE74046BDE8F0816A
:10C7200070B506463546002E3FD0083D2C462849B8
:10C7300060680968084201D0012000E0002050B97B
:10C7400000BF102080F31188BFF34F8FBFF36F8FAE
:10C7500000BF00BFFEE7206808B9012000E000200C
:10C7600050B900BF102080F31188BFF34F8FBFF383
:10C770006F8F00BF00BFFEE7154960680968084277
:10C7800013D0206888B912496068096888436060DE
:10C79000FEF761F90D496068096808440B490860B3
:10C7A0002046FFF7C9FEFEF7C7F870BD07480068CE
:10C7B000704705480068704770470000B4000020CB
:10C7C000A4000020341E0020AC000020A80000209F
:10C7D000B000002010B5FEF7C3FC10BD70B50446D4
:10C7E0004FF47A7060434FF47A71B0FBF1F528464C
:10C7F000FEF7AAF970BD7047704710B50120FDF72C
:10C80000FCFA354908600846006808B1012000E0DC
:10C81000002050B900BF102080F31188BFF34F8F64
:10C82000BFF36F8F00BF00BFFEE70322002101208E
:10C83000FDF746F9294908600846006830B1002331
:10C840001A46194625480068FDF70BFA2348006888
:10C8500008B1012000E0002050B900BF102080F393
:10C860001188BFF34F8FBFF36F8F00BF00BFFEE78C
:10C8700010BD10B500231A46194617480068FDF789
:10C88000F0F910BD10B51448006808B9FFF7B5FFFE
:10C8900000235A1E194610480068FDF7DCFB10BD46
:10C8A00010B5FEF7D9FE10BD10B500BF00235A1E0B
:10C8B00019460A480068FDF7CEFB0128F6D110BDE5
:10C8C00010B500231A46194604480068FDF7C9F957
:10C8D00010BD704770477047BC000020C0000020AA
:10C8E00010B54FF44841034803F098F8024804F0AB
:10C8F000E5FC10BD3496002074F201082DE9F041EA
:10C9000007460C4615461E46B2B2A9B2A0B2F6F7CB
:10C910008FF8BDE8F081034600BF00BF00207047DC
:10C920002DE9F04104460D4616463246294620467A
:10C93000FFF7F1FF0746216988688047804687EA4C
:10C940000803324629462046FFF7D8FFBDE8F081AC
:10C950002DE9F84380460C4615461E46089FFE48C2
:10C960000068C06B008880B2BBB2B2B2A9B20090BE
:10C97000A0B2FAF71EF8BDE8F883F8B505460E46F2
:10C9800014461F463B462246314628460094FFF790
:10C99000DFFFF8BDF8B506460C4617461D46234690
:10C9A0003A46214630460095FFF7D2FFF8BD2DE903
:10C9B000FF4F83B081460E461C46DDE9117A109D7B
:10C9C000DAF800000290DAF8040001902E44E24800
:10C9D0000068007C10F0030006D0012836D0022841
:10C9E0001CD0032855D130E000BF207880222A4196
:10C9F000104201D0019800E0029803463146761CAF
:10CA00004846059AFFF77AFF681C0546082801D1B9
:10CA10000025641C781E0700E7D13AE000BF2078AB
:10CA200080212941084205D031464846019B059A9C
:10CA3000FFF764FF761C681C0546082801D1002515
:10CA4000641C781E0700EAD123E000BFD9F810105B
:10CA500088688047804600BF2078802129410842AD
:10CA60000CD031464846059AFFF755FF83468BEABE
:10CA7000080331464846059AFFF740FF761C681CBC
:10CA80000546082801D10025641C781E0700E3D163
:10CA900000BF00BF07B0BDE8F08F2DE9FF4F81B0A8
:10CAA0000F469846DDE90F9A98F800B00E9D0E9D4E
:10CAB0002F44A9480068007C10F0030002D002282F
:10CAC0004BD14BE0BAF1000F25D000BFC5F10300F8
:10CAD0004400C4F10601C020084100EA0B0020FA1E
:10CAE00004F65AF82600009039467F1CDDE9003034
:10CAF000039AFFF703FF681C0546042805D10025AB
:10CB000008F10100804690F800B0A9F101005FEA49
:10CB10000009DBD121E000BFC5F103004400C4F1EE
:10CB20000601C020084100EA0B0020FA04F639464D
:10CB30007F1C3346039A0198FFF7E0FE681C054608
:10CB4000042805D1002508F10100804690F800B0C6
:10CB5000A9F101005FEA0009DED14DE0BAF1000F52
:10CB600026D000BFC5F103004400C4F10601C02077
:10CB7000084100EA0B0020FA04F646B15AF82600F4
:10CB800000903946DDE90030039AFFF7B7FE7F1CBD
:10CB9000681C0546042805D1002508F101008046DF
:10CBA00090F800B0A9F101005FEA0009DAD122E0B3
:10CBB00000BFC5F103004400C4F10601C0200841D4
:10CBC00000EA0B0020FA04F62EB133463946039AE8
:10CBD0000198FFF793FE7F1C681C0546042805D1C9
:10CBE000002508F10100804690F800B0A9F101008D
:10CBF0005FEA0009DDD100BF00BF05B0BDE8F08FDE
:10CC00002DE9FF4F81B00F469846DDE90F9A98F85D
:10CC100000B00E9D0E9D2F444F480068007C10F020
:10CC2000030002D002284BD14BE0BAF1000F25D00F
:10CC300000BFC5F101008400C4F10401F0200841E7
:10CC400000EA0B0020FA04F65AF826000090394654
:10CC50007F1CDDE90030039AFFF750FE681C054693
:10CC6000022805D1002508F10100804690F800B0A7
:10CC7000A9F101005FEA0009DBD121E000BFC5F1A5
:10CC800001008400C4F10401F020084100EA0B0017
:10CC900020FA04F639467F1C3346039A0198FFF7C1
:10CCA0002DFE681C0546022805D1002508F101006B
:10CCB000804690F800B0A9F101005FEA0009DED1DA
:10CCC00050E0BAF1000F26D000BFC5F1010084008A
:10CCD000C4F10401F020084100EA0B0020FA04F638
:10CCE00046B15AF8260000903946DDE90030039A33
:10CCF000FFF704FE7F1C681C0546022805D10025AD
:10CD000008F10100804690F800B0A9F101005FEA47
:10CD10000009DAD125E000BFC5F101008400C4F1AB
:10CD20000401F020084100EA0B0020FA04F62EB1BD
:10CD300033463946039A0198FFF7E0FD7F1C681CD3
:10CD40000546022805D1002508F10100804690F82B
:10CD500000B0A9F1010001E0FC0000205FEA000939
:10CD6000DAD100BF00BF05B0BDE8F08F2DE9F04774
:10CD700081460F4692461C46DDE90858F048006897
:10CD8000007C10F0030002D0022841D11EE0B8F16F
:10CD9000000F0ED00AE0267858F826305246394661
:10CDA0004846FFF7ABFD6D1E7F1C641C002DF2DCB6
:10CDB0000BE008E02378524639464846FFF79EFDCF
:10CDC0006D1E7F1C641C002DF4DC21E0B8F1000F07
:10CDD0000FD00BE0267836B158F826305246394647
:10CDE0004846FFF78BFD6D1E7F1C641C002DF1DC97
:10CDF0000DE00AE026782EB13346524639464846C1
:10CE0000FFF77CFD6D1E7F1C641C002DF2DC00BF53
:10CE100000BFBDE8F0872DE9F04107460D4690467A
:10CE20001C46069E08E02388424629463846FFF7FE
:10CE300065FD761E6D1CA41C002EF4DCBDE8F0819F
:10CE40002DE9F04107460D4690461C46069E08E037
:10CE50004246294638462368FFF750FD761E6D1C72
:10CE6000241D002EF4DCBDE8F0812DE9FF4F83B0D6
:10CE700015461E46DDE914BADDE91297DDF840805B
:10CE8000119808283FD006DC012809D0022818D0C4
:10CE9000042863D126E0102844D020285ED14FE03A
:10CEA00000240BE062193B46CDE900B6CDF808A09E
:10CEB000DDE90301FFF77BFD4F44641C4445F1DBD2
:10CEC0004CE000240BE062193B46CDE900B6CDF8FA
:10CED00008A0DDE90301FFF7E0FD4F44641C444571
:10CEE000F1DB3BE000240BE062193B46CDE900B6E4
:10CEF000CDF808A0DDE90301FFF782FE4F44641C72
:10CF00004445F1DB2AE0002409E062193B46CDE903
:10CF1000006ADDE90301FFF729FF4F44641C444523
:10CF2000F3DB1BE0002408E062193B460096DDE9D4
:10CF30000301FFF770FF4F44641C4445F4DB0DE030
:10CF4000002408E062193B460096DDE90301FFF783
:10CF500077FF4F44641C4445F4DB00BF00BF07B0BB
:10CF6000BDE8F08F70B50446A06858B91C2002F0E7
:10CF7000A3FDA060A568216988688047064606F081
:10CF800045F8A861A06808B9012070BD0020FCE741
:10CF900010B504460A46A1680F2A1FD2DFE802F046
:10CFA0001E080A0C0E1E1E1E10121416181A1C0043
:10CFB000486810BD8868FCE7C868FAE70869F8E7C0
:10CFC0008869F6E70020F4E70120F2E70120F0E7A6
:10CFD0000020EEE70020ECE70020EAE74FF0FF300A
:10CFE000E7E70246012901D1564870470020FCE7D7
:10CFF000826800230B804B8093895B1E1BB28B8061
:10D00000138A5B1E1BB2CB8070477CB504460D466D
:10D010001646002000900190009501966A46032173
:10D02000A06900F0B3F87CBDF8B504460D460020B9
:10D0300000902046FFF796FFA06838B1A6683560DB
:10D0400000956A460221A06900F0A0F8F8BD2DE91C
:10D05000F04105460E4617462846FFF783FFA868AD
:10D0600018B1AC68E66027616661BDE8F0812DE922
:10D07000FC4105460E4617460020009001902846C8
:10D08000FFF770FFA86878B1AC68606908B93046EE
:10D0900000E0606960616660A760009601976A467B
:10D0A0000721A86900F072F8BDE8FC8170B504465C
:10D0B0002046FFF757FF054600220121A06900F036
:10D0C00065F80543284670BD10B5044600220521C9
:10D0D000A06900F05BF810BD10B5044600220621DF
:10D0E000A06900F053F810BD7CB504460D46164605
:10D0F0000020009001908DF8045000966A460421AB
:10D10000A06900F043F87CBD0246A1F1090008289F
:10D1100013D2DFE800F00406080A120C0E100A48C9
:10D1200070470A48FCE70A48FAE70A48F8E70A485D
:10D13000F6E70A48F4E70A48F2E70020F0E70000C3
:10D14000FC000020A40E020829D000084FD00008DF
:10D150006FD00008ADD00008C9D00008D9D00008B1
:10D16000E9D0000810B500231A460F490F4802F015
:10D17000BDFEF0224FF4A071002005F02FFEF0223A
:10D180004FF4A071002005F03FFE10BD10B503461E
:10D190001446012901D1002010BD4FF0FF3200BF1D
:10D1A00000BF1046F8E700005CEB0108A8B40108D6
:10D1B00010B5F24890F84D0030B100F060FF00204B
:10D1C000EE4981F84F0003E00020EC4981F84E0061
:10D1D00010BD30B585B004460D46052C1CDDE84871
:10D1E0000068002811D14FF40B70E649E6A2EDA3C8
:10D1F000CDE90310CDE9013200900B46F2A2FAA16D
:10D20000002000F025F800BFFEE74FF40B72DD4967
:10D21000DDA0DB4B1B689847D848343050F8240019
:10D22000284202D0012005B030BD0020FBE710B538
:10D23000D24890F84D0030B100F017FF0120CF49DF
:10D2400081F84F0003E00120CC4981F84E0010BD69
:10D250002DE9F04F8DB005460F4693469946384666
:10D2600001F06EF9824600244FF0010800200B9077
:10D270000C900790089009900A90052D1CDDC0487D
:10D280000068002811D140F29F10D949BEA2C5A361
:10D29000CDE90310CDE9013200900B46CAA2D2A11C
:10D2A0000020FFF7D5FF00BFFEE740F29F12D049F4
:10D2B000B5A0B34B1B689847B04890F84C0010B924
:10D2C0000DB0BDE8F08FAD480078A84200DAF7E76E
:10D2D000AA49491C384601F015F900B9F0E718A829
:10D2E0000690FFF7A4FF01212846FFF772FF40B127
:10D2F000C04850F82520C0480119204600F06AFDBA
:10D30000044402212846FFF764FFE8B1BA48011936
:10D310003A46204600F05EFD0444BAF10F0F0CD8E7
:10D32000CAF10F01202207A801F0DAF8B24801196A
:10D3300007AA204600F04EFD0444AF480119AFA2F1
:10D34000204600F047FD04441C212846FFF741FF1A
:10D35000002852D0A8480119A9A2204600F03AFDA1
:10D36000044404212846FFF734FFA8B100F090FEE2
:10D370000590A14801192046059A00F02BFD0444B0
:10D3800018212846FFF725FF30B19B4801199BA2C1
:10D39000204600F01FFD044408212846FFF719FF2E
:10D3A000A8B100F077FE0590934801192046059A30
:10D3B00000F010FD044410212846FFF70AFF30B1A9
:10D3C0008D4801198DA2204600F004FD044410216F
:10D3D0002846FFF7FEFE48B100F05EFE0590864845
:10D3E00001192046059A00F0F5FC04448248011911
:10D3F00084A2204600F0EEFC0444E0212846FFF71A
:10D40000E8FE00285CD07C4801197FA2204600F08D
:10D41000E1FC044420212846FFF7DBFEF8B1764802
:10D4200001195A46204600F0D5FC04444021284604
:10D43000FFF7CFFE38B17048011970A2204600F006
:10D44000C9FC04440BE080212846FFF7C2FE30B13E
:10D45000694801196DA2204600F0BCFC044440213B
:10D460002846FFF7B6FE90B1634801194A462046A8
:10D4700000F0B0FC044480212846FFF7AAFE30B13A
:10D480005D48011961A2204600F0A4FC04448021FB
:10D490002846FFF79EFE60B15DA205210BA8169BF2
:10D4A0000BF070FB544801190BAA204600F092FCC7
:10D4B00004445148011957A2204600F08BFC044453
:10D4C000C4F58072A2EB0802511C4B4A1019069B4E
:10D4D000179A0BF06BFB0646002006902749203177
:10D4E000454801F00FF810B9FFF762FEE8E6002E9C
:10D4F0000DDB30194044B0F5807F08D834443E48F5
:10D50000011945A2204600F065FC044407E04FF4F1
:10D5100080744248A0EB08003FA1098801802146A1
:10D52000354800F098FDFFF743FE00BFC8E610B590
:10D5300086B00446052C1CDD11480068002811D176
:10D5400040F22910364910A216A3CDE90310CDE907
:10D55000013200900B461CA223A10020FFF778FEA9
:10D5600000BFFEE740F229122D4907A0044B1B68BB
:10D5700098470248047006B010BD0000345F0120D7
:10D58000E000002031B501086C6576656C203C3DFB
:10D5900020454C4F475F4C564C5F564552424F53C7
:10D5A000450000002825732920686173206173738A
:10D5B000657274206661696C6564206174202573EE
:10D5C0003A256C642E0000002E2E5C757365725C2B
:10D5D000656173796C6F676765725C7372635C65B4
:10D5E0006C6F672E63000000656C6F6700000000C1
:10D5F00025B50108C8000020345E0120200000008D
:10D600005B0000005D200000280000003A000000E0
:10D61000256C6400290000000A000000345F01202E
:10D6200011B5010810B50446E94880F84D4090F85E
:10D630004D00A0B1E64890F84F0030B9E44890F8AA
:10D640004E0010B100F011FD09E0E14890F84F00E4
:10D6500028B1DF4890F84E0008B900F010FD10BD69
:10D6600010B5002400F0EEFC04460CB1204610BDBD
:10D670000120FFF7D7FF0020D54981F84E0081F83F
:10D680004F000520FFF753FF2046F0E710B586B0A6
:10D690000446002C1FD0012C1DD0CE480068002865
:10D6A00013D1E620CC49CDA2AFF20813CDE9031087
:10D6B000CDE9013200900B46AFF2F402AFF2D8018F
:10D6C0000020FFF7C5FD00BFFEE7E622C249C3A068
:10D6D000C04B1B689847BE4880F84C4006B010BD50
:10D6E00010B50120FFF7D2FF10BDB94890F84C00EB
:10D6F000704730B585B004460D46052C21DDB54890
:10D700000068002815D140F20F10BE49AFF2881210
:10D71000AFF27013CDE90310CDE9013200900B4652
:10D72000AFF25C12AFF240110020FFF791FD00BF95
:10D73000FEE740F20F12B349AFF2B410A54B1B68DD
:10D740009847A348343040F8245005B030BD10B598
:10D750000446102221469E48203000F0E5FE10BD10
:10D7600010B504461E2221469948401C00F0DCFEFC
:10D7700010BD70B586B006460C461546052E21DD57
:10D7800094480068002815D14FF48E709E49AFF27E
:10D790000822AFF2F013CDE90310CDE90132009079
:10D7A0000B46AFF2DC12AFF2C0110020FFF750FDC4
:10D7B00000BFFEE74FF48E729349AFF23420854BE1
:10D7C0001B6898473046FFF7B2FE2046FFF7C8FFB8
:10D7D0002846FFF7BCFF06B070BD0FB438B5002572
:10D7E0007B4890F84C0010B938BC5DF814FB05A8D4
:10D7F0000090FFF71CFD4FF480718448009B049A51
:10D800000BF0D4F90446002C04DBB4F5807F01DC76
:10D81000254601E04FF4807529467C4800F01BFC4A
:10D8200000F02DFC0020009000BFDDE76949086092
:10D83000704710B586B0044600BF00BF002C1ED153
:10D8400064480068A0B940F25F20714971A2AFF24C
:10D85000AC23CDE90310CDE9013200900B46AFF2C5
:10D860009822AFF27C210020FFF7F2FC00BFFEE718
:10D8700040F25F22664967A0564B1B6898475448A0
:10D8800090F8340010F0010F1FD1524800680028B2
:10D8900014D140F261205E495FA2AFF2F823CDE9D6
:10D8A0000310CDE9013200900B46AFF2E422AFF253
:10D8B000C8210020FFF7CCFC00BFFEE740F2612248
:10D8C000534955A0434B1B689847414890F838008E
:10D8D00010F0010F1FD13F480068002814D140F21A
:10D8E00062204B495AA2AFF24433CDE90310CDE98F
:10D8F000013200900B46AFF23032AFF2143100200B
:10D90000FFF7A6FC00BFFEE740F26222404950A0AC
:10D91000304B1B6898472E4890F83C0010F0010FE0
:10D920001FD12C480068002814D140F263203849E8
:10D9300054A2AFF29033CDE90310CDE9013200904B
:10D940000B46AFF27C32AFF260310020FFF780FC73
:10D9500000BFFEE740F263222D494AA01D4B1B6821
:10D9600098471B4890F8400010F0010F1FD119484C
:10D970000068002814D14FF4197025494EA2AFF267
:10D98000DC33CDE90310CDE9013200900B46AFF254
:10D99000C832AFF2AC310020FFF75AFC00BFFEE7FF
:10D9A0004FF419721A4944A00A4B1B68984708485B
:10D9B00090F8440010F0010F07D1064800680028D5
:10D9C00004D140F26520124990E0A8E0A0E00000F8
:10D9D000345F0120E0000020DCB4010828656E619E
:10D9E000626C6564203D3D2066616C736529207C16
:10D9F0007C2028656E61626C6564203D3D207472F8
:10DA000075652900F4B4010801B50108345E0120F0
:10DA100041B501086C6F6700656C6F672E656E61BC
:10DA2000626C65645F666D745F7365745B454C4FD3
:10DA3000475F4C564C5F4153534552545D2026205E
:10DA4000454C4F475F464D545F4C564C000000001C
:10DA5000656C6F672E656E61626C65645F666D7480
:10DA60005F7365745B454C4F475F4C564C5F455246
:10DA7000524F525D202620454C4F475F464D545F24
:10DA80004C564C00656C6F672E656E61626C656408
:10DA90005F666D745F7365745B454C4F475F4C56B2
:10DAA0004C5F5741524E5D202620454C4F475F4604
:10DAB0004D545F4C564C0000656C6F672E656E616F
:10DAC000626C65645F666D745F7365745B454C4F33
:10DAD000475F4C564C5F494E464F5D202620454CD3
:10DAE0004F475F464D545F4C564C000085A2AFF245
:10DAF0004C53CDE90310CDE9013200900B46AFF253
:10DB00003852AFF21C510020FFF7A2FB00BFFEE726
:10DB100040F2652288497BA0884B1B68984788485B
:10DB200090F8480010F0010F1FD1844800680028C9
:10DB300014D140F26620804982A2AFF29853CDE919
:10DB40000310CDE9013200900B46AFF28452AFF2E0
:10DB500068510020FFF77CFB00BFFEE740F2662221
:10DB6000754978A0754B1B6898472078492813D0D1
:10DB700006DC412809D0442810D0452812D107E0FE
:10DB800056280DD057280DD104E0002006B010BD56
:10DB90000120FBE70220F9E70320F7E70420F5E77F
:10DBA0000520F3E74FF0FF30F0E72DE9F04186B0B4
:10DBB00005460C4616460027B846002D20D15F4882
:10DBC0000068A8B94FF423706C49AFF2B812AFF2F5
:10DBD0002C63CDE90310CDE9013200900B46AFF282
:10DBE0001862AFF2FC510020FFF732FB00BFFEE7E6
:10DBF0004FF423726149AFF2E410504B1B68984711
:10DC0000002E1ED14D480068A0B940F28D205B491E
:10DC10005BA2AFF27063CDE90310CDE90132009051
:10DC20000B46AFF25C62AFF240610020FFF710FBE1
:10DC300000BFFEE740F28D22504951A03F4B1B68C8
:10DC40009847062C1FDB3D480068002814D140F29D
:10DC50008E204A494CA2AFF2B463CDE90310CDE95E
:10DC6000013200900B46AFF2A062AFF28461002057
:10DC7000FFF7EEFA00BFFEE740F28E223F4942A0D6
:10DC80002E4B1B6898472E48343010F8240010F0B3
:10DC9000020F1FD129480068002814D14FF42470C6
:10DCA000364940A2AFF20473CDE90310CDE9013249
:10DCB00000900B46AFF2F062AFF2D4610020FFF7A4
:10DCC000C7FA00BFFEE74FF424722C4935A01B4B66
:10DCD0001B6898473E4951F8240000F031FC471971
:10DCE0001E222021384600F032FC5FEA000803D0F3
:10DCF000A8EB0700306000E00027384606B0BDE81A
:10DD0000F0810000656C6F672E656E61626C656402
:10DD10005F666D745F7365745B454C4F475F4C562F
:10DD20004C5F44454255475D202620454C4F475F98
:10DD3000464D545F4C564C0041B50108E0000020B0
:10DD4000345F0120656C6F672E656E61626C65647F
:10DD50005F666D745F7365745B454C4F475F4C56EF
:10DD60004C5F564552424F53455D202620454C4F4F
:10DD7000475F464D545F4C564C0000004FB50108BC
:10DD80007461675F6C656E006C766C203C20454C5E
:10DD90004F475F4C564C5F544F54414C5F4E554D6E
:10DDA00000000000656C6F672E656E61626C6564D3
:10DDB0005F666D745F7365745B6C766C5D202620A6
:10DDC000454C4F475F464D545F54414700000000AB
:10DDD000C8000020F0B585B006460D46144627461B
:10DDE000002D1AD179480068002810D139207849CF
:10DDF00078A279A3CDE90310CDE9013200900B465A
:10DE00007EA287A10020FFF723FA00BFFEE7392298
:10DE10006F4970A06D4B1B689847002C19D16B4857
:10DE2000006880B93A206A497FA26BA3CDE903104C
:10DE3000CDE9013200900B4670A279A10020FFF7D6
:10DE400007FA00BFFEE73A22614977A05F4B1B68E3
:10DE500098470AE03046761CB0F5807F04D814F865
:10DE6000010B05F8010B00E002E020780028F1D159
:10DE700000BFE01B05B0F0BD2DE9F04186B00546BE
:10DE80000C46904601260027002D1AD14F48006805
:10DE9000002810D15320654965A24FA3CDE9031096
:10DEA000CDE9013200900B4654A25DA10020FFF79E
:10DEB000CFF900BFFEE753225C495DA0434B1B68CE
:10DEC0009847002C19D14148006880B9542057491F
:10DED00059A241A3CDE90310CDE9013200900B46D0
:10DEE00046A24FA10020FFF7B3F900BFFEE754227E
:10DEF0004E4951A0354B1B6898470DE014F8010BB3
:10DF000005F8010B7F1CB74206D3A01B32464BA17C
:10DF100000F03DFB00B904E05FEA0800A8F1010849
:10DF2000ECD100BF384606B0BDE8F0812DE9F041E4
:10DF300086B004460D46904626462F46002C1AD140
:10DF400022480068002810D16D203D4921A222A35B
:10DF5000CDE90310CDE9013200900B4627A230A194
:10DF60000020FFF775F900BFFEE76D22344919A0C4
:10DF7000164B1B689847002D19D11448006880B9CA
:10DF80006E202F4928A214A3CDE90310CDE9013258
:10DF900000900B4619A222A10020FFF759F900BFFB
:10DFA000FEE76E22264920A0084B1B68984703E035
:10DFB00017F8010B06F8010B5FEA0800A8F1010849
:10DFC000F6D1204606B0BDE8F0810000E000002058
:10DFD0005DB5010864737400282573292068617396
:10DFE00020617373657274206661696C6564206179
:10DFF000742025733A256C642E0000002E2E5C756B
:10E000007365725C656173796C6F676765725C7369
:10E0100072635C656C6F675F7574696C732E630007
:10E02000656C6F67000000007372630069B50108DA
:10E030006C696E65000000006C6F67000A000000EC
:10E0400074B5010810B500240120FBF7D6FE134972
:10E050000860204610BD70B504460D4623462A468A
:10E060000FA11148F3F790F970BD10B500234FF4DC
:10E070007A72194609480068FBF7EDFF10BD10B52C
:10E0800000231A46194605480068FBF7EAFD10BD53
:10E0900006A0704708A070470AA07047E40000205F
:10E0A000252E2A73000000000C08002031303A3081
:10E0B000383A3132000000007069643A313030384B
:10E0C000000000007469643A3234000001460878A8
:10E0D000A02801DD088870470878FCE70146087829
:10E0E000A02801DD022070470120FCE701464AF22A
:10E0F000A000814201DD022070470120FCE70246BA
:10E100004AF2A000814202DD1180022070471170A6
:10E110000120FBE72DE9F04F8BB081460E46D34836
:10E1200000682422C16901A800F0BAF9CF4800684C
:10E13000C069007ED9F80410897810FB01F00A90BC
:10E140000A98B0F5806F02DD4FF480600A902422B7
:10E15000C74901A800F005FA08B90C2516E02422E9
:10E16000C44901A800F0FDF908B910250EE02422E9
:10E17000C14901A800F0F5F908B9182506E02422E4
:10E18000BE4901A800F0EDF900B920252846EA179C
:10E1900005EB5272D2102946EB1705EB5373DB10D7
:10E1A000B5EBC30301D0012300E000231A446A4306
:10E1B00002F0FF08802E49DA0C2D06D0102D15D064
:10E1C000182D22D0202D40D130E000240BE0A6F104
:10E1D000200000EB4000AA4901EB8000005DA94946
:10E1E0000855601CC4B20C2CF1DB2EE0002409E0C1
:10E1F000A6F12000A44901EB0010005DA1490855DB
:10E20000601CC4B2102CF3DB1FE000240BE0A6F16D
:10E21000200000EB40009D4901EB0010005D994992
:10E220000855601CC4B2302CF1DB0EE0002409E07C
:10E23000A6F12000964901EB8010005D9149085538
:10E24000601CC4B2402CF3DB00BF3CE0F11706EBCE
:10E250001161C1F3072BF11706EB11610912A6EB4F
:10E26000012101F0FF0AAAF1A1005E2110FB01F0DB
:10E2700000FB08F0ABF1A10101FB08070C2D06D053
:10E28000102D0AD0182D0FD0202D1BD113E042469F
:10E2900039467C48F3F72BFE14E042467D48391896
:10E2A0007848F3F724FE0DE042467B48391875485C
:10E2B000F3F71DFE06E04246784839187148F3F737
:10E2C00016FE00BF00BF0BB0BDE8F08F2DE9F04F88
:10E2D00087B0054665480068B0F92A806348006841
:10E2E000C069C46907E02088A84203DC6088A842AE
:10E2F00000DB02E0A468002CF5D100BF002C7DD02B
:10E30000666829462046FFF705FFB778404604F0C7
:10E3100049FD069055480068806B5A490122CDE9B5
:10E320000227CDE9041051480068C069C07E4F49FA
:10E330000968C969897EDFF834C1CDE90010DCF8CD
:10E3400000C0DCF81CC09CF818303278DFF81CC123
:10E35000DCF800C0BCF92410DFF810C1DCF800C004
:10E36000BCF9220004F014F940480068C069407EFE
:10E370003E490968C969097E884244DD3B48006816
:10E38000C06990F81B9039480068C069407E10FB56
:10E3900009FA36480068C069007E10FB09FBB8F135
:10E3A000020F2FD002F065F9059002F02BF90490CE
:10E3B00002F079FFDFF8B4C0DCF800C0BCF922C07D
:10E3C00096F800E00CEB0E02DFF8A0C0DCF800C00D
:10E3D000BCF924C00CEB0A03DFF890C0DCF800C0E5
:10E3E000BCF924C00CEB0B01DFF880C0DCF800C0E6
:10E3F000BCF9220004F058FA059800E016E002F09B
:10E4000052FF00BF00BF069804F0CCFC174800681C
:10E41000B0F922107078154A1268D269927E10FB0A
:10E42000021000B211490968488400BF07B0BDE876
:10E43000F08F02460D480068C069C16907E008888E
:10E44000904203DC4888904200DB02E089680029A2
:10E45000F5D100BF41B148680078044B1B68DB6907
:10E460009B7E10FB03F070470020FCE7FC000020BF
:10E47000A8B5010818B6010888B601080CEB010818
:10E48000F0B60108845F012064BB010854C1010893
:10E4900024D30108603C0300E08C07000042110017
:10E4A00010B5431A934209D28318881803E010F874
:10E4B000011D03F8011D521EF9D210BD40EA0103EF
:10E4C0009B0703D009E008C9121F08C0042AFAD22A
:10E4D00003E011F8013B00F8013B521EF9D210BDD8
:10E4E000D2B201E000F8012B491EFBD27047002296
:10E4F000F6E710B513460A4604461946FFF7F0FF43
:10E50000204610BD30B505462A460B4612F8010BD1
:10E5100013F8014B08B1A042F8D01CB1002802D07A
:10E520006D1CF1E7284630BD10B5044604E00B78B9
:10E5300000F8013B03B1491C521EF8D2204610BD21
:10E54000421C10F8011B0029FBD1801A7047CBB286
:10E5500003E00178994203D0401C521EF9D20020FA
:10E56000704730B504460020034600E05B1C934230
:10E5700003D2E05CCD5C401BF8D030BD034611F8FF
:10E58000012B00F8012B002AF9D11846704730B54D
:10E5900005460020034600E05B1C934205D2EC5C7C
:10E5A000C85C201A01D1002CF6D130BD2DE9FE4FF8
:10E5B00081EA030404F0004421F0004100944FF08C
:10E5C000000B23F0004350EA010402D052EA030496
:10E5D00004D10020014603B0BDE8F08FC3F30A5414
:10E5E000C1F30A552C44A4F2F3340194A0FB025465
:10E5F000C1F3130141F48011C3F3130343F48013F7
:10E6000001FB024400FB034E840A970A44EA81544A
:10E6100047EA8357A4FB076802958D0A05FB078527
:10E620004FEA932C04FB0C542705029D4FEA065831
:10E6300047EA1637B5EB08056EEB070C870E920E0E
:10E6400047EA811742EA8312A7FB0201B6EB0B01EE
:10E6500064EB00042B0D43EA0C335E1844EB1C50B2
:10E66000DA465146E7FB0201C5F313044FEA0B33C8
:10E6700043EA14534FEA0432019C43EA0603A4F12F
:10E680000C040294009CCDE900B400F08BF8A2E7E2
:10E690000EB540F2334102910021CDE900110A4646
:10E6A0000B4600F07FF803B000BDC1F30A5210B56D
:10E6B000C1F3130140F2FF3341F480119A4201DAB1
:10E6C000002010BD40F233439A42A2F2334203DCF1
:10E6D000524200F04AF810BD904010BD30B50B46D4
:10E6E000014600202022012409E021FA02F59D4282
:10E6F00005D303FA02F5491B04FA02F52844151E56
:10E70000A2F10102F1DC30BD2DE9F05F05460020E9
:10E7100092469B4688460646814640241BE0284692
:10E7200041464746224600F020F853465A46C01A52
:10E73000914110D311461846224600F0D9F92D1AFE
:10E7400067EB01084F4622460120002100F0D0F976
:10E7500017EB00094E41201EA4F10104DFDC4846FE
:10E7600031462A464346BDE8F09F202A04DB203A82
:10E7700021FA02F00021704721FA02F3D040C2F1E1
:10E780002002914008431946704710B5002B08DA63
:10E79000401C41F1000192185B411A4301D120F065
:10E7A000010010BD2DE9F04D92469B4611B1B1FA22
:10E7B00081F202E0B0FA80F22032904600F098F93F
:10E7C00004460F4640EA0A0041EA0B0153465A4606
:10E7D000084303D120463946BDE8F08D114653EA7F
:10E7E000010015D0C8F140025046FFF7BEFF0546B4
:10E7F0000E4650465946424600F07AF9084301D089
:10E80000012000E00020054346EAE0762C43374330
:10E810000A984FEA4453A0EB08004FEAD4240A3088
:10E820004FF0000244EA47544FEAD72502D50020B2
:10E830000146D1E7010510196941DDE908450019D4
:10E840006941BDE8F04DA0E72DE9FE4F804681EA21
:10E850000300C00F0C46009021F0004123F000455A
:10E86000B8EB0200A94105D24046214690461C461D
:10E870000B46024623F00040104304D14046214697
:10E8800003B0BDE8F08F270DC7F30A00C3F30A51A8
:10E890000290401A0190402866DAC3F3130040F456
:10E8A000801B0098924620B10023D2EB030A63EB51
:10E8B0000B0B01985946C0F14002504600F018F980
:10E8C00006460D4650465946019A00F020F910EBD5
:10E8D00008006141002487EA115284EAE7731A4371
:10E8E0003BD0009A3AB3019A012A4FEA075210DC52
:10E8F000001B61EB02014FF0004202EA0752CDE932
:10E900000042001C41F5801132462B46FFF74AFFBA
:10E91000B6E7001B61EB0201001C41F580130018F3
:10E920005B412018A2F5001747EB030140EAD570C0
:10E93000B6196D4111E06D084FEA360645EAC0751B
:10E940004FEA0752001B61EB0201001C41F58011E8
:10E9500049084FEA30000019514132462B4603B0B6
:10E96000BDE8F04FFFF711BF0098012240000023DF
:10E97000D0EB020263EBE073009821464FEAE074AB
:10E98000B8EB000061EB0401E9E783F000435BE7CB
:10E9900081F0004158E72DE9F04D81EA030404F0CD
:10E9A000004B21F0004514464FF0000A23F00041CF
:10E9B00050EA050220D054EA01021DD0C5F30A57DF
:10E9C0000246C5F31303C1F31300C1F30A5640F422
:10E9D000801543F48013A7EB0608101BD64608F2F7
:10E9E000FD3873EB050002D308F1010801E092182D
:10E9F0005B41B8F1000F03DA00200146BDE8F08D5D
:10EA000000204FF48011064684460EE0171B73EB7E
:10EA1000050705D3121B63EB050306434CEA010C03
:10EA200049084FEA300092185B4150EA0107EDD1E6
:10EA300052EA030012D082EA040083EA0501084387
:10EA400003D100224FF0004308E0101BAB4102D27B
:10EA50000122002302E06FF0010253101AEB0600BE
:10EA60004CEB085110EB0A0041EB0B01BDE8F04DF7
:10EA7000FFF78BBEC1F30A52C1F3130140F2FF331B
:10EA800041F480119A4202DA00200146704740F2B8
:10EA900033439A42A2F2334202DC5242FFF765BE90
:10EAA00000F026B830B5002904DB4FF000444042A6
:10EAB00064EB0101002B04DB4FF00044524264EB95
:10EAC0000303994208BF904230BD0000064C074D39
:10EAD00006E0E06840F0010394E80700984710342E
:10EAE000AC42F6D3F1F754FB883E0208A83E020878
:10EAF000202A04DB203A00FA02F1002070479140FE
:10EB0000C2F1200320FA03F3194390407047202AF2
:10EB100006DBCB17203A41FA02F043EAE07306E045
:10EB200041FA02F3D040C2F1200291400843194655
:10EB3000704770B501EB020410F8015B15F0070394
:10EB400001D110F8013B2A1106D110F8012B03E086
:10EB500010F8016B01F8016B5B1EF9D12B0705D48E
:10EB60000023521E0FD401F8013BFAE710F8013BD5
:10EB700002F10202A1EB030303E013F8015B01F8C9
:10EB8000015B521EF9D5A142D6D3002070BD0028EA
:10EB900000DC40427047000038B545680446014635
:10EBA000284604F082FD00282BD02068304A112826
:10EBB0000DD006DC0B2825D00E2833D00F2852D1DB
:10EBC00012E0282849D0B0F5107F4CD108E09268B7
:10EBD000002A16D02146284601B0BDE83040104733
:10EBE000214628465268F7E7284600F0F3FF0090D8
:10EBF000406E0468684601F01DF8002C01D02846DC
:10EC0000A04738BD284600F0E5FF0090683000F0CE
:10EC100037FF009803216C3000F040FF684601F098
:10EC200009F820E0E168486809680D2902D0202928
:10EC300013D105E0002810DD284608F0A1FD06E00C
:10EC4000002804DD2846BDE8384008F099BD284674
:10EC5000BDE83840022108F0A9BDE06818B90021DC
:10EC6000284600F097F92046BDE8384005F002B884
:10EC700064010020F0B5044685B08069B4F90850FD
:10EC8000668A0027CDE90265CDE900170490B4F942
:10EC90000C00B4F91060C118B4F90A00B4F90E50B0
:10ECA000104433462A4600F007F80546616800F034
:10ECB0007AF905B02846F0BD2DE9F04F85B01F4622
:10ECC000DDE911B4DDE90E5690468946824601F031
:10ECD0009BFD16484C34CDE90204CDE900563B4675
:10ECE00042464946504604F00DFF040018D000F09B
:10ECF00071FF10225946049004F0C8FD0498302298
:10ED00000B493430FFF7CCFB094D04990C3D2868C2
:10ED1000486604A800F08EFF2868416820468847AE
:10ED200002F0F6FC05B02046BDE8F08F99EB000834
:10ED300070010020F0B5044680688B4989B051F815
:10ED40002050606800287DD0052804D006287AD09D
:10ED5000122879D1AEE0E86900284FD095E80E007E
:10ED60008DE80F0004F110010FC903F043F80026ED
:10ED700055F8260002F097FAA169E8690A1A216994
:10ED800001446069304401F01BFBA169E8690A1A7B
:10ED900021690144E069801B01F012FBE169E86927
:10EDA0000A1A616901442069304401F099FBE16964
:10EDB000E8690A1A61690144A069801B01F090FBAF
:10EDC000761C022ED4DBA86802F06DFAE069E969CE
:10EDD0006669431A206942183144801C521E01F0B2
:10EDE000DBFBE169E869A2690B1A61690144101A49
:10EDF000401C921E01F0D0FBEE6913E05FF00006AC
:10EE000055F8260002F04FFAE069831BA069821BC7
:10EE1000606981192069304401F022FB761C022EC2
:10EE2000EEDB0226D5E90301CDE900016169E06965
:10EE300008444310A069891C821B2069304401F0FA
:10EE400083FA02E089E012E08AE0D5E90501CDE924
:10EE50000001E36960690121184401EB6001A069C8
:10EE60009B1E821B2069304401F06EFA78E0206816
:10EE700000F0B0FE0490206805F0F2FE40B1A068FA
:10EE800008B1002008E00498006F28B1012003E0D9
:10EE90000498406F00B10220049901EB8000C56E18
:10EEA00004A800F0C7FE00231A462846216801F096
:10EEB000ADF855E0206800F08DFE0490866EEEB34C
:10EEC000B0F95C70A168D1B3032942D05FF00001B2
:10EED00000EB8101406D0C6C02F002FA204602F05A
:10EEE000E2F905A801F0C0FBBDF81410A88B01449D
:10EEF000ADF81410BDF81810081AADF81800BDF8D8
:10EF00001600801CADF81600BDF81A00801EADF882
:10EF10001A000498B0F96020B0F95E1005A802F05C
:10EF2000FAF804A800F086FE022002F035FA304616
:10EF300000F050FE3A4605A9079001E00BE006E01C
:10EF400001F046F90DF11C0000F074FE08E001210B
:10EF5000BEE70221BCE704A8F6E7206805F040FB05
:10EF600009B00020F0BD0000D434020838B50D46C9
:10EF700004000ED001F048FC204600F02BFE00906B
:10EF80004565684600F056FE204605F0FBF802F0A5
:10EF9000BFFB38BD4FF480720029114601D004F048
:10EFA00018BC04F069BB2DE9FF410E4605004FF087
:10EFB000010421D001F028FC284600F00BFE01904E
:10EFC000876E01A8009700F035FE3146684603F0D1
:10EFD000E3F978B100980024B84208D0284600F040
:10EFE000F9FD01900099816601A800F023FE2846F2
:10EFF00005F0C8F802F08CFB04B02046BDE8F081B3
:10F0000038B50C46050011D001F0FEFB284600F093
:10F01000E1FD0090416BA14203D04463284605F016
:10F02000B1F8684600F006FE02F072FB38BDFEB58E
:10F030000D46040022D0002D20D001F0E5FB204633
:10F0400000F0C8FD0190866F01A8009600F0F2FD67
:10F050002946684603F0A0F970B10098B04208D084
:10F06000204600F0B7FD01900099816701A800F0EB
:10F07000E1FD204605F086F802F04AFBFEBD1CB516
:10F080000024019401AC009400F0E8F81CBD0000DD
:10F090002DE9FF4F83B0814606988A46A0EB0A0807
:10F0A000109E00200090A2EB09043568934654EAB4
:10F0B000080018D02046FFF76AFD07464046FFF7D4
:10F0C00066FD87420BDA2046444680464846D146D4
:10F0D00082465846DDF818B0069001200090002CBA
:10F0E00007DD204606E007B04846BDE8F04F00F0D7
:10F0F0003BB96042A0420AD04846D9466442C8F1B2
:10F10000000883464FF0FF37DDF818A000E0012724
:10F110005148B8F1000F11D004EBD4714FEA610BE4
:10F1200001DACBF1000B4C480068807E88B3002FD9
:10F1300002DA30682044306000257BE00099002925
:10F14000016821D0897E11B10027804615E007B003
:10F150005A4649465046BDE8F04F03F07BBB28466F
:10F160006D1C08F0EFFF38B9D8F8000009EB070173
:10F17000406E4268504690477F1CA742EFDD6D1EEF
:10F18000356007B0BDE8F08F8A7E1AB1002780464F
:10F1900017E019E0486E5A465146036807B04846E2
:10F1A000BDE8F04F184728466D1C08F0CBFF38B972
:10F1B000D8F8001009EB0700496E4A68514690479D
:10F1C0007F1CA742EFDDDAE700250FE008FB05B062
:10F1D00090FBF4F101EB0A00009951B11E4A09EBD2
:10F1E00005011268526E526890476D1CA542EDDD14
:10F1F000C7E7194909EB05030968496E4A680146E2
:10F200001846F1E708FB05B090FBF4F101EB0A00AA
:10F21000019030683844306008F094FF48B9009895
:10F2200090B10D4809EB05010068406E42680198F5
:10F2300090476D1CA542E5DD3068002F01DA2044BF
:10F240003060C01B30609CE7034909EB050009688A
:10F25000496E4A680199EBE7FC0000202DE9FF4761
:10F260000F4640491646804609680C981D460A7E9E
:10F27000012A1CD0A8EB0600791B50EA01031CD020
:10F28000A2F1010909F0B4FC00F58060824603F0A8
:10F2900038F900FB09F4504603F038F900FB09F196
:10F2A000002C0CDAC4F50070801240420AE0009095
:10F2B000324639464046FFF7EBFEBDE8FF8704F5CE
:10F2C0000074A012002904DAC1F5007189124C42C1
:10F2D00002E001F500718C12002804DD411C01EBF5
:10F2E000D171491003E000EBD0714910401E00EBD2
:10F2F000D0704210002C04DD601C00EBD070401078
:10F3000003E004EBD4704010641E04EBD47308EBEC
:10F310000104ADF800403C18ADF80240A8EB02042F
:10F320005B10B21AADF80440ADF808203144FC1A65
:10F33000EA1AADF80C102844ADF80A20ADF80E001A
:10F340000023ADF806401A460421684600F07AF81A
:10F350003946404607F070F92946304607F06CF907
:10F36000ABE70000FC000020064A13681A7E012A61
:10F3700005D0521E02EBD272521000F005B85A6E40
:10F3800052681047FC0000202DE9F05F06468846D1
:10F3900040F2C32002FB00F14FF47A7091FBF0F7CA
:10F3A00002FB02F102EBD27001EB600B1446B118C4
:10F3B000234A301B7F1C1268526E13680A4641466E
:10F3C0009847012538E000BF05FB05F004FB040168
:10F3D00059451CDDBC4219DD194B06EB050AA6EBAD
:10F3E00005091B68AAF1010208EB04015B6E09F133
:10F3F00001001B689847124BAAF10102A8EB040117
:10F400001B6809F101005B6E1B689847641E0C4B7A
:10F410003219301B1B68924608EB05015B6E814672
:10F420001B689847064B5246A8EB05011B684846E7
:10F430005B6E1B6898476D1CBD42C5DDBDE8F09F43
:10F44000FC0000202DE9FF4F43F6FF740F46664293
:10F4500083B09B46814600210BE000BF09EB810091
:10F46000B0F90200A04200DA0446B04200DD0646D0
:10F47000491CB942F2DB67480068406900280DD09A
:10F48000B0F906101A46A1EB0B01B14200DA0E46A4
:10F49000B0F90200801AA04200DD0446B4E0DFF8B3
:10F4A00078A100200546CAF8000088E0781E854251
:10F4B00001DA6B1C00E0002309EB850C09EB8302E9
:10F4C000BCF90200B2F90210A04244D1A14215D108
:10F4D00039F92330059A39F9251003EB020C4D4A0E
:10F4E00005981268084404EB0B01526E60451368DE
:10F4F00001DA62462AE00246604627E02846A44632
:10F500004FF000087A1E0BE008B1401E00E0781EA4
:10F5100009EB8003B3F90230634504D108F1010817
:10F520009045F1DB2346A34248D01A1B39F9250048
:10F53000A1EB040C059B92EA0C0F09D4354A184440
:10F5400004EB0B011268526E13680246984735E0CF
:10F5500005F0BAFD32E0A14230D001DBA04203DD6C
:10F56000A0422BDBA14229DCE04688420ADC0346AC
:10F57000A04223DC0846A14220DBB8F900C0B2F962
:10F58000001008E00B46A14218DCA04216DBB2F9DD
:10F5900000C0B8F90010E21AA1EB0C015143002998
:10F5A000A0EB030202DD01EB620102E0A1EB6201CC
:10F5B000491CC01A91FBF0F06044C9E76D1CBD42C4
:10F5C000FFF674AF0598009004EB0B00019000204B
:10F5D0008046054613E01149B8F1000F31F915A036
:10F5E00009D0009901EB0A0208440A490968496EEA
:10F5F0000B680199984788F0010850466D1C064930
:10F6000009688D42E7DB641CB4427FF748AF07B05E
:10F61000BDE8F08FFC000020100400207865012078
:10F6200010B5002001F034FE6FF07F4001F03BFE8A
:10F63000012001F093FE002001F09EFE002001F069
:10F64000ABFE002001F040FE0448006801F048FED7
:10F65000BDE81040002001F053BE0000F80000207B
:10F660002DE9F04FDFF828B191B04FF0FF35DBF80E
:10F670000030B3F922100691DE69B3F92490F469E1
:10F68000A189814206D8E289824203D3471AD4F87D
:10F69000008012E0D4E9018100296FD00A888242FB
:10F6A0006CD84D88854269D3801A82B2486800EBD5
:10F6B0008200B0F90070B0F90250781C5ED0307E44
:10F6C000A17C10FB01FA217CCDE90701B3F92A6086
:10F6D000304603F067FBC0B20E90DBF8000007FB7A
:10F6E0000A81A37C826B0127CDE90412CDE9027364
:10F6F000C069089AC17E807ECDE90001DDE906037C
:10F70000494602F045FF681C18D046F0020003F09D
:10F7100049FBDBF80000A37C05FB0A81826BCDE985
:10F720000273CDE90412C069089AC17E807ECDE9DA
:10F730000001DDE90603494602F02AFFDBF800007C
:10F740005D46C069417E007E814214D9022E12D0EE
:10F7500086F0040003F026FB2868C069027EC37EA1
:10F7600012FB0391437E857E089A06984B4412FB58
:10F77000050203F099F80E9803F014FBDBF8000083
:10F78000627C418C1144418411B0BDE8F08F0000CF
:10F79000FC00002004480068C069C06909B1027C0F
:10F7A0000A60407C70470000FC00002002200880B6
:10F7B0007047C06982898A4202D8C2898A4210D2BF
:10F7C000806880B102888A420DD843888B420AD370
:10F7D000406800EB8100A0EB8200B0F90000002837
:10F7E00001DB012070470020704700002DE9F04345
:10F7F000304C034687B020681946B0F92A60C069CA
:10F80000C06900F086F8002850D041680088181AB6
:10F8100001EBC0053046AF7803F0C4FA814620689A
:10F820006A680123816BCDE90237CDE90421C16902
:10F83000CB7E8A7ECDE900230B7EB0F924102A7896
:10F84000B0F9220002F0A4FE2068C069417E027E69
:10F8500091421FD9C07E11FB00F812FB00F7022E67
:10F8600018D000F006FF064600F0CCFE01F01BFDAC
:10F8700021682A78CB69B1F92200DB7E12FB0302F2
:10F88000B1F9241001EB0803394403F00DF83046B8
:10F8900001F009FD484603F085FA20686A78C369DB
:10F8A000B0F922109B7E12FB0311418407B0BDE822
:10F8B000F0830000FC00002030B50F4C05460B46DD
:10F8C00020682946C069C06900F023F8002812D0DA
:10F8D0004168008824682A1A0120E46900EBC2000C
:10F8E000085CA47E10FB04F0002B04D011F8321049
:10F8F00011FB04F1196030BDFC00002001200880DC
:10F90000704700B5C06900F004F8002800D001205D
:10F9100000BD06E002888A4202D842888A4202D2AA
:10F9200080680028F6D170472DE9F0410025154E7A
:10F93000154C18E02069C5EB051700EBC7007022D5
:10F94000001D3168FEF7ACFD2069002140F837103A
:10F9500000EBC70000F10C018161011D0A1DC0E927
:10F960000F126D1C4164A0688542E3DB07F050FD77
:10F970002169C0EB001001EBC000001D3060BDE844
:10F98000F0810000FC0000202402002070B50F4927
:10F990000D480860084602F0F7FC0C4C143CA068C7
:10F9A000C0EB0010C500284600F086F82A4600216A
:10F9B000206102F027FD4FF0FF302060FCF71DFFB3
:10F9C000BDE8704007F024BD7D78010838020020B2
:10F9D00010B5040009D000F017FF204605F0D8FB51
:10F9E000044601F095FE204610BD002010BD38B53C
:10F9F000054600F009FF2846FFF7EAFF040009D09A
:10FA000000F0E8F82A460021009002F0FBFC68466E
:10FA100000F010F901F07CFE204638BD024A10606B
:10FA200021F00300506070474464012010B50400C9
:10FA300016D000F0E9FE0B48406B10F8341059B1B5
:10FA4000022909D2042101EBC4014158486805F09C
:10FA500057FB204608F03EFABDE8104001F058BEC2
:10FA600010BD000084630120002805D0034AD16B3B
:10FA7000016001B14860D0637047000084630120D9
:10FA800010B5044600F0C0FE2068FFF7CFFF00204D
:10FA90002060BDE8104001F03BBE000070B50D468F
:10FAA0000646002405E000BF06EB8400FFF7E8FFF0
:10FAB000641CAC42F8DB70BD2DE9F041044607F050
:10FAC0008FFD2848E41C24F00305016C2D1DA9427C
:10FAD00000D90D46C46B13E054F8042CAA420ED191
:10FAE00084B1216809B162684A60616809B122681D
:10FAF0000A60C26BA24231D12168C1632EE0246842
:10FB0000002CE9D18046816BC0680F1857F8040CAF
:10FB10003E1A306838B1002008F038FA57F8040C63
:10FB20003E1A3068D0B97068A84217DB3044441BD5
:10FB30003046241D08F0E2F9D8F80C10491BC8F82B
:10FB40000C10D8F814102944C8F814107068401B21
:10FB500002D0314605F0D4FA44F8045C2046BDE8F2
:10FB6000F08100008463012010B5002407F038FD07
:10FB70000C490F2001EBC002526C1AB101EBC0001E
:10FB8000406C08E0401EF5D508E04168A14200D96C
:10FB90000C46806810B180680028F6D1A4F10C00F2
:10FBA00010BD000084630120002138B10449042203
:10FBB00002EBC000496B085841680C390846704791
:10FBC0008463012002488169491C816170470000FB
:10FBD000846301200549CA69521CCA61496B01EB63
:10FBE000C0010A78521C0A7000F03CB884630120FE
:10FBF00010B500F009FEFFF7B7FF64220849B0F521
:10FC0000800F04D990FBF2F4086A444303E0096AC8
:10FC10004143B1FBF2F401F07BFD204610BD000032
:10FC20008463012002488169491E81617047000098
:10FC3000846301200A4902684B6B52F8082C03EBDD
:10FC4000C2021378022B03D3CB690BB15B1ECB61CD
:10FC50001178491E117000210160084670470000AC
:10FC600084630120002806D00349042202EBC0006F
:10FC7000496B0858083070478463012070B50C4602
:10FC8000054600F0F7FDC1B223462846BDE87040A6
:10FC9000002200F001B80000F0B52D271C68B0F17B
:10FCA000004F08D0002600280DDA651C1D60277063
:10FCB0004042012408E0651C01261D606FF00040F1
:10FCC0002770491E01E00024091BC9B22AB3491E4E
:10FCD000C9B222E00C46491EC9B2944205D1124C69
:10FCE00027781C68651C1D602770104C54F8215043
:10FCF00090FBF5F4E4B20A2C11D804FB150011B9FD
:10FD00000EB1641CE4B20A2C02D10124491CC9B210
:10FD10001D686F1C30341F602C700029DAD11968FF
:10FD200000200870F0BD0000F0000020DC3D02085B
:10FD300010B5C2B2CBB2D21A00D5524293B25B43D5
:10FD4000C0F30722C1F30724121B00D55242000C56
:10FD500092B2A0EB114002FB023200B2002801DA9D
:10FD6000404200B280B200FB002010BD10B500215F
:10FD7000084600F0F5FC43F6FF725042BDE8104023
:10FD800013460146AFF300802DE9FC411C461546A1
:10FD90000E46074600F038FD042003F003F88046C5
:10FDA0001248C068C16C006D0F4406440D44044401
:10FDB000ADF80070ADF80450ADF80260ADF8064043
:10FDC000684604F0D9FD07E023462A463146384606
:10FDD00002F06AFD04F092FD0028F5D1404602F0E1
:10FDE000E1FF01F095FCBDE8FC810000F00000207F
:10FDF0002DE9F8431C00DDE9089816460F46054634
:10FE000002D104F073F8044600962E6843464A4631
:10FE100021462846B047061E39D004F05CF88146DA
:10FE2000698A304603F0D5FC304604F031FC484680
:10FE300004F02EFC4FF000080CE000BFCDF800806D
:10FE400055F81CCF00231A4649462846E04700B320
:10FE500004F01EFC7F1E002FF0DC1D21484604F03C
:10FE6000E8FA601C12D000F0CFFC04F069F830B161
:10FE7000FFF7F8FE8469B44201D02000F8D1B44203
:10FE800002D0304604F07AFB01F042FC3046BDE877
:10FE9000F883304603F026FF0020F8E72DE9F04113
:10FEA0001C4616460D460746022B02DB0020BDE825
:10FEB000F0811C20FFF700FE0028F8D00DB105618D
:10FEC0000AE0094A52F8241009B905E011460A6807
:10FED000002AFBD1096901618461868200210160E9
:10FEE0004160C0E90217E2E71401002070B51D4629
:10FEF000FFF7D4FF040009D000F00EF8E0680068B6
:10FF000020B90348006800EB85008465204670BD79
:10FF1000FC000020FFF7A8BD70B590B38269022AEB
:10FF200030DA1E4C54F8221019B944F8220032E09D
:10FF300019464B68002BFBD106E0CB68C5681B68EF
:10FF40002D68AB4203DD09680029F6D11AE0C1B182
:10FF5000CB68C6681B683668B3420CD1838A012B14
:10FF600005D008E01946DB681B68AB4203DB0B6871
:10FF7000002BF7D129B14B6833B118604A68426051
:10FF800004E0FFE7012070BD44F822004860884289
:10FF900000D100210160002070BD0000140100208C
:10FFA00010B503E00468FFF7B7FF20460028F9D139
:10FFB00010BD00000A4A816952F82130834202D103
:10FFC000036842F82130416809B102680A6001689B
:10FFD00009B142684A600021016041607047000039
:10FFE0001401002000207047022801DB0020704728
:10FFF000054951F8200004E0C16809680029F6D0DD
:020000040801F1
:1000000000680028F8D17047140100202DE9F8435A
:100010001D461646884604000CD0FFF7DBFD009015
:10002000006807686846FFF705FE2B4632464146E2
:100030002046B847BDE8F8832DE9F0410446FCF7B7
:10004000C9FB06191EE000BF00F084FA052F00DD91
:10005000052700F0D9FB11480568FFF7B3FD2C0018
:1000600017D000BF01F054FB641EFBD13846FCF7EB
:10007000B5FB1DB100F0C8FB6D1EFBD1FFF7D2FD33
:1000800001F046FBFCF7A6FB371A002FDCDCBDE8CD
:10009000F0813846FCF7A2FBF0E7000030020020B8
:1000A0002DE9FC4706005FD000F0AEFB00F0FAFA45
:1000B0003C4C81462068B0F9228000F023FB216887
:1000C00007468A8CD01B888441E000BF47F6FF7149
:1000D000304601F0E9FF82460146304601F0BAFFA2
:1000E0002168054691F82C0000F00300012841D05A
:1000F00002283BD000204A8C101A4884ADF800003A
:100100006A1E1044ADF80400888CADF80200A9F115
:1001100001010844ADF806006A465146304601F038
:1001200087FC2168BDF8020088845146304601F002
:10013000DDF9064430780A281ED00D281CD0BDF801
:100140000000216828444884307818B1761C307843
:100150000028BBD12068818C39448184818D21F0B5
:100160000301818501F0D4FABDE8FC8705EBD57069
:100170004010C0E72846BEE7206890F82C1001F038
:10018000030101290BD0022909D0018C4184317867
:100190000A29D9D1828C02EB09018184D4E7A0F825
:1001A0002280F4E7FC00002070B514460D46064698
:1001B00000F02AFB05480068458484843046FFF738
:1001C0006FFFBDE8704001F0A3BA0000FC00002002
:1001D00047F6FF73AFF300802DE9FC411F469046C0
:1001E0000D4606004FF000041AD000F00DFB65B17B
:1001F000284604F03DFA040007D002462946684626
:1002000001F0BFFF684604F033FA3B4642462946F8
:10021000304601F065FC204604F02AFA01F078FA35
:10022000BDE8FC811CB50A460146684602F09EF80E
:1002300000F0EAFA2548BDF80010006830F84C2FAD
:100240001144ADF80010BDF8021082881144ADF8D9
:100250000210BDF8041002881144ADF80410BDF876
:10026000061080880844ADF80600684604F084FB58
:1002700027E000BFBDF900400BE000BFBDF9021050
:10028000204602F0B3FABDF90610204602F0AEFA9D
:10029000A41CBDF90400A042F0DABDF902400AE056
:1002A000BDF90000214602F0A1FABDF90400214683
:1002B00002F09CFAA41CBDF90600A042F0DA04F09A
:1002C0001DFB0028D6D101F023FA1CBDFC00002044
:1002D0002DE9F04F87B09B46DDE9109892460C4619
:1002E000054600F091FA16480168C86C096D471977
:1002F0000E1900EB0A0501EB0B04ADF81070ADF818
:100300001450ADF81260ADF8164004A804F034FBA8
:1003100088B1DFF830B04FF0000ACDE90098CDE9A0
:1003200002BA2B4622463946304606F0BBF804F0A6
:10033000E5FA0028F1D101F0EBF907B0BDE8F08F44
:10034000FC000020552801082DE9F04F87B09B469E
:10035000DDE9109892460C46054600F055FA16481D
:100360000168C86C096D47190E1900EB0A0501EB0D
:100370000B04ADF81070ADF81450ADF81260ADF884
:10038000164004A804F0F8FA88B1DFF830B04FF056
:10039000010ACDE90098CDE902BA23462A46314642
:1003A000384606F07FF804F0A9FA0028F1D101F0F0
:1003B000AFF907B0BDE8F08FFC00002095270108D9
:1003C0002DE9FC4114460D46064600F01DFA114F7A
:1003D0003968C86C096D054404440E44ADF80050FA
:1003E000ADF80440ADF80260ADF80660684604F070
:1003F000C3FA08E0386822463146406E0368284652
:10040000984704F07BFA0028F4D101F081F9BDE8A7
:10041000FC810000FC0000202DE9F0411C4615463F
:100420000E46074600F0F0F90C480168C86C096DEB
:10043000074405440E440C44002004F09DFA07E0F4
:1004400023462A4631463846FEF719FE04F056FA8E
:100450000028F5D1BDE8F04101F05AB9FC000020B8
:100460002DE9FC411C4616460D46074600F0CCF926
:100470001A480168087ECA6C096D17440D440C4483
:10048000401E391A1644ADF800103118ADF80410AA
:10049000291A2044ADF80600ADF80210684604F0B1
:1004A0006BFA15E032462946384602F073F93246B7
:1004B0002146384602F06EF9621E691C384602F089
:1004C000C9F9621E691C304602F0C4F904F016FA3C
:1004D0000028E7D101F01CF9BDE8FC81FC000020F8
:1004E0007CB514460D46064600F08EF90F480068AC
:1004F000C16C006D0E4405440444ADF80060ADF8D5
:100500000460ADF80250ADF80640684604F034FAD5
:1005100006E022462946304602F09CF904F0EEF946
:100520000028F6D101F0F4F87CBD0000FC000020AA
:1005300070B50C46054600F0A8F810B10121C0E9DD
:10054000001400F061F9284604F05AF9BDE8704043
:1005500001F0DEB810B5002400E0012400F004F83A
:100560000028FAD1204610BD094810B500680024C3
:1005700010B1804700B1012403F02CFC00B101242C
:100580000448006810B1804700B10124204610BD26
:10059000200100201C0100202DE9FC411C461546CD
:1005A0000E46074600F030F910480068C16C006D37
:1005B0000F4406440D440444ADF80070ADF80450F7
:1005C000ADF80260ADF80640684604F0D5F907E0E2
:1005D00023462A463146384602F066F904F08EF981
:1005E0000028F5D101F094F8BDE8FC81FC00002062
:1005F000034951F82000C1688A6A082110470000A9
:100600001401002010B500F0FFF802F07DF902F0AF
:100610000FFA044601F07CF8204610BD10B50446E0
:1006200000F0F2F8054800210068C06942682046E1
:100630009047044601F06CF8204610BDFC000020F5
:1006400070B50C46054600F0DFF806482146006804
:10065000C069426828469047044601F059F8204690
:1006600070BD0000FC000020002801D003F010BC89
:10067000704710B500F0C8F802F04EF902F0D8F952
:10068000044601F045F8204610BD1FB50021019138
:10069000029103912A210091694603F0BBFE039861
:1006A00004B010BD10B500F0AFF804480068C06990
:1006B000447E01F02DF8204610BD0000FC00002013
:1006C00010B500F0A1F801F0BBFC044601F020F8E1
:1006D000204610BD70B50C46054600F095F8214641
:1006E000284601F00BFDBDE8704001F011B810B5CF
:1006F000044601F0F5FC01462046BDE8104001F03B
:10070000A9BC000010B5002400F07EF80B4800687A
:1007100090F82C1001F00C01042904D0082906D00F
:100720000C2907D103E0C069047E641E02E0C069A1
:10073000007E440800F0ECFF204610BDFC000020C5
:10074000024951F820000069006870471401002038
:10075000024951F8200000694068704714010020E8
:1007600070B50D46044600F04FF8204606F098FE9E
:100770000446284606F09CFE044300F0C9FF2046CC
:1007800070BD00002DE9F0411948016821F0010118
:100790000160184801258560174901600068174904
:1007A000884200D0FEE701F073F8154E2E2030701D
:1007B000FCF721F8134806F0D9FE09F022F80746A5
:1007C00002F0F0F810B102F001F938B902F007F9BF
:1007D000044602F0F0F8214602F0DEFA0021084655
:1007E00000F09CFD03F024FC75703846BDE8F081F4
:1007F000002000E000300240C2A507F4CDB5E8B506
:10080000F00000205064012070B5184CE06820B161
:10081000FCF746F86168884204D0FCF733F8FCF72F
:100820003FF86060E068401CE06001281CD106F0E1
:10083000EFFD05462068854216D0002813DBFFF740
:10084000D1FB01462068C0EB0012206900EBC20218
:100850005167C5EB0511064A00EBC100011D11608F
:10086000406FFFF79DFB256070BD00002402002053
:10087000FC00002010B5011E01DD024600E04A42E6
:10088000064B012053F82040944202D8401C0A280D
:10089000F8DB002900DA401C10BD0000DC3D020836
:1008A0001CB5040004D10E480068046E002C16D05C
:1008B000FFF7AAFF2046FFF78DF9009044696846CC
:1008C000FFF7B8F94CB12046FFF784F90190816831
:1008D0008968884701A8FFF7ADF900F019FF1CBD32
:1008E000FC00002001490A4600F002B801F0FFFFB9
:1008F0002DE9F04387B015460C465FEA000846D064
:10090000FFF782FF002000F0DFFC814621480068ED
:10091000066E4046FFF75EF900900068806900F0BF
:100920008DFC074640F6FF70C44204D10098B0F930
:100930000440B0F906500098611E0289ADF80440E9
:100940001144ADF808104189681E0844ADF80650FE
:10095000ADF80A0003F07EF86846FFF76BF901A8CE
:1009600004F00AF806E02A462146404600F088FBDB
:1009700003F0C4FF0028F6D1384600F05FFC304693
:1009800000F090F9484600F09FFC00F0C1FE07B06F
:10099000BDE8F083FC0000202DE9FE4F984691460B
:1009A0008A46834600270C9EFFF72EFF18481949F8
:1009B0000068407C51F82040E1680968042903D0B0
:1009C0002468002CF8D100E01CB9FFF70DFB041ED1
:1009D0001BD0E0680121C26A20469047050011D073
:1009E0002469A0688047401C02D10B4C46F00106E8
:1009F0000096CDE9015443464A465146584600F018
:100A0000E5F9074600F084FE3846BDE8FE8F000099
:100A1000FC00002014010020FC34020838B504005A
:100A20001CD0FFF7F1FE0E480068006EA04201D115
:100A300000F0F6FB2046FFF7CDF80090406908B1C2
:100A400000F04FFE00980068FFF764FA6846FFF771
:100A5000F1F82046FEF7EAFF00F05AFE38BD00002C
:100A6000FC0000202DE9FF4F83B09A468B460746D5
:100A7000FFF7CAFEDFF83891D9F80000447C4D48F2
:100A800000570128204606DD01F092FF054620466A
:100A900001F0A2FF05E001F073FF0546204601F0DA
:100AA00075FF04461FB302A901A8FFF713FEB7F9AB
:100AB0000000002800DA0020B7F902608046002E0E
:100AC00000DA002601984119B7F90400491E06F022
:100AD0001CFE054602980119B7F90600491E06F0EA
:100AE00014FEA5EB0802841B521C641C03E04FF0AB
:100AF000000846462A46BAF1000F01D1C4F1000AA7
:100B0000002A51DD002C4FDD1098009053463146ED
:100B10004046FFF741FF5FEA000A10D000F07CF882
:100B20000746A04206D0D9F80000806C10B13221EF
:100B300004F042FA504600F0B5F8002523E059468B
:100B40000598884700F0E4FD012007B0BDE8F08F6C
:100B5000611BB94202DA504600F088F83DB17219C3
:100B60004146504600F0C6F85046FFF799FE5946F8
:100B7000059888471048016809B100208847504609
:100B8000FFF7B0FE3D44A542E2DB5046FFF746FFCB
:100B9000002000F087F8A74206D0D9F80000806C4A
:100BA00010B1332104F008FA00F0B2FD0020CCE7C8
:100BB000FC000020340100205C02002038B5050054
:100BC0004FF0000411D0FFF71FFE2846FFF702F890
:100BD0000090006800698068804702F045FA04468A
:100BE0006846FFF727F800F093FD204638BD38B57A
:100BF00004000ED0FFF708FE2046FEF7EBFF00F1E1
:100C0000180400906846FFF715F800F081FD2046B3
:100C100038BD002038BD000038B504460025FFF778
:100C2000F3FD1CB908480068046E44B12046FEF785
:100C3000D1FF0090B0F90A506846FEF7FBFF00F0C4
:100C400067FD284638BD0000FC00002070B5054651
:100C50000024284604F024FC641C18B1BDE8704050
:100C600000F07AB8052CF4DB70BD000038B50C46F6
:100C7000050004D10A480068056E002D0FD0FFF76B
:100C8000C3FD2846FEF7A6FF0090B0F90A10A14266
:100C900000DD44816846FEF7CDFF00F039FD38BD28
:100CA000FC000020F8B50546FFF7AEFD104E306899
:100CB000046ECDB10CB100F0B3FA02F0CBFF2846C0
:100CC000FEF788FF009031680D660068FFF724F991
:100CD0006846FEF7AFFF02F0ADF802F03DF800BF46
:100CE00000F016FD2046F8BD00F09AFAF8E7000083
:100CF000FC0000207CB515460E46040004D11548C2
:100D00000068046E002C24D0FFF77EFD2046FEF71D
:100D100061FF2DB20090C58034B2848002F01CF8CF
:100D20000098406980B1FEF755FF009A0190B2F932
:100D300008108180B2F90A20C28011B10AB1048082
:100D4000458001A8FEF776FF6846FEF773FF00F0C6
:100D5000DFFC7CBDFC00002001490A4600F002B81F
:100D600001F0FFFF7FB515460C4606002DD0FFF7BA
:100D70004BFD3046FEF72EFF40F6FF710190CC424E
:100D800003D1B0F90440B0F906500289611E114444
:100D9000ADF80840ADF80C104189681E0844ADF864
:100DA0000E00ADF80A5001A8FEF744FF02A803F0B8
:100DB000E3FD06E02A462146304600F049F903F0FB
:100DC0009DFD0028F6D100F0A3FC7FBD2DE9FF4F6B
:100DD000DFF8E8B083B01C46DBF80010DDE91060F6
:100DE00092464FF000084B7C42461299FFF756F8A6
:100DF000050060D028698068804702F035F9814697
:100E00000AFB09F1C91DCF08FEF7F2FEF10705D173
:100E1000C11700EB9170801000EB4000002C09DC42
:100E20001FB11838B0FBF7F000E000206442A04288
:100E300000DC0446F00707D10090DDE903012346FA
:100E4000524600F0D3FB8046002C03DC2846FFF717
:100E500061F830E004FB07F01830F10702D0FEF72C
:100E6000B7FD01E0FEF7C3FD06001CD0FEF7B2FEA1
:100E700001900560039981800499C180A0F808A0C1
:100E80004481C0F81480C0E9037901A8FEF7D2FEBE
:100E90001298AE602861DBF80000407CA861304603
:100EA00007B0BDE8F08F2846FFF734F8B8F100002E
:100EB00001D0FEF7BBFD0020F2E70000FC0000209F
:100EC0002DE9F74F8EB0144689460E98FEF782FE44
:100ED0000990B0F908B0B0F90A600068006940688C
:100EE0000C9009A8FEF7A6FE564D574F2868407C87
:100EF00057F82000C1688A6A08219047079018288F
:100F000001D3202007902868407C57F82000006912
:100F1000069003C80B904D48814201D0012000E0AB
:100F200000200A90002000F0FDFB00287DD12868F9
:100F300009EB0B01B0F90C20891A491E002902DDCA
:100F4000ABEB010500E05D46B0F90810494505DD51
:100F5000A1EB090189446D1A089101E00021089173
:100F6000002D6BDDB0F90E20A119891A491E002948
:100F700002DDA6EB010800E0B046B0F90A00A0428D
:100F800004DD061B3444A8EB060800E00026B8F197
:100F9000000F53DD089801900DA95F46DDF830A0E1
:100FA0000E980091FFF723FE774300EB870101982D
:100FB0002B4601EB800200994846CDE900A121466D
:100FC00000F030FE0090002838D00A98E8B1DDE942
:100FD00006322946009800F055FCB0B90698009FEB
:100FE000DA46D0F810C0BCF1000F05D004235A46F1
:100FF00039463846E04708E00B993868884701C70A
:10100000AAF101005FEA000AF6D100990020079AD0
:10101000CDE90301059001200090CDE901022146B0
:101020000346641C2A46484600E007E001F0B0FA97
:10103000A8F10100761C5FEA0008ABD111B0BDE851
:10104000F08F0000FC000020140100204F2A01084E
:10105000F8B515460E460746FEF7BCFD0090006841
:101060001621C068426A0020904704466846FEF791
:10107000E1FD002C03D02A4631463846A047F8BD92
:10108000F8B516460F46050012D0FEF7A3FD0090F6
:1010900044696846FEF7CEFD2846FFF78FFD0346FC
:1010A000082800DD2CB132463946284607F096F96B
:1010B000F8BD32463946284607F030FBF8BD10B57A
:1010C000002821D009B30AB3B1F90040B2F90030C9
:1010D0009C4200DA23460380B1F90240B2F90230A3
:1010E0009C4200DA23464380B1F90440B2F904304F
:1010F0009C4200DD23468380B1F90610B2F9062038
:10110000914200DC1146C18010BD11460A680260A0
:101110004968416010BD00280BD003880B44038050
:10112000838819448180418811444180C1881144D9
:10113000C180704770B50025FFF766FB094CD4E904
:10114000002082420AD0D2E90056104606F0C6F9C5
:1011500020603146284603F0A1F8012500F0D8FAB6
:10116000284670BD400100202DE9FC41154DDDE908
:1011700008742D68B5F90860864200DD3046B5F97F
:101180000C60964200DA3246824219DBB5F90A60F9
:101190008E4200DD3146B5F90E509D4200DA2B46F5
:1011A0008B420DDB00E02C46E5682D6825B1042D4F
:1011B00002D02568002DF6D1CDE9007401F0B6FC0F
:1011C000BDE8FC81FC000020B0F90220B1F9063036
:1011D0009A4213DCB1F90220B0F906309A420DDCD4
:1011E000B0F90020B1F904309A4207DCB1F90010DF
:1011F000B0F90400814201DC0120704700207047F3
:101200000146024870220068FDF74AB9FC00002040
:10121000024970220968FDF743B90000FC00002074
:1012200010B5FFF7F1FA01F04DFD01F003FE02F0F9
:1012300011FCBDE8104000F06BBA000070B50B4D1A
:1012400004462868467CFFF7DFFA022C09D22046C4
:10125000FEF7CAFE28B128684474FFF7E1FF04488E
:10126000046000F055FA304670BD0000FC0000201C
:10127000B001002070B50C46054603F00FF80028B9
:1012800005D121462846BDE8704000F0A5B870BDE4
:1012900010B50446FFF7B8FA204601F033FDBDE86B
:1012A000104000F035BA10B50446FFF7ADFA2046FD
:1012B00001F060FDBDE8104000F02ABA01498860E5
:1012C00070470000F000002010B50446FFF79CFABC
:1012D000204601F067FD044600F01AFA204610BDD2
:1012E00070B50446FFF790FA04480068C56904B178
:1012F000C46100F00DFA284670BD0000FC0000201B
:1013000070B50546FFF780FA03480068847E85764D
:1013100000F0FEF9204670BDFC00002070B50C46C0
:101320000546FFF771FA09482246058008480480FF
:1013300008480068417C084850F82100C1680B6AE1
:1013400029469847BDE8704000F0E2B93C01002012
:101350003E010020FC0000201401002070B505466D
:10136000FFF752FA03480068047E057600F0D0F9D2
:10137000204670BDFC00002070B50446FFF744FA1B
:1013800004480068B0F92C50848500F0C1F9284663
:1013900070BD0000FC00002070B50446FFF734FA71
:1013A00004480068B0F92A50448500F0B1F9284695
:1013B00070BD0000FC00002002480068002800D03A
:1013C000004770474002002002498A6802B98860DD
:1013D000FFF7F2BF400100207CB50A4C0546CDE97D
:1013E00000016068019A6E46C0E90052216806F06B
:1013F00067F86060E16809B130468847A560FFF78B
:10140000DBFF7CBD4001002010B504000ED0FFF7CB
:10141000FBF9204606F08CFD204606F0AFFF204683
:10142000FEF704FBBDE8104000F072B910BD38B5FE
:101430000C46050011D0FFF7E7F92846FEF7CAFB76
:1014400000908089204201D0012400E000246846F9
:10145000FEF7F0FB00F05CF900E00124204638BD07
:1014600038B50546002028600648046844B1204687
:10147000FEF7B0FB0090006928606846FEF7DAFBD3
:10148000204638BD5803002038B504004FF0000056
:101490000D46086011D02046FEF79CFB0090846842
:1014A00044B16846FEF7C6FB2046FEF793FB00906A
:1014B000006928606846FEF7BDFB204638BD000085
:1014C0002DE9F041084E0446056830680168284659
:1014D0008847074630684168284688472844206086
:1014E0003846BDE8F0810000000100202DE9F04100
:1014F0000C4606460025064F05E038684168304630
:10150000884706440544641EF7D22846BDE8F081AA
:10151000000100202DE9F0411E46069C1746884632
:1015200005463A46A8687F1C3346D0F804C04146B9
:101530002846E047641EF4D1BDE8F08170B5B0F9EB
:101540000040091BB0F904408C422CDD00F114046A
:10155000B0F902500069521B02FB0040CA1800EBB0
:10156000E104521ED010B0EBE10501F007034FF08B
:10157000FF0102F0070221FA03F0C2F1070201FAAB
:1015800002F1CEB221780FD001436D1E04F8011B89
:10159000002D05DDFF2229462046FCF7A1FF2C4443
:1015A00020783043207070BD30400143217070BD01
:1015B00010B5B0F90030B0F90240C91A00F11403B7
:1015C0000069121B02FB003000EBE10001F0070391
:1015D00002788021D9400A43027010BDB0F906108C
:1015E000026951431430FCF782BF00002DE9F84333
:1015F000804602F10F000011470003FB07F01C4674
:10160000154689461430FEF7F2F9060018D0FFF7A8
:10161000FBF83046FEF7DEFA0090A0F80080A0F854
:1016200002908580C4800749816001218181076122
:101630006846FEF7FFFA00F06BF83046BDE8F88325
:101640000020FBE7883D020870B5B0F90660B0F9EC
:1016500004400B6800F1140596421BDD0069A342AB
:1016600002FB005000EBE30214DA641EE010A0EB72
:10167000E30512F8010B03F00704A040C4B206E032
:1016800045B1083312F8014B23F007036D1E002CFF
:10169000F6D004E0002070BD6006040E5B1C20063E
:1016A000FAD5FF2C07D0184602E06406240E401C31
:1016B0006606FAD400E0D81DC443640705D006E0EE
:1016C00012F8014BFF2C09D108306D1EF8D5C01A55
:1016D000401C0B6070BD6206140E401C2206FAD43A
:1016E000F5E738B50546FFF78FF82846FEF772FA9A
:1016F00000908189491E0CB284816846FEF79AFAEF
:1017000014B92846FEF792F900F002F838BD00003F
:101710000348C168491EC16001D1FBF7AAB87047F0
:10172000240200200EB508B102AA00E00022002326
:1017300001A9684600F036FC0EBD0000074910B54F
:101740000C7818B101200870801E03E0002008709A
:101750006FF07F4000F006FF204610BD36010020EC
:1017600010B5082A0EDC0346012A18D0022A56D0EA
:10177000042A76D010F8042B03F8012B491EF9D166
:10178000012010BD102A08DC4FEA000230F8043BAB
:1017900022F8023B491EF9D1F2E7002010BD10F8F3
:1017A000042BD207120E491E34D010F8044B491EE8
:1017B00004F0010442EA84122CD010F8044B491EB4
:1017C00004F0010442EA441224D010F8044B491EEC
:1017D00004F0010442EA04121CD010F8044B491E24
:1017E00004F0010442EAC40214D010F8044B491E6C
:1017F00004F0010442EA84020CD010F8044B491EA4
:1018000004F0010442EA440204D010F8044B04F04E
:101810000104224303F8012B0029C0D1B0E710F8DE
:10182000042B9207120E491E15D010F8044B491EC6
:1018300004F0030442EA04120DD010F8044B491ED0
:1018400004F0030442EA840205D010F8044B04F0CB
:1018500003042243491E03F8012B0029DFD18FE73F
:10186000FFE710F8042B1207120E491E05D010F8DE
:10187000044B04F00F042243491E03F8012B0029F6
:10188000EFD17DE738B50024009400F01DF838BD95
:101890000B4810B58169002910D101218161FBF746
:1018A0001FF8FEF773F8FBF75DFC054905481C318E
:1018B0000860BDE81040084600F066BD10BD00009D
:1018C000F00000201D7801082DE9F0410D46069931
:1018D000044601B901461F68082A09DC0E46012AA0
:1018E0001AD0022A5BD0042A7DD0082A13D18DE0B9
:1018F000102A07DCD3F810C00E46BCF1000F04D04C
:10190000022389E00020BDE8F08101CCB84726F829
:10191000020B6D1EF9D189E001CCB847C0074FEA30
:1019200010686D1E36D001CCB84748EA801000F030
:10193000FF086D1E2ED001CCB84748EA401000F0D9
:10194000FF086D1E26D001CCB84748EA001000F011
:10195000FF086D1E1ED001CCB84748EAC00000F059
:10196000FF086D1E16D001CCB84748EA800000F091
:10197000FF086D1E0ED001CCB84748EA400000F0C9
:10198000FF086D1E06D001CCB84740EA080000F001
:10199000FF086D1E06F8018B002DBDD146E001CC7D
:1019A000B84780074FEA10686D1E16D001CCB847C3
:1019B00048EA001000F0FF086D1E0ED001CCB847B9
:1019C00048EA800000F0FF086D1E06D001CCB84741
:1019D00040EA080000F0FF086D1E06F8018B002D9C
:1019E000DDD123E0FFE701CCB84700074FEA1068DC
:1019F0006D1E06D001CCB84740EA080000F0FF0891
:101A00006D1E06F8018B002DEDD10FE0D3F810C04C
:101A1000BCF1000F04D001232A462046E04705E030
:101A200001CCB84706F8010B6D1EF9D101206AE719
:101A30007CB5064628480D46006868B1002002F0D3
:101A40009BFF06E06A462946304603F0E7FD02F0B8
:101A500055FF0028F6D17CBD106800901F4C5068DF
:101A600001902268BDF8000032F84C1F0844ADF820
:101A70000000BDF8020091880844ADF80200BDF8EE
:101A8000040011880844ADF80400BDF806009188F0
:101A90000844ADF80600684602F06EFF0EE000BF95
:101AA0002068BDF800106A464184BDF802108184A8
:101AB0002946304603F0B2FD02F020FF0028EFD1A6
:101AC000206830F8221F428D891A01804188C28D1A
:101AD000891A41807CBD000038010020FC000020F4
:101AE0002DE9FF4F85B09A4690460D46FEF7DAFD88
:101AF0004FF00009DDF814B006464C4625B12868C1
:101B000000906868019002E06846FEF7ADFD18F0AD
:101B10000C0F02D05546002713E0BDF902402DE01E
:101B200029467F1C059800F0BFFA01466D1A0598FA
:101B3000FFF7DCFC05990844059005A800F0F8FAC9
:101B400008B9002DECD108F00C00042804D00828B6
:101B500002D00C2812D105E0BDF9060007FB1604DF
:101B6000641C0BE0BDF90600BDF90210401A07FB2A
:101B70001600401C00EBD07001EB60045546CDF818
:101B800014B043E02946059800F08EFA0746014656
:101B9000ED1B059800F05EFA18F003010ED0012944
:101BA00039D002290DD1BDF90410BDF90020891AE0
:101BB000091A01EBD17102EB610101E0BDF90010DE
:101BC0008946174A401E484412683946A2F82290B6
:101BD0009484ADF80C00A019401EADF80890ADF843
:101BE0000E00ADF80A4002AA0598FFF721FF39461A
:101BF0000598FFF77BFC059908440590FEF752FD18
