ARM Linker, 5.03 [Build 24] [MDK-ARM Professional]

==============================================================================

Section Cross References

    main.o(.text) refers to emwindemo.o(.text) for MainTask
    main.o(.text) refers to led.o(.text) for led0_toggle
    main.o(.text) refers to softtimer.o(.text) for soft_timer_set
    main.o(.text) refers to key.o(.text) for key_scan
    main.o(.text) refers to gui_onkey.o(i.GUI_SendKeyMsg) for GUI_SendKeyMsg
    main.o(.text) refers to uart.o(.text) for uart_printf
    main.o(.text) refers to tasks.o(.text) for vTaskDelay
    main.o(.text) refers to queue.o(.text) for xQueueCreateMutex
    main.o(.text) refers to bsp.o(.text) for bsp_init
    main.o(.text) refers to param.o(.text) for load_param
    main.o(.text) refers to elog.o(.text) for elog_init
    main.o(.text) refers to uart.o(.bss) for uart_2
    main.o(.text) refers to main.o(.data) for TaskHandle_Main
    main.o(.text) refers to param.o(.data) for mutex_param
    system_stm32f4xx.o(.text) refers to system_stm32f4xx.o(.data) for SystemCoreClock
    delay.o(.text) refers to port.o(.text) for xPortSysTickHandler
    delay.o(.text) refers to tasks.o(.text) for xTaskGetSchedulerState
    delay.o(.text) refers to misc.o(.text) for SysTick_CLKSourceConfig
==============================================================================

Removing Unused input sections from the image.

    Removing main.o(.rev16_text), (4 bytes).
    Removing main.o(.revsh_text), (4 bytes).
    Removing stm32f4xx_it.o(.rev16_text), (4 bytes).
    Removing stm32f4xx_it.o(.revsh_text), (4 bytes).
    Removing system_stm32f4xx.o(.rev16_text), (4 bytes).
    Removing system_stm32f4xx.o(.revsh_text), (4 bytes).
    Removing delay.o(.rev16_text), (4 bytes).
    Removing delay.o(.revsh_text), (4 bytes).
    Removing emwindemo.o(.rev16_text), (4 bytes).
    Removing emwindemo.o(.revsh_text), (4 bytes).
    Removing key.o(.rev16_text), (4 bytes).
    Removing key.o(.revsh_text), (4 bytes).
    Removing spi.o(.rev16_text), (4 bytes).
    Removing spi.o(.revsh_text), (4 bytes).
    Removing pwm_beep.o(.rev16_text), (4 bytes).
    Removing pwm_beep.o(.revsh_text), (4 bytes).
    Removing pwm_beep.o(.text), (228 bytes).
    Removing easyfifo.o(.rev16_text), (4 bytes).
==============================================================================

Image Symbol Table

    Local Symbols

    Symbol Name                              Value     Ov Type        Size  Object(Section)

    ../clib/../cmprslib/zerorunl2.c          0x00000000   Number         0  __dczerorl2.o ABSOLUTE
    ../clib/microlib/division.c              0x00000000   Number         0  uldiv.o ABSOLUTE
    ../clib/microlib/division.c              0x00000000   Number         0  uidiv.o ABSOLUTE
    ../clib/microlib/init/entry.s            0x00000000   Number         0  entry8b.o ABSOLUTE
    ../clib/microlib/init/entry.s            0x00000000   Number         0  entry5.o ABSOLUTE
    ../clib/microlib/init/entry.s            0x00000000   Number         0  entry7a.o ABSOLUTE
    ../clib/microlib/init/entry.s            0x00000000   Number         0  entry10b.o ABSOLUTE
    ../clib/microlib/init/entry.s            0x00000000   Number         0  entry7b.o ABSOLUTE
    ../clib/microlib/init/entry.s            0x00000000   Number         0  entry8a.o ABSOLUTE
    ../clib/microlib/init/entry.s            0x00000000   Number         0  entry.o ABSOLUTE
    ../clib/microlib/init/entry.s            0x00000000   Number         0  entry9a.o ABSOLUTE
    ../clib/microlib/init/entry.s            0x00000000   Number         0  entry11b.o ABSOLUTE
    ../clib/microlib/init/entry.s            0x00000000   Number         0  entry11a.o ABSOLUTE
    ../clib/microlib/init/entry.s            0x00000000   Number         0  entry10a.o ABSOLUTE
    ../clib/microlib/init/entry.s            0x00000000   Number         0  entry9b.o ABSOLUTE
    ../clib/microlib/init/entry.s            0x00000000   Number         0  entry2.o ABSOLUTE
    ../clib/microlib/longlong.c              0x00000000   Number         0  llushr.o ABSOLUTE
    ../clib/microlib/longlong.c              0x00000000   Number         0  llsshr.o ABSOLUTE
    ../clib/microlib/longlong.c              0x00000000   Number         0  llshl.o ABSOLUTE
    ../clib/microlib/printf/printf.c         0x00000000   Number         0  printf5.o ABSOLUTE
    ../clib/microlib/printf/printf.c         0x00000000   Number         0  printf6.o ABSOLUTE
    ../clib/microlib/printf/printf.c         0x00000000   Number         0  printf7.o ABSOLUTE
    ../clib/microlib/printf/printf.c         0x00000000   Number         0  printf2.o ABSOLUTE
    ../clib/microlib/printf/printf.c         0x00000000   Number         0  printf8.o ABSOLUTE
    ../clib/microlib/printf/printf.c         0x00000000   Number         0  printfa.o ABSOLUTE
    ../clib/microlib/printf/printf.c         0x00000000   Number         0  printf3.o ABSOLUTE
    ../clib/microlib/printf/printf.c         0x00000000   Number         0  printf0.o ABSOLUTE
    ../clib/microlib/printf/printf.c         0x00000000   Number         0  printf1.o ABSOLUTE
    ../clib/microlib/printf/printf.c         0x00000000   Number         0  printfb.o ABSOLUTE
    ../clib/microlib/printf/printf.c         0x00000000   Number         0  printf4.o ABSOLUTE
    ../clib/microlib/printf/stubs.s          0x00000000   Number         0  stubs.o ABSOLUTE
    ../clib/microlib/stdio/fputc.c           0x00000000   Number         0  fputc.o ABSOLUTE
    ../clib/microlib/stdio/semi.s            0x00000000   Number         0  semi.o ABSOLUTE
    ../clib/microlib/stdio/streams.c         0x00000000   Number         0  stdout.o ABSOLUTE
    ../clib/microlib/string/memchr.c         0x00000000   Number         0  memchr.o ABSOLUTE
    ../clib/microlib/string/memcmp.c         0x00000000   Number         0  memcmp.o ABSOLUTE
    ../clib/microlib/string/memcpy.c         0x00000000   Number         0  memmoveb.o ABSOLUTE
    ../clib/microlib/string/memcpy.c         0x00000000   Number         0  memcpya.o ABSOLUTE
    ../clib/microlib/string/memcpy.c         0x00000000   Number         0  memcpyb.o ABSOLUTE
    ../clib/microlib/string/memcpy.c         0x00000000   Number         0  memmovea.o ABSOLUTE
    ../clib/microlib/string/memset.c         0x00000000   Number         0  memseta.o ABSOLUTE
    ../clib/microlib/string/strcpy.c         0x00000000   Number         0  strcpy.o ABSOLUTE
    ../clib/microlib/string/strlen.c         0x00000000   Number         0  strlen.o ABSOLUTE
    ../clib/microlib/string/strncmp.c        0x00000000   Number         0  strncmp.o ABSOLUTE
    ../clib/microlib/string/strncpy.c        0x00000000   Number         0  strncpy.o ABSOLUTE
    ../clib/microlib/string/strstr.c         0x00000000   Number         0  strstr.o ABSOLUTE
    ../clib/microlib/stubs.s                 0x00000000   Number         0  iusesemip.o ABSOLUTE
    ../clib/microlib/stubs.s                 0x00000000   Number         0  iusefp.o ABSOLUTE
    ../fplib/microlib/fpadd.c                0x00000000   Number         0  dadd.o ABSOLUTE
    ../fplib/microlib/fpdiv.c                0x00000000   Number         0  ddiv.o ABSOLUTE
    ../fplib/microlib/fpepilogue.c           0x00000000   Number         0  depilogue.o ABSOLUTE
    ../fplib/microlib/fpfix.c                0x00000000   Number         0  dfixul.o ABSOLUTE
    ../fplib/microlib/fpfix.c                0x00000000   Number         0  dfixui.o ABSOLUTE
    ../fplib/microlib/fpflt.c                0x00000000   Number         0  dfltui.o ABSOLUTE
    ../fplib/microlib/fpmul.c                0x00000000   Number         0  dmul.o ABSOLUTE
    ..\..\..\Utilities\Third_Party\STemWin532_20160205\GUI\Core\GUICC_0.c 0x00000000   Number         0  guicc_0.o ABSOLUTE
    ..\..\..\Utilities\Third_Party\STemWin532_20160205\GUI\Core\GUICC_8888.c 0x00000000   Number         0  guicc_8888.o ABSOLUTE
    ..\..\..\Utilities\Third_Party\STemWin532_20160205\GUI\Core\GUICC_8888_Index2Color.c 0x00000000   Number         0  guicc_8888_index2color.o ABSOLUTE
    ..\..\..\Utilities\Third_Party\STemWin532_20160205\GUI\Core\GUICC_888_Index2Color.c 0x00000000   Number         0  guicc_888_index2color.o ABSOLUTE
    ..\..\..\Utilities\Third_Party\STemWin532_20160205\GUI\Core\GUICC_M565.c 0x00000000   Number         0  guicc_m565.o ABSOLUTE
    ..\..\..\Utilities\Third_Party\STemWin532_20160205\GUI\Core\GUI_2DLib.c 0x00000000   Number         0  gui_2dlib.o ABSOLUTE
    ..\..\..\Utilities\Third_Party\STemWin532_20160205\GUI\Core\GUI_ALLOC_AllocZero.c 0x00000000   Number         0  gui_alloc_alloczero.o ABSOLUTE
    ..\..\..\Utilities\Third_Party\STemWin532_20160205\GUI\Core\GUI_AddDecMin.c 0x00000000   Number         0  gui_adddecmin.o ABSOLUTE
    ..\..\..\Utilities\Third_Party\STemWin532_20160205\GUI\Core\GUI_AddDecShift.c 0x00000000   Number         0  gui_adddecshift.o ABSOLUTE
    ..\..\..\Utilities\Third_Party\STemWin532_20160205\GUI\Core\GUI_Alloc.c 0x00000000   Number         0  gui_alloc.o ABSOLUTE
    ..\..\..\Utilities\Third_Party\STemWin532_20160205\GUI\Core\GUI_CalcColorDist.c 0x00000000   Number         0  gui_calccolordist.o ABSOLUTE
    ..\..\..\Utilities\Third_Party\STemWin532_20160205\GUI\Core\GUI_Char.c 0x00000000   Number         0  gui_char.o ABSOLUTE
    ..\..\..\Utilities\Third_Party\STemWin532_20160205\GUI\Core\GUI_CharLine.c 0x00000000   Number         0  gui_charline.o ABSOLUTE
    ..\..\..\Utilities\Third_Party\STemWin532_20160205\GUI\Core\GUI_CharM.c 0x00000000   Number         0  gui_charm.o ABSOLUTE
    ..\..\..\Utilities\Third_Party\STemWin532_20160205\GUI\Core\GUI_CharP.c 0x00000000   Number         0  gui_charp.o ABSOLUTE
    ..\..\..\Utilities\Third_Party\STemWin532_20160205\GUI\Core\GUI_Circ.c 0x00000000   Number         0  gui_circ.o ABSOLUTE
    ..\..\..\Utilities\Third_Party\STemWin532_20160205\GUI\Core\GUI_Core.c 0x00000000   Number         0  gui_core.o ABSOLUTE
    ..\..\..\Utilities\Third_Party\STemWin532_20160205\GUI\Core\GUI_Curs1.c 0x00000000   Number         0  gui_curs1.o ABSOLUTE
    ..\..\..\Utilities\Third_Party\STemWin532_20160205\GUI\Core\GUI_CursorArrowM.c 0x00000000   Number         0  gui_cursorarrowm.o ABSOLUTE
    ..\..\..\Utilities\Third_Party\STemWin532_20160205\GUI\Core\GUI_CursorArrowMPx.c 0x00000000   Number         0  gui_cursorarrowmpx.o ABSOLUTE
    ..\..\..\Utilities\Third_Party\STemWin532_20160205\GUI\Core\GUI_CursorPal.c 0x00000000   Number         0  gui_cursorpal.o ABSOLUTE
    ..\..\..\Utilities\Third_Party\STemWin532_20160205\GUI\Core\GUI_Device.c 0x00000000   Number         0  gui_device.o ABSOLUTE
    ..\..\..\Utilities\Third_Party\STemWin532_20160205\GUI\Core\GUI_DispString.c 0x00000000   Number         0  gui_dispstring.o ABSOLUTE
    ..\..\..\Utilities\Third_Party\STemWin532_20160205\GUI\Core\GUI_DispStringAt.c 0x00000000   Number         0  gui_dispstringat.o ABSOLUTE
    ..\..\..\Utilities\Third_Party\STemWin532_20160205\GUI\Core\GUI_DispStringInRect.c 0x00000000   Number         0  gui_dispstringinrect.o ABSOLUTE
    ..\..\..\Utilities\Third_Party\STemWin532_20160205\GUI\Core\GUI_DrawBitmap.c 0x00000000   Number         0  gui_drawbitmap.o ABSOLUTE
    ..\..\..\Utilities\Third_Party\STemWin532_20160205\GUI\Core\GUI_DrawFocusRect.c 0x00000000   Number         0  gui_drawfocusrect.o ABSOLUTE
    ..\..\..\Utilities\Third_Party\STemWin532_20160205\GUI\Core\GUI_DrawGradient.c 0x00000000   Number         0  gui_drawgradient.o ABSOLUTE
    ..\..\..\Utilities\Third_Party\STemWin532_20160205\GUI\Core\GUI_DrawHLine.c 0x00000000   Number         0  gui_drawhline.o ABSOLUTE
    ..\..\..\Utilities\Third_Party\STemWin532_20160205\GUI\Core\GUI_DrawLine.c 0x00000000   Number         0  gui_drawline.o ABSOLUTE
    ..\..\..\Utilities\Third_Party\STemWin532_20160205\GUI\Core\GUI_DrawPoint.c 0x00000000   Number         0  gui_drawpoint.o ABSOLUTE
    ..\..\..\Utilities\Third_Party\STemWin532_20160205\GUI\Core\GUI_DrawVLine.c 0x00000000   Number         0  gui_drawvline.o ABSOLUTE
    ..\..\..\Utilities\Third_Party\STemWin532_20160205\GUI\Core\GUI_Exec.c 0x00000000   Number         0  gui_exec.o ABSOLUTE
    ..\..\..\Utilities\Third_Party\STemWin532_20160205\GUI\Core\GUI_FillPolygon.c 0x00000000   Number         0  gui_fillpolygon.o ABSOLUTE
    ..\..\..\Utilities\Third_Party\STemWin532_20160205\GUI\Core\GUI_FillRect.c 0x00000000   Number         0  gui_fillrect.o ABSOLUTE
    ..\..\..\Utilities\Third_Party\STemWin532_20160205\GUI\Core\GUI_FillRectEx.c 0x00000000   Number         0  gui_fillrectex.o ABSOLUTE
    ..\..\..\Utilities\Third_Party\STemWin532_20160205\GUI\Core\GUI_GetBitmapPixelIndex.c 0x00000000   Number         0  gui_getbitmappixelindex.o ABSOLUTE
    ..\..\..\Utilities\Third_Party\STemWin532_20160205\GUI\Core\GUI_GetClientRect.c 0x00000000   Number         0  gui_getclientrect.o ABSOLUTE
    ..\..\..\Utilities\Third_Party\STemWin532_20160205\GUI\Core\GUI_GetColor.c 0x00000000   Number         0  gui_getcolor.o ABSOLUTE
    ..\..\..\Utilities\Third_Party\STemWin532_20160205\GUI\Core\GUI_GetFontSizeY.c 0x00000000   Number         0  gui_getfontsizey.o ABSOLUTE
    ..\..\..\Utilities\Third_Party\STemWin532_20160205\GUI\Core\GUI_GetOrg.c 0x00000000   Number         0  gui_getorg.o ABSOLUTE
    ..\..\..\Utilities\Third_Party\STemWin532_20160205\GUI\Core\GUI_GetStringDistX.c 0x00000000   Number         0  gui_getstringdistx.o ABSOLUTE
    ..\..\..\Utilities\Third_Party\STemWin532_20160205\GUI\Core\GUI_Goto.c 0x00000000   Number         0  gui_goto.o ABSOLUTE
    ..\..\..\Utilities\Third_Party\STemWin532_20160205\GUI\Core\GUI_MergeRect.c 0x00000000   Number         0  gui_mergerect.o ABSOLUTE
    ..\..\..\Utilities\Third_Party\STemWin532_20160205\GUI\Core\GUI_MoveRect.c 0x00000000   Number         0  gui_moverect.o ABSOLUTE
    ..\..\..\Utilities\Third_Party\STemWin532_20160205\GUI\Core\GUI_OnKey.c 0x00000000   Number         0  gui_onkey.o ABSOLUTE
    ..\..\..\Utilities\Third_Party\STemWin532_20160205\GUI\Core\GUI_PID.c 0x00000000   Number         0  gui_pid.o ABSOLUTE
    ..\..\..\Utilities\Third_Party\STemWin532_20160205\GUI\Core\GUI_Pen.c 0x00000000   Number         0  gui_pen.o ABSOLUTE
    ..\..\..\Utilities\Third_Party\STemWin532_20160205\GUI\Core\GUI_Realloc.c 0x00000000   Number         0  gui_realloc.o ABSOLUTE
    ..\..\..\Utilities\Third_Party\STemWin532_20160205\GUI\Core\GUI_RectsIntersect.c 0x00000000   Number         0  gui_rectsintersect.o ABSOLUTE
    ..\..\..\Utilities\Third_Party\STemWin532_20160205\GUI\Core\GUI_SPRITE.c 0x00000000   Number         0  gui_sprite.o ABSOLUTE
    ..\..\..\Utilities\Third_Party\STemWin532_20160205\GUI\Core\GUI_SaveContext.c 0x00000000   Number         0  gui_savecontext.o ABSOLUTE
    ..\..\..\Utilities\Third_Party\STemWin532_20160205\GUI\Core\GUI_SelectLCD.c 0x00000000   Number         0  gui_selectlcd.o ABSOLUTE
    ..\..\..\Utilities\Third_Party\STemWin532_20160205\GUI\Core\GUI_SelectLayer.c 0x00000000   Number         0  gui_selectlayer.o ABSOLUTE
    ..\..\..\Utilities\Third_Party\STemWin532_20160205\GUI\Core\GUI_SetAlpha.c 0x00000000   Number         0  gui_setalpha.o ABSOLUTE
    ..\..\..\Utilities\Third_Party\STemWin532_20160205\GUI\Core\GUI_SetColor.c 0x00000000   Number         0  gui_setcolor.o ABSOLUTE
    ..\..\..\Utilities\Third_Party\STemWin532_20160205\GUI\Core\GUI_SetDefault.c 0x00000000   Number         0  gui_setdefault.o ABSOLUTE
    ..\..\..\Utilities\Third_Party\STemWin532_20160205\GUI\Core\GUI_SetDrawMode.c 0x00000000   Number         0  gui_setdrawmode.o ABSOLUTE
    ..\..\..\Utilities\Third_Party\STemWin532_20160205\GUI\Core\GUI_SetFont.c 0x00000000   Number         0  gui_setfont.o ABSOLUTE
    ..\..\..\Utilities\Third_Party\STemWin532_20160205\GUI\Core\GUI_SetLineStyle.c 0x00000000   Number         0  gui_setlinestyle.o ABSOLUTE
    ..\..\..\Utilities\Third_Party\STemWin532_20160205\GUI\Core\GUI_SetOrg.c 0x00000000   Number         0  gui_setorg.o ABSOLUTE
    ..\..\..\Utilities\Third_Party\STemWin532_20160205\GUI\Core\GUI_SetTextAlign.c 0x00000000   Number         0  gui_settextalign.o ABSOLUTE
    ..\..\..\Utilities\Third_Party\STemWin532_20160205\GUI\Core\GUI_SetTextMode.c 0x00000000   Number         0  gui_settextmode.o ABSOLUTE
    ..\..\..\Utilities\Third_Party\STemWin532_20160205\GUI\Core\GUI_Task.c 0x00000000   Number         0  gui_task.o ABSOLUTE
    ..\..\..\Utilities\Third_Party\STemWin532_20160205\GUI\Core\GUI_Time.c 0x00000000   Number         0  gui_time.o ABSOLUTE
    ..\..\..\Utilities\Third_Party\STemWin532_20160205\GUI\Core\GUI_Timer.c 0x00000000   Number         0  gui_timer.o ABSOLUTE
    ..\..\..\Utilities\Third_Party\STemWin532_20160205\GUI\Core\GUI_UC.c 0x00000000   Number         0  gui_uc.o ABSOLUTE
    ..\..\..\Utilities\Third_Party\STemWin532_20160205\GUI\Core\GUI_WaitEvent.c 0x00000000   Number         0  gui_waitevent.o ABSOLUTE
    ..\..\..\Utilities\Third_Party\STemWin532_20160205\GUI\Core\GUI__Alpha.c 0x00000000   Number         0  gui__alpha.o ABSOLUTE
    ..\..\..\Utilities\Third_Party\STemWin532_20160205\GUI\Core\GUI__CompactPixelIndices.c 0x00000000   Number         0  gui__compactpixelindices.o ABSOLUTE
    ..\..\..\Utilities\Third_Party\STemWin532_20160205\GUI\Core\GUI__DivTbl_255_31.c 0x00000000   Number         0  gui__divtbl_255_31.o ABSOLUTE
    ..\..\..\Utilities\Third_Party\STemWin532_20160205\GUI\Core\GUI__DivTbl_255_63.c 0x00000000   Number         0  gui__divtbl_255_63.o ABSOLUTE
    ..\..\..\Utilities\Third_Party\STemWin532_20160205\GUI\Core\GUI__DivTbl_31_255.c 0x00000000   Number         0  gui__divtbl_31_255.o ABSOLUTE
    ..\..\..\Utilities\Third_Party\STemWin532_20160205\GUI\Core\GUI__DivTbl_63_255.c 0x00000000   Number         0  gui__divtbl_63_255.o ABSOLUTE
    ..\..\..\Utilities\Third_Party\STemWin532_20160205\GUI\Core\GUI__DrawTwinArc.c 0x00000000   Number         0  gui__drawtwinarc.o ABSOLUTE
    ..\..\..\Utilities\Third_Party\STemWin532_20160205\GUI\Core\GUI__ExpandPixelIndices.c 0x00000000   Number         0  gui__expandpixelindices.o ABSOLUTE
    ..\..\..\Utilities\Third_Party\STemWin532_20160205\GUI\Core\GUI__GetFontSizeY.c 0x00000000   Number         0  gui__getfontsizey.o ABSOLUTE
    ..\..\..\Utilities\Third_Party\STemWin532_20160205\GUI\Core\GUI__GetNumChars.c 0x00000000   Number         0  gui__getnumchars.o ABSOLUTE
    ..\..\..\Utilities\Third_Party\STemWin532_20160205\GUI\Core\GUI__HandleEOLine.c 0x00000000   Number         0  gui__handleeoline.o ABSOLUTE
    ..\..\..\Utilities\Third_Party\STemWin532_20160205\GUI\Core\GUI__IntersectRect.c 0x00000000   Number         0  gui__intersectrect.o ABSOLUTE
    ..\..\..\Utilities\Third_Party\STemWin532_20160205\GUI\Core\GUI__IntersectRects.c 0x00000000   Number         0  gui__intersectrects.o ABSOLUTE
    ..\..\..\Utilities\Third_Party\STemWin532_20160205\GUI\Core\GUI__ManageCache.c 0x00000000   Number         0  gui__managecache.o ABSOLUTE
    ..\..\..\Utilities\Third_Party\STemWin532_20160205\GUI\Core\GUI__ReduceRect.c 0x00000000   Number         0  gui__reducerect.o ABSOLUTE
    ..\..\..\Utilities\Third_Party\STemWin532_20160205\GUI\Core\GUI__SetText.c 0x00000000   Number         0  gui__settext.o ABSOLUTE
    ..\..\..\Utilities\Third_Party\STemWin532_20160205\GUI\Core\GUI__memset.c 0x00000000   Number         0  gui__memset.o ABSOLUTE
    ..\..\..\Utilities\Third_Party\STemWin532_20160205\GUI\Core\GUI__memset16.c 0x00000000   Number         0  gui__memset16.o ABSOLUTE
    ..\..\..\Utilities\Third_Party\STemWin532_20160205\GUI\Core\GUI__sqrt32.c 0x00000000   Number         0  gui__sqrt32.o ABSOLUTE
    ..\..\..\Utilities\Third_Party\STemWin532_20160205\GUI\Core\GUI__strcmp.c 0x00000000   Number         0  gui__strcmp.o ABSOLUTE
    ..\..\..\Utilities\Third_Party\STemWin532_20160205\GUI\Core\GUI__strlen.c 0x00000000   Number         0  gui__strlen.o ABSOLUTE
    ..\..\..\Utilities\Third_Party\STemWin532_20160205\GUI\Core\LCD.c 0x00000000   Number         0  lcd.o ABSOLUTE
    ..\..\..\Utilities\Third_Party\STemWin532_20160205\GUI\Core\LCD_AA.c 0x00000000   Number         0  lcd_aa.o ABSOLUTE
    ..\..\..\Utilities\Third_Party\STemWin532_20160205\GUI\Core\LCD_Color.c 0x00000000   Number         0  lcd_color.o ABSOLUTE
    ..\..\..\Utilities\Third_Party\STemWin532_20160205\GUI\Core\LCD_GetColorIndex.c 0x00000000   Number         0  lcd_getcolorindex.o ABSOLUTE
    ..\..\..\Utilities\Third_Party\STemWin532_20160205\GUI\Core\LCD_GetEx.c 0x00000000   Number         0  lcd_getex.o ABSOLUTE
    ..\..\..\Utilities\Third_Party\STemWin532_20160205\GUI\Core\LCD_GetNumDisplays.c 0x00000000   Number         0  lcd_getnumdisplays.o ABSOLUTE
    ..\..\..\Utilities\Third_Party\STemWin532_20160205\GUI\Core\LCD_GetP.c 0x00000000   Number         0  lcd_getp.o ABSOLUTE
    ..\..\..\Utilities\Third_Party\STemWin532_20160205\GUI\Core\LCD_GetPixelColor.c 0x00000000   Number         0  lcd_getpixelcolor.o ABSOLUTE
    ..\..\..\Utilities\Third_Party\STemWin532_20160205\GUI\Core\LCD_Mirror.c 0x00000000   Number         0  lcd_mirror.o ABSOLUTE
    ..\..\..\Utilities\Third_Party\STemWin532_20160205\GUI\Core\LCD_ReadRect.c 0x00000000   Number         0  lcd_readrect.o ABSOLUTE
    ..\..\..\Utilities\Third_Party\STemWin532_20160205\GUI\Core\LCD_SelectLCD.c 0x00000000   Number         0  lcd_selectlcd.o ABSOLUTE
    ..\..\..\Utilities\Third_Party\STemWin532_20160205\GUI\Core\LCD_Set.c 0x00000000   Number         0  lcd_set.o ABSOLUTE
    ..\..\..\Utilities\Third_Party\STemWin532_20160205\GUI\Core\LCD_SetClipRectEx.c 0x00000000   Number         0  lcd_setcliprectex.o ABSOLUTE
    ..\..\..\Utilities\Third_Party\STemWin532_20160205\GUI\Core\LCD_UpdateColorIndices.c 0x00000000   Number         0  lcd_updatecolorindices.o ABSOLUTE
    ..\..\..\Utilities\Third_Party\STemWin532_20160205\GUI\Font\F13_1.c 0x00000000   Number         0  f13_1.o ABSOLUTE
    ..\..\..\Utilities\Third_Party\STemWin532_20160205\GUI\Font\F13_ASCII.c 0x00000000   Number         0  f13_ascii.o ABSOLUTE
    ..\..\..\Utilities\Third_Party\STemWin532_20160205\GUI\Font\F16_1.c 0x00000000   Number         0  f16_1.o ABSOLUTE
    ..\..\..\Utilities\Third_Party\STemWin532_20160205\GUI\Font\F16_ASCII.c 0x00000000   Number         0  f16_ascii.o ABSOLUTE
    ..\..\..\Utilities\Third_Party\STemWin532_20160205\GUI\Font\F20_1.c 0x00000000   Number         0  f20_1.o ABSOLUTE
    ..\..\..\Utilities\Third_Party\STemWin532_20160205\GUI\Font\F20_ASCII.c 0x00000000   Number         0  f20_ascii.o ABSOLUTE
    ..\..\..\Utilities\Third_Party\STemWin532_20160205\GUI\Font\F6x8.c 0x00000000   Number         0  f6x8.o ABSOLUTE
    ..\..\..\Utilities\Third_Party\STemWin532_20160205\GUI\MemDev\GUIDEV.c 0x00000000   Number         0  guidev.o ABSOLUTE
    ..\..\..\Utilities\Third_Party\STemWin532_20160205\GUI\MemDev\GUIDEV_16.c 0x00000000   Number         0  guidev_16.o ABSOLUTE
    ..\..\..\Utilities\Third_Party\STemWin532_20160205\GUI\MemDev\GUIDEV_32.c 0x00000000   Number         0  guidev_32.o ABSOLUTE
    ..\..\..\Utilities\Third_Party\STemWin532_20160205\GUI\MemDev\GUIDEV_Banding.c 0x00000000   Number         0  guidev_banding.o ABSOLUTE
    ..\..\..\Utilities\Third_Party\STemWin532_20160205\GUI\MemDev\GUIDEV_Clear.c 0x00000000   Number         0  guidev_clear.o ABSOLUTE
    ..\..\..\Utilities\Third_Party\STemWin532_20160205\GUI\MemDev\GUIDEV_CreateFixed.c 0x00000000   Number         0  guidev_createfixed.o ABSOLUTE
    ..\..\..\Utilities\Third_Party\STemWin532_20160205\GUI\MemDev\GUIDEV_GetDataPtr.c 0x00000000   Number         0  guidev_getdataptr.o ABSOLUTE
    ..\..\..\Utilities\Third_Party\STemWin532_20160205\GUI\MemDev\GUIDEV_GetPos.c 0x00000000   Number         0  guidev_getpos.o ABSOLUTE
    ..\..\..\Utilities\Third_Party\STemWin532_20160205\GUI\MemDev\GUIDEV_GetXSize.c 0x00000000   Number         0  guidev_getxsize.o ABSOLUTE
    ..\..\..\Utilities\Third_Party\STemWin532_20160205\GUI\MemDev\GUIDEV_GetYSize.c 0x00000000   Number         0  guidev_getysize.o ABSOLUTE
    ..\..\..\Utilities\Third_Party\STemWin532_20160205\GUI\MemDev\GUIDEV_ReduceYSize.c 0x00000000   Number         0  guidev_reduceysize.o ABSOLUTE
    ..\..\..\Utilities\Third_Party\STemWin532_20160205\GUI\MemDev\GUIDEV_SetOrg.c 0x00000000   Number         0  guidev_setorg.o ABSOLUTE
    ..\..\..\Utilities\Third_Party\STemWin532_20160205\GUI\MemDev\GUIDEV_StaticDevices.c 0x00000000   Number         0  guidev_staticdevices.o ABSOLUTE
    ..\..\..\Utilities\Third_Party\STemWin532_20160205\GUI\MemDev\GUIDEV_Usage.c 0x00000000   Number         0  guidev_usage.o ABSOLUTE
    ..\..\..\Utilities\Third_Party\STemWin532_20160205\GUI\MemDev\GUIDEV_UsageBM.c 0x00000000   Number         0  guidev_usagebm.o ABSOLUTE
    ..\..\..\Utilities\Third_Party\STemWin532_20160205\GUI\MemDev\GUIDEV_Write.c 0x00000000   Number         0  guidev_write.o ABSOLUTE
    ..\..\..\Utilities\Third_Party\STemWin532_20160205\GUI\MemDev\GUIDEV_WriteToActiveAlpha.c 0x00000000   Number         0  guidev_writetoactivealpha.o ABSOLUTE
    ..\..\..\Utilities\Third_Party\STemWin532_20160205\GUI\MemDev\GUIDEV_WriteToActiveOpaque.c 0x00000000   Number         0  guidev_writetoactiveopaque.o ABSOLUTE
    ..\..\..\Utilities\Third_Party\STemWin532_20160205\GUI\WM\WM.c 0x00000000   Number         0  wm.o ABSOLUTE
    ..\..\..\Utilities\Third_Party\STemWin532_20160205\GUI\WM\WM_BringToBottom.c 0x00000000   Number         0  wm_bringtobottom.o ABSOLUTE
    ..\..\..\Utilities\Third_Party\STemWin532_20160205\GUI\WM\WM_BringToTop.c 0x00000000   Number         0  wm_bringtotop.o ABSOLUTE
    ..\..\..\Utilities\Third_Party\STemWin532_20160205\GUI\WM\WM_CriticalHandle.c 0x00000000   Number         0  wm_criticalhandle.o ABSOLUTE
    ..\..\..\Utilities\Third_Party\STemWin532_20160205\GUI\WM\WM_ForEachDesc.c 0x00000000   Number         0  wm_foreachdesc.o ABSOLUTE
    ..\..\..\Utilities\Third_Party\STemWin532_20160205\GUI\WM\WM_GetBkColor.c 0x00000000   Number         0  wm_getbkcolor.o ABSOLUTE
    ..\..\..\Utilities\Third_Party\STemWin532_20160205\GUI\WM\WM_GetClientRect.c 0x00000000   Number         0  wm_getclientrect.o ABSOLUTE
    ..\..\..\Utilities\Third_Party\STemWin532_20160205\GUI\WM\WM_GetClientWindow.c 0x00000000   Number         0  wm_getclientwindow.o ABSOLUTE
    ..\..\..\Utilities\Third_Party\STemWin532_20160205\GUI\WM\WM_GetDesktopWindow.c 0x00000000   Number         0  wm_getdesktopwindow.o ABSOLUTE
    ..\..\..\Utilities\Third_Party\STemWin532_20160205\GUI\WM\WM_GetDesktopWindowEx.c 0x00000000   Number         0  wm_getdesktopwindowex.o ABSOLUTE
    ..\..\..\Utilities\Third_Party\STemWin532_20160205\GUI\WM\WM_GetDialogItem.c 0x00000000   Number         0  wm_getdialogitem.o ABSOLUTE
    ..\..\..\Utilities\Third_Party\STemWin532_20160205\GUI\WM\WM_GetFirstChild.c 0x00000000   Number         0  wm_getfirstchild.o ABSOLUTE
    ..\..\..\Utilities\Third_Party\STemWin532_20160205\GUI\WM\WM_GetFocussedWindow.c 0x00000000   Number         0  wm_getfocussedwindow.o ABSOLUTE
    ..\..\..\Utilities\Third_Party\STemWin532_20160205\GUI\WM\WM_GetId.c 0x00000000   Number         0  wm_getid.o ABSOLUTE
    ..\..\..\Utilities\Third_Party\STemWin532_20160205\GUI\WM\WM_GetOrg.c 0x00000000   Number         0  wm_getorg.o ABSOLUTE
    ..\..\..\Utilities\Third_Party\STemWin532_20160205\GUI\WM\WM_GetParent.c 0x00000000   Number         0  wm_getparent.o ABSOLUTE
    ..\..\..\Utilities\Third_Party\STemWin532_20160205\GUI\WM\WM_GetWindowRect.c 0x00000000   Number         0  wm_getwindowrect.o ABSOLUTE
    ..\..\..\Utilities\Third_Party\STemWin532_20160205\GUI\WM\WM_GetWindowSize.c 0x00000000   Number         0  wm_getwindowsize.o ABSOLUTE
    ..\..\..\Utilities\Third_Party\STemWin532_20160205\GUI\WM\WM_HasFocus.c 0x00000000   Number         0  wm_hasfocus.o ABSOLUTE
    ..\..\..\Utilities\Third_Party\STemWin532_20160205\GUI\WM\WM_IsFocussable.c 0x00000000   Number         0  wm_isfocussable.o ABSOLUTE
    ..\..\..\Utilities\Third_Party\STemWin532_20160205\GUI\WM\WM_IsWindow.c 0x00000000   Number         0  wm_iswindow.o ABSOLUTE
    ..\..\..\Utilities\Third_Party\STemWin532_20160205\GUI\WM\WM_Move.c 0x00000000   Number         0  wm_move.o ABSOLUTE
    ..\..\..\Utilities\Third_Party\STemWin532_20160205\GUI\WM\WM_NotifyParent.c 0x00000000   Number         0  wm_notifyparent.o ABSOLUTE
    ..\..\..\Utilities\Third_Party\STemWin532_20160205\GUI\WM\WM_OnKey.c 0x00000000   Number         0  wm_onkey.o ABSOLUTE
    ..\..\..\Utilities\Third_Party\STemWin532_20160205\GUI\WM\WM_PID__GetPrevState.c 0x00000000   Number         0  wm_pid__getprevstate.o ABSOLUTE
    ..\..\..\Utilities\Third_Party\STemWin532_20160205\GUI\WM\WM_ResizeWindow.c 0x00000000   Number         0  wm_resizewindow.o ABSOLUTE
    ..\..\..\Utilities\Third_Party\STemWin532_20160205\GUI\WM\WM_Screen2Win.c 0x00000000   Number         0  wm_screen2win.o ABSOLUTE
    ..\..\..\Utilities\Third_Party\STemWin532_20160205\GUI\WM\WM_SendMessageNoPara.c 0x00000000   Number         0  wm_sendmessagenopara.o ABSOLUTE
    ..\..\..\Utilities\Third_Party\STemWin532_20160205\GUI\WM\WM_SendToParent.c 0x00000000   Number         0  wm_sendtoparent.o ABSOLUTE
    ..\..\..\Utilities\Third_Party\STemWin532_20160205\GUI\WM\WM_SetCapture.c 0x00000000   Number         0  wm_setcapture.o ABSOLUTE
    ..\..\..\Utilities\Third_Party\STemWin532_20160205\GUI\WM\WM_SetCreateFlags.c 0x00000000   Number         0  wm_setcreateflags.o ABSOLUTE
    ..\..\..\Utilities\Third_Party\STemWin532_20160205\GUI\WM\WM_SetFocus.c 0x00000000   Number         0  wm_setfocus.o ABSOLUTE
    ..\..\..\Utilities\Third_Party\STemWin532_20160205\GUI\WM\WM_SetFocusOnNextChild.c 0x00000000   Number         0  wm_setfocusonnextchild.o ABSOLUTE
    ..\..\..\Utilities\Third_Party\STemWin532_20160205\GUI\WM\WM_SetFocusOnPrevChild.c 0x00000000   Number         0  wm_setfocusonprevchild.o ABSOLUTE
    ..\..\..\Utilities\Third_Party\STemWin532_20160205\GUI\WM\WM_SetScrollState.c 0x00000000   Number         0  wm_setscrollstate.o ABSOLUTE
    ..\..\..\Utilities\Third_Party\STemWin532_20160205\GUI\WM\WM_SetSize.c 0x00000000   Number         0  wm_setsize.o ABSOLUTE
    ..\..\..\Utilities\Third_Party\STemWin532_20160205\GUI\WM\WM_SetTrans.c 0x00000000   Number         0  wm_settrans.o ABSOLUTE
    ..\..\..\Utilities\Third_Party\STemWin532_20160205\GUI\WM\WM_SetUserClipRect.c 0x00000000   Number         0  wm_setusercliprect.o ABSOLUTE
    ..\..\..\Utilities\Third_Party\STemWin532_20160205\GUI\WM\WM_Show.c 0x00000000   Number         0  wm_show.o ABSOLUTE
    ..\..\..\Utilities\Third_Party\STemWin532_20160205\GUI\WM\WM_Timer.c 0x00000000   Number         0  wm_timer.o ABSOLUTE
    ..\..\..\Utilities\Third_Party\STemWin532_20160205\GUI\WM\WM_Touch.c 0x00000000   Number         0  wm_touch.o ABSOLUTE
    ..\..\..\Utilities\Third_Party\STemWin532_20160205\GUI\WM\WM_UserData.c 0x00000000   Number         0  wm_userdata.o ABSOLUTE
    ..\..\..\Utilities\Third_Party\STemWin532_20160205\GUI\WM\WM_ValidateWindow.c 0x00000000   Number         0  wm_validatewindow.o ABSOLUTE
    ..\..\..\Utilities\Third_Party\STemWin532_20160205\GUI\WM\WM__ForEachDesc.c 0x00000000   Number         0  wm__foreachdesc.o ABSOLUTE
    ..\..\..\Utilities\Third_Party\STemWin532_20160205\GUI\WM\WM__GetFirstSibling.c 0x00000000   Number         0  wm__getfirstsibling.o ABSOLUTE
    ..\..\..\Utilities\Third_Party\STemWin532_20160205\GUI\WM\WM__GetFocussedChild.c 0x00000000   Number         0  wm__getfocussedchild.o ABSOLUTE
    ..\..\..\Utilities\Third_Party\STemWin532_20160205\GUI\WM\WM__GetLastSibling.c 0x00000000   Number         0  wm__getlastsibling.o ABSOLUTE
    ..\..\..\Utilities\Third_Party\STemWin532_20160205\GUI\WM\WM__GetPrevSibling.c 0x00000000   Number         0  wm__getprevsibling.o ABSOLUTE
    ..\..\..\Utilities\Third_Party\STemWin532_20160205\GUI\WM\WM__IsAncestor.c 0x00000000   Number         0  wm__isancestor.o ABSOLUTE
    ..\..\..\Utilities\Third_Party\STemWin532_20160205\GUI\WM\WM__IsChild.c 0x00000000   Number         0  wm__ischild.o ABSOLUTE
    ..\..\..\Utilities\Third_Party\STemWin532_20160205\GUI\WM\WM__IsEnabled.c 0x00000000   Number         0  wm__isenabled.o ABSOLUTE
    ..\..\..\Utilities\Third_Party\STemWin532_20160205\GUI\WM\WM__Screen2Client.c 0x00000000   Number         0  wm__screen2client.o ABSOLUTE
    ..\..\..\Utilities\Third_Party\STemWin532_20160205\GUI\WM\WM__SendMessage.c 0x00000000   Number         0  wm__sendmessage.o ABSOLUTE
    ..\..\..\Utilities\Third_Party\STemWin532_20160205\GUI\WM\WM__SendMessageIfEnabled.c 0x00000000   Number         0  wm__sendmessageifenabled.o ABSOLUTE
    ..\..\..\Utilities\Third_Party\STemWin532_20160205\GUI\WM\WM__SendMessageNoPara.c 0x00000000   Number         0  wm__sendmessagenopara.o ABSOLUTE
    ..\..\..\Utilities\Third_Party\STemWin532_20160205\GUI\WM\WM__UpdateChildPositions.c 0x00000000   Number         0  wm__updatechildpositions.o ABSOLUTE
    ..\..\..\Utilities\Third_Party\STemWin532_20160205\GUI\Widget\BUTTON.c 0x00000000   Number         0  button.o ABSOLUTE
    ..\..\..\Utilities\Third_Party\STemWin532_20160205\GUI\Widget\BUTTON_CreateIndirect.c 0x00000000   Number         0  button_createindirect.o ABSOLUTE
    ..\..\..\Utilities\Third_Party\STemWin532_20160205\GUI\Widget\BUTTON_Skin.c 0x00000000   Number         0  button_skin.o ABSOLUTE
    ..\..\..\Utilities\Third_Party\STemWin532_20160205\GUI\Widget\BUTTON_SkinFlex.c 0x00000000   Number         0  button_skinflex.o ABSOLUTE
    ..\..\..\Utilities\Third_Party\STemWin532_20160205\GUI\Widget\CHECKBOX_SetFont.c 0x00000000   Number         0  checkbox_setfont.o ABSOLUTE
    ..\..\..\Utilities\Third_Party\STemWin532_20160205\GUI\Widget\CHECKBOX_SetText.c 0x00000000   Number         0  checkbox_settext.o ABSOLUTE
    ..\..\..\Utilities\Third_Party\STemWin532_20160205\GUI\Widget\DIALOG.c 0x00000000   Number         0  dialog.o ABSOLUTE
    ..\..\..\Utilities\Third_Party\STemWin532_20160205\GUI\Widget\GUI_DRAW.c 0x00000000   Number         0  gui_draw.o ABSOLUTE
    ..\..\..\Utilities\Third_Party\STemWin532_20160205\GUI\Widget\PROGBAR.c 0x00000000   Number         0  progbar.o ABSOLUTE
    ..\..\..\Utilities\Third_Party\STemWin532_20160205\GUI\Widget\PROGBAR_CreateIndirect.c 0x00000000   Number         0  progbar_createindirect.o ABSOLUTE
    ..\..\..\Utilities\Third_Party\STemWin532_20160205\GUI\Widget\PROGBAR_Skin.c 0x00000000   Number         0  progbar_skin.o ABSOLUTE
    ..\..\..\Utilities\Third_Party\STemWin532_20160205\GUI\Widget\PROGBAR_SkinFlex.c 0x00000000   Number         0  progbar_skinflex.o ABSOLUTE
    ..\..\..\Utilities\Third_Party\STemWin532_20160205\GUI\Widget\SLIDER.c 0x00000000   Number         0  slider.o ABSOLUTE
    ..\..\..\Utilities\Third_Party\STemWin532_20160205\GUI\Widget\SLIDER_CreateIndirect.c 0x00000000   Number         0  slider_createindirect.o ABSOLUTE
    ..\..\..\Utilities\Third_Party\STemWin532_20160205\GUI\Widget\SLIDER_Skin.c 0x00000000   Number         0  slider_skin.o ABSOLUTE
    ..\..\..\Utilities\Third_Party\STemWin532_20160205\GUI\Widget\SLIDER_SkinFlex.c 0x00000000   Number         0  slider_skinflex.o ABSOLUTE
    ..\..\..\Utilities\Third_Party\STemWin532_20160205\GUI\Widget\WIDGET.c 0x00000000   Number         0  widget.o ABSOLUTE
    ..\..\..\Utilities\Third_Party\STemWin532_20160205\GUI\Widget\WIDGET_Effect_None.c 0x00000000   Number         0  widget_effect_none.o ABSOLUTE
    ..\..\..\Utilities\Third_Party\STemWin532_20160205\GUI\Widget\WIDGET_Effect_Simple.c 0x00000000   Number         0  widget_effect_simple.o ABSOLUTE
    ..\..\..\Utilities\Third_Party\STemWin532_20160205\GUI\Widget\WIDGET_SetEffect.c 0x00000000   Number         0  widget_seteffect.o ABSOLUTE
    ..\..\..\Utilities\Third_Party\STemWin532_20160205\GUI\Widget\WINDOW.c 0x00000000   Number         0  window.o ABSOLUTE
    ..\FreeRTOS\croutine.c                   0x00000000   Number         0  croutine.o ABSOLUTE
    ..\FreeRTOS\event_groups.c               0x00000000   Number         0  event_groups.o ABSOLUTE
    ..\FreeRTOS\list.c                       0x00000000   Number         0  list.o ABSOLUTE
    ..\FreeRTOS\portable\MemMang\heap_4.c    0x00000000   Number         0  heap_4.o ABSOLUTE
    ..\FreeRTOS\portable\RVDS\ARM_CM4F\port.c 0x00000000   Number         0  port.o ABSOLUTE
    ..\FreeRTOS\queue.c                      0x00000000   Number         0  queue.o ABSOLUTE
    ..\FreeRTOS\tasks.c                      0x00000000   Number         0  tasks.o ABSOLUTE
    ..\FreeRTOS\timers.c                     0x00000000   Number         0  timers.o ABSOLUTE
    ..\\FreeRTOS\\portable\\RVDS\\ARM_CM4F\\port.c 0x00000000   Number         0  port.o ABSOLUTE
    ..\\emwin\\Config\\GUIDRV_Template.c     0x00000000   Number         0  guidrv_template.o ABSOLUTE
    ..\\emwin\\Font\\GUICharPEx.c            0x00000000   Number         0  guicharpex.o ABSOLUTE
    ..\\fwlib\\src\\misc.c                   0x00000000   Number         0  misc.o ABSOLUTE
    ..\\fwlib\\src\\stm32f4xx_adc.c          0x00000000   Number         0  stm32f4xx_adc.o ABSOLUTE
    ..\\fwlib\\src\\stm32f4xx_can.c          0x00000000   Number         0  stm32f4xx_can.o ABSOLUTE
    ..\\fwlib\\src\\stm32f4xx_cec.c          0x00000000   Number         0  stm32f4xx_cec.o ABSOLUTE
    ..\\fwlib\\src\\stm32f4xx_crc.c          0x00000000   Number         0  stm32f4xx_crc.o ABSOLUTE
    ..\\fwlib\\src\\stm32f4xx_cryp.c         0x00000000   Number         0  stm32f4xx_cryp.o ABSOLUTE
    ..\\fwlib\\src\\stm32f4xx_cryp_aes.c     0x00000000   Number         0  stm32f4xx_cryp_aes.o ABSOLUTE
    ..\\fwlib\\src\\stm32f4xx_cryp_des.c     0x00000000   Number         0  stm32f4xx_cryp_des.o ABSOLUTE
    ..\\fwlib\\src\\stm32f4xx_cryp_tdes.c    0x00000000   Number         0  stm32f4xx_cryp_tdes.o ABSOLUTE
    ..\\fwlib\\src\\stm32f4xx_dac.c          0x00000000   Number         0  stm32f4xx_dac.o ABSOLUTE
    ..\\fwlib\\src\\stm32f4xx_dbgmcu.c       0x00000000   Number         0  stm32f4xx_dbgmcu.o ABSOLUTE
    ..\\fwlib\\src\\stm32f4xx_dcmi.c         0x00000000   Number         0  stm32f4xx_dcmi.o ABSOLUTE
    ..\\fwlib\\src\\stm32f4xx_dfsdm.c        0x00000000   Number         0  stm32f4xx_dfsdm.o ABSOLUTE
    ..\\fwlib\\src\\stm32f4xx_dma.c          0x00000000   Number         0  stm32f4xx_dma.o ABSOLUTE
    ..\\fwlib\\src\\stm32f4xx_dma2d.c        0x00000000   Number         0  stm32f4xx_dma2d.o ABSOLUTE
    ..\\fwlib\\src\\stm32f4xx_dsi.c          0x00000000   Number         0  stm32f4xx_dsi.o ABSOLUTE
    ..\\fwlib\\src\\stm32f4xx_exti.c         0x00000000   Number         0  stm32f4xx_exti.o ABSOLUTE
    ..\\fwlib\\src\\stm32f4xx_flash.c        0x00000000   Number         0  stm32f4xx_flash.o ABSOLUTE
    ..\\fwlib\\src\\stm32f4xx_flash_ramfunc.c 0x00000000   Number         0  stm32f4xx_flash_ramfunc.o ABSOLUTE
    ..\\fwlib\\src\\stm32f4xx_fmpi2c.c       0x00000000   Number         0  stm32f4xx_fmpi2c.o ABSOLUTE
    ..\\fwlib\\src\\stm32f4xx_fsmc.c         0x00000000   Number         0  stm32f4xx_fsmc.o ABSOLUTE
    ..\\fwlib\\src\\stm32f4xx_gpio.c         0x00000000   Number         0  stm32f4xx_gpio.o ABSOLUTE
    ..\\fwlib\\src\\stm32f4xx_hash.c         0x00000000   Number         0  stm32f4xx_hash.o ABSOLUTE
    ..\\fwlib\\src\\stm32f4xx_hash_md5.c     0x00000000   Number         0  stm32f4xx_hash_md5.o ABSOLUTE
    ..\\fwlib\\src\\stm32f4xx_hash_sha1.c    0x00000000   Number         0  stm32f4xx_hash_sha1.o ABSOLUTE
    ..\\fwlib\\src\\stm32f4xx_i2c.c          0x00000000   Number         0  stm32f4xx_i2c.o ABSOLUTE
    ..\\fwlib\\src\\stm32f4xx_iwdg.c         0x00000000   Number         0  stm32f4xx_iwdg.o ABSOLUTE
    ..\\fwlib\\src\\stm32f4xx_lptim.c        0x00000000   Number         0  stm32f4xx_lptim.o ABSOLUTE
    ..\\fwlib\\src\\stm32f4xx_ltdc.c         0x00000000   Number         0  stm32f4xx_ltdc.o ABSOLUTE
    ..\\fwlib\\src\\stm32f4xx_pwr.c          0x00000000   Number         0  stm32f4xx_pwr.o ABSOLUTE
    ..\\fwlib\\src\\stm32f4xx_qspi.c         0x00000000   Number         0  stm32f4xx_qspi.o ABSOLUTE
    ..\\fwlib\\src\\stm32f4xx_rcc.c          0x00000000   Number         0  stm32f4xx_rcc.o ABSOLUTE
    ..\\fwlib\\src\\stm32f4xx_rng.c          0x00000000   Number         0  stm32f4xx_rng.o ABSOLUTE
    ..\\fwlib\\src\\stm32f4xx_rtc.c          0x00000000   Number         0  stm32f4xx_rtc.o ABSOLUTE
    ..\\fwlib\\src\\stm32f4xx_sai.c          0x00000000   Number         0  stm32f4xx_sai.o ABSOLUTE
    ..\\fwlib\\src\\stm32f4xx_sdio.c         0x00000000   Number         0  stm32f4xx_sdio.o ABSOLUTE
    ..\\fwlib\\src\\stm32f4xx_spdifrx.c      0x00000000   Number         0  stm32f4xx_spdifrx.o ABSOLUTE
    ..\\fwlib\\src\\stm32f4xx_spi.c          0x00000000   Number         0  stm32f4xx_spi.o ABSOLUTE
    ..\\fwlib\\src\\stm32f4xx_syscfg.c       0x00000000   Number         0  stm32f4xx_syscfg.o ABSOLUTE
    ..\\fwlib\\src\\stm32f4xx_tim.c          0x00000000   Number         0  stm32f4xx_tim.o ABSOLUTE
    ..\\fwlib\\src\\stm32f4xx_usart.c        0x00000000   Number         0  stm32f4xx_usart.o ABSOLUTE
    ..\\fwlib\\src\\stm32f4xx_wwdg.c         0x00000000   Number         0  stm32f4xx_wwdg.o ABSOLUTE
    ..\\user\\LCD\\ILI93xx.c                 0x00000000   Number         0  ili93xx.o ABSOLUTE
    ..\\user\\easylogger\\port\\elog_port.c  0x00000000   Number         0  elog_port.o ABSOLUTE
    ..\\user\\src\\bsp.c                     0x00000000   Number         0  bsp.o ABSOLUTE
    ..\\user\\src\\crc16.c                   0x00000000   Number         0  crc16.o ABSOLUTE
    ..\\user\\src\\delay.c                   0x00000000   Number         0  delay.o ABSOLUTE
    ..\\user\\src\\easyfifo.c                0x00000000   Number         0  easyfifo.o ABSOLUTE
    ..\\user\\src\\emwindemo.c               0x00000000   Number         0  emwindemo.o ABSOLUTE
    ..\\user\\src\\key.c                     0x00000000   Number         0  key.o ABSOLUTE
    ..\\user\\src\\led.c                     0x00000000   Number         0  led.o ABSOLUTE
    ..\\user\\src\\main.c                    0x00000000   Number         0  main.o ABSOLUTE
    ..\\user\\src\\param.c                   0x00000000   Number         0  param.o ABSOLUTE
    ..\\user\\src\\pwm_beep.c                0x00000000   Number         0  pwm_beep.o ABSOLUTE
    ..\\user\\src\\softtimer.c               0x00000000   Number         0  softtimer.o ABSOLUTE
    ..\\user\\src\\spi.c                     0x00000000   Number         0  spi.o ABSOLUTE
    ..\\user\\src\\spi_flash.c               0x00000000   Number         0  spi_flash.o ABSOLUTE
    ..\\user\\src\\uart.c                    0x00000000   Number         0  uart.o ABSOLUTE
    ..\\user\\stm32f4xx_it.c                 0x00000000   Number         0  stm32f4xx_it.o ABSOLUTE
    ..\\user\\system_stm32f4xx.c             0x00000000   Number         0  system_stm32f4xx.o ABSOLUTE
    ..\core\startup\startup_stm32f40xx.s     0x00000000   Number         0  startup_stm32f40xx.o ABSOLUTE
    ..\emwin\Config\GUIConf.c                0x00000000   Number         0  guiconf.o ABSOLUTE
    ..\emwin\Config\GUIDRV_Template.c        0x00000000   Number         0  guidrv_template.o ABSOLUTE
    ..\emwin\Config\LCDConf_FlexColor_Template.c 0x00000000   Number         0  lcdconf_flexcolor_template.o ABSOLUTE
    ..\emwin\Font\GUICharPEx.c               0x00000000   Number         0  guicharpex.o ABSOLUTE
    ..\emwin\Font\GUI_FontHZ12.c             0x00000000   Number         0  gui_fonthz12.o ABSOLUTE
    ..\emwin\Font\GUI_FontHZ16.c             0x00000000   Number         0  gui_fonthz16.o ABSOLUTE
    ..\emwin\Font\GUI_FontHZ24.c             0x00000000   Number         0  gui_fonthz24.o ABSOLUTE
    ..\emwin\Font\GUI_FontHZ32.c             0x00000000   Number         0  gui_fonthz32.o ABSOLUTE
    ..\emwin\Font\GUI_UC_EncodeNone.c        0x00000000   Number         0  gui_uc_encodenone.o ABSOLUTE
    ..\emwin\OS\GUI_X_OS.c                   0x00000000   Number         0  gui_x_os.o ABSOLUTE
    ..\fwlib\src\misc.c                      0x00000000   Number         0  misc.o ABSOLUTE
    ..\fwlib\src\stm32f4xx_adc.c             0x00000000   Number         0  stm32f4xx_adc.o ABSOLUTE
    ..\fwlib\src\stm32f4xx_can.c             0x00000000   Number         0  stm32f4xx_can.o ABSOLUTE
    ..\fwlib\src\stm32f4xx_cec.c             0x00000000   Number         0  stm32f4xx_cec.o ABSOLUTE
    ..\fwlib\src\stm32f4xx_crc.c             0x00000000   Number         0  stm32f4xx_crc.o ABSOLUTE
    ..\fwlib\src\stm32f4xx_cryp.c            0x00000000   Number         0  stm32f4xx_cryp.o ABSOLUTE
    ..\fwlib\src\stm32f4xx_cryp_aes.c        0x00000000   Number         0  stm32f4xx_cryp_aes.o ABSOLUTE
    ..\fwlib\src\stm32f4xx_cryp_des.c        0x00000000   Number         0  stm32f4xx_cryp_des.o ABSOLUTE
    ..\fwlib\src\stm32f4xx_cryp_tdes.c       0x00000000   Number         0  stm32f4xx_cryp_tdes.o ABSOLUTE
    ..\fwlib\src\stm32f4xx_dac.c             0x00000000   Number         0  stm32f4xx_dac.o ABSOLUTE
    ..\fwlib\src\stm32f4xx_dbgmcu.c          0x00000000   Number         0  stm32f4xx_dbgmcu.o ABSOLUTE
    ..\fwlib\src\stm32f4xx_dcmi.c            0x00000000   Number         0  stm32f4xx_dcmi.o ABSOLUTE
    ..\fwlib\src\stm32f4xx_dfsdm.c           0x00000000   Number         0  stm32f4xx_dfsdm.o ABSOLUTE
    ..\fwlib\src\stm32f4xx_dma.c             0x00000000   Number         0  stm32f4xx_dma.o ABSOLUTE
    ..\fwlib\src\stm32f4xx_dma2d.c           0x00000000   Number         0  stm32f4xx_dma2d.o ABSOLUTE
    ..\fwlib\src\stm32f4xx_dsi.c             0x00000000   Number         0  stm32f4xx_dsi.o ABSOLUTE
    ..\fwlib\src\stm32f4xx_exti.c            0x00000000   Number         0  stm32f4xx_exti.o ABSOLUTE
    ..\fwlib\src\stm32f4xx_flash.c           0x00000000   Number         0  stm32f4xx_flash.o ABSOLUTE
    ..\fwlib\src\stm32f4xx_flash_ramfunc.c   0x00000000   Number         0  stm32f4xx_flash_ramfunc.o ABSOLUTE
    ..\fwlib\src\stm32f4xx_fmpi2c.c          0x00000000   Number         0  stm32f4xx_fmpi2c.o ABSOLUTE
    ..\fwlib\src\stm32f4xx_fsmc.c            0x00000000   Number         0  stm32f4xx_fsmc.o ABSOLUTE
    ..\fwlib\src\stm32f4xx_gpio.c            0x00000000   Number         0  stm32f4xx_gpio.o ABSOLUTE
    ..\fwlib\src\stm32f4xx_hash.c            0x00000000   Number         0  stm32f4xx_hash.o ABSOLUTE
    ..\fwlib\src\stm32f4xx_hash_md5.c        0x00000000   Number         0  stm32f4xx_hash_md5.o ABSOLUTE
    ..\fwlib\src\stm32f4xx_hash_sha1.c       0x00000000   Number         0  stm32f4xx_hash_sha1.o ABSOLUTE
    ..\fwlib\src\stm32f4xx_i2c.c             0x00000000   Number         0  stm32f4xx_i2c.o ABSOLUTE
    ..\fwlib\src\stm32f4xx_iwdg.c            0x00000000   Number         0  stm32f4xx_iwdg.o ABSOLUTE
    ..\fwlib\src\stm32f4xx_lptim.c           0x00000000   Number         0  stm32f4xx_lptim.o ABSOLUTE
    ..\fwlib\src\stm32f4xx_ltdc.c            0x00000000   Number         0  stm32f4xx_ltdc.o ABSOLUTE
    ..\fwlib\src\stm32f4xx_pwr.c             0x00000000   Number         0  stm32f4xx_pwr.o ABSOLUTE
    ..\fwlib\src\stm32f4xx_qspi.c            0x00000000   Number         0  stm32f4xx_qspi.o ABSOLUTE
    ..\fwlib\src\stm32f4xx_rcc.c             0x00000000   Number         0  stm32f4xx_rcc.o ABSOLUTE
    ..\fwlib\src\stm32f4xx_rng.c             0x00000000   Number         0  stm32f4xx_rng.o ABSOLUTE
    ..\fwlib\src\stm32f4xx_rtc.c             0x00000000   Number         0  stm32f4xx_rtc.o ABSOLUTE
    ..\fwlib\src\stm32f4xx_sai.c             0x00000000   Number         0  stm32f4xx_sai.o ABSOLUTE
    ..\fwlib\src\stm32f4xx_sdio.c            0x00000000   Number         0  stm32f4xx_sdio.o ABSOLUTE
    ..\fwlib\src\stm32f4xx_spdifrx.c         0x00000000   Number         0  stm32f4xx_spdifrx.o ABSOLUTE
    ..\fwlib\src\stm32f4xx_spi.c             0x00000000   Number         0  stm32f4xx_spi.o ABSOLUTE
    ..\fwlib\src\stm32f4xx_syscfg.c          0x00000000   Number         0  stm32f4xx_syscfg.o ABSOLUTE
    ..\fwlib\src\stm32f4xx_tim.c             0x00000000   Number         0  stm32f4xx_tim.o ABSOLUTE
    ..\fwlib\src\stm32f4xx_usart.c           0x00000000   Number         0  stm32f4xx_usart.o ABSOLUTE
    ..\fwlib\src\stm32f4xx_wwdg.c            0x00000000   Number         0  stm32f4xx_wwdg.o ABSOLUTE
    ..\user\LCD\ILI93xx.c                    0x00000000   Number         0  ili93xx.o ABSOLUTE
    ..\user\easylogger\port\elog_port.c      0x00000000   Number         0  elog_port.o ABSOLUTE
    ..\user\easylogger\src\elog.c            0x00000000   Number         0  elog.o ABSOLUTE
    ..\user\easylogger\src\elog_utils.c      0x00000000   Number         0  elog_utils.o ABSOLUTE
    ..\user\src\bsp.c                        0x00000000   Number         0  bsp.o ABSOLUTE
    ..\user\src\crc16.c                      0x00000000   Number         0  crc16.o ABSOLUTE
    ..\user\src\delay.c                      0x00000000   Number         0  delay.o ABSOLUTE
    ..\user\src\easyfifo.c                   0x00000000   Number         0  easyfifo.o ABSOLUTE
    ..\user\src\emwindemo.c                  0x00000000   Number         0  emwindemo.o ABSOLUTE
    ..\user\src\key.c                        0x00000000   Number         0  key.o ABSOLUTE
    ..\user\src\led.c                        0x00000000   Number         0  led.o ABSOLUTE
    ..\user\src\main.c                       0x00000000   Number         0  main.o ABSOLUTE
    ..\user\src\param.c                      0x00000000   Number         0  param.o ABSOLUTE
    ..\user\src\pwm_beep.c                   0x00000000   Number         0  pwm_beep.o ABSOLUTE
    ..\user\src\softtimer.c                  0x00000000   Number         0  softtimer.o ABSOLUTE
    ..\user\src\spi.c                        0x00000000   Number         0  spi.o ABSOLUTE
    ..\user\src\spi_flash.c                  0x00000000   Number         0  spi_flash.o ABSOLUTE
    ..\user\src\uart.c                       0x00000000   Number         0  uart.o ABSOLUTE
    ..\user\src\utils.c                      0x00000000   Number         0  utils.o ABSOLUTE
    ..\user\stm32f4xx_it.c                   0x00000000   Number         0  stm32f4xx_it.o ABSOLUTE
    ..\user\system_stm32f4xx.c               0x00000000   Number         0  system_stm32f4xx.o ABSOLUTE
    cdrcmple.s                               0x00000000   Number         0  cdrcmple.o ABSOLUTE
    dc.s                                     0x00000000   Number         0  dc.o ABSOLUTE
    handlers.s                               0x00000000   Number         0  handlers.o ABSOLUTE
    init.s                                   0x00000000   Number         0  init.o ABSOLUTE
    RESET                                    0x08000000   Section      392  startup_stm32f40xx.o(RESET)
    .ARM.Collect$$$$00000000                 0x08000188   Section        0  entry.o(.ARM.Collect$$$$00000000)
    .ARM.Collect$$$$00000001                 0x08000188   Section        4  entry2.o(.ARM.Collect$$$$00000001)
    .ARM.Collect$$$$00000004                 0x0800018c   Section        4  entry5.o(.ARM.Collect$$$$00000004)
    .ARM.Collect$$$$00000008                 0x08000190   Section        0  entry7b.o(.ARM.Collect$$$$00000008)
    .ARM.Collect$$$$0000000A                 0x08000190   Section        0  entry8b.o(.ARM.Collect$$$$0000000A)
    .ARM.Collect$$$$0000000B                 0x08000190   Section        8  entry9a.o(.ARM.Collect$$$$0000000B)
    .ARM.Collect$$$$0000000D                 0x08000198   Section        0  entry10a.o(.ARM.Collect$$$$0000000D)
    .ARM.Collect$$$$0000000F                 0x08000198   Section        0  entry11a.o(.ARM.Collect$$$$0000000F)
    .ARM.Collect$$$$00002712                 0x08000198   Section        4  entry2.o(.ARM.Collect$$$$00002712)
    __lit__00000000                          0x08000198   Data           4  entry2.o(.ARM.Collect$$$$00002712)
    .emb_text                                0x0800019c   Section      182  port.o(.emb_text)
    $v0                                      0x0800019c   Number         0  port.o(.emb_text)
    .text                                    0x08000254   Section        0  main.o(.text)
    .text                                    0x080003d4   Section        0  stm32f4xx_it.o(.text)
    .text                                    0x080003e8   Section        0  system_stm32f4xx.o(.text)
    SetSysClock                              0x080003e9   Thumb Code   218  system_stm32f4xx.o(.text)
    .text                                    0x080005f4   Section        0  delay.o(.text)
    .text                                    0x080006f0   Section        0  emwindemo.o(.text)
    _cbDialog2                               0x08000711   Thumb Code   198  emwindemo.o(.text)
    _cbDialog3                               0x080007f7   Thumb Code   196  emwindemo.o(.text)
    _cbDialog1                               0x080008db   Thumb Code   250  emwindemo.o(.text)
    .text                                    0x08000a50   Section        0  key.o(.text)
    is_key_down_1                            0x08000a51   Thumb Code    18  key.o(.text)
    is_key_down_2                            0x08000a63   Thumb Code    18  key.o(.text)
    is_key_down_3                            0x08000a75   Thumb Code    18  key.o(.text)
    is_key_down_4                            0x08000a87   Thumb Code    18  key.o(.text)
    init_key_hard                            0x08000a99   Thumb Code    88  key.o(.text)
    init_key_var                             0x08000af1   Thumb Code    88  key.o(.text)
    key_detect                               0x08000c01   Thumb Code   198  key.o(.text)
    .text                                    0x08000cfc   Section        0  spi.o(.text)
    .text                                    0x08000eb0   Section        0  easyfifo.o(.text)
    .text                                    0x080010fc   Section        0  uart.o(.text)
    __set_PRIMASK                            0x080017d5   Thumb Code     6  uart.o(.text)
    .text                                    0x08001804   Section        0  bsp.o(.text)
    .text                                    0x080018a4   Section        0  softtimer.o(.text)
    .text                                    0x08001b64   Section        0  param.o(.text)
    __tolower                                0x08001b65   Thumb Code    18  param.o(.text)
    __toupper                                0x08001b77   Thumb Code    18  param.o(.text)
    .text                                    0x08001d28   Section        0  crc16.o(.text)
    .text                                    0x08001d60   Section        0  spi_flash.o(.text)
    sf_SetCS                                 0x08001d7f   Thumb Code     6  spi_flash.o(.text)
    sf_WaitForWriteEnd                       0x08001de3   Thumb Code    34  spi_flash.o(.text)
    sf_WriteEnable                           0x08001e05   Thumb Code    22  spi_flash.o(.text)
    sf_CmpData                               0x08001f43   Thumb Code   110  spi_flash.o(.text)
    sf_NeedErase                             0x08001fb1   Thumb Code    40  spi_flash.o(.text)
    sf_AutoWritePage                         0x08001fd9   Thumb Code   268  spi_flash.o(.text)
    .text                                    0x080022a8   Section        0  ili93xx.o(.text)
    .text                                    0x08006f4c   Section        0  led.o(.text)
    .text                                    0x08006fc8   Section        0  misc.o(.text)
    .text                                    0x080070ac   Section        0  stm32f4xx_dma.o(.text)
    .text                                    0x08007450   Section        0  stm32f4xx_gpio.o(.text)
    .text                                    0x080076e4   Section        0  stm32f4xx_rcc.o(.text)
    .text                                    0x08007d40   Section        0  stm32f4xx_spi.o(.text)
    .text                                    0x080081bc   Section        0  stm32f4xx_tim.o(.text)
    TI4_Config                               0x0800895b   Thumb Code    80  stm32f4xx_tim.o(.text)
    TI3_Config                               0x080089bd   Thumb Code    72  stm32f4xx_tim.o(.text)
    TI2_Config                               0x08008a1f   Thumb Code    90  stm32f4xx_tim.o(.text)
    TI1_Config                               0x08008a8b   Thumb Code    58  stm32f4xx_tim.o(.text)
    .text                                    0x08008e60   Section        0  stm32f4xx_usart.o(.text)
    .text                                    0x080092b4   Section        0  stm32f4xx_fsmc.o(.text)
    .text                                    0x08009978   Section       36  startup_stm32f40xx.o(.text)
    $v0                                      0x08009978   Number         0  startup_stm32f40xx.o(.text)
    .text                                    0x0800999c   Section        0  list.o(.text)
    .text                                    0x08009a30   Section        0  queue.o(.text)
    prvUnlockQueue                           0x08009b47   Thumb Code   126  queue.o(.text)
    prvIsQueueFull                           0x08009bc5   Thumb Code    30  queue.o(.text)
    prvCopyDataToQueue                       0x08009be3   Thumb Code   128  queue.o(.text)
    prvIsQueueEmpty                          0x0800a013   Thumb Code    26  queue.o(.text)
    prvCopyDataFromQueue                     0x0800a02d   Thumb Code    42  queue.o(.text)
    .text                                    0x0800a4a8   Section        0  tasks.o(.text)
    prvInitialiseTaskLists                   0x0800a4a9   Thumb Code    70  tasks.o(.text)
    prvInitialiseTCBVariables                0x0800a4ef   Thumb Code    98  tasks.o(.text)
    prvAllocateTCBAndStack                   0x0800a551   Thumb Code    66  tasks.o(.text)
    prvResetNextTaskUnblockTime              0x0800a6e7   Thumb Code    42  tasks.o(.text)
    prvAddCurrentTaskToDelayedList           0x0800aa19   Thumb Code    62  tasks.o(.text)
    prvTaskIsTaskSuspended                   0x0800ae95   Thumb Code    80  tasks.o(.text)
    prvDeleteTCB                             0x0800b007   Thumb Code    18  tasks.o(.text)
    prvCheckTasksWaitingTermination          0x0800b019   Thumb Code    86  tasks.o(.text)
    prvIdleTask                              0x0800b06f   Thumb Code    32  tasks.o(.text)
    prvTaskCheckFreeStackSpace               0x0800b17d   Thumb Code    22  tasks.o(.text)
    prvListTaskWithinSingleList              0x0800b193   Thumb Code   176  tasks.o(.text)
    .text                                    0x0800bce0   Section        0  timers.o(.text)
    prvInsertTimerInActiveList               0x0800bce1   Thumb Code    80  timers.o(.text)
    prvSwitchTimerLists                      0x0800bdaf   Thumb Code   150  timers.o(.text)
    prvSampleTimeNow                         0x0800be45   Thumb Code    40  timers.o(.text)
    prvProcessReceivedCommands               0x0800be6d   Thumb Code   244  timers.o(.text)
    prvProcessExpiredTimer                   0x0800bf61   Thumb Code    96  timers.o(.text)
    prvProcessTimerOrBlockTask               0x0800bfc1   Thumb Code   102  timers.o(.text)
    prvGetNextExpireTime                     0x0800c027   Thumb Code    36  timers.o(.text)
    prvTimerTask                             0x0800c04b   Thumb Code    26  timers.o(.text)
    prvCheckForValidListAndQueue             0x0800c065   Thumb Code    84  timers.o(.text)
    .text                                    0x0800c234   Section        0  port.o(.text)
    prvTaskExitError                         0x0800c235   Thumb Code    60  port.o(.text)
    .text                                    0x0800c538   Section        0  heap_4.o(.text)
    prvInsertBlockIntoFreeList               0x0800c539   Thumb Code    96  heap_4.o(.text)
    prvHeapInit                              0x0800c599   Thumb Code    98  heap_4.o(.text)
    .text                                    0x0800c7d4   Section        0  gui_x_os.o(.text)
    .text                                    0x0800c8e0   Section        0  guiconf.o(.text)
    .text                                    0x0800c8fc   Section        0  guidrv_template.o(.text)
    _SetPixelIndex                           0x0800c8fd   Thumb Code    26  guidrv_template.o(.text)
    _GetPixelIndex                           0x0800c917   Thumb Code    10  guidrv_template.o(.text)
    _XorPixel                                0x0800c921   Thumb Code    48  guidrv_template.o(.text)
    _FillRect                                0x0800c951   Thumb Code    42  guidrv_template.o(.text)
    _DrawHLine                               0x0800c97b   Thumb Code    26  guidrv_template.o(.text)
    _DrawVLine                               0x0800c995   Thumb Code    26  guidrv_template.o(.text)
    _DrawBitLine1BPP                         0x0800c9af   Thumb Code   236  guidrv_template.o(.text)
    _DrawBitLine2BPP                         0x0800ca9b   Thumb Code   358  guidrv_template.o(.text)
    _DrawBitLine4BPP                         0x0800cc01   Thumb Code   364  guidrv_template.o(.text)
    _DrawBitLine8BPP                         0x0800cd6d   Thumb Code   170  guidrv_template.o(.text)
    _DrawBitLine16BPP                        0x0800ce17   Thumb Code    42  guidrv_template.o(.text)
    _DrawBitLine32BPP                        0x0800ce41   Thumb Code    42  guidrv_template.o(.text)
    _DrawBitmap                              0x0800ce6b   Thumb Code   250  guidrv_template.o(.text)
    _InitOnce                                0x0800cf65   Thumb Code    44  guidrv_template.o(.text)
    _GetDevProp                              0x0800cf91   Thumb Code    82  guidrv_template.o(.text)
    _GetDevData                              0x0800cfe3   Thumb Code    14  guidrv_template.o(.text)
    _GetRect                                 0x0800cff1   Thumb Code    26  guidrv_template.o(.text)
    _SetOrg                                  0x0800d00b   Thumb Code    30  guidrv_template.o(.text)
    _SetVRAMAddr                             0x0800d029   Thumb Code    38  guidrv_template.o(.text)
    _SetVSize                                0x0800d04f   Thumb Code    32  guidrv_template.o(.text)
    _SetSize                                 0x0800d06f   Thumb Code    62  guidrv_template.o(.text)
    _Init                                    0x0800d0ad   Thumb Code    28  guidrv_template.o(.text)
    _On                                      0x0800d0c9   Thumb Code    16  guidrv_template.o(.text)
    _Off                                     0x0800d0d9   Thumb Code    16  guidrv_template.o(.text)
    _SetLUTEntry                             0x0800d0e9   Thumb Code    32  guidrv_template.o(.text)
    _GetDevFunc                              0x0800d109   Thumb Code    54  guidrv_template.o(.text)
    .text                                    0x0800d164   Section        0  lcdconf_flexcolor_template.o(.text)
    .text                                    0x0800d1b0   Section        0  elog.o(.text)
    get_fmt_enabled                          0x0800d1d3   Thumb Code    92  elog.o(.text)
    .text                                    0x0800ddd4   Section        0  elog_utils.o(.text)
    .text                                    0x0800e044   Section        0  elog_port.o(.text)
    .text                                    0x0800e0cc   Section        0  gui_uc_encodenone.o(.text)
    _GetCharCode                             0x0800e0cd   Thumb Code    16  gui_uc_encodenone.o(.text)
    _GetCharSize                             0x0800e0dd   Thumb Code    16  gui_uc_encodenone.o(.text)
    _CalcSizeOfChar                          0x0800e0ed   Thumb Code    18  gui_uc_encodenone.o(.text)
    _Encode                                  0x0800e0ff   Thumb Code    22  gui_uc_encodenone.o(.text)
    .text                                    0x0800e114   Section        0  guicharpex.o(.text)
    GUI_GetDataFromMemory                    0x0800e115   Thumb Code   440  guicharpex.o(.text)
    .text                                    0x0800e4a0   Section        0  memmovea.o(.text)
    .text                                    0x0800e4e0   Section        0  memseta.o(.text)
    .text                                    0x0800e504   Section        0  strstr.o(.text)
    .text                                    0x0800e528   Section        0  strncpy.o(.text)
    .text                                    0x0800e540   Section        0  strlen.o(.text)
    .text                                    0x0800e54e   Section        0  memchr.o(.text)
    .text                                    0x0800e562   Section        0  memcmp.o(.text)
    .text                                    0x0800e57c   Section        0  strcpy.o(.text)
    .text                                    0x0800e58e   Section        0  strncmp.o(.text)
    .text                                    0x0800e5ac   Section        0  dmul.o(.text)
    .text                                    0x0800e690   Section        0  dfltui.o(.text)
    .text                                    0x0800e6aa   Section        0  dfixui.o(.text)
    .text                                    0x0800e6dc   Section        0  uidiv.o(.text)
    .text                                    0x0800e708   Section        0  uldiv.o(.text)
    .text                                    0x0800e76a   Section        0  llushr.o(.text)
    .text                                    0x0800e78a   Section        0  iusefp.o(.text)
    .text                                    0x0800e78a   Section        0  depilogue.o(.text)
    .text                                    0x0800e848   Section        0  dadd.o(.text)
    .text                                    0x0800e996   Section        0  ddiv.o(.text)
    .text                                    0x0800ea74   Section        0  dfixul.o(.text)
    .text                                    0x0800eaa4   Section       40  cdrcmple.o(.text)
    .text                                    0x0800eacc   Section       36  init.o(.text)
    .text                                    0x0800eaf0   Section        0  llshl.o(.text)
    .text                                    0x0800eb0e   Section        0  llsshr.o(.text)
    .text                                    0x0800eb32   Section        0  __dczerorl2.o(.text)
    i.Abs                                    0x0800eb8e   Section        0  gui_drawline.o(i.Abs)
    Abs                                      0x0800eb8f   Thumb Code     8  gui_drawline.o(i.Abs)
    i.BUTTON_Callback                        0x0800eb98   Section        0  button.o(i.BUTTON_Callback)
    i.BUTTON_CreateIndirect                  0x0800ec74   Section        0  button_createindirect.o(i.BUTTON_CreateIndirect)
    i.BUTTON_CreateUser                      0x0800ecb8   Section        0  button.o(i.BUTTON_CreateUser)
    i.BUTTON_DrawSkinFlex                    0x0800ed34   Section        0  button_skinflex.o(i.BUTTON_DrawSkinFlex)
    i.BUTTON_SetFont                         0x0800ef6c   Section        0  button.o(i.BUTTON_SetFont)
    i.BUTTON_SetPressed                      0x0800ef94   Section        0  button.o(i.BUTTON_SetPressed)
    i.BUTTON_SetText                         0x0800efa6   Section        0  button.o(i.BUTTON_SetText)
    i.CHECKBOX_SetFont                       0x0800f000   Section        0  checkbox_setfont.o(i.CHECKBOX_SetFont)
    i.CHECKBOX_SetText                       0x0800f02e   Section        0  checkbox_settext.o(i.CHECKBOX_SetText)
    i.GL_DrawLine                            0x0800f07e   Section        0  gui_drawline.o(i.GL_DrawLine)
    i.GL_DrawLine1Ex                         0x0800f090   Section        0  gui_drawline.o(i.GL_DrawLine1Ex)
    i.GL_DrawLineEx                          0x0800f25c   Section        0  gui_drawline.o(i.GL_DrawLineEx)
    i.GL_DrawPoint                           0x0800f368   Section        0  gui_drawpoint.o(i.GL_DrawPoint)
    i.GL_FillCircle                          0x0800f388   Section        0  gui_circ.o(i.GL_FillCircle)
    i.GL_FillPolygon                         0x0800f444   Section        0  gui_fillpolygon.o(i.GL_FillPolygon)
    i.GL_SetDefault                          0x0800f620   Section        0  gui_setdefault.o(i.GL_SetDefault)
    i.GUIMONO_DispChar                       0x0800f660   Section        0  gui_charm.o(i.GUIMONO_DispChar)
    i.GUIMONO_GetCharDistX                   0x0800f794   Section        0  gui_charm.o(i.GUIMONO_GetCharDistX)
    i.GUIMONO_GetFontInfo                    0x0800f7ac   Section        0  gui_charm.o(i.GUIMONO_GetFontInfo)
    i.GUIMONO_IsInFont                       0x0800f7b2   Section        0  gui_charm.o(i.GUIMONO_IsInFont)
    i.GUIPROP_DispChar                       0x0800f7ec   Section        0  gui_charp.o(i.GUIPROP_DispChar)
    i.GUIPROP_GetCharDistX                   0x0800f8b8   Section        0  gui_charp.o(i.GUIPROP_GetCharDistX)
    i.GUIPROP_GetFontInfo                    0x0800f8fc   Section        0  gui_charp.o(i.GUIPROP_GetFontInfo)
    i.GUIPROP_IsInFont                       0x0800f902   Section        0  gui_charp.o(i.GUIPROP_IsInFont)
    i.GUIPROP__FindChar                      0x0800f912   Section        0  gui_charp.o(i.GUIPROP__FindChar)
    i.GUITASK_CopyContext                    0x0800f928   Section        0  gui_task.o(i.GUITASK_CopyContext)
    i.GUITASK_Init                           0x0800f98c   Section        0  gui_task.o(i.GUITASK_Init)
    i.GUI_ALLOC_AllocNoInit                  0x0800f9d0   Section        0  gui_alloc.o(i.GUI_ALLOC_AllocNoInit)
    i.GUI_ALLOC_AllocZero                    0x0800f9ee   Section        0  gui_alloc_alloczero.o(i.GUI_ALLOC_AllocZero)
    i.GUI_ALLOC_AssignMemory                 0x0800fa1c   Section        0  gui_alloc.o(i.GUI_ALLOC_AssignMemory)
    i.GUI_ALLOC_Free                         0x0800fa2c   Section        0  gui_alloc.o(i.GUI_ALLOC_Free)
    i.GUI_ALLOC_FreeFixedBlock               0x0800fa68   Section        0  gui_alloc.o(i.GUI_ALLOC_FreeFixedBlock)
    i.GUI_ALLOC_FreePtr                      0x0800fa80   Section        0  gui_alloc.o(i.GUI_ALLOC_FreePtr)
    i.GUI_ALLOC_FreePtrArray                 0x0800fa9c   Section        0  gui_alloc.o(i.GUI_ALLOC_FreePtrArray)
    i.GUI_ALLOC_GetFixedBlock                0x0800fab8   Section        0  gui_alloc.o(i.GUI_ALLOC_GetFixedBlock)
    i.GUI_ALLOC_GetMaxSize                   0x0800fb68   Section        0  gui_alloc.o(i.GUI_ALLOC_GetMaxSize)
    i.GUI_ALLOC_GetSize                      0x0800fba8   Section        0  gui_alloc.o(i.GUI_ALLOC_GetSize)
    i.GUI_ALLOC_Lock                         0x0800fbc4   Section        0  gui_alloc.o(i.GUI_ALLOC_Lock)
    i.GUI_ALLOC_LockH                        0x0800fbd4   Section        0  gui_alloc.o(i.GUI_ALLOC_LockH)
    i.GUI_ALLOC_RequestSize                  0x0800fbf0   Section        0  gui_alloc.o(i.GUI_ALLOC_RequestSize)
    i.GUI_ALLOC_Unlock                       0x0800fc24   Section        0  gui_alloc.o(i.GUI_ALLOC_Unlock)
    i.GUI_ALLOC_UnlockH                      0x0800fc34   Section        0  gui_alloc.o(i.GUI_ALLOC_UnlockH)
    i.GUI_ALLOC_h2p                          0x0800fc64   Section        0  gui_alloc.o(i.GUI_ALLOC_h2p)
    i.GUI_AddDecMin                          0x0800fc7c   Section        0  gui_adddecmin.o(i.GUI_AddDecMin)
    i.GUI_AddDecShift                        0x0800fc98   Section        0  gui_adddecshift.o(i.GUI_AddDecShift)
    i.GUI_CalcColorDist                      0x0800fd30   Section        0  gui_calccolordist.o(i.GUI_CalcColorDist)
    i.GUI_Clear                              0x0800fd6c   Section        0  gui_core.o(i.GUI_Clear)
    i.GUI_ClearRect                          0x0800fd88   Section        0  gui_core.o(i.GUI_ClearRect)
    i.GUI_CreateDialogBox                    0x0800fdf0   Section        0  dialog.o(i.GUI_CreateDialogBox)
    i.GUI_DEVICE_Create                      0x0800fe9c   Section        0  gui_device.o(i.GUI_DEVICE_Create)
    i.GUI_DEVICE_CreateAndLink               0x0800feec   Section        0  gui_device.o(i.GUI_DEVICE_CreateAndLink)
    i.GUI_DEVICE_Delete                      0x0800ff14   Section        0  gui_device.o(i.GUI_DEVICE_Delete)
    i.GUI_DEVICE_Link                        0x0800ff18   Section        0  gui_device.o(i.GUI_DEVICE_Link)
    i.GUI_DEVICE_LinkDevices                 0x0800ffa0   Section        0  gui_device.o(i.GUI_DEVICE_LinkDevices)
    i.GUI_DEVICE_Unlink                      0x0800ffb4   Section        0  gui_device.o(i.GUI_DEVICE_Unlink)
    i.GUI_DEVICE_UnlinkTaskDevices           0x0800ffe4   Section        0  gui_device.o(i.GUI_DEVICE_UnlinkTaskDevices)
    i.GUI_DEVICE__GetpDriver                 0x0800ffe8   Section        0  gui_device.o(i.GUI_DEVICE__GetpDriver)
    i.GUI_DRAW__Draw                         0x0801000c   Section        0  gui_draw.o(i.GUI_DRAW__Draw)
    i.GUI_Delay                              0x08010038   Section        0  gui_time.o(i.GUI_Delay)
    i.GUI_DispString                         0x080100a0   Section        0  gui_dispstring.o(i.GUI_DispString)
    i.GUI_DispStringAt                       0x080101a8   Section        0  gui_dispstringat.o(i.GUI_DispStringAt)
    i.GUI_DispStringInRect                   0x080101d0   Section        0  gui_dispstringinrect.o(i.GUI_DispStringInRect)
    i.GUI_DispStringInRectMax                0x080101d8   Section        0  gui_dispstringinrect.o(i.GUI_DispStringInRectMax)
    i.GUI_DrawFocusRect                      0x08010224   Section        0  gui_drawfocusrect.o(i.GUI_DrawFocusRect)
    i.GUI_DrawGradientH                      0x080102d0   Section        0  gui_drawgradient.o(i.GUI_DrawGradientH)
    i.GUI_DrawGradientV                      0x08010348   Section        0  gui_drawgradient.o(i.GUI_DrawGradientV)
    i.GUI_DrawHLine                          0x080103c0   Section        0  gui_drawhline.o(i.GUI_DrawHLine)
    i.GUI_DrawLine                           0x08010418   Section        0  gui_drawline.o(i.GUI_DrawLine)
    i.GUI_DrawRect                           0x08010460   Section        0  gui_2dlib.o(i.GUI_DrawRect)
    i.GUI_DrawVLine                          0x080104e0   Section        0  gui_drawvline.o(i.GUI_DrawVLine)
    i.GUI_EndDialog                          0x08010530   Section        0  dialog.o(i.GUI_EndDialog)
    i.GUI_Exec                               0x08010554   Section        0  gui_exec.o(i.GUI_Exec)
    i.GUI_Exec1                              0x08010568   Section        0  gui_exec.o(i.GUI_Exec1)
    i.GUI_FillRect                           0x08010598   Section        0  gui_fillrect.o(i.GUI_FillRect)
    i.GUI_GetBitsPerPixelEx                  0x080105f0   Section        0  lcd_getex.o(i.GUI_GetBitsPerPixelEx)
    i.GUI_GetBkColor                         0x08010604   Section        0  gui_getcolor.o(i.GUI_GetBkColor)
    i.GUI_GetCharDistX                       0x0801061c   Section        0  gui_char.o(i.GUI_GetCharDistX)
    i.GUI_GetCharDistXEx                     0x08010640   Section        0  gui_char.o(i.GUI_GetCharDistXEx)
    i.GUI_GetClientRect                      0x08010668   Section        0  gui_getclientrect.o(i.GUI_GetClientRect)
    i.GUI_GetColor                           0x08010672   Section        0  gui_getcolor.o(i.GUI_GetColor)
    i.GUI_GetDialogStatusPtr                 0x0801068a   Section        0  dialog.o(i.GUI_GetDialogStatusPtr)
    i.GUI_GetFontDistY                       0x080106a4   Section        0  gui_char.o(i.GUI_GetFontDistY)
    i.GUI_GetFontSizeY                       0x080106c0   Section        0  gui_getfontsizey.o(i.GUI_GetFontSizeY)
    i.GUI_GetOrg                             0x080106d4   Section        0  gui_getorg.o(i.GUI_GetOrg)
    i.GUI_GetStringDistX                     0x080106ee   Section        0  gui_getstringdistx.o(i.GUI_GetStringDistX)
    i.GUI_GetYAdjust                         0x08010704   Section        0  gui_char.o(i.GUI_GetYAdjust)
    i.GUI_GetpfColor2IndexEx                 0x08010740   Section        0  lcd_getex.o(i.GUI_GetpfColor2IndexEx)
    i.GUI_GetpfIndex2ColorEx                 0x08010750   Section        0  lcd_getex.o(i.GUI_GetpfIndex2ColorEx)
    i.GUI_GotoXY                             0x08010760   Section        0  gui_goto.o(i.GUI_GotoXY)
    i.GUI_Init                               0x08010784   Section        0  gui_core.o(i.GUI_Init)
    i.GUI_Lock                               0x08010808   Section        0  gui_task.o(i.GUI_Lock)
    i.GUI_Long2Len                           0x08010874   Section        0  gui_adddecshift.o(i.GUI_Long2Len)
    i.GUI_MEMDEV_Clear                       0x080108a0   Section        0  guidev_clear.o(i.GUI_MEMDEV_Clear)
    i.GUI_MEMDEV_CopyToLCD                   0x080108e4   Section        0  guidev.o(i.GUI_MEMDEV_CopyToLCD)
    i.GUI_MEMDEV_CopyToLCDAt                 0x080108f0   Section        0  guidev.o(i.GUI_MEMDEV_CopyToLCDAt)
    i.GUI_MEMDEV_CreateEx                    0x08010998   Section        0  guidev.o(i.GUI_MEMDEV_CreateEx)
    i.GUI_MEMDEV_Delete                      0x08010a1c   Section        0  guidev.o(i.GUI_MEMDEV_Delete)
    i.GUI_MEMDEV_Draw                        0x08010a64   Section        0  guidev_banding.o(i.GUI_MEMDEV_Draw)
    i.GUI_MEMDEV_GetBitsPerPixel             0x08010bbc   Section        0  guidev.o(i.GUI_MEMDEV_GetBitsPerPixel)
    i.GUI_MEMDEV_GetDataPtr                  0x08010bee   Section        0  guidev_getdataptr.o(i.GUI_MEMDEV_GetDataPtr)
    i.GUI_MEMDEV_GetYSize                    0x08010c18   Section        0  guidev_getysize.o(i.GUI_MEMDEV_GetYSize)
    i.GUI_MEMDEV_Paint1Static                0x08010c4c   Section        0  guidev_staticdevices.o(i.GUI_MEMDEV_Paint1Static)
    i.GUI_MEMDEV_ReduceYSize                 0x08010c6c   Section        0  guidev_reduceysize.o(i.GUI_MEMDEV_ReduceYSize)
    i.GUI_MEMDEV_Select                      0x08010ca4   Section        0  guidev.o(i.GUI_MEMDEV_Select)
    i.GUI_MEMDEV_SetOrg                      0x08010cf4   Section        0  guidev_setorg.o(i.GUI_MEMDEV_SetOrg)
    i.GUI_MEMDEV_Write                       0x08010d58   Section        0  guidev_write.o(i.GUI_MEMDEV_Write)
    i.GUI_MEMDEV_WriteAt                     0x08010d64   Section        0  guidev_write.o(i.GUI_MEMDEV_WriteAt)
    i.GUI_MEMDEV__CreateFixed                0x08010dcc   Section        0  guidev.o(i.GUI_MEMDEV__CreateFixed)
    i.GUI_MEMDEV__WriteToActiveAlpha         0x08010ec0   Section        0  guidev_writetoactivealpha.o(i.GUI_MEMDEV__WriteToActiveAlpha)
    i.GUI_MEMDEV__WriteToActiveAt            0x08011050   Section        0  guidev.o(i.GUI_MEMDEV__WriteToActiveAt)
    i.GUI_MEMDEV__WriteToActiveOpaque        0x08011080   Section        0  guidev_writetoactiveopaque.o(i.GUI_MEMDEV__WriteToActiveOpaque)
    i.GUI_MergeRect                          0x080110be   Section        0  gui_mergerect.o(i.GUI_MergeRect)
    i.GUI_MoveRect                           0x08011116   Section        0  gui_moverect.o(i.GUI_MoveRect)
    i.GUI_PollKeyMsg                         0x08011134   Section        0  gui_onkey.o(i.GUI_PollKeyMsg)
    i.GUI_ReadRectEx                         0x08011168   Section        0  lcd_readrect.o(i.GUI_ReadRectEx)
    i.GUI_RectsIntersect                     0x080111c8   Section        0  gui_rectsintersect.o(i.GUI_RectsIntersect)
    i.GUI_RestoreContext                     0x08011200   Section        0  gui_savecontext.o(i.GUI_RestoreContext)
    i.GUI_SaveContext_W                      0x08011210   Section        0  gui_savecontext.o(i.GUI_SaveContext_W)
    i.GUI_SelectLCD                          0x08011220   Section        0  gui_selectlcd.o(i.GUI_SelectLCD)
    i.GUI_SelectLayer                        0x0801123c   Section        0  gui_selectlayer.o(i.GUI_SelectLayer)
    i.GUI_SendKeyMsg                         0x08011274   Section        0  gui_onkey.o(i.GUI_SendKeyMsg)
    i.GUI_SetBkColor                         0x08011290   Section        0  gui_setcolor.o(i.GUI_SetBkColor)
    i.GUI_SetColor                           0x080112a6   Section        0  gui_setcolor.o(i.GUI_SetColor)
    i.GUI_SetDefaultFont                     0x080112bc   Section        0  gui_core.o(i.GUI_SetDefaultFont)
    i.GUI_SetDrawMode                        0x080112c8   Section        0  gui_setdrawmode.o(i.GUI_SetDrawMode)
    i.GUI_SetFont                            0x080112e0   Section        0  gui_setfont.o(i.GUI_SetFont)
    i.GUI_SetLineStyle                       0x08011300   Section        0  gui_setlinestyle.o(i.GUI_SetLineStyle)
    i.GUI_SetOrg                             0x0801131c   Section        0  gui_setorg.o(i.GUI_SetOrg)
    i.GUI_SetPenSize                         0x0801135c   Section        0  gui_pen.o(i.GUI_SetPenSize)
    i.GUI_SetTextAlign                       0x08011378   Section        0  gui_settextalign.o(i.GUI_SetTextAlign)
    i.GUI_SetTextMode                        0x08011398   Section        0  gui_settextmode.o(i.GUI_SetTextMode)
    i.GUI_SignalEvent                        0x080113b8   Section        0  gui_waitevent.o(i.GUI_SignalEvent)
    i.GUI_StoreKey                           0x080113c8   Section        0  gui_onkey.o(i.GUI_StoreKey)
    i.GUI_StoreKeyMsg                        0x080113d8   Section        0  gui_onkey.o(i.GUI_StoreKeyMsg)
    i.GUI_TIMER_Delete                       0x08011408   Section        0  gui_timer.o(i.GUI_TIMER_Delete)
    i.GUI_TIMER_GetFlag                      0x0801142e   Section        0  gui_timer.o(i.GUI_TIMER_GetFlag)
    i.GUI_TIMER__GetFirstTimer               0x08011460   Section        0  gui_timer.o(i.GUI_TIMER__GetFirstTimer)
    i.GUI_TIMER__GetNextTimerLin             0x08011488   Section        0  gui_timer.o(i.GUI_TIMER__GetNextTimerLin)
    i.GUI_UC__GetCharCodeInc                 0x080114c0   Section        0  gui_uc.o(i.GUI_UC__GetCharCodeInc)
    i.GUI_UC__NumChars2NumBytes              0x080114ec   Section        0  gui_uc.o(i.GUI_UC__NumChars2NumBytes)
    i.GUI_USAGE_AddRect                      0x08011514   Section        0  guidev_usage.o(i.GUI_USAGE_AddRect)
    i.GUI_USAGE_BM_AddHLine                  0x0801153c   Section        0  guidev_usagebm.o(i.GUI_USAGE_BM_AddHLine)
    GUI_USAGE_BM_AddHLine                    0x0801153d   Thumb Code   116  guidev_usagebm.o(i.GUI_USAGE_BM_AddHLine)
    i.GUI_USAGE_BM_AddPixel                  0x080115b0   Section        0  guidev_usagebm.o(i.GUI_USAGE_BM_AddPixel)
    GUI_USAGE_BM_AddPixel                    0x080115b1   Thumb Code    44  guidev_usagebm.o(i.GUI_USAGE_BM_AddPixel)
    i.GUI_USAGE_BM_Clear                     0x080115dc   Section        0  guidev_usagebm.o(i.GUI_USAGE_BM_Clear)
    GUI_USAGE_BM_Clear                       0x080115dd   Thumb Code    14  guidev_usagebm.o(i.GUI_USAGE_BM_Clear)
    i.GUI_USAGE_BM_Create                    0x080115ec   Section        0  guidev_usagebm.o(i.GUI_USAGE_BM_Create)
    i.GUI_USAGE_BM_GetNextDirty              0x08011648   Section        0  guidev_usagebm.o(i.GUI_USAGE_BM_GetNextDirty)
    GUI_USAGE_BM_GetNextDirty                0x08011649   Thumb Code   154  guidev_usagebm.o(i.GUI_USAGE_BM_GetNextDirty)
    i.GUI_USAGE_DecUseCnt                    0x080116e2   Section        0  guidev_usage.o(i.GUI_USAGE_DecUseCnt)
    i.GUI_Unlock                             0x08011710   Section        0  gui_task.o(i.GUI_Unlock)
    i.GUI__AllocAlphaBuffer                  0x08011724   Section        0  gui__alpha.o(i.GUI__AllocAlphaBuffer)
    i.GUI__AlphaPreserveTrans                0x0801173c   Section        0  gui_setalpha.o(i.GUI__AlphaPreserveTrans)
    i.GUI__CompactPixelIndices               0x08011760   Section        0  gui__compactpixelindices.o(i.GUI__CompactPixelIndices)
    i.GUI__CompactPixelIndicesEx             0x08011884   Section        0  gui__compactpixelindices.o(i.GUI__CompactPixelIndicesEx)
    i.GUI__Config                            0x08011890   Section        0  gui_core.o(i.GUI__Config)
    i.GUI__ConvertColor2Index                0x080118c8   Section        0  gui__compactpixelindices.o(i.GUI__ConvertColor2Index)
    i.GUI__DispLine                          0x08011a30   Section        0  gui_charline.o(i.GUI__DispLine)
    i.GUI__DispStringInRect                  0x08011ae0   Section        0  gui_dispstringinrect.o(i.GUI__DispStringInRect)
    i.GUI__DoAlphaBlending                   0x08011c24   Section        0  gui__alpha.o(i.GUI__DoAlphaBlending)
    i.GUI__DrawTwinArc4                      0x08011df4   Section        0  gui__drawtwinarc.o(i.GUI__DrawTwinArc4)
    i.GUI__ExpandPixelIndicesEx              0x08011e60   Section        0  gui__expandpixelindices.o(i.GUI__ExpandPixelIndicesEx)
    i.GUI__GetAlphaBuffer                    0x08011fa4   Section        0  gui__alpha.o(i.GUI__GetAlphaBuffer)
    i.GUI__GetFontSizeY                      0x08012040   Section        0  gui__getfontsizey.o(i.GUI__GetFontSizeY)
    i.GUI__GetLineDistX                      0x08012054   Section        0  gui_charline.o(i.GUI__GetLineDistX)
    i.GUI__GetLineNumChars                   0x080120a8   Section        0  gui_charline.o(i.GUI__GetLineNumChars)
    i.GUI__GetNumChars                       0x080120e0   Section        0  gui__getnumchars.o(i.GUI__GetNumChars)
    i.GUI__GetOrg                            0x080120fc   Section        0  gui_getorg.o(i.GUI__GetOrg)
    i.GUI__GetOverlap                        0x08012118   Section        0  gui_charline.o(i.GUI__GetOverlap)
    i.GUI__HandleEOLine                      0x08012130   Section        0  gui__handleeoline.o(i.GUI__HandleEOLine)
    i.GUI__IntersectRect                     0x08012148   Section        0  gui__intersectrect.o(i.GUI__IntersectRect)
    i.GUI__IntersectRects                    0x08012182   Section        0  gui__intersectrects.o(i.GUI__IntersectRects)
    i.GUI__ManageCache                       0x080121d4   Section        0  gui__managecache.o(i.GUI__ManageCache)
    i.GUI__ManageCacheEx                     0x080121e4   Section        0  gui__managecache.o(i.GUI__ManageCacheEx)
    i.GUI__MixColors                         0x080122b8   Section        0  gui__alpha.o(i.GUI__MixColors)
    i.GUI__MixColorsBulk                     0x0801231e   Section        0  gui__alpha.o(i.GUI__MixColorsBulk)
    i.GUI__ReduceRect                        0x0801236c   Section        0  gui__reducerect.o(i.GUI__ReduceRect)
    i.GUI__RegisterExit                      0x08012388   Section        0  gui_core.o(i.GUI__RegisterExit)
    i.GUI__SetText                           0x08012398   Section        0  gui__settext.o(i.GUI__SetText)
    i.GUI__memset                            0x08012404   Section        0  gui__memset.o(i.GUI__memset)
    i.GUI__memset16                          0x08012450   Section        0  gui__memset16.o(i.GUI__memset16)
    i.GUI__sqrt32                            0x0801248c   Section        0  gui__sqrt32.o(i.GUI__sqrt32)
    i.GUI__strcmp                            0x080124a8   Section        0  gui__strcmp.o(i.GUI__strcmp)
    i.GUI__strcmp_hp                         0x080124cc   Section        0  gui__strcmp.o(i.GUI__strcmp_hp)
    i.GUI__strlen                            0x080124ec   Section        0  gui__strlen.o(i.GUI__strlen)
    i.GUI_cos                                0x08012502   Section        0  gui_drawline.o(i.GUI_cos)
    i.GUI_sin                                0x0801250c   Section        0  gui_drawline.o(i.GUI_sin)
    i.LCD_AA_SetAndMask                      0x08012564   Section        0  lcd_aa.o(i.LCD_AA_SetAndMask)
    i.LCD_Color2Index                        0x08012574   Section        0  lcd.o(i.LCD_Color2Index)
    i.LCD_DrawBitmap                         0x08012590   Section        0  lcd.o(i.LCD_DrawBitmap)
    i.LCD_DrawHLine                          0x08012794   Section        0  lcd.o(i.LCD_DrawHLine)
    i.LCD_DrawPixel                          0x080127ec   Section        0  lcd.o(i.LCD_DrawPixel)
    i.LCD_DrawVLine                          0x08012854   Section        0  lcd.o(i.LCD_DrawVLine)
    i.LCD_FillRect                           0x080128a8   Section        0  lcd.o(i.LCD_FillRect)
    i.LCD_GetBitsPerPixelEx                  0x08012900   Section        0  lcd_getex.o(i.LCD_GetBitsPerPixelEx)
    i.LCD_GetBkColorIndex                    0x08012908   Section        0  lcd_getcolorindex.o(i.LCD_GetBkColorIndex)
    i.LCD_GetColorIndex                      0x08012918   Section        0  lcd_getcolorindex.o(i.LCD_GetColorIndex)
    i.LCD_GetNumColors                       0x08012928   Section        0  lcd_getex.o(i.LCD_GetNumColors)
    i.LCD_GetNumColorsEx                     0x08012938   Section        0  lcd_getex.o(i.LCD_GetNumColorsEx)
    i.LCD_GetNumLayers                       0x0801293e   Section        0  lcd_getnumdisplays.o(i.LCD_GetNumLayers)
    i.LCD_GetPalette                         0x08012958   Section        0  lcd_getex.o(i.LCD_GetPalette)
    i.LCD_GetPaletteEx                       0x08012968   Section        0  lcd_getex.o(i.LCD_GetPaletteEx)
    i.LCD_GetVXSizeEx                        0x08012980   Section        0  lcd_getex.o(i.LCD_GetVXSizeEx)
    i.LCD_GetVXSizeMax                       0x08012986   Section        0  lcd_getex.o(i.LCD_GetVXSizeMax)
    i.LCD_GetVYSizeEx                        0x0801298c   Section        0  lcd_getex.o(i.LCD_GetVYSizeEx)
    i.LCD_GetXSize                           0x08012994   Section        0  lcd_getex.o(i.LCD_GetXSize)
    i.LCD_GetXSizeDisplay                    0x080129a4   Section        0  lcd_getex.o(i.LCD_GetXSizeDisplay)
    i.LCD_GetXSizeEx                         0x080129b0   Section        0  lcd_getex.o(i.LCD_GetXSizeEx)
    i.LCD_GetXSizeMax                        0x080129b6   Section        0  lcd_getex.o(i.LCD_GetXSizeMax)
    i.LCD_GetYSize                           0x080129bc   Section        0  lcd_getex.o(i.LCD_GetYSize)
    i.LCD_GetYSizeDisplay                    0x080129cc   Section        0  lcd_getex.o(i.LCD_GetYSizeDisplay)
    i.LCD_GetYSizeEx                         0x080129d8   Section        0  lcd_getex.o(i.LCD_GetYSizeEx)
    i.LCD_GetYSizeMax                        0x080129de   Section        0  lcd_getex.o(i.LCD_GetYSizeMax)
    i.LCD_GetpPalConvTableBM                 0x080129e4   Section        0  lcd_color.o(i.LCD_GetpPalConvTableBM)
    i.LCD_GetpPalConvTableUncached           0x080129e8   Section        0  lcd_color.o(i.LCD_GetpPalConvTableUncached)
    i.LCD_Index2Color                        0x08012a30   Section        0  lcd.o(i.LCD_Index2Color)
    i.LCD_Index2Color_888                    0x08012a4c   Section        0  guicc_888_index2color.o(i.LCD_Index2Color_888)
    i.LCD_Index2Color_8888                   0x08012a4e   Section        0  guicc_8888_index2color.o(i.LCD_Index2Color_8888)
    i.LCD_Index2Color_M565                   0x08012a50   Section        0  guicc_m565.o(i.LCD_Index2Color_M565)
    i.LCD_InitColors                         0x08012a7c   Section        0  lcd_color.o(i.LCD_InitColors)
    i.LCD_InitLUT                            0x08012ab0   Section        0  lcd_color.o(i.LCD_InitLUT)
    i.LCD_ReadRectEx                         0x08012b2c   Section        0  lcd_readrect.o(i.LCD_ReadRectEx)
    LCD_ReadRectEx                           0x08012b2d   Thumb Code   404  lcd_readrect.o(i.LCD_ReadRectEx)
    i.LCD_SelectLCD                          0x08012cc4   Section        0  lcd_selectlcd.o(i.LCD_SelectLCD)
    i.LCD_SetBkColor                         0x08012d04   Section        0  lcd.o(i.LCD_SetBkColor)
    i.LCD_SetBkColorIndex                    0x08012d10   Section        0  lcd.o(i.LCD_SetBkColorIndex)
    i.LCD_SetClipRectEx                      0x08012d28   Section        0  lcd_setcliprectex.o(i.LCD_SetClipRectEx)
    i.LCD_SetClipRectMax                     0x08012d58   Section        0  lcd.o(i.LCD_SetClipRectMax)
    i.LCD_SetColor                           0x08012d74   Section        0  lcd.o(i.LCD_SetColor)
    i.LCD_SetColorIndex                      0x08012d80   Section        0  lcd.o(i.LCD_SetColorIndex)
    i.LCD_SetDisplaySize                     0x08012d98   Section        0  lcd_getex.o(i.LCD_SetDisplaySize)
    i.LCD_SetDrawMode                        0x08012da4   Section        0  lcd.o(i.LCD_SetDrawMode)
    i.LCD_SetLUTEntryEx                      0x08012db0   Section        0  lcd_set.o(i.LCD_SetLUTEntryEx)
    i.LCD_SetSizeEx                          0x08012ddc   Section        0  lcd_set.o(i.LCD_SetSizeEx)
    i.LCD_SetVSizeEx                         0x08012e08   Section        0  lcd_set.o(i.LCD_SetVSizeEx)
    i.LCD_UpdateColorIndices                 0x08012e34   Section        0  lcd_updatecolorindices.o(i.LCD_UpdateColorIndices)
    i.LCD__DrawBitmap_1bpp                   0x08012e58   Section        0  lcd.o(i.LCD__DrawBitmap_1bpp)
    i.LCD__GetBPP                            0x0801300c   Section        0  lcd_getex.o(i.LCD__GetBPP)
    i.LCD__GetBPPDevice                      0x08013068   Section        0  lcd_getex.o(i.LCD__GetBPPDevice)
    i.PROGBAR_Callback                       0x0801309a   Section        0  progbar.o(i.PROGBAR_Callback)
    i.PROGBAR_CreateIndirect                 0x080130f0   Section        0  progbar_createindirect.o(i.PROGBAR_CreateIndirect)
    i.PROGBAR_CreateUser                     0x08013128   Section        0  progbar.o(i.PROGBAR_CreateUser)
    i.PROGBAR_DrawSkinFlex                   0x080131e4   Section        0  progbar_skinflex.o(i.PROGBAR_DrawSkinFlex)
    i.PROGBAR__GetTextLocked                 0x08013268   Section        0  progbar.o(i.PROGBAR__GetTextLocked)
    i.PROGBAR__GetTextRect                   0x0801326e   Section        0  progbar.o(i.PROGBAR__GetTextRect)
    i.PROGBAR__Value2Pos                     0x080132ec   Section        0  progbar.o(i.PROGBAR__Value2Pos)
    i.SLIDER_Callback                        0x0801333c   Section        0  slider.o(i.SLIDER_Callback)
    i.SLIDER_CreateIndirect                  0x080133b0   Section        0  slider_createindirect.o(i.SLIDER_CreateIndirect)
    i.SLIDER_CreateUser                      0x080133e8   Section        0  slider.o(i.SLIDER_CreateUser)
    i.SLIDER_Dec                             0x08013480   Section        0  slider.o(i.SLIDER_Dec)
    i.SLIDER_DrawSkinFlex                    0x080134c0   Section        0  slider_skinflex.o(i.SLIDER_DrawSkinFlex)
    i.SLIDER_GetFlag                         0x080135cc   Section        0  slider.o(i.SLIDER_GetFlag)
    i.SLIDER_Inc                             0x080135ea   Section        0  slider.o(i.SLIDER_Inc)
    i.SLIDER_SetValue                        0x0801362a   Section        0  slider.o(i.SLIDER_SetValue)
    i.WIDGET_AndState                        0x08013678   Section        0  widget.o(i.WIDGET_AndState)
    i.WIDGET_HandleActive                    0x080136aa   Section        0  widget.o(i.WIDGET_HandleActive)
    i.WIDGET_OrState                         0x080137d2   Section        0  widget.o(i.WIDGET_OrState)
    i.WIDGET_SetEffect                       0x08013804   Section        0  widget_seteffect.o(i.WIDGET_SetEffect)
    i.WIDGET_SetState                        0x0801381a   Section        0  widget.o(i.WIDGET_SetState)
    i.WIDGET__GetInsideRect                  0x08013846   Section        0  widget.o(i.WIDGET__GetInsideRect)
    i.WIDGET__GetWindowSizeX                 0x08013860   Section        0  widget.o(i.WIDGET__GetWindowSizeX)
    i.WIDGET__Init                           0x0801388c   Section        0  widget.o(i.WIDGET__Init)
    i.WINDOW_Callback                        0x0801389c   Section        0  window.o(i.WINDOW_Callback)
    i.WINDOW_CreateIndirect                  0x080139aa   Section        0  window.o(i.WINDOW_CreateIndirect)
    i.WINDOW_CreateUser                      0x080139e8   Section        0  window.o(i.WINDOW_CreateUser)
    i.WM_Activate                            0x08013a54   Section        0  wm.o(i.WM_Activate)
    i.WM_BringToBottom                       0x08013a64   Section        0  wm_bringtobottom.o(i.WM_BringToBottom)
    i.WM_BringToTop                          0x08013aec   Section        0  wm_bringtotop.o(i.WM_BringToTop)
    i.WM_CreateWindowAsChild                 0x08013b04   Section        0  wm.o(i.WM_CreateWindowAsChild)
    i.WM_Deactivate                          0x08013c54   Section        0  wm.o(i.WM_Deactivate)
    i.WM_DefaultProc                         0x08013c74   Section        0  wm.o(i.WM_DefaultProc)
    i.WM_DeleteTimer                         0x08013cba   Section        0  wm_timer.o(i.WM_DeleteTimer)
    i.WM_DeleteWindow                        0x08013ce4   Section        0  wm.o(i.WM_DeleteWindow)
    i.WM_Exec                                0x08013dd4   Section        0  wm.o(i.WM_Exec)
    i.WM_ForEachDesc                         0x08013e64   Section        0  wm_foreachdesc.o(i.WM_ForEachDesc)
    i.WM_GetActiveWindow                     0x08013e84   Section        0  wm.o(i.WM_GetActiveWindow)
    i.WM_GetClientRect                       0x08013e90   Section        0  wm_getclientrect.o(i.WM_GetClientRect)
    i.WM_GetClientRectEx                     0x08013ebc   Section        0  wm_getclientrect.o(i.WM_GetClientRectEx)
    i.WM_GetClientWindow                     0x08013ed6   Section        0  wm_getclientwindow.o(i.WM_GetClientWindow)
    i.WM_GetDesktopWindow                    0x08013eec   Section        0  wm_getdesktopwindow.o(i.WM_GetDesktopWindow)
    i.WM_GetDialogItem                       0x08013f04   Section        0  wm_getdialogitem.o(i.WM_GetDialogItem)
    i.WM_GetFirstChild                       0x08013f26   Section        0  wm_getfirstchild.o(i.WM_GetFirstChild)
    i.WM_GetFocussedWindow                   0x08013f40   Section        0  wm_getfocussedwindow.o(i.WM_GetFocussedWindow)
    i.WM_GetId                               0x08013f60   Section        0  wm_getid.o(i.WM_GetId)
    i.WM_GetParent                           0x08013f7a   Section        0  wm_getparent.o(i.WM_GetParent)
    i.WM_GetWindowOrgX                       0x08013f94   Section        0  wm_getorg.o(i.WM_GetWindowOrgX)
    i.WM_GetWindowSizeX                      0x08013fb4   Section        0  wm_getwindowsize.o(i.WM_GetWindowSizeX)
    i.WM_GetWindowSizeY                      0x08013fe2   Section        0  wm_getwindowsize.o(i.WM_GetWindowSizeY)
    i.WM_HasFocus                            0x08014010   Section        0  wm_hasfocus.o(i.WM_HasFocus)
    i.WM_Init                                0x08014030   Section        0  wm.o(i.WM_Init)
    i.WM_InvalidateRect                      0x08014104   Section        0  wm.o(i.WM_InvalidateRect)
    i.WM_InvalidateWindow                    0x08014184   Section        0  wm.o(i.WM_InvalidateWindow)
    i.WM_InvalidateWindowAndDescs            0x0801418a   Section        0  wm_show.o(i.WM_InvalidateWindowAndDescs)
    i.WM_InvalidateWindowAndDescsEx          0x080141be   Section        0  wm.o(i.WM_InvalidateWindowAndDescsEx)
    i.WM_IsFocussable                        0x0801421c   Section        0  wm_isfocussable.o(i.WM_IsFocussable)
    i.WM_IsWindow                            0x08014256   Section        0  wm_iswindow.o(i.WM_IsWindow)
    i.WM_MoveWindow                          0x0801426e   Section        0  wm_move.o(i.WM_MoveWindow)
    i.WM_NotifyParent                        0x0801428c   Section        0  wm_notifyparent.o(i.WM_NotifyParent)
    i.WM_OnKey                               0x0801429c   Section        0  wm_onkey.o(i.WM_OnKey)
    i.WM_ResizeWindow                        0x080142dc   Section        0  wm_resizewindow.o(i.WM_ResizeWindow)
    i.WM_SelectWindow                        0x080143d0   Section        0  wm.o(i.WM_SelectWindow)
    i.WM_SendMessage                         0x08014414   Section        0  wm.o(i.WM_SendMessage)
    i.WM_SendMessageNoPara                   0x08014432   Section        0  wm_sendmessagenopara.o(i.WM_SendMessageNoPara)
    i.WM_SendToParent                        0x0801444c   Section        0  wm_sendtoparent.o(i.WM_SendToParent)
    i.WM_SetCapture                          0x08014474   Section        0  wm_setcapture.o(i.WM_SetCapture)
    i.WM_SetCreateFlags                      0x080144b0   Section        0  wm_setcreateflags.o(i.WM_SetCreateFlags)
    i.WM_SetDefault                          0x080144c0   Section        0  wm.o(i.WM_SetDefault)
    i.WM_SetFocus                            0x080144d4   Section        0  wm_setfocus.o(i.WM_SetFocus)
    i.WM_SetFocusOnNextChild                 0x0801457c   Section        0  wm_setfocusonnextchild.o(i.WM_SetFocusOnNextChild)
    i.WM_SetFocusOnPrevChild                 0x0801459a   Section        0  wm_setfocusonprevchild.o(i.WM_SetFocusOnPrevChild)
    i.WM_SetHasTrans                         0x080145e0   Section        0  wm_settrans.o(i.WM_SetHasTrans)
    i.WM_SetSize                             0x08014628   Section        0  wm_setsize.o(i.WM_SetSize)
    i.WM_SetUserClipRect                     0x08014670   Section        0  wm_setusercliprect.o(i.WM_SetUserClipRect)
    i.WM_ShowWindow                          0x08014690   Section        0  wm_show.o(i.WM_ShowWindow)
    i.WM_ValidateWindow                      0x080146c0   Section        0  wm_validatewindow.o(i.WM_ValidateWindow)
    i.WM__ActivateClipRect                   0x080146f8   Section        0  wm.o(i.WM__ActivateClipRect)
    i.WM__AddCriticalHandle                  0x08014740   Section        0  wm_criticalhandle.o(i.WM__AddCriticalHandle)
    i.WM__Client2Screen                      0x08014750   Section        0  wm.o(i.WM__Client2Screen)
    i.WM__ClipAtParentBorders                0x08014760   Section        0  wm.o(i.WM__ClipAtParentBorders)
    i.WM__DeleteAssocTimer                   0x080147ae   Section        0  wm_timer.o(i.WM__DeleteAssocTimer)
    i.WM__DeleteSecure                       0x08014800   Section        0  wm.o(i.WM__DeleteSecure)
    i.WM__DetachWindow                       0x0801481c   Section        0  wm.o(i.WM__DetachWindow)
    i.WM__ForEachDesc                        0x08014844   Section        0  wm__foreachdesc.o(i.WM__ForEachDesc)
    i.WM__GetClientRectEx                    0x08014870   Section        0  wm_getclientrect.o(i.WM__GetClientRectEx)
    i.WM__GetClientRectWin                   0x08014890   Section        0  wm.o(i.WM__GetClientRectWin)
    i.WM__GetFirstSibling                    0x080148a8   Section        0  wm__getfirstsibling.o(i.WM__GetFirstSibling)
    i.WM__GetFocussedChild                   0x080148bc   Section        0  wm__getfocussedchild.o(i.WM__GetFocussedChild)
    i.WM__GetLastSibling                     0x080148e4   Section        0  wm__getlastsibling.o(i.WM__GetLastSibling)
    i.WM__GetNextIVR                         0x080148fc   Section        0  wm.o(i.WM__GetNextIVR)
    i.WM__GetPrevSibling                     0x0801493c   Section        0  wm__getprevsibling.o(i.WM__GetPrevSibling)
    i.WM__GetTopLevelLayer                   0x08014960   Section        0  wm.o(i.WM__GetTopLevelLayer)
    i.WM__InitIVRSearch                      0x08014978   Section        0  wm.o(i.WM__InitIVRSearch)
    i.WM__InsertWindowIntoList               0x08014a68   Section        0  wm.o(i.WM__InsertWindowIntoList)
    i.WM__Invalidate1Abs                     0x08014b0c   Section        0  wm.o(i.WM__Invalidate1Abs)
    i.WM__InvalidateDrawAndDescs             0x08014b14   Section        0  wm.o(i.WM__InvalidateDrawAndDescs)
    i.WM__InvalidateParent                   0x08014b68   Section        0  wm.o(i.WM__InvalidateParent)
    i.WM__InvalidateRect                     0x08014b92   Section        0  wm.o(i.WM__InvalidateRect)
    i.WM__InvalidateRectEx                   0x08014c08   Section        0  wm.o(i.WM__InvalidateRectEx)
    i.WM__IsAncestor                         0x08014c10   Section        0  wm__isancestor.o(i.WM__IsAncestor)
    i.WM__IsAncestorOrSelf                   0x08014c32   Section        0  wm__isancestor.o(i.WM__IsAncestorOrSelf)
    i.WM__IsChild                            0x08014c3e   Section        0  wm__ischild.o(i.WM__IsChild)
    i.WM__IsEnabled                          0x08014c60   Section        0  wm__isenabled.o(i.WM__IsEnabled)
    i.WM__IsWindow                           0x08014c78   Section        0  wm.o(i.WM__IsWindow)
    i.WM__MoveWindow                         0x08014c9c   Section        0  wm_move.o(i.WM__MoveWindow)
    i.WM__Paint                              0x08014d38   Section        0  wm.o(i.WM__Paint)
    i.WM__Paint1                             0x08014dd8   Section        0  wm.o(i.WM__Paint1)
    i.WM__PaintWinAndOverlays                0x08014e64   Section        0  wm.o(i.WM__PaintWinAndOverlays)
    WM__PaintWinAndOverlays                  0x08014e65   Thumb Code   116  wm.o(i.WM__PaintWinAndOverlays)
    i.WM__RectIsNZ                           0x08014edc   Section        0  wm.o(i.WM__RectIsNZ)
    i.WM__ReleaseCapture                     0x08014efc   Section        0  wm_setcapture.o(i.WM__ReleaseCapture)
    WM__ReleaseCapture                       0x08014efd   Thumb Code    36  wm_setcapture.o(i.WM__ReleaseCapture)
    i.WM__RemoveWindowFromList               0x08014f28   Section        0  wm.o(i.WM__RemoveWindowFromList)
    i.WM__SelectTopLevelLayer                0x08014f68   Section        0  wm.o(i.WM__SelectTopLevelLayer)
    i.WM__SendMessage                        0x08014f7c   Section        0  wm__sendmessage.o(i.WM__SendMessage)
    i.WM__SendMessageNoPara                  0x08014fb8   Section        0  wm__sendmessagenopara.o(i.WM__SendMessageNoPara)
    i.WM__SendMsgNoData                      0x08014fde   Section        0  wm.o(i.WM__SendMsgNoData)
    i.WM__UpdateChildPositions               0x08014fec   Section        0  wm__updatechildpositions.o(i.WM__UpdateChildPositions)
    i._Add                                   0x080150c8   Section        0  gui_fillpolygon.o(i._Add)
    _Add                                     0x080150c9   Thumb Code    46  gui_fillpolygon.o(i._Add)
    i._AddFreeMemory                         0x08015100   Section        0  gui_alloc.o(i._AddFreeMemory)
    _AddFreeMemory                           0x08015101   Thumb Code   140  gui_alloc.o(i._AddFreeMemory)
    i._Alloc                                 0x08015190   Section        0  gui_alloc.o(i._Alloc)
    _Alloc                                   0x08015191   Thumb Code   178  gui_alloc.o(i._Alloc)
    i._BringToTop                            0x08015248   Section        0  wm_bringtotop.o(i._BringToTop)
    _BringToTop                              0x08015249   Thumb Code   106  wm_bringtotop.o(i._BringToTop)
    i._Color2IndexBulk                       0x080152b8   Section        0  guicc_m565.o(i._Color2IndexBulk)
    _Color2IndexBulk                         0x080152b9   Thumb Code    62  guicc_m565.o(i._Color2IndexBulk)
    i._Color2IndexBulk                       0x08015304   Section        0  guicc_8888.o(i._Color2IndexBulk)
    _Color2IndexBulk                         0x08015305   Thumb Code    14  guicc_8888.o(i._Color2IndexBulk)
    i._Color2Index_0                         0x08015314   Section        0  guicc_0.o(i._Color2Index_0)
    _Color2Index_0                           0x08015315   Thumb Code    84  guicc_0.o(i._Color2Index_0)
    i._Color2Index_8888                      0x08015368   Section        0  guicc_8888.o(i._Color2Index_8888)
    _Color2Index_8888                        0x08015369   Thumb Code     2  guicc_8888.o(i._Color2Index_8888)
    i._Color2Index_M565                      0x0801536c   Section        0  guicc_m565.o(i._Color2Index_M565)
    _Color2Index_M565                        0x0801536d   Thumb Code    34  guicc_m565.o(i._Color2Index_M565)
    i._Convert16                             0x08015398   Section        0  guidev_writetoactiveopaque.o(i._Convert16)
    _Convert16                               0x08015399   Thumb Code    62  guidev_writetoactiveopaque.o(i._Convert16)
    i._Convert8                              0x080153d6   Section        0  guidev_writetoactiveopaque.o(i._Convert8)
    _Convert8                                0x080153d7   Thumb Code    62  guidev_writetoactiveopaque.o(i._Convert8)
    i._CopyItemInfo2Rect                     0x08015414   Section        0  slider_skin.o(i._CopyItemInfo2Rect)
    _CopyItemInfo2Rect                       0x08015415   Thumb Code    18  slider_skin.o(i._CopyItemInfo2Rect)
    i._Create                                0x08015426   Section        0  button_skin.o(i._Create)
    _Create                                  0x08015427   Thumb Code    48  button_skin.o(i._Create)
    i._Create                                0x08015456   Section        0  progbar_skin.o(i._Create)
    _Create                                  0x08015457   Thumb Code    38  progbar_skin.o(i._Create)
    i._Create                                0x0801547c   Section        0  slider_skin.o(i._Create)
    _Create                                  0x0801547d   Thumb Code    36  slider_skin.o(i._Create)
    i._CreateStaticDevice                    0x080154a0   Section        0  guidev_staticdevices.o(i._CreateStaticDevice)
    _CreateStaticDevice                      0x080154a1   Thumb Code   308  guidev_staticdevices.o(i._CreateStaticDevice)
    i._DeleteAllChildren                     0x080155e8   Section        0  wm.o(i._DeleteAllChildren)
    _DeleteAllChildren                       0x080155e9   Thumb Code    18  wm.o(i._DeleteAllChildren)
    i._DesktopHandle2Index                   0x080155fc   Section        0  wm.o(i._DesktopHandle2Index)
    _DesktopHandle2Index                     0x080155fd   Thumb Code    28  wm.o(i._DesktopHandle2Index)
    i._DispLine                              0x0801561c   Section        0  gui_charline.o(i._DispLine)
    _DispLine                                0x0801561d   Thumb Code   104  gui_charline.o(i._DispLine)
    i._DrawBackground                        0x08015690   Section        0  progbar_skinflex.o(i._DrawBackground)
    _DrawBackground                          0x08015691   Thumb Code   254  progbar_skinflex.o(i._DrawBackground)
    i._DrawBitLine1BPP                       0x08015794   Section        0  guidev_16.o(i._DrawBitLine1BPP)
    _DrawBitLine1BPP                         0x08015795   Thumb Code   320  guidev_16.o(i._DrawBitLine1BPP)
    i._DrawBitLine1BPP                       0x080158dc   Section        0  guidev_32.o(i._DrawBitLine1BPP)
    _DrawBitLine1BPP                         0x080158dd   Thumb Code   276  guidev_32.o(i._DrawBitLine1BPP)
    i._DrawBitLine2BPP                       0x080159f8   Section        0  guidev_16.o(i._DrawBitLine2BPP)
    _DrawBitLine2BPP                         0x080159f9   Thumb Code   220  guidev_16.o(i._DrawBitLine2BPP)
    i._DrawBitLine2BPP                       0x08015ad8   Section        0  guidev_32.o(i._DrawBitLine2BPP)
    _DrawBitLine2BPP                         0x08015ad9   Thumb Code   218  guidev_32.o(i._DrawBitLine2BPP)
    i._DrawBitLine32BPP_DDB                  0x08015bb8   Section        0  guidev_32.o(i._DrawBitLine32BPP_DDB)
    _DrawBitLine32BPP_DDB                    0x08015bb9   Thumb Code   160  guidev_32.o(i._DrawBitLine32BPP_DDB)
    i._DrawBitLine4BPP                       0x08015c58   Section        0  guidev_16.o(i._DrawBitLine4BPP)
    _DrawBitLine4BPP                         0x08015c59   Thumb Code   346  guidev_16.o(i._DrawBitLine4BPP)
    i._DrawBitLine4BPP                       0x08015db8   Section        0  guidev_32.o(i._DrawBitLine4BPP)
    _DrawBitLine4BPP                         0x08015db9   Thumb Code   340  guidev_32.o(i._DrawBitLine4BPP)
    i._DrawBitmap                            0x08015f10   Section        0  guidev_16.o(i._DrawBitmap)
    _DrawBitmap                              0x08015f11   Thumb Code   664  guidev_16.o(i._DrawBitmap)
    i._DrawBitmap                            0x080161b0   Section        0  guidev_32.o(i._DrawBitmap)
    _DrawBitmap                              0x080161b1   Thumb Code   666  guidev_32.o(i._DrawBitmap)
    i._DrawDown                              0x08016454   Section        0  widget_effect_none.o(i._DrawDown)
    _DrawDown                                0x08016455   Thumb Code     2  widget_effect_none.o(i._DrawDown)
    i._DrawDown                              0x08016456   Section        0  widget_effect_simple.o(i._DrawDown)
    _DrawDown                                0x08016457   Thumb Code    16  widget_effect_simple.o(i._DrawDown)
    i._DrawDownRect                          0x08016466   Section        0  widget_effect_none.o(i._DrawDownRect)
    _DrawDownRect                            0x08016467   Thumb Code     2  widget_effect_none.o(i._DrawDownRect)
    i._DrawDownRect                          0x08016468   Section        0  widget_effect_simple.o(i._DrawDownRect)
    _DrawDownRect                            0x08016469   Thumb Code    50  widget_effect_simple.o(i._DrawDownRect)
    i._DrawFlat                              0x080164a0   Section        0  widget_effect_none.o(i._DrawFlat)
    _DrawFlat                                0x080164a1   Thumb Code     2  widget_effect_none.o(i._DrawFlat)
    i._DrawGradient                          0x080164a4   Section        0  gui_drawgradient.o(i._DrawGradient)
    _DrawGradient                            0x080164a5   Thumb Code   382  gui_drawgradient.o(i._DrawGradient)
    i._DrawHLine                             0x08016622   Section        0  guidev_16.o(i._DrawHLine)
    _DrawHLine                               0x08016623   Thumb Code    10  guidev_16.o(i._DrawHLine)
    i._DrawHLine                             0x0801662c   Section        0  guidev_32.o(i._DrawHLine)
    _DrawHLine                               0x0801662d   Thumb Code    10  guidev_32.o(i._DrawHLine)
    i._DrawLineEnd                           0x08016638   Section        0  gui_drawline.o(i._DrawLineEnd)
    _DrawLineEnd                             0x08016639   Thumb Code    16  gui_drawline.o(i._DrawLineEnd)
    i._DrawNext                              0x0801664c   Section        0  wm.o(i._DrawNext)
    _DrawNext                                0x0801664d   Thumb Code    82  wm.o(i._DrawNext)
    i._DrawShaftH                            0x080166a8   Section        0  slider_skinflex.o(i._DrawShaftH)
    _DrawShaftH                              0x080166a9   Thumb Code   122  slider_skinflex.o(i._DrawShaftH)
    i._DrawShaftV                            0x08016722   Section        0  slider_skinflex.o(i._DrawShaftV)
    _DrawShaftV                              0x08016723   Thumb Code   116  slider_skinflex.o(i._DrawShaftV)
    i._DrawThumbH                            0x08016796   Section        0  slider_skinflex.o(i._DrawThumbH)
    _DrawThumbH                              0x08016797   Thumb Code   256  slider_skinflex.o(i._DrawThumbH)
    i._DrawThumbV                            0x08016896   Section        0  slider_skinflex.o(i._DrawThumbV)
    _DrawThumbV                              0x08016897   Thumb Code   252  slider_skinflex.o(i._DrawThumbV)
    i._DrawTwinArc4                          0x08016994   Section        0  gui__drawtwinarc.o(i._DrawTwinArc4)
    _DrawTwinArc4                            0x08016995   Thumb Code   370  gui__drawtwinarc.o(i._DrawTwinArc4)
    i._DrawUp                                0x08016b06   Section        0  widget_effect_none.o(i._DrawUp)
    _DrawUp                                  0x08016b07   Thumb Code     2  widget_effect_none.o(i._DrawUp)
    i._DrawUp                                0x08016b08   Section        0  widget_effect_simple.o(i._DrawUp)
    _DrawUp                                  0x08016b09   Thumb Code    16  widget_effect_simple.o(i._DrawUp)
    i._DrawUpRect                            0x08016b18   Section        0  widget_effect_none.o(i._DrawUpRect)
    _DrawUpRect                              0x08016b19   Thumb Code     2  widget_effect_none.o(i._DrawUpRect)
    i._DrawUpRect                            0x08016b1c   Section        0  widget_effect_simple.o(i._DrawUpRect)
    _DrawUpRect                              0x08016b1d   Thumb Code    50  widget_effect_simple.o(i._DrawUpRect)
    i._DrawVLine                             0x08016b54   Section        0  guidev_16.o(i._DrawVLine)
    _DrawVLine                               0x08016b55   Thumb Code   180  guidev_16.o(i._DrawVLine)
    i._DrawVLine                             0x08016c0c   Section        0  guidev_32.o(i._DrawVLine)
    _DrawVLine                               0x08016c0d   Thumb Code   166  guidev_32.o(i._DrawVLine)
    i._EnlargeBlocks                         0x08016cb8   Section        0  gui_alloc.o(i._EnlargeBlocks)
    _EnlargeBlocks                           0x08016cb9   Thumb Code   146  gui_alloc.o(i._EnlargeBlocks)
    i._Exec1Input                            0x08016d50   Section        0  wm.o(i._Exec1Input)
    _Exec1Input                              0x08016d51   Thumb Code   108  wm.o(i._Exec1Input)
    i._FillRect                              0x08016dc8   Section        0  guidev_16.o(i._FillRect)
    _FillRect                                0x08016dc9   Thumb Code   166  guidev_16.o(i._FillRect)
    i._FillRect                              0x08016e74   Section        0  guidev_32.o(i._FillRect)
    _FillRect                                0x08016e75   Thumb Code   160  guidev_32.o(i._FillRect)
    i._FindNext_IVR                          0x08016f18   Section        0  wm.o(i._FindNext_IVR)
    _FindNext_IVR                            0x08016f19   Thumb Code   318  wm.o(i._FindNext_IVR)
    i._Findx0                                0x08017060   Section        0  wm.o(i._Findx0)
    _Findx0                                  0x08017061   Thumb Code   124  wm.o(i._Findx0)
    i._Findx1                                0x080170dc   Section        0  wm.o(i._Findx1)
    _Findx1                                  0x080170dd   Thumb Code   114  wm.o(i._Findx1)
    i._Findy1                                0x0801714e   Section        0  wm.o(i._Findy1)
    _Findy1                                  0x0801714f   Thumb Code   166  wm.o(i._Findy1)
    i._GUI_USAGE_BM_Delete                   0x080171f4   Section        0  guidev_usagebm.o(i._GUI_USAGE_BM_Delete)
    _GUI_USAGE_BM_Delete                     0x080171f5   Thumb Code     4  guidev_usagebm.o(i._GUI_USAGE_BM_Delete)
    i._GetDefaultWin                         0x080171f8   Section        0  wm_getwindowsize.o(i._GetDefaultWin)
    _GetDefaultWin                           0x080171f9   Thumb Code    10  wm_getwindowsize.o(i._GetDefaultWin)
    i._GetDevData                            0x08017204   Section        0  guidev_16.o(i._GetDevData)
    _GetDevData                              0x08017205   Thumb Code    12  guidev_16.o(i._GetDevData)
    i._GetDevData                            0x08017214   Section        0  guidev_32.o(i._GetDevData)
    _GetDevData                              0x08017215   Thumb Code    12  guidev_32.o(i._GetDevData)
    i._GetDevFunc                            0x08017224   Section        0  guidev_16.o(i._GetDevFunc)
    _GetDevFunc                              0x08017225   Thumb Code    12  guidev_16.o(i._GetDevFunc)
    i._GetDevFunc                            0x08017234   Section        0  guidev_32.o(i._GetDevFunc)
    _GetDevFunc                              0x08017235   Thumb Code    12  guidev_32.o(i._GetDevFunc)
    i._GetDevProp                            0x08017244   Section        0  lcd_getex.o(i._GetDevProp)
    _GetDevProp                              0x08017245   Thumb Code    30  lcd_getex.o(i._GetDevProp)
    i._GetDevProp                            0x08017262   Section        0  guidev_16.o(i._GetDevProp)
    _GetDevProp                              0x08017263   Thumb Code    16  guidev_16.o(i._GetDevProp)
    i._GetDevProp                            0x08017272   Section        0  guidev_32.o(i._GetDevProp)
    _GetDevProp                              0x08017273   Thumb Code    12  guidev_32.o(i._GetDevProp)
    i._GetDialogItem                         0x0801727e   Section        0  wm_getdialogitem.o(i._GetDialogItem)
    _GetDialogItem                           0x0801727f   Thumb Code    64  wm_getdialogitem.o(i._GetDialogItem)
    i._GetIndexMask_0                        0x080172be   Section        0  guicc_0.o(i._GetIndexMask_0)
    _GetIndexMask_0                          0x080172bf   Thumb Code    82  guicc_0.o(i._GetIndexMask_0)
    i._GetIndexMask_8888                     0x08017310   Section        0  guicc_8888.o(i._GetIndexMask_8888)
    _GetIndexMask_8888                       0x08017311   Thumb Code     6  guicc_8888.o(i._GetIndexMask_8888)
    i._GetIndexMask_M565                     0x08017316   Section        0  guicc_m565.o(i._GetIndexMask_M565)
    _GetIndexMask_M565                       0x08017317   Thumb Code     6  guicc_m565.o(i._GetIndexMask_M565)
    i._GetMaxValue                           0x0801731c   Section        0  lcd_getex.o(i._GetMaxValue)
    _GetMaxValue                             0x0801731d   Thumb Code    30  lcd_getex.o(i._GetMaxValue)
    i._GetMinIndex                           0x0801733c   Section        0  gui_alloc.o(i._GetMinIndex)
    _GetMinIndex                             0x0801733d   Thumb Code    24  gui_alloc.o(i._GetMinIndex)
    i._GetNextChild                          0x08017358   Section        0  wm_setfocusonnextchild.o(i._GetNextChild)
    _GetNextChild                            0x08017359   Thumb Code    34  wm_setfocusonnextchild.o(i._GetNextChild)
    i._GetPixelIndex                         0x0801737a   Section        0  guidev_16.o(i._GetPixelIndex)
    _GetPixelIndex                           0x0801737b   Thumb Code    14  guidev_16.o(i._GetPixelIndex)
    i._GetPixelIndex                         0x08017388   Section        0  guidev_32.o(i._GetPixelIndex)
    _GetPixelIndex                           0x08017389   Thumb Code    14  guidev_32.o(i._GetPixelIndex)
    i._GetPrevChild                          0x08017396   Section        0  wm_setfocusonprevchild.o(i._GetPrevChild)
    _GetPrevChild                            0x08017397   Thumb Code    26  wm_setfocusonprevchild.o(i._GetPrevChild)
    i._GetRect                               0x080173b0   Section        0  guidev_16.o(i._GetRect)
    _GetRect                                 0x080173b1   Thumb Code    48  guidev_16.o(i._GetRect)
    i._GetRect                               0x080173e0   Section        0  guidev_32.o(i._GetRect)
    _GetRect                                 0x080173e1   Thumb Code    48  guidev_32.o(i._GetRect)
    i._GetTaskNo                             0x08017410   Section        0  gui_task.o(i._GetTaskNo)
    _GetTaskNo                               0x08017411   Thumb Code    54  gui_task.o(i._GetTaskNo)
    i._GetTwinArcPara                        0x0801744c   Section        0  gui__drawtwinarc.o(i._GetTwinArcPara)
    _GetTwinArcPara                          0x0801744d   Thumb Code    84  gui__drawtwinarc.o(i._GetTwinArcPara)
    i._GotoX                                 0x080174a0   Section        0  gui_goto.o(i._GotoX)
    _GotoX                                   0x080174a1   Thumb Code    10  gui_goto.o(i._GotoX)
    i._GotoY                                 0x080174b0   Section        0  gui_goto.o(i._GotoY)
    _GotoY                                   0x080174b1   Thumb Code    10  gui_goto.o(i._GotoY)
    i._IncPointer                            0x080174c0   Section        0  gui_onkey.o(i._IncPointer)
    _IncPointer                              0x080174c1   Thumb Code    24  gui_onkey.o(i._IncPointer)
    i._IncReadPointer                        0x080174dc   Section        0  gui_onkey.o(i._IncReadPointer)
    _IncReadPointer                          0x080174dd   Thumb Code     6  gui_onkey.o(i._IncReadPointer)
    i._Index2ColorBulk                       0x080174e4   Section        0  guicc_m565.o(i._Index2ColorBulk)
    _Index2ColorBulk                         0x080174e5   Thumb Code    76  guicc_m565.o(i._Index2ColorBulk)
    i._Index2ColorBulk                       0x0801753c   Section        0  guicc_8888.o(i._Index2ColorBulk)
    _Index2ColorBulk                         0x0801753d   Thumb Code    14  guicc_8888.o(i._Index2ColorBulk)
    i._Index2Color_0                         0x0801754a   Section        0  guicc_0.o(i._Index2Color_0)
    _Index2Color_0                           0x0801754b   Thumb Code    32  guicc_0.o(i._Index2Color_0)
    i._InitContext                           0x0801756c   Section        0  gui_core.o(i._InitContext)
    _InitContext                             0x0801756d   Thumb Code   104  gui_core.o(i._InitContext)
    i._InitOnce                              0x080175e0   Section        0  gui_alloc.o(i._InitOnce)
    _InitOnce                                0x080175e1   Thumb Code   156  gui_alloc.o(i._InitOnce)
    i._Invalidate1Abs                        0x08017688   Section        0  wm.o(i._Invalidate1Abs)
    _Invalidate1Abs                          0x08017689   Thumb Code   122  wm.o(i._Invalidate1Abs)
    i._Log2VisBuffered                       0x08017708   Section        0  gui_charline.o(i._Log2VisBuffered)
    _Log2VisBuffered                         0x08017709   Thumb Code     2  gui_charline.o(i._Log2VisBuffered)
    i._Min                                   0x0801770a   Section        0  guidev_banding.o(i._Min)
    _Min                                     0x0801770b   Thumb Code     8  guidev_banding.o(i._Min)
    i._MoveDescendents                       0x08017712   Section        0  wm_move.o(i._MoveDescendents)
    _MoveDescendents                         0x08017713   Thumb Code   110  wm_move.o(i._MoveDescendents)
    i._OnButtonPressed                       0x08017780   Section        0  button.o(i._OnButtonPressed)
    _OnButtonPressed                         0x08017781   Thumb Code    44  button.o(i._OnButtonPressed)
    i._OnButtonReleased                      0x080177ac   Section        0  button.o(i._OnButtonReleased)
    _OnButtonReleased                        0x080177ad   Thumb Code    58  button.o(i._OnButtonReleased)
    i._OnExit                                0x080177e8   Section        0  gui_alloc.o(i._OnExit)
    _OnExit                                  0x080177e9   Thumb Code    48  gui_alloc.o(i._OnExit)
    i._OnExit                                0x0801781c   Section        0  gui_core.o(i._OnExit)
    _OnExit                                  0x0801781d   Thumb Code    34  gui_core.o(i._OnExit)
    i._OnExit                                0x08017848   Section        0  wm.o(i._OnExit)
    _OnExit                                  0x08017849   Thumb Code    48  wm.o(i._OnExit)
    i._OnExit                                0x0801787c   Section        0  gui_task.o(i._OnExit)
    _OnExit                                  0x0801787d   Thumb Code    16  gui_task.o(i._OnExit)
    i._OnExit                                0x08017890   Section        0  lcd_color.o(i._OnExit)
    _OnExit                                  0x08017891   Thumb Code    16  lcd_color.o(i._OnExit)
    i._OnExit                                0x080178a4   Section        0  gui__alpha.o(i._OnExit)
    _OnExit                                  0x080178a5   Thumb Code    36  gui__alpha.o(i._OnExit)
    i._OnTouch                               0x080178cc   Section        0  slider.o(i._OnTouch)
    _OnTouch                                 0x080178cd   Thumb Code   216  slider.o(i._OnTouch)
    i._OnTouchDefault                        0x080179a4   Section        0  button.o(i._OnTouchDefault)
    _OnTouchDefault                          0x080179a5   Thumb Code    64  button.o(i._OnTouchDefault)
    i._Paint                                 0x080179e4   Section        0  button_skin.o(i._Paint)
    _Paint                                   0x080179e5   Thumb Code   126  button_skin.o(i._Paint)
    i._Paint                                 0x08017a62   Section        0  progbar_skin.o(i._Paint)
    _Paint                                   0x08017a63   Thumb Code   320  progbar_skin.o(i._Paint)
    i._Paint                                 0x08017ba2   Section        0  slider_skin.o(i._Paint)
    _Paint                                   0x08017ba3   Thumb Code   422  slider_skin.o(i._Paint)
    i._Paint1                                0x08017d48   Section        0  wm.o(i._Paint1)
    _Paint1                                  0x08017d49   Thumb Code    28  wm.o(i._Paint1)
    i._Paint1Trans                           0x08017d6c   Section        0  wm.o(i._Paint1Trans)
    _Paint1Trans                             0x08017d6d   Thumb Code   130  wm.o(i._Paint1Trans)
    i._PaintTransChildren                    0x08017df8   Section        0  wm.o(i._PaintTransChildren)
    _PaintTransChildren                      0x08017df9   Thumb Code   154  wm.o(i._PaintTransChildren)
    i._PopFreeBlock                          0x08017e94   Section        0  gui_alloc.o(i._PopFreeBlock)
    _PopFreeBlock                            0x08017e95   Thumb Code    60  gui_alloc.o(i._PopFreeBlock)
    i._PushFreeBlock                         0x08017ed4   Section        0  gui_alloc.o(i._PushFreeBlock)
    _PushFreeBlock                           0x08017ed5   Thumb Code    34  gui_alloc.o(i._PushFreeBlock)
    i._RemoveFreeBlock                       0x08017efc   Section        0  gui_alloc.o(i._RemoveFreeBlock)
    _RemoveFreeBlock                         0x08017efd   Thumb Code    48  gui_alloc.o(i._RemoveFreeBlock)
    i._RemoveFromLinList                     0x08017f30   Section        0  gui_timer.o(i._RemoveFromLinList)
    _RemoveFromLinList                       0x08017f31   Thumb Code    86  gui_timer.o(i._RemoveFromLinList)
    i._RemoveHoles                           0x08017f8c   Section        0  gui_alloc.o(i._RemoveHoles)
    _RemoveHoles                             0x08017f8d   Thumb Code   156  gui_alloc.o(i._RemoveHoles)
    i._SetBkColor                            0x0801802c   Section        0  lcd.o(i._SetBkColor)
    _SetBkColor                              0x0801802d   Thumb Code    28  lcd.o(i._SetBkColor)
    i._SetClipRectUserIntersect              0x0801804c   Section        0  wm.o(i._SetClipRectUserIntersect)
    _SetClipRectUserIntersect                0x0801804d   Thumb Code    68  wm.o(i._SetClipRectUserIntersect)
    i._SetColor                              0x08018098   Section        0  lcd.o(i._SetColor)
    _SetColor                                0x08018099   Thumb Code    28  lcd.o(i._SetColor)
    i._SetDrawMode                           0x080180b8   Section        0  lcd.o(i._SetDrawMode)
    _SetDrawMode                             0x080180b9   Thumb Code    40  lcd.o(i._SetDrawMode)
    i._SetFocusOnNextChild                   0x080180e4   Section        0  wm_setfocusonnextchild.o(i._SetFocusOnNextChild)
    _SetFocusOnNextChild                     0x080180e5   Thumb Code    90  wm_setfocusonnextchild.o(i._SetFocusOnNextChild)
    i._SetLineColor                          0x08018144   Section        0  gui_drawline.o(i._SetLineColor)
    _SetLineColor                            0x08018145   Thumb Code   116  gui_drawline.o(i._SetLineColor)
    i._SetOrg                                0x080181bc   Section        0  guidev_16.o(i._SetOrg)
    _SetOrg                                  0x080181bd   Thumb Code    14  guidev_16.o(i._SetOrg)
    i._SetOrg                                0x080181ca   Section        0  guidev_32.o(i._SetOrg)
    _SetOrg                                  0x080181cb   Thumb Code     8  guidev_32.o(i._SetOrg)
    i._SetPixelIndex                         0x080181d4   Section        0  guidev_16.o(i._SetPixelIndex)
    _SetPixelIndex                           0x080181d5   Thumb Code    66  guidev_16.o(i._SetPixelIndex)
    i._SetPixelIndex                         0x0801821c   Section        0  guidev_32.o(i._SetPixelIndex)
    _SetPixelIndex                           0x0801821d   Thumb Code    66  guidev_32.o(i._SetPixelIndex)
    i._SetValue                              0x08018264   Section        0  progbar.o(i._SetValue)
    _SetValue                                0x08018265   Thumb Code    44  progbar.o(i._SetValue)
    i._TestRAM                               0x08018290   Section        0  gui_alloc.o(i._TestRAM)
    _TestRAM                                 0x08018291   Thumb Code   234  gui_alloc.o(i._TestRAM)
    i._Unlink                                0x0801837c   Section        0  gui_timer.o(i._Unlink)
    _Unlink                                  0x0801837d   Thumb Code    74  gui_timer.o(i._Unlink)
    i._WriteTagData                          0x080183cc   Section        0  gui_alloc.o(i._WriteTagData)
    _WriteTagData                            0x080183cd   Thumb Code    14  gui_alloc.o(i._WriteTagData)
    i._WriteToActiveOpaque_8                 0x080183dc   Section        0  guidev_writetoactiveopaque.o(i._WriteToActiveOpaque_8)
    _WriteToActiveOpaque_8                   0x080183dd   Thumb Code   824  guidev_writetoactiveopaque.o(i._WriteToActiveOpaque_8)
    i._WriteToActiveOpaque_HT                0x0801871c   Section        0  guidev_writetoactiveopaque.o(i._WriteToActiveOpaque_HT)
    _WriteToActiveOpaque_HT                  0x0801871d   Thumb Code   826  guidev_writetoactiveopaque.o(i._WriteToActiveOpaque_HT)
    i._XY2PTR                                0x08018a60   Section        0  guidev_16.o(i._XY2PTR)
    _XY2PTR                                  0x08018a61   Thumb Code    56  guidev_16.o(i._XY2PTR)
    i._XY2PTR                                0x08018a9c   Section        0  guidev_32.o(i._XY2PTR)
    _XY2PTR                                  0x08018a9d   Thumb Code    56  guidev_32.o(i._XY2PTR)
    i._XorPixel                              0x08018ad8   Section        0  guidev_16.o(i._XorPixel)
    _XorPixel                                0x08018ad9   Thumb Code    78  guidev_16.o(i._XorPixel)
    i._XorPixel                              0x08018b2c   Section        0  guidev_32.o(i._XorPixel)
    _XorPixel                                0x08018b2d   Thumb Code    82  guidev_32.o(i._XorPixel)
    i.__0snprintf$4                          0x08018b84   Section        0  printf4.o(i.__0snprintf$4)
    i.__0vsnprintf                           0x08018bac   Section        0  printfa.o(i.__0vsnprintf)
    i.__scatterload_copy                     0x08018bd0   Section       14  handlers.o(i.__scatterload_copy)
    i.__scatterload_null                     0x08018bde   Section        2  handlers.o(i.__scatterload_null)
    i.__scatterload_zeroinit                 0x08018be0   Section       14  handlers.o(i.__scatterload_zeroinit)
    i._atan2                                 0x08018bf0   Section        0  gui_drawline.o(i._atan2)
    _atan2                                   0x08018bf1   Thumb Code   126  gui_drawline.o(i._atan2)
    i._cbBackWin                             0x08018c74   Section        0  wm.o(i._cbBackWin)
    _cbBackWin                               0x08018c75   Thumb Code    74  wm.o(i._cbBackWin)
    i._cbInvalidateOne                       0x08018cc4   Section        0  wm_bringtotop.o(i._cbInvalidateOne)
    _cbInvalidateOne                         0x08018cc5   Thumb Code     4  wm_bringtotop.o(i._cbInvalidateOne)
    i._cbPaintMemDev                         0x08018cc8   Section        0  wm.o(i._cbPaintMemDev)
    _cbPaintMemDev                           0x08018cc9   Thumb Code    64  wm.o(i._cbPaintMemDev)
    i._fp_digits                             0x08018d0c   Section        0  printfa.o(i._fp_digits)
    _fp_digits                               0x08018d0d   Thumb Code   326  printfa.o(i._fp_digits)
    i._printf_core                           0x08018e68   Section        0  printf4.o(i._printf_core)
    _printf_core                             0x08018e69   Thumb Code   548  printf4.o(i._printf_core)
    i._printf_core                           0x08019090   Section        0  printfa.o(i._printf_core)
    _printf_core                             0x08019091   Thumb Code  1762  printfa.o(i._printf_core)
    i._printf_post_padding                   0x08019780   Section        0  printfa.o(i._printf_post_padding)
    _printf_post_padding                     0x08019781   Thumb Code    38  printfa.o(i._printf_post_padding)
    i._printf_pre_padding                    0x080197a6   Section        0  printfa.o(i._printf_pre_padding)
    _printf_pre_padding                      0x080197a7   Thumb Code    48  printfa.o(i._printf_pre_padding)
    i._snputc                                0x080197d6   Section        0  printf4.o(i._snputc)
    _snputc                                  0x080197d7   Thumb Code    22  printf4.o(i._snputc)
    i._snputc                                0x080197ec   Section        0  printfa.o(i._snputc)
    _snputc                                  0x080197ed   Thumb Code    22  printfa.o(i._snputc)
    i.emWin_LCD_Init                         0x08019802   Section        0  lcd.o(i.emWin_LCD_Init)
    .constdata                               0x0801988c   Section      308  emwindemo.o(.constdata)
    _aDialogCreate1                          0x0801988c   Data          84  emwindemo.o(.constdata)
    _aDialogCreate2                          0x080198e0   Data         112  emwindemo.o(.constdata)
    _aDialogCreate3                          0x08019950   Data         112  emwindemo.o(.constdata)
    .constdata                               0x080199c0   Section       11  param.o(.constdata)
    __FUNCTION__                             0x080199c0   Data          11  param.o(.constdata)
    .constdata                               0x080199cb   Section      256  utils.o(.constdata)
    .constdata                               0x08019acb   Section      512  crc16.o(.constdata)
    .constdata                               0x08019ccb   Section     6080  ili93xx.o(.constdata)
    .constdata                               0x0801b48c   Section       28  stm32f4xx_fsmc.o(.constdata)
    .constdata                               0x0801b4a8   Section       52  guidrv_template.o(.constdata)
    .constdata                               0x0801b4dc   Section      129  elog.o(.constdata)
    __FUNCTION__                             0x0801b4dc   Data          24  elog.o(.constdata)
    __FUNCTION__                             0x0801b4f4   Data          13  elog.o(.constdata)
    __FUNCTION__                             0x0801b501   Data          16  elog.o(.constdata)
    __FUNCTION__                             0x0801b511   Data          20  elog.o(.constdata)
    __FUNCTION__                             0x0801b525   Data          12  elog.o(.constdata)
    __FUNCTION__                             0x0801b531   Data          16  elog.o(.constdata)
    __FUNCTION__                             0x0801b541   Data          14  elog.o(.constdata)
    __FUNCTION__                             0x0801b54f   Data          14  elog.o(.constdata)
    .constdata                               0x0801b55d   Section       35  elog_utils.o(.constdata)
    __FUNCTION__                             0x0801b55d   Data          12  elog_utils.o(.constdata)
    __FUNCTION__                             0x0801b569   Data          11  elog_utils.o(.constdata)
    __FUNCTION__                             0x0801b574   Data          12  elog_utils.o(.constdata)
    .constdata                               0x0801b580   Section      112  gui_fonthz12.o(.constdata)
    .constdata                               0x0801b5f0   Section      112  gui_fonthz16.o(.constdata)
    .constdata                               0x0801b660   Section      112  gui_fonthz24.o(.constdata)
    .constdata                               0x0801b6d0   Section       32  gui_uc_encodenone.o(.constdata)
    .constdata                               0x0801b6f0   Section    13300  guicharpex.o(.constdata)
    .constdata                               0x0801eae4   Section      112  gui_fonthz32.o(.constdata)
    .constdata                               0x0801eb54   Section        8  gui_core.o(.constdata)
    _HL_APIList                              0x0801eb54   Data           8  gui_core.o(.constdata)
    .constdata                               0x0801eb5c   Section       24  guicc_m565.o(.constdata)
    .constdata                               0x0801eb74   Section       12  lcd.o(.constdata)
    _SetColorAPI                             0x0801eb74   Data          12  lcd.o(.constdata)
    .constdata                               0x0801eb80   Section     1304  f6x8.o(.constdata)
    GUI_acFont6x8                            0x0801eb80   Data        1304  f6x8.o(.constdata)
    .constdata                               0x0801f098   Section      448  f6x8.o(.constdata)
    GUI_F6x8_TL8859_1                        0x0801f098   Data         448  f6x8.o(.constdata)
    .constdata                               0x0801f258   Section        8  f6x8.o(.constdata)
    GUI_F6x8_TI8859_1                        0x0801f258   Data           8  f6x8.o(.constdata)
    .constdata                               0x0801f260   Section       20  f6x8.o(.constdata)
    GUI_F6x8_Mono                            0x0801f260   Data          20  f6x8.o(.constdata)
    .constdata                               0x0801f274   Section       36  f6x8.o(.constdata)
    .constdata                               0x0801f298   Section       16  f16_1.o(.constdata)
    acFont16_1_160                           0x0801f298   Data          16  f16_1.o(.constdata)
    .constdata                               0x0801f2a8   Section       16  f16_1.o(.constdata)
    acFont16_1_161                           0x0801f2a8   Data          16  f16_1.o(.constdata)
    .constdata                               0x0801f2b8   Section       16  f16_1.o(.constdata)
    acFont16_1_162                           0x0801f2b8   Data          16  f16_1.o(.constdata)
    .constdata                               0x0801f2c8   Section       16  f16_1.o(.constdata)
    acFont16_1_163                           0x0801f2c8   Data          16  f16_1.o(.constdata)
    .constdata                               0x0801f2d8   Section       16  f16_1.o(.constdata)
    acFont16_1_164                           0x0801f2d8   Data          16  f16_1.o(.constdata)
    .constdata                               0x0801f2e8   Section       16  f16_1.o(.constdata)
    acFont16_1_165                           0x0801f2e8   Data          16  f16_1.o(.constdata)
    .constdata                               0x0801f2f8   Section       16  f16_1.o(.constdata)
    acFont16_1_166                           0x0801f2f8   Data          16  f16_1.o(.constdata)
    .constdata                               0x0801f308   Section       16  f16_1.o(.constdata)
    acFont16_1_167                           0x0801f308   Data          16  f16_1.o(.constdata)
    .constdata                               0x0801f318   Section       16  f16_1.o(.constdata)
    acFont16_1_168                           0x0801f318   Data          16  f16_1.o(.constdata)
    .constdata                               0x0801f328   Section       32  f16_1.o(.constdata)
    acFont16_1_169                           0x0801f328   Data          32  f16_1.o(.constdata)
    .constdata                               0x0801f348   Section       16  f16_1.o(.constdata)
    acFont16_1_170                           0x0801f348   Data          16  f16_1.o(.constdata)
    .constdata                               0x0801f358   Section       16  f16_1.o(.constdata)
    acFont16_1_171                           0x0801f358   Data          16  f16_1.o(.constdata)
    .constdata                               0x0801f368   Section       16  f16_1.o(.constdata)
    acFont16_1_172                           0x0801f368   Data          16  f16_1.o(.constdata)
    .constdata                               0x0801f378   Section       16  f16_1.o(.constdata)
    acFont16_1_173                           0x0801f378   Data          16  f16_1.o(.constdata)
    .constdata                               0x0801f388   Section       32  f16_1.o(.constdata)
    acFont16_1_174                           0x0801f388   Data          32  f16_1.o(.constdata)
    .constdata                               0x0801f3a8   Section       16  f16_1.o(.constdata)
    acFont16_1_175                           0x0801f3a8   Data          16  f16_1.o(.constdata)
    .constdata                               0x0801f3b8   Section       16  f16_1.o(.constdata)
    acFont16_1_176                           0x0801f3b8   Data          16  f16_1.o(.constdata)
    .constdata                               0x0801f3c8   Section       16  f16_1.o(.constdata)
    acFont16_1_177                           0x0801f3c8   Data          16  f16_1.o(.constdata)
    .constdata                               0x0801f3d8   Section       16  f16_1.o(.constdata)
    acFont16_1_178                           0x0801f3d8   Data          16  f16_1.o(.constdata)
    .constdata                               0x0801f3e8   Section       16  f16_1.o(.constdata)
    acFont16_1_179                           0x0801f3e8   Data          16  f16_1.o(.constdata)
    .constdata                               0x0801f3f8   Section       16  f16_1.o(.constdata)
    acFont16_1_180                           0x0801f3f8   Data          16  f16_1.o(.constdata)
    .constdata                               0x0801f408   Section       16  f16_1.o(.constdata)
    acFont16_1_181                           0x0801f408   Data          16  f16_1.o(.constdata)
    .constdata                               0x0801f418   Section       16  f16_1.o(.constdata)
    acFont16_1_182                           0x0801f418   Data          16  f16_1.o(.constdata)
    .constdata                               0x0801f428   Section       16  f16_1.o(.constdata)
    acFont16_1_183                           0x0801f428   Data          16  f16_1.o(.constdata)
    .constdata                               0x0801f438   Section       16  f16_1.o(.constdata)
    acFont16_1_184                           0x0801f438   Data          16  f16_1.o(.constdata)
    .constdata                               0x0801f448   Section       16  f16_1.o(.constdata)
    acFont16_1_185                           0x0801f448   Data          16  f16_1.o(.constdata)
    .constdata                               0x0801f458   Section       16  f16_1.o(.constdata)
    acFont16_1_186                           0x0801f458   Data          16  f16_1.o(.constdata)
    .constdata                               0x0801f468   Section       16  f16_1.o(.constdata)
    acFont16_1_187                           0x0801f468   Data          16  f16_1.o(.constdata)
    .constdata                               0x0801f478   Section       32  f16_1.o(.constdata)
    acFont16_1_188                           0x0801f478   Data          32  f16_1.o(.constdata)
    .constdata                               0x0801f498   Section       32  f16_1.o(.constdata)
    acFont16_1_189                           0x0801f498   Data          32  f16_1.o(.constdata)
    .constdata                               0x0801f4b8   Section       32  f16_1.o(.constdata)
    acFont16_1_190                           0x0801f4b8   Data          32  f16_1.o(.constdata)
    .constdata                               0x0801f4d8   Section       16  f16_1.o(.constdata)
    acFont16_1_191                           0x0801f4d8   Data          16  f16_1.o(.constdata)
    .constdata                               0x0801f4e8   Section       32  f16_1.o(.constdata)
    acFont16_1_192                           0x0801f4e8   Data          32  f16_1.o(.constdata)
    .constdata                               0x0801f508   Section       32  f16_1.o(.constdata)
    acFont16_1_193                           0x0801f508   Data          32  f16_1.o(.constdata)
    .constdata                               0x0801f528   Section       32  f16_1.o(.constdata)
    acFont16_1_194                           0x0801f528   Data          32  f16_1.o(.constdata)
    .constdata                               0x0801f548   Section       32  f16_1.o(.constdata)
    acFont16_1_195                           0x0801f548   Data          32  f16_1.o(.constdata)
    .constdata                               0x0801f568   Section       32  f16_1.o(.constdata)
    acFont16_1_196                           0x0801f568   Data          32  f16_1.o(.constdata)
    .constdata                               0x0801f588   Section       32  f16_1.o(.constdata)
    acFont16_1_197                           0x0801f588   Data          32  f16_1.o(.constdata)
    .constdata                               0x0801f5a8   Section       32  f16_1.o(.constdata)
    acFont16_1_198                           0x0801f5a8   Data          32  f16_1.o(.constdata)
    .constdata                               0x0801f5c8   Section       32  f16_1.o(.constdata)
    acFont16_1_199                           0x0801f5c8   Data          32  f16_1.o(.constdata)
    .constdata                               0x0801f5e8   Section       32  f16_1.o(.constdata)
    acFont16_1_200                           0x0801f5e8   Data          32  f16_1.o(.constdata)
    .constdata                               0x0801f608   Section       32  f16_1.o(.constdata)
    acFont16_1_201                           0x0801f608   Data          32  f16_1.o(.constdata)
    .constdata                               0x0801f628   Section       32  f16_1.o(.constdata)
    acFont16_1_202                           0x0801f628   Data          32  f16_1.o(.constdata)
    .constdata                               0x0801f648   Section       32  f16_1.o(.constdata)
    acFont16_1_203                           0x0801f648   Data          32  f16_1.o(.constdata)
    .constdata                               0x0801f668   Section       16  f16_1.o(.constdata)
    acFont16_1_204                           0x0801f668   Data          16  f16_1.o(.constdata)
    .constdata                               0x0801f678   Section       16  f16_1.o(.constdata)
    acFont16_1_205                           0x0801f678   Data          16  f16_1.o(.constdata)
    .constdata                               0x0801f688   Section       16  f16_1.o(.constdata)
    acFont16_1_206                           0x0801f688   Data          16  f16_1.o(.constdata)
    .constdata                               0x0801f698   Section       16  f16_1.o(.constdata)
    acFont16_1_207                           0x0801f698   Data          16  f16_1.o(.constdata)
    .constdata                               0x0801f6a8   Section       32  f16_1.o(.constdata)
    acFont16_1_208                           0x0801f6a8   Data          32  f16_1.o(.constdata)
    .constdata                               0x0801f6c8   Section       32  f16_1.o(.constdata)
    acFont16_1_209                           0x0801f6c8   Data          32  f16_1.o(.constdata)
    .constdata                               0x0801f6e8   Section       32  f16_1.o(.constdata)
    acFont16_1_210                           0x0801f6e8   Data          32  f16_1.o(.constdata)
    .constdata                               0x0801f708   Section       32  f16_1.o(.constdata)
    acFont16_1_211                           0x0801f708   Data          32  f16_1.o(.constdata)
    .constdata                               0x0801f728   Section       32  f16_1.o(.constdata)
    acFont16_1_212                           0x0801f728   Data          32  f16_1.o(.constdata)
    .constdata                               0x0801f748   Section       32  f16_1.o(.constdata)
    acFont16_1_213                           0x0801f748   Data          32  f16_1.o(.constdata)
    .constdata                               0x0801f768   Section       32  f16_1.o(.constdata)
    acFont16_1_214                           0x0801f768   Data          32  f16_1.o(.constdata)
    .constdata                               0x0801f788   Section       16  f16_1.o(.constdata)
    acFont16_1_215                           0x0801f788   Data          16  f16_1.o(.constdata)
    .constdata                               0x0801f798   Section       32  f16_1.o(.constdata)
    acFont16_1_216                           0x0801f798   Data          32  f16_1.o(.constdata)
    .constdata                               0x0801f7b8   Section       32  f16_1.o(.constdata)
    acFont16_1_217                           0x0801f7b8   Data          32  f16_1.o(.constdata)
    .constdata                               0x0801f7d8   Section       32  f16_1.o(.constdata)
    acFont16_1_218                           0x0801f7d8   Data          32  f16_1.o(.constdata)
    .constdata                               0x0801f7f8   Section       32  f16_1.o(.constdata)
    acFont16_1_219                           0x0801f7f8   Data          32  f16_1.o(.constdata)
    .constdata                               0x0801f818   Section       32  f16_1.o(.constdata)
    acFont16_1_220                           0x0801f818   Data          32  f16_1.o(.constdata)
    .constdata                               0x0801f838   Section       32  f16_1.o(.constdata)
    acFont16_1_221                           0x0801f838   Data          32  f16_1.o(.constdata)
    .constdata                               0x0801f858   Section       32  f16_1.o(.constdata)
    acFont16_1_222                           0x0801f858   Data          32  f16_1.o(.constdata)
    .constdata                               0x0801f878   Section       32  f16_1.o(.constdata)
    acFont16_1_223                           0x0801f878   Data          32  f16_1.o(.constdata)
    .constdata                               0x0801f898   Section       16  f16_1.o(.constdata)
    acFont16_1_224                           0x0801f898   Data          16  f16_1.o(.constdata)
    .constdata                               0x0801f8a8   Section       16  f16_1.o(.constdata)
    acFont16_1_225                           0x0801f8a8   Data          16  f16_1.o(.constdata)
    .constdata                               0x0801f8b8   Section       16  f16_1.o(.constdata)
    acFont16_1_226                           0x0801f8b8   Data          16  f16_1.o(.constdata)
    .constdata                               0x0801f8c8   Section       16  f16_1.o(.constdata)
    acFont16_1_227                           0x0801f8c8   Data          16  f16_1.o(.constdata)
    .constdata                               0x0801f8d8   Section       16  f16_1.o(.constdata)
    acFont16_1_228                           0x0801f8d8   Data          16  f16_1.o(.constdata)
    .constdata                               0x0801f8e8   Section       16  f16_1.o(.constdata)
    acFont16_1_229                           0x0801f8e8   Data          16  f16_1.o(.constdata)
    .constdata                               0x0801f8f8   Section       32  f16_1.o(.constdata)
    acFont16_1_230                           0x0801f8f8   Data          32  f16_1.o(.constdata)
    .constdata                               0x0801f918   Section       16  f16_1.o(.constdata)
    acFont16_1_231                           0x0801f918   Data          16  f16_1.o(.constdata)
    .constdata                               0x0801f928   Section       16  f16_1.o(.constdata)
    acFont16_1_232                           0x0801f928   Data          16  f16_1.o(.constdata)
    .constdata                               0x0801f938   Section       16  f16_1.o(.constdata)
    acFont16_1_233                           0x0801f938   Data          16  f16_1.o(.constdata)
    .constdata                               0x0801f948   Section       16  f16_1.o(.constdata)
    acFont16_1_234                           0x0801f948   Data          16  f16_1.o(.constdata)
    .constdata                               0x0801f958   Section       16  f16_1.o(.constdata)
    acFont16_1_235                           0x0801f958   Data          16  f16_1.o(.constdata)
    .constdata                               0x0801f968   Section       16  f16_1.o(.constdata)
    acFont16_1_236                           0x0801f968   Data          16  f16_1.o(.constdata)
    .constdata                               0x0801f978   Section       16  f16_1.o(.constdata)
    acFont16_1_237                           0x0801f978   Data          16  f16_1.o(.constdata)
    .constdata                               0x0801f988   Section       16  f16_1.o(.constdata)
    acFont16_1_238                           0x0801f988   Data          16  f16_1.o(.constdata)
    .constdata                               0x0801f998   Section       16  f16_1.o(.constdata)
    acFont16_1_239                           0x0801f998   Data          16  f16_1.o(.constdata)
    .constdata                               0x0801f9a8   Section       16  f16_1.o(.constdata)
    acFont16_1_240                           0x0801f9a8   Data          16  f16_1.o(.constdata)
    .constdata                               0x0801f9b8   Section       16  f16_1.o(.constdata)
    acFont16_1_241                           0x0801f9b8   Data          16  f16_1.o(.constdata)
    .constdata                               0x0801f9c8   Section       16  f16_1.o(.constdata)
    acFont16_1_242                           0x0801f9c8   Data          16  f16_1.o(.constdata)
    .constdata                               0x0801f9d8   Section       16  f16_1.o(.constdata)
    acFont16_1_243                           0x0801f9d8   Data          16  f16_1.o(.constdata)
    .constdata                               0x0801f9e8   Section       16  f16_1.o(.constdata)
    acFont16_1_244                           0x0801f9e8   Data          16  f16_1.o(.constdata)
    .constdata                               0x0801f9f8   Section       16  f16_1.o(.constdata)
    acFont16_1_245                           0x0801f9f8   Data          16  f16_1.o(.constdata)
    .constdata                               0x0801fa08   Section       16  f16_1.o(.constdata)
    acFont16_1_246                           0x0801fa08   Data          16  f16_1.o(.constdata)
    .constdata                               0x0801fa18   Section       16  f16_1.o(.constdata)
    acFont16_1_247                           0x0801fa18   Data          16  f16_1.o(.constdata)
    .constdata                               0x0801fa28   Section       16  f16_1.o(.constdata)
    acFont16_1_248                           0x0801fa28   Data          16  f16_1.o(.constdata)
    .constdata                               0x0801fa38   Section       16  f16_1.o(.constdata)
    acFont16_1_249                           0x0801fa38   Data          16  f16_1.o(.constdata)
    .constdata                               0x0801fa48   Section       16  f16_1.o(.constdata)
    acFont16_1_250                           0x0801fa48   Data          16  f16_1.o(.constdata)
    .constdata                               0x0801fa58   Section       16  f16_1.o(.constdata)
    acFont16_1_251                           0x0801fa58   Data          16  f16_1.o(.constdata)
    .constdata                               0x0801fa68   Section       16  f16_1.o(.constdata)
    acFont16_1_252                           0x0801fa68   Data          16  f16_1.o(.constdata)
    .constdata                               0x0801fa78   Section       16  f16_1.o(.constdata)
    acFont16_1_253                           0x0801fa78   Data          16  f16_1.o(.constdata)
    .constdata                               0x0801fa88   Section       16  f16_1.o(.constdata)
    acFont16_1_254                           0x0801fa88   Data          16  f16_1.o(.constdata)
    .constdata                               0x0801fa98   Section       16  f16_1.o(.constdata)
    acFont16_1_255                           0x0801fa98   Data          16  f16_1.o(.constdata)
    .constdata                               0x0801faa8   Section      768  f16_1.o(.constdata)
    GUI_CharInfo_Font16_1                    0x0801faa8   Data         768  f16_1.o(.constdata)
    .constdata                               0x0801fda8   Section       12  f16_1.o(.constdata)
    .constdata                               0x0801fdb4   Section       36  f16_1.o(.constdata)
    .constdata                               0x0801fdd8   Section       20  f20_1.o(.constdata)
    acGUI_Font20_1_00A0                      0x0801fdd8   Data          20  f20_1.o(.constdata)
    .constdata                               0x0801fdec   Section       20  f20_1.o(.constdata)
    acGUI_Font20_1_00A1                      0x0801fdec   Data          20  f20_1.o(.constdata)
    .constdata                               0x0801fe00   Section       40  f20_1.o(.constdata)
    acGUI_Font20_1_00A2                      0x0801fe00   Data          40  f20_1.o(.constdata)
    .constdata                               0x0801fe28   Section       40  f20_1.o(.constdata)
    acGUI_Font20_1_00A3                      0x0801fe28   Data          40  f20_1.o(.constdata)
    .constdata                               0x0801fe50   Section       40  f20_1.o(.constdata)
    acGUI_Font20_1_00A4                      0x0801fe50   Data          40  f20_1.o(.constdata)
    .constdata                               0x0801fe78   Section       40  f20_1.o(.constdata)
    acGUI_Font20_1_00A5                      0x0801fe78   Data          40  f20_1.o(.constdata)
    .constdata                               0x0801fea0   Section       20  f20_1.o(.constdata)
    acGUI_Font20_1_00A6                      0x0801fea0   Data          20  f20_1.o(.constdata)
    .constdata                               0x0801feb4   Section       40  f20_1.o(.constdata)
    acGUI_Font20_1_00A7                      0x0801feb4   Data          40  f20_1.o(.constdata)
    .constdata                               0x0801fedc   Section       20  f20_1.o(.constdata)
    acGUI_Font20_1_00A8                      0x0801fedc   Data          20  f20_1.o(.constdata)
    .constdata                               0x0801fef0   Section       40  f20_1.o(.constdata)
    acGUI_Font20_1_00A9                      0x0801fef0   Data          40  f20_1.o(.constdata)
    .constdata                               0x0801ff18   Section       20  f20_1.o(.constdata)
    acGUI_Font20_1_00AA                      0x0801ff18   Data          20  f20_1.o(.constdata)
    .constdata                               0x0801ff2c   Section       40  f20_1.o(.constdata)
    acGUI_Font20_1_00AB                      0x0801ff2c   Data          40  f20_1.o(.constdata)
    .constdata                               0x0801ff54   Section       40  f20_1.o(.constdata)
    acGUI_Font20_1_00AC                      0x0801ff54   Data          40  f20_1.o(.constdata)
    .constdata                               0x0801ff7c   Section       20  f20_1.o(.constdata)
    acGUI_Font20_1_00AD                      0x0801ff7c   Data          20  f20_1.o(.constdata)
    .constdata                               0x0801ff90   Section       40  f20_1.o(.constdata)
    acGUI_Font20_1_00AE                      0x0801ff90   Data          40  f20_1.o(.constdata)
    .constdata                               0x0801ffb8   Section       40  f20_1.o(.constdata)
    acGUI_Font20_1_00AF                      0x0801ffb8   Data          40  f20_1.o(.constdata)
    .constdata                               0x0801ffe0   Section       20  f20_1.o(.constdata)
    acGUI_Font20_1_00B0                      0x0801ffe0   Data          20  f20_1.o(.constdata)
    .constdata                               0x0801fff4   Section       40  f20_1.o(.constdata)
    acGUI_Font20_1_00B1                      0x0801fff4   Data          40  f20_1.o(.constdata)
    .constdata                               0x0802001c   Section       20  f20_1.o(.constdata)
    acGUI_Font20_1_00B2                      0x0802001c   Data          20  f20_1.o(.constdata)
    .constdata                               0x08020030   Section       20  f20_1.o(.constdata)
    acGUI_Font20_1_00B3                      0x08020030   Data          20  f20_1.o(.constdata)
    .constdata                               0x08020044   Section       20  f20_1.o(.constdata)
    acGUI_Font20_1_00B4                      0x08020044   Data          20  f20_1.o(.constdata)
    .constdata                               0x08020058   Section       40  f20_1.o(.constdata)
    acGUI_Font20_1_00B5                      0x08020058   Data          40  f20_1.o(.constdata)
    .constdata                               0x08020080   Section       40  f20_1.o(.constdata)
    acGUI_Font20_1_00B6                      0x08020080   Data          40  f20_1.o(.constdata)
    .constdata                               0x080200a8   Section       20  f20_1.o(.constdata)
    acGUI_Font20_1_00B7                      0x080200a8   Data          20  f20_1.o(.constdata)
    .constdata                               0x080200bc   Section       20  f20_1.o(.constdata)
    acGUI_Font20_1_00B8                      0x080200bc   Data          20  f20_1.o(.constdata)
    .constdata                               0x080200d0   Section       20  f20_1.o(.constdata)
    acGUI_Font20_1_00B9                      0x080200d0   Data          20  f20_1.o(.constdata)
    .constdata                               0x080200e4   Section       20  f20_1.o(.constdata)
    acGUI_Font20_1_00BA                      0x080200e4   Data          20  f20_1.o(.constdata)
    .constdata                               0x080200f8   Section       40  f20_1.o(.constdata)
    acGUI_Font20_1_00BB                      0x080200f8   Data          40  f20_1.o(.constdata)
    .constdata                               0x08020120   Section       40  f20_1.o(.constdata)
    acGUI_Font20_1_00BC                      0x08020120   Data          40  f20_1.o(.constdata)
    .constdata                               0x08020148   Section       40  f20_1.o(.constdata)
    acGUI_Font20_1_00BD                      0x08020148   Data          40  f20_1.o(.constdata)
    .constdata                               0x08020170   Section       40  f20_1.o(.constdata)
    acGUI_Font20_1_00BE                      0x08020170   Data          40  f20_1.o(.constdata)
    .constdata                               0x08020198   Section       40  f20_1.o(.constdata)
    acGUI_Font20_1_00BF                      0x08020198   Data          40  f20_1.o(.constdata)
    .constdata                               0x080201c0   Section       40  f20_1.o(.constdata)
    acGUI_Font20_1_00C0                      0x080201c0   Data          40  f20_1.o(.constdata)
    .constdata                               0x080201e8   Section       40  f20_1.o(.constdata)
    acGUI_Font20_1_00C1                      0x080201e8   Data          40  f20_1.o(.constdata)
    .constdata                               0x08020210   Section       40  f20_1.o(.constdata)
    acGUI_Font20_1_00C2                      0x08020210   Data          40  f20_1.o(.constdata)
    .constdata                               0x08020238   Section       40  f20_1.o(.constdata)
    acGUI_Font20_1_00C3                      0x08020238   Data          40  f20_1.o(.constdata)
    .constdata                               0x08020260   Section       40  f20_1.o(.constdata)
    acGUI_Font20_1_00C4                      0x08020260   Data          40  f20_1.o(.constdata)
    .constdata                               0x08020288   Section       40  f20_1.o(.constdata)
    acGUI_Font20_1_00C5                      0x08020288   Data          40  f20_1.o(.constdata)
    .constdata                               0x080202b0   Section       60  f20_1.o(.constdata)
    acGUI_Font20_1_00C6                      0x080202b0   Data          60  f20_1.o(.constdata)
    .constdata                               0x080202ec   Section       40  f20_1.o(.constdata)
    acGUI_Font20_1_00C7                      0x080202ec   Data          40  f20_1.o(.constdata)
    .constdata                               0x08020314   Section       40  f20_1.o(.constdata)
    acGUI_Font20_1_00C8                      0x08020314   Data          40  f20_1.o(.constdata)
    .constdata                               0x0802033c   Section       40  f20_1.o(.constdata)
    acGUI_Font20_1_00C9                      0x0802033c   Data          40  f20_1.o(.constdata)
    .constdata                               0x08020364   Section       40  f20_1.o(.constdata)
    acGUI_Font20_1_00CA                      0x08020364   Data          40  f20_1.o(.constdata)
    .constdata                               0x0802038c   Section       40  f20_1.o(.constdata)
    acGUI_Font20_1_00CB                      0x0802038c   Data          40  f20_1.o(.constdata)
    .constdata                               0x080203b4   Section       20  f20_1.o(.constdata)
    acGUI_Font20_1_00CC                      0x080203b4   Data          20  f20_1.o(.constdata)
    .constdata                               0x080203c8   Section       20  f20_1.o(.constdata)
    acGUI_Font20_1_00CD                      0x080203c8   Data          20  f20_1.o(.constdata)
    .constdata                               0x080203dc   Section       20  f20_1.o(.constdata)
    acGUI_Font20_1_00CE                      0x080203dc   Data          20  f20_1.o(.constdata)
    .constdata                               0x080203f0   Section       20  f20_1.o(.constdata)
    acGUI_Font20_1_00CF                      0x080203f0   Data          20  f20_1.o(.constdata)
    .constdata                               0x08020404   Section       40  f20_1.o(.constdata)
    acGUI_Font20_1_00D0                      0x08020404   Data          40  f20_1.o(.constdata)
    .constdata                               0x0802042c   Section       40  f20_1.o(.constdata)
    acGUI_Font20_1_00D1                      0x0802042c   Data          40  f20_1.o(.constdata)
    .constdata                               0x08020454   Section       40  f20_1.o(.constdata)
    acGUI_Font20_1_00D2                      0x08020454   Data          40  f20_1.o(.constdata)
    .constdata                               0x0802047c   Section       40  f20_1.o(.constdata)
    acGUI_Font20_1_00D3                      0x0802047c   Data          40  f20_1.o(.constdata)
    .constdata                               0x080204a4   Section       40  f20_1.o(.constdata)
    acGUI_Font20_1_00D4                      0x080204a4   Data          40  f20_1.o(.constdata)
    .constdata                               0x080204cc   Section       40  f20_1.o(.constdata)
    acGUI_Font20_1_00D5                      0x080204cc   Data          40  f20_1.o(.constdata)
    .constdata                               0x080204f4   Section       40  f20_1.o(.constdata)
    acGUI_Font20_1_00D6                      0x080204f4   Data          40  f20_1.o(.constdata)
    .constdata                               0x0802051c   Section       40  f20_1.o(.constdata)
    acGUI_Font20_1_00D7                      0x0802051c   Data          40  f20_1.o(.constdata)
    .constdata                               0x08020544   Section       40  f20_1.o(.constdata)
    acGUI_Font20_1_00D8                      0x08020544   Data          40  f20_1.o(.constdata)
    .constdata                               0x0802056c   Section       40  f20_1.o(.constdata)
    acGUI_Font20_1_00D9                      0x0802056c   Data          40  f20_1.o(.constdata)
    .constdata                               0x08020594   Section       40  f20_1.o(.constdata)
    acGUI_Font20_1_00DA                      0x08020594   Data          40  f20_1.o(.constdata)
    .constdata                               0x080205bc   Section       40  f20_1.o(.constdata)
    acGUI_Font20_1_00DB                      0x080205bc   Data          40  f20_1.o(.constdata)
    .constdata                               0x080205e4   Section       40  f20_1.o(.constdata)
    acGUI_Font20_1_00DC                      0x080205e4   Data          40  f20_1.o(.constdata)
    .constdata                               0x0802060c   Section       40  f20_1.o(.constdata)
    acGUI_Font20_1_00DD                      0x0802060c   Data          40  f20_1.o(.constdata)
    .constdata                               0x08020634   Section       40  f20_1.o(.constdata)
    acGUI_Font20_1_00DE                      0x08020634   Data          40  f20_1.o(.constdata)
    .constdata                               0x0802065c   Section       40  f20_1.o(.constdata)
    acGUI_Font20_1_00DF                      0x0802065c   Data          40  f20_1.o(.constdata)
    .constdata                               0x08020684   Section       40  f20_1.o(.constdata)
    acGUI_Font20_1_00E0                      0x08020684   Data          40  f20_1.o(.constdata)
    .constdata                               0x080206ac   Section       40  f20_1.o(.constdata)
    acGUI_Font20_1_00E1                      0x080206ac   Data          40  f20_1.o(.constdata)
    .constdata                               0x080206d4   Section       40  f20_1.o(.constdata)
    acGUI_Font20_1_00E2                      0x080206d4   Data          40  f20_1.o(.constdata)
    .constdata                               0x080206fc   Section       40  f20_1.o(.constdata)
    acGUI_Font20_1_00E3                      0x080206fc   Data          40  f20_1.o(.constdata)
    .constdata                               0x08020724   Section       40  f20_1.o(.constdata)
    acGUI_Font20_1_00E4                      0x08020724   Data          40  f20_1.o(.constdata)
    .constdata                               0x0802074c   Section       40  f20_1.o(.constdata)
    acGUI_Font20_1_00E5                      0x0802074c   Data          40  f20_1.o(.constdata)
    .constdata                               0x08020774   Section       40  f20_1.o(.constdata)
    acGUI_Font20_1_00E6                      0x08020774   Data          40  f20_1.o(.constdata)
    .constdata                               0x0802079c   Section       40  f20_1.o(.constdata)
    acGUI_Font20_1_00E7                      0x0802079c   Data          40  f20_1.o(.constdata)
    .constdata                               0x080207c4   Section       40  f20_1.o(.constdata)
    acGUI_Font20_1_00E8                      0x080207c4   Data          40  f20_1.o(.constdata)
    .constdata                               0x080207ec   Section       40  f20_1.o(.constdata)
    acGUI_Font20_1_00E9                      0x080207ec   Data          40  f20_1.o(.constdata)
    .constdata                               0x08020814   Section       40  f20_1.o(.constdata)
    acGUI_Font20_1_00EA                      0x08020814   Data          40  f20_1.o(.constdata)
    .constdata                               0x0802083c   Section       40  f20_1.o(.constdata)
    acGUI_Font20_1_00EB                      0x0802083c   Data          40  f20_1.o(.constdata)
    .constdata                               0x08020864   Section       20  f20_1.o(.constdata)
    acGUI_Font20_1_00EC                      0x08020864   Data          20  f20_1.o(.constdata)
    .constdata                               0x08020878   Section       20  f20_1.o(.constdata)
    acGUI_Font20_1_00ED                      0x08020878   Data          20  f20_1.o(.constdata)
    .constdata                               0x0802088c   Section       20  f20_1.o(.constdata)
    acGUI_Font20_1_00EE                      0x0802088c   Data          20  f20_1.o(.constdata)
    .constdata                               0x080208a0   Section       20  f20_1.o(.constdata)
    acGUI_Font20_1_00EF                      0x080208a0   Data          20  f20_1.o(.constdata)
    .constdata                               0x080208b4   Section       40  f20_1.o(.constdata)
    acGUI_Font20_1_00F0                      0x080208b4   Data          40  f20_1.o(.constdata)
    .constdata                               0x080208dc   Section       40  f20_1.o(.constdata)
    acGUI_Font20_1_00F1                      0x080208dc   Data          40  f20_1.o(.constdata)
    .constdata                               0x08020904   Section       40  f20_1.o(.constdata)
    acGUI_Font20_1_00F2                      0x08020904   Data          40  f20_1.o(.constdata)
    .constdata                               0x0802092c   Section       40  f20_1.o(.constdata)
    acGUI_Font20_1_00F3                      0x0802092c   Data          40  f20_1.o(.constdata)
    .constdata                               0x08020954   Section       40  f20_1.o(.constdata)
    acGUI_Font20_1_00F4                      0x08020954   Data          40  f20_1.o(.constdata)
    .constdata                               0x0802097c   Section       40  f20_1.o(.constdata)
    acGUI_Font20_1_00F5                      0x0802097c   Data          40  f20_1.o(.constdata)
    .constdata                               0x080209a4   Section       40  f20_1.o(.constdata)
    acGUI_Font20_1_00F6                      0x080209a4   Data          40  f20_1.o(.constdata)
    .constdata                               0x080209cc   Section       40  f20_1.o(.constdata)
    acGUI_Font20_1_00F7                      0x080209cc   Data          40  f20_1.o(.constdata)
    .constdata                               0x080209f4   Section       40  f20_1.o(.constdata)
    acGUI_Font20_1_00F8                      0x080209f4   Data          40  f20_1.o(.constdata)
    .constdata                               0x08020a1c   Section       40  f20_1.o(.constdata)
    acGUI_Font20_1_00F9                      0x08020a1c   Data          40  f20_1.o(.constdata)
    .constdata                               0x08020a44   Section       40  f20_1.o(.constdata)
    acGUI_Font20_1_00FA                      0x08020a44   Data          40  f20_1.o(.constdata)
    .constdata                               0x08020a6c   Section       40  f20_1.o(.constdata)
    acGUI_Font20_1_00FB                      0x08020a6c   Data          40  f20_1.o(.constdata)
    .constdata                               0x08020a94   Section       40  f20_1.o(.constdata)
    acGUI_Font20_1_00FC                      0x08020a94   Data          40  f20_1.o(.constdata)
    .constdata                               0x08020abc   Section       40  f20_1.o(.constdata)
    acGUI_Font20_1_00FD                      0x08020abc   Data          40  f20_1.o(.constdata)
    .constdata                               0x08020ae4   Section       40  f20_1.o(.constdata)
    acGUI_Font20_1_00FE                      0x08020ae4   Data          40  f20_1.o(.constdata)
    .constdata                               0x08020b0c   Section       40  f20_1.o(.constdata)
    acGUI_Font20_1_00FF                      0x08020b0c   Data          40  f20_1.o(.constdata)
    .constdata                               0x08020b34   Section      768  f20_1.o(.constdata)
    GUI_Font20_1_CharInfo                    0x08020b34   Data         768  f20_1.o(.constdata)
    .constdata                               0x08020e34   Section       12  f20_1.o(.constdata)
    GUI_Font20_1_Prop0                       0x08020e34   Data          12  f20_1.o(.constdata)
    .constdata                               0x08020e40   Section       36  f20_1.o(.constdata)
    .constdata                               0x08020e64   Section      116  guidev_16.o(.constdata)
    _aID                                     0x08020e64   Data          64  guidev_16.o(.constdata)
    .constdata                               0x08020ed8   Section       32  gui__divtbl_31_255.o(.constdata)
    .constdata                               0x08020ef8   Section       64  gui__divtbl_63_255.o(.constdata)
    .constdata                               0x08020f38   Section      256  gui__divtbl_255_31.o(.constdata)
    .constdata                               0x08021038   Section      256  gui__divtbl_255_63.o(.constdata)
    .constdata                               0x08021138   Section      256  lcd_mirror.o(.constdata)
    .constdata                               0x08021238   Section       13  f13_1.o(.constdata)
    acFont13_1_00A0                          0x08021238   Data          13  f13_1.o(.constdata)
    .constdata                               0x08021245   Section       13  f13_1.o(.constdata)
    acFont13_1_00A1                          0x08021245   Data          13  f13_1.o(.constdata)
    .constdata                               0x08021252   Section       13  f13_1.o(.constdata)
    acFont13_1_00A2                          0x08021252   Data          13  f13_1.o(.constdata)
    .constdata                               0x0802125f   Section       13  f13_1.o(.constdata)
    acFont13_1_00A3                          0x0802125f   Data          13  f13_1.o(.constdata)
    .constdata                               0x0802126c   Section       13  f13_1.o(.constdata)
    acFont13_1_00A4                          0x0802126c   Data          13  f13_1.o(.constdata)
    .constdata                               0x08021279   Section       13  f13_1.o(.constdata)
    acFont13_1_00A5                          0x08021279   Data          13  f13_1.o(.constdata)
    .constdata                               0x08021286   Section       13  f13_1.o(.constdata)
    acFont13_1_00A6                          0x08021286   Data          13  f13_1.o(.constdata)
    .constdata                               0x08021293   Section       13  f13_1.o(.constdata)
    acFont13_1_00A7                          0x08021293   Data          13  f13_1.o(.constdata)
    .constdata                               0x080212a0   Section       13  f13_1.o(.constdata)
    acFont13_1_00A8                          0x080212a0   Data          13  f13_1.o(.constdata)
    .constdata                               0x080212ad   Section       26  f13_1.o(.constdata)
    acFont13_1_00A9                          0x080212ad   Data          26  f13_1.o(.constdata)
    .constdata                               0x080212c7   Section       13  f13_1.o(.constdata)
    acFont13_1_00AA                          0x080212c7   Data          13  f13_1.o(.constdata)
    .constdata                               0x080212d4   Section       13  f13_1.o(.constdata)
    acFont13_1_00AB                          0x080212d4   Data          13  f13_1.o(.constdata)
    .constdata                               0x080212e1   Section       13  f13_1.o(.constdata)
    acFont13_1_00AC                          0x080212e1   Data          13  f13_1.o(.constdata)
    .constdata                               0x080212ee   Section       13  f13_1.o(.constdata)
    acFont13_1_00AD                          0x080212ee   Data          13  f13_1.o(.constdata)
    .constdata                               0x080212fb   Section       26  f13_1.o(.constdata)
    acFont13_1_00AE                          0x080212fb   Data          26  f13_1.o(.constdata)
    .constdata                               0x08021315   Section       13  f13_1.o(.constdata)
    acFont13_1_00AF                          0x08021315   Data          13  f13_1.o(.constdata)
    .constdata                               0x08021322   Section       13  f13_1.o(.constdata)
    acFont13_1_00B0                          0x08021322   Data          13  f13_1.o(.constdata)
    .constdata                               0x0802132f   Section       13  f13_1.o(.constdata)
    acFont13_1_00B1                          0x0802132f   Data          13  f13_1.o(.constdata)
    .constdata                               0x0802133c   Section       13  f13_1.o(.constdata)
    acFont13_1_00B2                          0x0802133c   Data          13  f13_1.o(.constdata)
    .constdata                               0x08021349   Section       13  f13_1.o(.constdata)
    acFont13_1_00B3                          0x08021349   Data          13  f13_1.o(.constdata)
    .constdata                               0x08021356   Section       13  f13_1.o(.constdata)
    acFont13_1_00B4                          0x08021356   Data          13  f13_1.o(.constdata)
    .constdata                               0x08021363   Section       13  f13_1.o(.constdata)
    acFont13_1_00B5                          0x08021363   Data          13  f13_1.o(.constdata)
    .constdata                               0x08021370   Section       13  f13_1.o(.constdata)
    acFont13_1_00B6                          0x08021370   Data          13  f13_1.o(.constdata)
    .constdata                               0x0802137d   Section       13  f13_1.o(.constdata)
    acFont13_1_00B7                          0x0802137d   Data          13  f13_1.o(.constdata)
    .constdata                               0x0802138a   Section       13  f13_1.o(.constdata)
    acFont13_1_00B8                          0x0802138a   Data          13  f13_1.o(.constdata)
    .constdata                               0x08021397   Section       13  f13_1.o(.constdata)
    acFont13_1_00B9                          0x08021397   Data          13  f13_1.o(.constdata)
    .constdata                               0x080213a4   Section       13  f13_1.o(.constdata)
    acFont13_1_00BA                          0x080213a4   Data          13  f13_1.o(.constdata)
    .constdata                               0x080213b1   Section       13  f13_1.o(.constdata)
    acFont13_1_00BB                          0x080213b1   Data          13  f13_1.o(.constdata)
    .constdata                               0x080213be   Section       26  f13_1.o(.constdata)
    acFont13_1_00BC                          0x080213be   Data          26  f13_1.o(.constdata)
    .constdata                               0x080213d8   Section       26  f13_1.o(.constdata)
    acFont13_1_00BD                          0x080213d8   Data          26  f13_1.o(.constdata)
    .constdata                               0x080213f2   Section       26  f13_1.o(.constdata)
    acFont13_1_00BE                          0x080213f2   Data          26  f13_1.o(.constdata)
    .constdata                               0x0802140c   Section       13  f13_1.o(.constdata)
    acFont13_1_00BF                          0x0802140c   Data          13  f13_1.o(.constdata)
    .constdata                               0x08021419   Section       13  f13_1.o(.constdata)
    acFont13_1_00C0                          0x08021419   Data          13  f13_1.o(.constdata)
    .constdata                               0x08021426   Section       13  f13_1.o(.constdata)
    acFont13_1_00C1                          0x08021426   Data          13  f13_1.o(.constdata)
    .constdata                               0x08021433   Section       13  f13_1.o(.constdata)
    acFont13_1_00C2                          0x08021433   Data          13  f13_1.o(.constdata)
    .constdata                               0x08021440   Section       13  f13_1.o(.constdata)
    acFont13_1_00C3                          0x08021440   Data          13  f13_1.o(.constdata)
    .constdata                               0x0802144d   Section       13  f13_1.o(.constdata)
    acFont13_1_00C4                          0x0802144d   Data          13  f13_1.o(.constdata)
    .constdata                               0x0802145a   Section       13  f13_1.o(.constdata)
    acFont13_1_00C5                          0x0802145a   Data          13  f13_1.o(.constdata)
    .constdata                               0x08021467   Section       26  f13_1.o(.constdata)
    acFont13_1_00C6                          0x08021467   Data          26  f13_1.o(.constdata)
    .constdata                               0x08021481   Section       13  f13_1.o(.constdata)
    acFont13_1_00C7                          0x08021481   Data          13  f13_1.o(.constdata)
    .constdata                               0x0802148e   Section       13  f13_1.o(.constdata)
    acFont13_1_00C8                          0x0802148e   Data          13  f13_1.o(.constdata)
    .constdata                               0x0802149b   Section       13  f13_1.o(.constdata)
    acFont13_1_00C9                          0x0802149b   Data          13  f13_1.o(.constdata)
    .constdata                               0x080214a8   Section       13  f13_1.o(.constdata)
    acFont13_1_00CA                          0x080214a8   Data          13  f13_1.o(.constdata)
    .constdata                               0x080214b5   Section       13  f13_1.o(.constdata)
    acFont13_1_00CB                          0x080214b5   Data          13  f13_1.o(.constdata)
    .constdata                               0x080214c2   Section       13  f13_1.o(.constdata)
    acFont13_1_00CC                          0x080214c2   Data          13  f13_1.o(.constdata)
    .constdata                               0x080214cf   Section       13  f13_1.o(.constdata)
    acFont13_1_00CD                          0x080214cf   Data          13  f13_1.o(.constdata)
    .constdata                               0x080214dc   Section       13  f13_1.o(.constdata)
    acFont13_1_00CE                          0x080214dc   Data          13  f13_1.o(.constdata)
    .constdata                               0x080214e9   Section       13  f13_1.o(.constdata)
    acFont13_1_00CF                          0x080214e9   Data          13  f13_1.o(.constdata)
    .constdata                               0x080214f6   Section       13  f13_1.o(.constdata)
    acFont13_1_00D0                          0x080214f6   Data          13  f13_1.o(.constdata)
    .constdata                               0x08021503   Section       13  f13_1.o(.constdata)
    acFont13_1_00D1                          0x08021503   Data          13  f13_1.o(.constdata)
    .constdata                               0x08021510   Section       13  f13_1.o(.constdata)
    acFont13_1_00D2                          0x08021510   Data          13  f13_1.o(.constdata)
    .constdata                               0x0802151d   Section       13  f13_1.o(.constdata)
    acFont13_1_00D3                          0x0802151d   Data          13  f13_1.o(.constdata)
    .constdata                               0x0802152a   Section       13  f13_1.o(.constdata)
    acFont13_1_00D4                          0x0802152a   Data          13  f13_1.o(.constdata)
    .constdata                               0x08021537   Section       13  f13_1.o(.constdata)
    acFont13_1_00D5                          0x08021537   Data          13  f13_1.o(.constdata)
    .constdata                               0x08021544   Section       13  f13_1.o(.constdata)
    acFont13_1_00D6                          0x08021544   Data          13  f13_1.o(.constdata)
    .constdata                               0x08021551   Section       13  f13_1.o(.constdata)
    acFont13_1_00D7                          0x08021551   Data          13  f13_1.o(.constdata)
    .constdata                               0x0802155e   Section       13  f13_1.o(.constdata)
    acFont13_1_00D8                          0x0802155e   Data          13  f13_1.o(.constdata)
    .constdata                               0x0802156b   Section       13  f13_1.o(.constdata)
    acFont13_1_00D9                          0x0802156b   Data          13  f13_1.o(.constdata)
    .constdata                               0x08021578   Section       13  f13_1.o(.constdata)
    acFont13_1_00DA                          0x08021578   Data          13  f13_1.o(.constdata)
    .constdata                               0x08021585   Section       13  f13_1.o(.constdata)
    acFont13_1_00DB                          0x08021585   Data          13  f13_1.o(.constdata)
    .constdata                               0x08021592   Section       13  f13_1.o(.constdata)
    acFont13_1_00DC                          0x08021592   Data          13  f13_1.o(.constdata)
    .constdata                               0x0802159f   Section       13  f13_1.o(.constdata)
    acFont13_1_00DD                          0x0802159f   Data          13  f13_1.o(.constdata)
    .constdata                               0x080215ac   Section       13  f13_1.o(.constdata)
    acFont13_1_00DE                          0x080215ac   Data          13  f13_1.o(.constdata)
    .constdata                               0x080215b9   Section       13  f13_1.o(.constdata)
    acFont13_1_00DF                          0x080215b9   Data          13  f13_1.o(.constdata)
    .constdata                               0x080215c6   Section       13  f13_1.o(.constdata)
    acFont13_1_00E0                          0x080215c6   Data          13  f13_1.o(.constdata)
    .constdata                               0x080215d3   Section       13  f13_1.o(.constdata)
    acFont13_1_00E1                          0x080215d3   Data          13  f13_1.o(.constdata)
    .constdata                               0x080215e0   Section       13  f13_1.o(.constdata)
    acFont13_1_00E2                          0x080215e0   Data          13  f13_1.o(.constdata)
    .constdata                               0x080215ed   Section       13  f13_1.o(.constdata)
    acFont13_1_00E3                          0x080215ed   Data          13  f13_1.o(.constdata)
    .constdata                               0x080215fa   Section       13  f13_1.o(.constdata)
    acFont13_1_00E4                          0x080215fa   Data          13  f13_1.o(.constdata)
    .constdata                               0x08021607   Section       13  f13_1.o(.constdata)
    acFont13_1_00E5                          0x08021607   Data          13  f13_1.o(.constdata)
    .constdata                               0x08021614   Section       26  f13_1.o(.constdata)
    acFont13_1_00E6                          0x08021614   Data          26  f13_1.o(.constdata)
    .constdata                               0x0802162e   Section       13  f13_1.o(.constdata)
    acFont13_1_00E7                          0x0802162e   Data          13  f13_1.o(.constdata)
    .constdata                               0x0802163b   Section       13  f13_1.o(.constdata)
    acFont13_1_00E8                          0x0802163b   Data          13  f13_1.o(.constdata)
    .constdata                               0x08021648   Section       13  f13_1.o(.constdata)
    acFont13_1_00E9                          0x08021648   Data          13  f13_1.o(.constdata)
    .constdata                               0x08021655   Section       13  f13_1.o(.constdata)
    acFont13_1_00EA                          0x08021655   Data          13  f13_1.o(.constdata)
    .constdata                               0x08021662   Section       13  f13_1.o(.constdata)
    acFont13_1_00EB                          0x08021662   Data          13  f13_1.o(.constdata)
    .constdata                               0x0802166f   Section       13  f13_1.o(.constdata)
    acFont13_1_00EC                          0x0802166f   Data          13  f13_1.o(.constdata)
    .constdata                               0x0802167c   Section       13  f13_1.o(.constdata)
    acFont13_1_00ED                          0x0802167c   Data          13  f13_1.o(.constdata)
    .constdata                               0x08021689   Section       13  f13_1.o(.constdata)
    acFont13_1_00EE                          0x08021689   Data          13  f13_1.o(.constdata)
    .constdata                               0x08021696   Section       13  f13_1.o(.constdata)
    acFont13_1_00EF                          0x08021696   Data          13  f13_1.o(.constdata)
    .constdata                               0x080216a3   Section       13  f13_1.o(.constdata)
    acFont13_1_00F0                          0x080216a3   Data          13  f13_1.o(.constdata)
    .constdata                               0x080216b0   Section       13  f13_1.o(.constdata)
    acFont13_1_00F1                          0x080216b0   Data          13  f13_1.o(.constdata)
    .constdata                               0x080216bd   Section       13  f13_1.o(.constdata)
    acFont13_1_00F2                          0x080216bd   Data          13  f13_1.o(.constdata)
    .constdata                               0x080216ca   Section       13  f13_1.o(.constdata)
    acFont13_1_00F3                          0x080216ca   Data          13  f13_1.o(.constdata)
    .constdata                               0x080216d7   Section       13  f13_1.o(.constdata)
    acFont13_1_00F4                          0x080216d7   Data          13  f13_1.o(.constdata)
    .constdata                               0x080216e4   Section       13  f13_1.o(.constdata)
    acFont13_1_00F5                          0x080216e4   Data          13  f13_1.o(.constdata)
    .constdata                               0x080216f1   Section       13  f13_1.o(.constdata)
    acFont13_1_00F6                          0x080216f1   Data          13  f13_1.o(.constdata)
    .constdata                               0x080216fe   Section       13  f13_1.o(.constdata)
    acFont13_1_00F7                          0x080216fe   Data          13  f13_1.o(.constdata)
    .constdata                               0x0802170b   Section       13  f13_1.o(.constdata)
    acFont13_1_00F8                          0x0802170b   Data          13  f13_1.o(.constdata)
    .constdata                               0x08021718   Section       13  f13_1.o(.constdata)
    acFont13_1_00F9                          0x08021718   Data          13  f13_1.o(.constdata)
    .constdata                               0x08021725   Section       13  f13_1.o(.constdata)
    acFont13_1_00FA                          0x08021725   Data          13  f13_1.o(.constdata)
    .constdata                               0x08021732   Section       13  f13_1.o(.constdata)
    acFont13_1_00FB                          0x08021732   Data          13  f13_1.o(.constdata)
    .constdata                               0x0802173f   Section       13  f13_1.o(.constdata)
    acFont13_1_00FC                          0x0802173f   Data          13  f13_1.o(.constdata)
    .constdata                               0x0802174c   Section       13  f13_1.o(.constdata)
    acFont13_1_00FD                          0x0802174c   Data          13  f13_1.o(.constdata)
    .constdata                               0x08021759   Section       13  f13_1.o(.constdata)
    acFont13_1_00FE                          0x08021759   Data          13  f13_1.o(.constdata)
    .constdata                               0x08021766   Section       13  f13_1.o(.constdata)
    acFont13_1_00FF                          0x08021766   Data          13  f13_1.o(.constdata)
    .constdata                               0x08021774   Section      768  f13_1.o(.constdata)
    GUI_Font13_1_CharInfo                    0x08021774   Data         768  f13_1.o(.constdata)
    .constdata                               0x08021a74   Section       12  f13_1.o(.constdata)
    GUI_Font13_1_Prop1                       0x08021a74   Data          12  f13_1.o(.constdata)
    .constdata                               0x08021a80   Section       36  f13_1.o(.constdata)
    .constdata                               0x08021aa4   Section       16  f16_ascii.o(.constdata)
    acFont16ASCII_32                         0x08021aa4   Data          16  f16_ascii.o(.constdata)
    .constdata                               0x08021ab4   Section       16  f16_ascii.o(.constdata)
    acFont16ASCII_33                         0x08021ab4   Data          16  f16_ascii.o(.constdata)
    .constdata                               0x08021ac4   Section       16  f16_ascii.o(.constdata)
    acFont16ASCII_34                         0x08021ac4   Data          16  f16_ascii.o(.constdata)
    .constdata                               0x08021ad4   Section       16  f16_ascii.o(.constdata)
    acFont16ASCII_35                         0x08021ad4   Data          16  f16_ascii.o(.constdata)
    .constdata                               0x08021ae4   Section       16  f16_ascii.o(.constdata)
    acFont16ASCII_36                         0x08021ae4   Data          16  f16_ascii.o(.constdata)
